{
	"Exchange.sol": {
		"Exchange": {
			"abi": [
				{
					"inputs": [
						{
							"internalType": "address",
							"name": "tokenAddress",
							"type": "address"
						},
						{
							"internalType": "address",
							"name": "_signer",
							"type": "address"
						}
					],
					"stateMutability": "nonpayable",
					"type": "constructor"
				},
				{
					"anonymous": false,
					"inputs": [
						{
							"indexed": false,
							"internalType": "uint256",
							"name": "amount",
							"type": "uint256"
						}
					],
					"name": "Deposit",
					"type": "event"
				},
				{
					"anonymous": false,
					"inputs": [
						{
							"indexed": true,
							"internalType": "address",
							"name": "previousOwner",
							"type": "address"
						},
						{
							"indexed": true,
							"internalType": "address",
							"name": "newOwner",
							"type": "address"
						}
					],
					"name": "OwnershipTransferred",
					"type": "event"
				},
				{
					"anonymous": false,
					"inputs": [
						{
							"indexed": false,
							"internalType": "address",
							"name": "token",
							"type": "address"
						},
						{
							"indexed": false,
							"internalType": "uint256",
							"name": "amount",
							"type": "uint256"
						}
					],
					"name": "RecoveredERC20",
					"type": "event"
				},
				{
					"anonymous": false,
					"inputs": [
						{
							"indexed": true,
							"internalType": "bytes32",
							"name": "role",
							"type": "bytes32"
						},
						{
							"indexed": true,
							"internalType": "bytes32",
							"name": "previousAdminRole",
							"type": "bytes32"
						},
						{
							"indexed": true,
							"internalType": "bytes32",
							"name": "newAdminRole",
							"type": "bytes32"
						}
					],
					"name": "RoleAdminChanged",
					"type": "event"
				},
				{
					"anonymous": false,
					"inputs": [
						{
							"indexed": true,
							"internalType": "bytes32",
							"name": "role",
							"type": "bytes32"
						},
						{
							"indexed": true,
							"internalType": "address",
							"name": "account",
							"type": "address"
						},
						{
							"indexed": true,
							"internalType": "address",
							"name": "sender",
							"type": "address"
						}
					],
					"name": "RoleGranted",
					"type": "event"
				},
				{
					"anonymous": false,
					"inputs": [
						{
							"indexed": true,
							"internalType": "bytes32",
							"name": "role",
							"type": "bytes32"
						},
						{
							"indexed": true,
							"internalType": "address",
							"name": "account",
							"type": "address"
						},
						{
							"indexed": true,
							"internalType": "address",
							"name": "sender",
							"type": "address"
						}
					],
					"name": "RoleRevoked",
					"type": "event"
				},
				{
					"anonymous": false,
					"inputs": [
						{
							"indexed": false,
							"internalType": "uint256",
							"name": "amount",
							"type": "uint256"
						},
						{
							"indexed": false,
							"internalType": "uint256",
							"name": "nonce",
							"type": "uint256"
						}
					],
					"name": "Withdraw",
					"type": "event"
				},
				{
					"inputs": [],
					"name": "DEFAULT_ADMIN_ROLE",
					"outputs": [
						{
							"internalType": "bytes32",
							"name": "",
							"type": "bytes32"
						}
					],
					"stateMutability": "view",
					"type": "function"
				},
				{
					"inputs": [],
					"name": "SIGNER_ROLE",
					"outputs": [
						{
							"internalType": "bytes32",
							"name": "",
							"type": "bytes32"
						}
					],
					"stateMutability": "view",
					"type": "function"
				},
				{
					"inputs": [
						{
							"internalType": "uint256",
							"name": "amount",
							"type": "uint256"
						}
					],
					"name": "deposit",
					"outputs": [],
					"stateMutability": "nonpayable",
					"type": "function"
				},
				{
					"inputs": [
						{
							"internalType": "bytes32",
							"name": "role",
							"type": "bytes32"
						}
					],
					"name": "getRoleAdmin",
					"outputs": [
						{
							"internalType": "bytes32",
							"name": "",
							"type": "bytes32"
						}
					],
					"stateMutability": "view",
					"type": "function"
				},
				{
					"inputs": [
						{
							"internalType": "bytes32",
							"name": "role",
							"type": "bytes32"
						},
						{
							"internalType": "uint256",
							"name": "index",
							"type": "uint256"
						}
					],
					"name": "getRoleMember",
					"outputs": [
						{
							"internalType": "address",
							"name": "",
							"type": "address"
						}
					],
					"stateMutability": "view",
					"type": "function"
				},
				{
					"inputs": [
						{
							"internalType": "bytes32",
							"name": "role",
							"type": "bytes32"
						}
					],
					"name": "getRoleMemberCount",
					"outputs": [
						{
							"internalType": "uint256",
							"name": "",
							"type": "uint256"
						}
					],
					"stateMutability": "view",
					"type": "function"
				},
				{
					"inputs": [
						{
							"internalType": "bytes32",
							"name": "role",
							"type": "bytes32"
						},
						{
							"internalType": "address",
							"name": "account",
							"type": "address"
						}
					],
					"name": "grantRole",
					"outputs": [],
					"stateMutability": "nonpayable",
					"type": "function"
				},
				{
					"inputs": [
						{
							"internalType": "bytes32",
							"name": "role",
							"type": "bytes32"
						},
						{
							"internalType": "address",
							"name": "account",
							"type": "address"
						}
					],
					"name": "hasRole",
					"outputs": [
						{
							"internalType": "bool",
							"name": "",
							"type": "bool"
						}
					],
					"stateMutability": "view",
					"type": "function"
				},
				{
					"inputs": [],
					"name": "owner",
					"outputs": [
						{
							"internalType": "address",
							"name": "",
							"type": "address"
						}
					],
					"stateMutability": "view",
					"type": "function"
				},
				{
					"inputs": [
						{
							"internalType": "address",
							"name": "tokenAddress",
							"type": "address"
						},
						{
							"internalType": "uint256",
							"name": "tokenAmount",
							"type": "uint256"
						}
					],
					"name": "recoverERC20",
					"outputs": [],
					"stateMutability": "nonpayable",
					"type": "function"
				},
				{
					"inputs": [],
					"name": "renounceOwnership",
					"outputs": [],
					"stateMutability": "nonpayable",
					"type": "function"
				},
				{
					"inputs": [
						{
							"internalType": "bytes32",
							"name": "role",
							"type": "bytes32"
						},
						{
							"internalType": "address",
							"name": "account",
							"type": "address"
						}
					],
					"name": "renounceRole",
					"outputs": [],
					"stateMutability": "nonpayable",
					"type": "function"
				},
				{
					"inputs": [
						{
							"internalType": "bytes32",
							"name": "role",
							"type": "bytes32"
						},
						{
							"internalType": "address",
							"name": "account",
							"type": "address"
						}
					],
					"name": "revokeRole",
					"outputs": [],
					"stateMutability": "nonpayable",
					"type": "function"
				},
				{
					"inputs": [
						{
							"internalType": "address",
							"name": "tokenAddress",
							"type": "address"
						}
					],
					"name": "setTokenAddress",
					"outputs": [],
					"stateMutability": "nonpayable",
					"type": "function"
				},
				{
					"inputs": [
						{
							"internalType": "bytes4",
							"name": "interfaceId",
							"type": "bytes4"
						}
					],
					"name": "supportsInterface",
					"outputs": [
						{
							"internalType": "bool",
							"name": "",
							"type": "bool"
						}
					],
					"stateMutability": "view",
					"type": "function"
				},
				{
					"inputs": [],
					"name": "token",
					"outputs": [
						{
							"internalType": "address",
							"name": "",
							"type": "address"
						}
					],
					"stateMutability": "view",
					"type": "function"
				},
				{
					"inputs": [
						{
							"internalType": "address",
							"name": "newOwner",
							"type": "address"
						}
					],
					"name": "transferOwnership",
					"outputs": [],
					"stateMutability": "nonpayable",
					"type": "function"
				},
				{
					"inputs": [
						{
							"internalType": "uint256",
							"name": "amount",
							"type": "uint256"
						},
						{
							"internalType": "uint256",
							"name": "nonce",
							"type": "uint256"
						},
						{
							"internalType": "bytes",
							"name": "signature",
							"type": "bytes"
						}
					],
					"name": "withdraw",
					"outputs": [],
					"stateMutability": "nonpayable",
					"type": "function"
				}
			],
			"devdoc": {
				"events": {
					"RoleAdminChanged(bytes32,bytes32,bytes32)": {
						"details": "Emitted when `newAdminRole` is set as ``role``'s admin role, replacing `previousAdminRole` `DEFAULT_ADMIN_ROLE` is the starting admin for all roles, despite {RoleAdminChanged} not being emitted signaling this. _Available since v3.1._"
					},
					"RoleGranted(bytes32,address,address)": {
						"details": "Emitted when `account` is granted `role`. `sender` is the account that originated the contract call, an admin role bearer except when using {AccessControl-_setupRole}."
					},
					"RoleRevoked(bytes32,address,address)": {
						"details": "Emitted when `account` is revoked `role`. `sender` is the account that originated the contract call:   - if using `revokeRole`, it is the admin role bearer   - if using `renounceRole`, it is the role bearer (i.e. `account`)"
					}
				},
				"kind": "dev",
				"methods": {
					"getRoleAdmin(bytes32)": {
						"details": "Returns the admin role that controls `role`. See {grantRole} and {revokeRole}. To change a role's admin, use {_setRoleAdmin}."
					},
					"getRoleMember(bytes32,uint256)": {
						"details": "Returns one of the accounts that have `role`. `index` must be a value between 0 and {getRoleMemberCount}, non-inclusive. Role bearers are not sorted in any particular way, and their ordering may change at any point. WARNING: When using {getRoleMember} and {getRoleMemberCount}, make sure you perform all queries on the same block. See the following https://forum.openzeppelin.com/t/iterating-over-elements-on-enumerableset-in-openzeppelin-contracts/2296[forum post] for more information."
					},
					"getRoleMemberCount(bytes32)": {
						"details": "Returns the number of accounts that have `role`. Can be used together with {getRoleMember} to enumerate all bearers of a role."
					},
					"grantRole(bytes32,address)": {
						"details": "Grants `role` to `account`. If `account` had not been already granted `role`, emits a {RoleGranted} event. Requirements: - the caller must have ``role``'s admin role. May emit a {RoleGranted} event."
					},
					"hasRole(bytes32,address)": {
						"details": "Returns `true` if `account` has been granted `role`."
					},
					"owner()": {
						"details": "Returns the address of the current owner."
					},
					"renounceOwnership()": {
						"details": "Leaves the contract without owner. It will not be possible to call `onlyOwner` functions anymore. Can only be called by the current owner. NOTE: Renouncing ownership will leave the contract without an owner, thereby removing any functionality that is only available to the owner."
					},
					"renounceRole(bytes32,address)": {
						"details": "Revokes `role` from the calling account. Roles are often managed via {grantRole} and {revokeRole}: this function's purpose is to provide a mechanism for accounts to lose their privileges if they are compromised (such as when a trusted device is misplaced). If the calling account had been revoked `role`, emits a {RoleRevoked} event. Requirements: - the caller must be `account`. May emit a {RoleRevoked} event."
					},
					"revokeRole(bytes32,address)": {
						"details": "Revokes `role` from `account`. If `account` had been granted `role`, emits a {RoleRevoked} event. Requirements: - the caller must have ``role``'s admin role. May emit a {RoleRevoked} event."
					},
					"supportsInterface(bytes4)": {
						"details": "See {IERC165-supportsInterface}."
					},
					"transferOwnership(address)": {
						"details": "Transfers ownership of the contract to a new account (`newOwner`). Can only be called by the current owner."
					}
				},
				"version": 1
			},
			"evm": {
				"assembly": "    /* \"Exchange.sol\":255:3643  contract Exchange is AccessControlEnumerable, Ownable {... */\n  mstore(0x40, 0x80)\n    /* \"Exchange.sol\":656:846  constructor(address tokenAddress, address _signer) {... */\n  callvalue\n  dup1\n  iszero\n  tag_1\n  jumpi\n  0x00\n  dup1\n  revert\ntag_1:\n  pop\n  mload(0x40)\n  sub(codesize, bytecodeSize)\n  dup1\n  bytecodeSize\n  dup4\n  codecopy\n  dup2\n  dup2\n  add\n  0x40\n  mstore\n  dup2\n  add\n  swap1\n  tag_2\n  swap2\n  swap1\n  tag_3\n  jump\t// in\ntag_2:\n    /* \"@openzeppelin/contracts/access/Ownable.sol\":936:968  _transferOwnership(_msgSender()) */\n  tag_7\n    /* \"@openzeppelin/contracts/access/Ownable.sol\":955:967  _msgSender() */\n  tag_8\n    /* \"@openzeppelin/contracts/access/Ownable.sol\":955:965  _msgSender */\n  shl(0x20, tag_9)\n    /* \"@openzeppelin/contracts/access/Ownable.sol\":955:967  _msgSender() */\n  0x20\n  shr\n  jump\t// in\ntag_8:\n    /* \"@openzeppelin/contracts/access/Ownable.sol\":936:954  _transferOwnership */\n  shl(0x20, tag_10)\n    /* \"@openzeppelin/contracts/access/Ownable.sol\":936:968  _transferOwnership(_msgSender()) */\n  0x20\n  shr\n  jump\t// in\ntag_7:\n    /* \"Exchange.sol\":726:738  tokenAddress */\n  dup2\n    /* \"Exchange.sol\":718:723  token */\n  0x03\n  0x00\n    /* \"Exchange.sol\":718:738  token = tokenAddress */\n  0x0100\n  exp\n  dup2\n  sload\n  dup2\n  0xffffffffffffffffffffffffffffffffffffffff\n  mul\n  not\n  and\n  swap1\n  dup4\n  0xffffffffffffffffffffffffffffffffffffffff\n  and\n  mul\n  or\n  swap1\n  sstore\n  pop\n    /* \"Exchange.sol\":751:795  _setupRole(DEFAULT_ADMIN_ROLE, _msgSender()) */\n  tag_12\n    /* \"@openzeppelin/contracts/access/AccessControl.sol\":2072:2076  0x00 */\n  0x00\n    /* \"Exchange.sol\":762:780  DEFAULT_ADMIN_ROLE */\n  dup1\n  shl\n    /* \"Exchange.sol\":782:794  _msgSender() */\n  tag_13\n    /* \"Exchange.sol\":782:792  _msgSender */\n  shl(0x20, tag_9)\n    /* \"Exchange.sol\":782:794  _msgSender() */\n  0x20\n  shr\n  jump\t// in\ntag_13:\n    /* \"Exchange.sol\":751:761  _setupRole */\n  shl(0x20, tag_14)\n    /* \"Exchange.sol\":751:795  _setupRole(DEFAULT_ADMIN_ROLE, _msgSender()) */\n  0x20\n  shr\n  jump\t// in\ntag_12:\n    /* \"Exchange.sol\":806:838  _setupRole(SIGNER_ROLE, _signer) */\n  tag_15\n    /* \"Exchange.sol\":354:378  keccak256(\"SIGNER_ROLE\") */\n  0xe2f4eaae4a9751e85a3e4a7b9587827a877f29914755229b07a7b2da98285f70\n    /* \"Exchange.sol\":830:837  _signer */\n  dup3\n    /* \"Exchange.sol\":806:816  _setupRole */\n  shl(0x20, tag_14)\n    /* \"Exchange.sol\":806:838  _setupRole(SIGNER_ROLE, _signer) */\n  0x20\n  shr\n  jump\t// in\ntag_15:\n    /* \"Exchange.sol\":656:846  constructor(address tokenAddress, address _signer) {... */\n  pop\n  pop\n    /* \"Exchange.sol\":255:3643  contract Exchange is AccessControlEnumerable, Ownable {... */\n  jump(tag_16)\n    /* \"@openzeppelin/contracts/utils/Context.sol\":640:736  function _msgSender() internal view virtual returns (address) {... */\ntag_9:\n    /* \"@openzeppelin/contracts/utils/Context.sol\":693:700  address */\n  0x00\n    /* \"@openzeppelin/contracts/utils/Context.sol\":719:729  msg.sender */\n  caller\n    /* \"@openzeppelin/contracts/utils/Context.sol\":712:729  return msg.sender */\n  swap1\n  pop\n    /* \"@openzeppelin/contracts/utils/Context.sol\":640:736  function _msgSender() internal view virtual returns (address) {... */\n  swap1\n  jump\t// out\n    /* \"@openzeppelin/contracts/access/Ownable.sol\":2433:2620  function _transferOwnership(address newOwner) internal virtual {... */\ntag_10:\n    /* \"@openzeppelin/contracts/access/Ownable.sol\":2506:2522  address oldOwner */\n  0x00\n    /* \"@openzeppelin/contracts/access/Ownable.sol\":2525:2531  _owner */\n  0x02\n  0x00\n  swap1\n  sload\n  swap1\n  0x0100\n  exp\n  swap1\n  div\n  0xffffffffffffffffffffffffffffffffffffffff\n  and\n    /* \"@openzeppelin/contracts/access/Ownable.sol\":2506:2531  address oldOwner = _owner */\n  swap1\n  pop\n    /* \"@openzeppelin/contracts/access/Ownable.sol\":2550:2558  newOwner */\n  dup2\n    /* \"@openzeppelin/contracts/access/Ownable.sol\":2541:2547  _owner */\n  0x02\n  0x00\n    /* \"@openzeppelin/contracts/access/Ownable.sol\":2541:2558  _owner = newOwner */\n  0x0100\n  exp\n  dup2\n  sload\n  dup2\n  0xffffffffffffffffffffffffffffffffffffffff\n  mul\n  not\n  and\n  swap1\n  dup4\n  0xffffffffffffffffffffffffffffffffffffffff\n  and\n  mul\n  or\n  swap1\n  sstore\n  pop\n    /* \"@openzeppelin/contracts/access/Ownable.sol\":2604:2612  newOwner */\n  dup2\n    /* \"@openzeppelin/contracts/access/Ownable.sol\":2573:2613  OwnershipTransferred(oldOwner, newOwner) */\n  0xffffffffffffffffffffffffffffffffffffffff\n  and\n    /* \"@openzeppelin/contracts/access/Ownable.sol\":2594:2602  oldOwner */\n  dup2\n    /* \"@openzeppelin/contracts/access/Ownable.sol\":2573:2613  OwnershipTransferred(oldOwner, newOwner) */\n  0xffffffffffffffffffffffffffffffffffffffff\n  and\n  0x8be0079c531659141344cd1fd0a4f28419497f9722a3daafe3b4186f6b6457e0\n  mload(0x40)\n  mload(0x40)\n  dup1\n  swap2\n  sub\n  swap1\n  log3\n    /* \"@openzeppelin/contracts/access/Ownable.sol\":2496:2620  {... */\n  pop\n    /* \"@openzeppelin/contracts/access/Ownable.sol\":2433:2620  function _transferOwnership(address newOwner) internal virtual {... */\n  pop\n  jump\t// out\n    /* \"@openzeppelin/contracts/access/AccessControl.sol\":6824:6934  function _setupRole(bytes32 role, address account) internal virtual {... */\ntag_14:\n    /* \"@openzeppelin/contracts/access/AccessControl.sol\":6902:6927  _grantRole(role, account) */\n  tag_20\n    /* \"@openzeppelin/contracts/access/AccessControl.sol\":6913:6917  role */\n  dup3\n    /* \"@openzeppelin/contracts/access/AccessControl.sol\":6919:6926  account */\n  dup3\n    /* \"@openzeppelin/contracts/access/AccessControl.sol\":6902:6912  _grantRole */\n  shl(0x20, tag_21)\n    /* \"@openzeppelin/contracts/access/AccessControl.sol\":6902:6927  _grantRole(role, account) */\n  0x20\n  shr\n  jump\t// in\ntag_20:\n    /* \"@openzeppelin/contracts/access/AccessControl.sol\":6824:6934  function _setupRole(bytes32 role, address account) internal virtual {... */\n  pop\n  pop\n  jump\t// out\n    /* \"@openzeppelin/contracts/access/AccessControlEnumerable.sol\":1978:2144  function _grantRole(bytes32 role, address account) internal virtual override {... */\ntag_21:\n    /* \"@openzeppelin/contracts/access/AccessControlEnumerable.sol\":2065:2096  super._grantRole(role, account) */\n  tag_23\n    /* \"@openzeppelin/contracts/access/AccessControlEnumerable.sol\":2082:2086  role */\n  dup3\n    /* \"@openzeppelin/contracts/access/AccessControlEnumerable.sol\":2088:2095  account */\n  dup3\n    /* \"@openzeppelin/contracts/access/AccessControlEnumerable.sol\":2065:2081  super._grantRole */\n  shl(0x20, tag_24)\n    /* \"@openzeppelin/contracts/access/AccessControlEnumerable.sol\":2065:2096  super._grantRole(role, account) */\n  0x20\n  shr\n  jump\t// in\ntag_23:\n    /* \"@openzeppelin/contracts/access/AccessControlEnumerable.sol\":2106:2137  _roleMembers[role].add(account) */\n  tag_25\n    /* \"@openzeppelin/contracts/access/AccessControlEnumerable.sol\":2129:2136  account */\n  dup2\n    /* \"@openzeppelin/contracts/access/AccessControlEnumerable.sol\":2106:2118  _roleMembers */\n  0x01\n    /* \"@openzeppelin/contracts/access/AccessControlEnumerable.sol\":2106:2124  _roleMembers[role] */\n  0x00\n    /* \"@openzeppelin/contracts/access/AccessControlEnumerable.sol\":2119:2123  role */\n  dup6\n    /* \"@openzeppelin/contracts/access/AccessControlEnumerable.sol\":2106:2124  _roleMembers[role] */\n  dup2\n  mstore\n  0x20\n  add\n  swap1\n  dup2\n  mstore\n  0x20\n  add\n  0x00\n  keccak256\n    /* \"@openzeppelin/contracts/access/AccessControlEnumerable.sol\":2106:2128  _roleMembers[role].add */\n  shl(0x20, tag_26)\n  swap1\n    /* \"@openzeppelin/contracts/access/AccessControlEnumerable.sol\":2106:2137  _roleMembers[role].add(account) */\n  swap2\n  swap1\n  0x20\n  shr\n  jump\t// in\ntag_25:\n  pop\n    /* \"@openzeppelin/contracts/access/AccessControlEnumerable.sol\":1978:2144  function _grantRole(bytes32 role, address account) internal virtual override {... */\n  pop\n  pop\n  jump\t// out\n    /* \"@openzeppelin/contracts/access/AccessControl.sol\":7474:7707  function _grantRole(bytes32 role, address account) internal virtual {... */\ntag_24:\n    /* \"@openzeppelin/contracts/access/AccessControl.sol\":7557:7579  hasRole(role, account) */\n  tag_28\n    /* \"@openzeppelin/contracts/access/AccessControl.sol\":7565:7569  role */\n  dup3\n    /* \"@openzeppelin/contracts/access/AccessControl.sol\":7571:7578  account */\n  dup3\n    /* \"@openzeppelin/contracts/access/AccessControl.sol\":7557:7564  hasRole */\n  shl(0x20, tag_29)\n    /* \"@openzeppelin/contracts/access/AccessControl.sol\":7557:7579  hasRole(role, account) */\n  0x20\n  shr\n  jump\t// in\ntag_28:\n    /* \"@openzeppelin/contracts/access/AccessControl.sol\":7552:7701  if (!hasRole(role, account)) {... */\n  tag_30\n  jumpi\n    /* \"@openzeppelin/contracts/access/AccessControl.sol\":7627:7631  true */\n  0x01\n    /* \"@openzeppelin/contracts/access/AccessControl.sol\":7595:7601  _roles */\n  0x00\n    /* \"@openzeppelin/contracts/access/AccessControl.sol\":7595:7607  _roles[role] */\n  dup1\n    /* \"@openzeppelin/contracts/access/AccessControl.sol\":7602:7606  role */\n  dup5\n    /* \"@openzeppelin/contracts/access/AccessControl.sol\":7595:7607  _roles[role] */\n  dup2\n  mstore\n  0x20\n  add\n  swap1\n  dup2\n  mstore\n  0x20\n  add\n  0x00\n  keccak256\n    /* \"@openzeppelin/contracts/access/AccessControl.sol\":7595:7615  _roles[role].members */\n  0x00\n  add\n    /* \"@openzeppelin/contracts/access/AccessControl.sol\":7595:7624  _roles[role].members[account] */\n  0x00\n    /* \"@openzeppelin/contracts/access/AccessControl.sol\":7616:7623  account */\n  dup4\n    /* \"@openzeppelin/contracts/access/AccessControl.sol\":7595:7624  _roles[role].members[account] */\n  0xffffffffffffffffffffffffffffffffffffffff\n  and\n  0xffffffffffffffffffffffffffffffffffffffff\n  and\n  dup2\n  mstore\n  0x20\n  add\n  swap1\n  dup2\n  mstore\n  0x20\n  add\n  0x00\n  keccak256\n  0x00\n    /* \"@openzeppelin/contracts/access/AccessControl.sol\":7595:7631  _roles[role].members[account] = true */\n  0x0100\n  exp\n  dup2\n  sload\n  dup2\n  0xff\n  mul\n  not\n  and\n  swap1\n  dup4\n  iszero\n  iszero\n  mul\n  or\n  swap1\n  sstore\n  pop\n    /* \"@openzeppelin/contracts/access/AccessControl.sol\":7677:7689  _msgSender() */\n  tag_31\n    /* \"@openzeppelin/contracts/access/AccessControl.sol\":7677:7687  _msgSender */\n  shl(0x20, tag_9)\n    /* \"@openzeppelin/contracts/access/AccessControl.sol\":7677:7689  _msgSender() */\n  0x20\n  shr\n  jump\t// in\ntag_31:\n    /* \"@openzeppelin/contracts/access/AccessControl.sol\":7650:7690  RoleGranted(role, account, _msgSender()) */\n  0xffffffffffffffffffffffffffffffffffffffff\n  and\n    /* \"@openzeppelin/contracts/access/AccessControl.sol\":7668:7675  account */\n  dup2\n    /* \"@openzeppelin/contracts/access/AccessControl.sol\":7650:7690  RoleGranted(role, account, _msgSender()) */\n  0xffffffffffffffffffffffffffffffffffffffff\n  and\n    /* \"@openzeppelin/contracts/access/AccessControl.sol\":7662:7666  role */\n  dup4\n    /* \"@openzeppelin/contracts/access/AccessControl.sol\":7650:7690  RoleGranted(role, account, _msgSender()) */\n  0x2f8788117e7eff1d82e926ec794901d17c78024a50270940304540a733656f0d\n  mload(0x40)\n  mload(0x40)\n  dup1\n  swap2\n  sub\n  swap1\n  log4\n    /* \"@openzeppelin/contracts/access/AccessControl.sol\":7552:7701  if (!hasRole(role, account)) {... */\ntag_30:\n    /* \"@openzeppelin/contracts/access/AccessControl.sol\":7474:7707  function _grantRole(bytes32 role, address account) internal virtual {... */\n  pop\n  pop\n  jump\t// out\n    /* \"@openzeppelin/contracts/utils/structs/EnumerableSet.sol\":8028:8178  function add(AddressSet storage set, address value) internal returns (bool) {... */\ntag_26:\n    /* \"@openzeppelin/contracts/utils/structs/EnumerableSet.sol\":8098:8102  bool */\n  0x00\n    /* \"@openzeppelin/contracts/utils/structs/EnumerableSet.sol\":8121:8171  _add(set._inner, bytes32(uint256(uint160(value)))) */\n  tag_33\n    /* \"@openzeppelin/contracts/utils/structs/EnumerableSet.sol\":8126:8129  set */\n  dup4\n    /* \"@openzeppelin/contracts/utils/structs/EnumerableSet.sol\":8126:8136  set._inner */\n  0x00\n  add\n    /* \"@openzeppelin/contracts/utils/structs/EnumerableSet.sol\":8162:8167  value */\n  dup4\n    /* \"@openzeppelin/contracts/utils/structs/EnumerableSet.sol\":8146:8169  uint256(uint160(value)) */\n  0xffffffffffffffffffffffffffffffffffffffff\n  and\n    /* \"@openzeppelin/contracts/utils/structs/EnumerableSet.sol\":8138:8170  bytes32(uint256(uint160(value))) */\n  0x00\n  shl\n    /* \"@openzeppelin/contracts/utils/structs/EnumerableSet.sol\":8121:8125  _add */\n  shl(0x20, tag_34)\n    /* \"@openzeppelin/contracts/utils/structs/EnumerableSet.sol\":8121:8171  _add(set._inner, bytes32(uint256(uint160(value)))) */\n  0x20\n  shr\n  jump\t// in\ntag_33:\n    /* \"@openzeppelin/contracts/utils/structs/EnumerableSet.sol\":8114:8171  return _add(set._inner, bytes32(uint256(uint160(value)))) */\n  swap1\n  pop\n    /* \"@openzeppelin/contracts/utils/structs/EnumerableSet.sol\":8028:8178  function add(AddressSet storage set, address value) internal returns (bool) {... */\n  swap3\n  swap2\n  pop\n  pop\n  jump\t// out\n    /* \"@openzeppelin/contracts/access/AccessControl.sol\":2895:3040  function hasRole(bytes32 role, address account) public view virtual override returns (bool) {... */\ntag_29:\n    /* \"@openzeppelin/contracts/access/AccessControl.sol\":2981:2985  bool */\n  0x00\n    /* \"@openzeppelin/contracts/access/AccessControl.sol\":3004:3010  _roles */\n  dup1\n    /* \"@openzeppelin/contracts/access/AccessControl.sol\":3004:3016  _roles[role] */\n  0x00\n    /* \"@openzeppelin/contracts/access/AccessControl.sol\":3011:3015  role */\n  dup5\n    /* \"@openzeppelin/contracts/access/AccessControl.sol\":3004:3016  _roles[role] */\n  dup2\n  mstore\n  0x20\n  add\n  swap1\n  dup2\n  mstore\n  0x20\n  add\n  0x00\n  keccak256\n    /* \"@openzeppelin/contracts/access/AccessControl.sol\":3004:3024  _roles[role].members */\n  0x00\n  add\n    /* \"@openzeppelin/contracts/access/AccessControl.sol\":3004:3033  _roles[role].members[account] */\n  0x00\n    /* \"@openzeppelin/contracts/access/AccessControl.sol\":3025:3032  account */\n  dup4\n    /* \"@openzeppelin/contracts/access/AccessControl.sol\":3004:3033  _roles[role].members[account] */\n  0xffffffffffffffffffffffffffffffffffffffff\n  and\n  0xffffffffffffffffffffffffffffffffffffffff\n  and\n  dup2\n  mstore\n  0x20\n  add\n  swap1\n  dup2\n  mstore\n  0x20\n  add\n  0x00\n  keccak256\n  0x00\n  swap1\n  sload\n  swap1\n  0x0100\n  exp\n  swap1\n  div\n  0xff\n  and\n    /* \"@openzeppelin/contracts/access/AccessControl.sol\":2997:3033  return _roles[role].members[account] */\n  swap1\n  pop\n    /* \"@openzeppelin/contracts/access/AccessControl.sol\":2895:3040  function hasRole(bytes32 role, address account) public view virtual override returns (bool) {... */\n  swap3\n  swap2\n  pop\n  pop\n  jump\t// out\n    /* \"@openzeppelin/contracts/utils/structs/EnumerableSet.sol\":2113:2517  function _add(Set storage set, bytes32 value) private returns (bool) {... */\ntag_34:\n    /* \"@openzeppelin/contracts/utils/structs/EnumerableSet.sol\":2176:2180  bool */\n  0x00\n    /* \"@openzeppelin/contracts/utils/structs/EnumerableSet.sol\":2197:2218  _contains(set, value) */\n  tag_37\n    /* \"@openzeppelin/contracts/utils/structs/EnumerableSet.sol\":2207:2210  set */\n  dup4\n    /* \"@openzeppelin/contracts/utils/structs/EnumerableSet.sol\":2212:2217  value */\n  dup4\n    /* \"@openzeppelin/contracts/utils/structs/EnumerableSet.sol\":2197:2206  _contains */\n  shl(0x20, tag_38)\n    /* \"@openzeppelin/contracts/utils/structs/EnumerableSet.sol\":2197:2218  _contains(set, value) */\n  0x20\n  shr\n  jump\t// in\ntag_37:\n    /* \"@openzeppelin/contracts/utils/structs/EnumerableSet.sol\":2192:2511  if (!_contains(set, value)) {... */\n  tag_39\n  jumpi\n    /* \"@openzeppelin/contracts/utils/structs/EnumerableSet.sol\":2234:2237  set */\n  dup3\n    /* \"@openzeppelin/contracts/utils/structs/EnumerableSet.sol\":2234:2245  set._values */\n  0x00\n  add\n    /* \"@openzeppelin/contracts/utils/structs/EnumerableSet.sol\":2251:2256  value */\n  dup3\n    /* \"@openzeppelin/contracts/utils/structs/EnumerableSet.sol\":2234:2257  set._values.push(value) */\n  swap1\n  dup1\n  0x01\n  dup2\n  sload\n  add\n  dup1\n  dup3\n  sstore\n  dup1\n  swap2\n  pop\n  pop\n  0x01\n  swap1\n  sub\n  swap1\n  0x00\n  mstore\n  keccak256(0x00, 0x20)\n  add\n  0x00\n  swap1\n  swap2\n  swap1\n  swap2\n  swap1\n  swap2\n  pop\n  sstore\n    /* \"@openzeppelin/contracts/utils/structs/EnumerableSet.sol\":2414:2417  set */\n  dup3\n    /* \"@openzeppelin/contracts/utils/structs/EnumerableSet.sol\":2414:2425  set._values */\n  0x00\n  add\n    /* \"@openzeppelin/contracts/utils/structs/EnumerableSet.sol\":2414:2432  set._values.length */\n  dup1\n  sload\n  swap1\n  pop\n    /* \"@openzeppelin/contracts/utils/structs/EnumerableSet.sol\":2392:2395  set */\n  dup4\n    /* \"@openzeppelin/contracts/utils/structs/EnumerableSet.sol\":2392:2404  set._indexes */\n  0x01\n  add\n    /* \"@openzeppelin/contracts/utils/structs/EnumerableSet.sol\":2392:2411  set._indexes[value] */\n  0x00\n    /* \"@openzeppelin/contracts/utils/structs/EnumerableSet.sol\":2405:2410  value */\n  dup5\n    /* \"@openzeppelin/contracts/utils/structs/EnumerableSet.sol\":2392:2411  set._indexes[value] */\n  dup2\n  mstore\n  0x20\n  add\n  swap1\n  dup2\n  mstore\n  0x20\n  add\n  0x00\n  keccak256\n    /* \"@openzeppelin/contracts/utils/structs/EnumerableSet.sol\":2392:2432  set._indexes[value] = set._values.length */\n  dup2\n  swap1\n  sstore\n  pop\n    /* \"@openzeppelin/contracts/utils/structs/EnumerableSet.sol\":2453:2457  true */\n  0x01\n    /* \"@openzeppelin/contracts/utils/structs/EnumerableSet.sol\":2446:2457  return true */\n  swap1\n  pop\n  jump(tag_36)\n    /* \"@openzeppelin/contracts/utils/structs/EnumerableSet.sol\":2192:2511  if (!_contains(set, value)) {... */\ntag_39:\n    /* \"@openzeppelin/contracts/utils/structs/EnumerableSet.sol\":2495:2500  false */\n  0x00\n    /* \"@openzeppelin/contracts/utils/structs/EnumerableSet.sol\":2488:2500  return false */\n  swap1\n  pop\n    /* \"@openzeppelin/contracts/utils/structs/EnumerableSet.sol\":2113:2517  function _add(Set storage set, bytes32 value) private returns (bool) {... */\ntag_36:\n  swap3\n  swap2\n  pop\n  pop\n  jump\t// out\n    /* \"@openzeppelin/contracts/utils/structs/EnumerableSet.sol\":4154:4281  function _contains(Set storage set, bytes32 value) private view returns (bool) {... */\ntag_38:\n    /* \"@openzeppelin/contracts/utils/structs/EnumerableSet.sol\":4227:4231  bool */\n  0x00\n    /* \"@openzeppelin/contracts/utils/structs/EnumerableSet.sol\":4273:4274  0 */\n  dup1\n    /* \"@openzeppelin/contracts/utils/structs/EnumerableSet.sol\":4250:4253  set */\n  dup4\n    /* \"@openzeppelin/contracts/utils/structs/EnumerableSet.sol\":4250:4262  set._indexes */\n  0x01\n  add\n    /* \"@openzeppelin/contracts/utils/structs/EnumerableSet.sol\":4250:4269  set._indexes[value] */\n  0x00\n    /* \"@openzeppelin/contracts/utils/structs/EnumerableSet.sol\":4263:4268  value */\n  dup5\n    /* \"@openzeppelin/contracts/utils/structs/EnumerableSet.sol\":4250:4269  set._indexes[value] */\n  dup2\n  mstore\n  0x20\n  add\n  swap1\n  dup2\n  mstore\n  0x20\n  add\n  0x00\n  keccak256\n  sload\n    /* \"@openzeppelin/contracts/utils/structs/EnumerableSet.sol\":4250:4274  set._indexes[value] != 0 */\n  eq\n  iszero\n    /* \"@openzeppelin/contracts/utils/structs/EnumerableSet.sol\":4243:4274  return set._indexes[value] != 0 */\n  swap1\n  pop\n    /* \"@openzeppelin/contracts/utils/structs/EnumerableSet.sol\":4154:4281  function _contains(Set storage set, bytes32 value) private view returns (bool) {... */\n  swap3\n  swap2\n  pop\n  pop\n  jump\t// out\n    /* \"#utility.yul\":88:205   */\ntag_44:\n    /* \"#utility.yul\":197:198   */\n  0x00\n    /* \"#utility.yul\":194:195   */\n  dup1\n    /* \"#utility.yul\":187:199   */\n  revert\n    /* \"#utility.yul\":334:460   */\ntag_46:\n    /* \"#utility.yul\":371:378   */\n  0x00\n    /* \"#utility.yul\":411:453   */\n  0xffffffffffffffffffffffffffffffffffffffff\n    /* \"#utility.yul\":404:409   */\n  dup3\n    /* \"#utility.yul\":400:454   */\n  and\n    /* \"#utility.yul\":389:454   */\n  swap1\n  pop\n    /* \"#utility.yul\":334:460   */\n  swap2\n  swap1\n  pop\n  jump\t// out\n    /* \"#utility.yul\":466:562   */\ntag_47:\n    /* \"#utility.yul\":503:510   */\n  0x00\n    /* \"#utility.yul\":532:556   */\n  tag_56\n    /* \"#utility.yul\":550:555   */\n  dup3\n    /* \"#utility.yul\":532:556   */\n  tag_46\n  jump\t// in\ntag_56:\n    /* \"#utility.yul\":521:556   */\n  swap1\n  pop\n    /* \"#utility.yul\":466:562   */\n  swap2\n  swap1\n  pop\n  jump\t// out\n    /* \"#utility.yul\":568:690   */\ntag_48:\n    /* \"#utility.yul\":641:665   */\n  tag_58\n    /* \"#utility.yul\":659:664   */\n  dup2\n    /* \"#utility.yul\":641:665   */\n  tag_47\n  jump\t// in\ntag_58:\n    /* \"#utility.yul\":634:639   */\n  dup2\n    /* \"#utility.yul\":631:666   */\n  eq\n    /* \"#utility.yul\":621:684   */\n  tag_59\n  jumpi\n    /* \"#utility.yul\":680:681   */\n  0x00\n    /* \"#utility.yul\":677:678   */\n  dup1\n    /* \"#utility.yul\":670:682   */\n  revert\n    /* \"#utility.yul\":621:684   */\ntag_59:\n    /* \"#utility.yul\":568:690   */\n  pop\n  jump\t// out\n    /* \"#utility.yul\":696:839   */\ntag_49:\n    /* \"#utility.yul\":753:758   */\n  0x00\n    /* \"#utility.yul\":784:790   */\n  dup2\n    /* \"#utility.yul\":778:791   */\n  mload\n    /* \"#utility.yul\":769:791   */\n  swap1\n  pop\n    /* \"#utility.yul\":800:833   */\n  tag_61\n    /* \"#utility.yul\":827:832   */\n  dup2\n    /* \"#utility.yul\":800:833   */\n  tag_48\n  jump\t// in\ntag_61:\n    /* \"#utility.yul\":696:839   */\n  swap3\n  swap2\n  pop\n  pop\n  jump\t// out\n    /* \"#utility.yul\":845:1352   */\ntag_3:\n    /* \"#utility.yul\":924:930   */\n  0x00\n    /* \"#utility.yul\":932:938   */\n  dup1\n    /* \"#utility.yul\":981:983   */\n  0x40\n    /* \"#utility.yul\":969:978   */\n  dup4\n    /* \"#utility.yul\":960:967   */\n  dup6\n    /* \"#utility.yul\":956:979   */\n  sub\n    /* \"#utility.yul\":952:984   */\n  slt\n    /* \"#utility.yul\":949:1068   */\n  iszero\n  tag_63\n  jumpi\n    /* \"#utility.yul\":987:1066   */\n  tag_64\n  tag_44\n  jump\t// in\ntag_64:\n    /* \"#utility.yul\":949:1068   */\ntag_63:\n    /* \"#utility.yul\":1107:1108   */\n  0x00\n    /* \"#utility.yul\":1132:1196   */\n  tag_65\n    /* \"#utility.yul\":1188:1195   */\n  dup6\n    /* \"#utility.yul\":1179:1185   */\n  dup3\n    /* \"#utility.yul\":1168:1177   */\n  dup7\n    /* \"#utility.yul\":1164:1186   */\n  add\n    /* \"#utility.yul\":1132:1196   */\n  tag_49\n  jump\t// in\ntag_65:\n    /* \"#utility.yul\":1122:1196   */\n  swap3\n  pop\n    /* \"#utility.yul\":1078:1206   */\n  pop\n    /* \"#utility.yul\":1245:1247   */\n  0x20\n    /* \"#utility.yul\":1271:1335   */\n  tag_66\n    /* \"#utility.yul\":1327:1334   */\n  dup6\n    /* \"#utility.yul\":1318:1324   */\n  dup3\n    /* \"#utility.yul\":1307:1316   */\n  dup7\n    /* \"#utility.yul\":1303:1325   */\n  add\n    /* \"#utility.yul\":1271:1335   */\n  tag_49\n  jump\t// in\ntag_66:\n    /* \"#utility.yul\":1261:1335   */\n  swap2\n  pop\n    /* \"#utility.yul\":1216:1345   */\n  pop\n    /* \"#utility.yul\":845:1352   */\n  swap3\n  pop\n  swap3\n  swap1\n  pop\n  jump\t// out\n    /* \"Exchange.sol\":255:3643  contract Exchange is AccessControlEnumerable, Ownable {... */\ntag_16:\n  dataSize(sub_0)\n  dup1\n  dataOffset(sub_0)\n  0x00\n  codecopy\n  0x00\n  return\nstop\n\nsub_0: assembly {\n        /* \"Exchange.sol\":255:3643  contract Exchange is AccessControlEnumerable, Ownable {... */\n      mstore(0x40, 0x80)\n      callvalue\n      dup1\n      iszero\n      tag_1\n      jumpi\n      0x00\n      dup1\n      revert\n    tag_1:\n      pop\n      jumpi(tag_2, lt(calldatasize, 0x04))\n      shr(0xe0, calldataload(0x00))\n      dup1\n      0x9010d07c\n      gt\n      tag_21\n      jumpi\n      dup1\n      0xb6b55f25\n      gt\n      tag_22\n      jumpi\n      dup1\n      0xb6b55f25\n      eq\n      tag_16\n      jumpi\n      dup1\n      0xca15c873\n      eq\n      tag_17\n      jumpi\n      dup1\n      0xd547741f\n      eq\n      tag_18\n      jumpi\n      dup1\n      0xf2fde38b\n      eq\n      tag_19\n      jumpi\n      dup1\n      0xfc0c546a\n      eq\n      tag_20\n      jumpi\n      jump(tag_2)\n    tag_22:\n      dup1\n      0x9010d07c\n      eq\n      tag_12\n      jumpi\n      dup1\n      0x91d14854\n      eq\n      tag_13\n      jumpi\n      dup1\n      0xa1ebf35d\n      eq\n      tag_14\n      jumpi\n      dup1\n      0xa217fddf\n      eq\n      tag_15\n      jumpi\n      jump(tag_2)\n    tag_21:\n      dup1\n      0x36568abe\n      gt\n      tag_23\n      jumpi\n      dup1\n      0x36568abe\n      eq\n      tag_7\n      jumpi\n      dup1\n      0x715018a6\n      eq\n      tag_8\n      jumpi\n      dup1\n      0x744fb6ca\n      eq\n      tag_9\n      jumpi\n      dup1\n      0x8980f11f\n      eq\n      tag_10\n      jumpi\n      dup1\n      0x8da5cb5b\n      eq\n      tag_11\n      jumpi\n      jump(tag_2)\n    tag_23:\n      dup1\n      0x01ffc9a7\n      eq\n      tag_3\n      jumpi\n      dup1\n      0x248a9ca3\n      eq\n      tag_4\n      jumpi\n      dup1\n      0x26a4e8d2\n      eq\n      tag_5\n      jumpi\n      dup1\n      0x2f2ff15d\n      eq\n      tag_6\n      jumpi\n    tag_2:\n      0x00\n      dup1\n      revert\n        /* \"@openzeppelin/contracts/access/AccessControlEnumerable.sol\":634:846  function supportsInterface(bytes4 interfaceId) public view virtual override returns (bool) {... */\n    tag_3:\n      tag_24\n      0x04\n      dup1\n      calldatasize\n      sub\n      dup2\n      add\n      swap1\n      tag_25\n      swap2\n      swap1\n      tag_26\n      jump\t// in\n    tag_25:\n      tag_27\n      jump\t// in\n    tag_24:\n      mload(0x40)\n      tag_28\n      swap2\n      swap1\n      tag_29\n      jump\t// in\n    tag_28:\n      mload(0x40)\n      dup1\n      swap2\n      sub\n      swap1\n      return\n        /* \"@openzeppelin/contracts/access/AccessControl.sol\":4391:4520  function getRoleAdmin(bytes32 role) public view virtual override returns (bytes32) {... */\n    tag_4:\n      tag_30\n      0x04\n      dup1\n      calldatasize\n      sub\n      dup2\n      add\n      swap1\n      tag_31\n      swap2\n      swap1\n      tag_32\n      jump\t// in\n    tag_31:\n      tag_33\n      jump\t// in\n    tag_30:\n      mload(0x40)\n      tag_34\n      swap2\n      swap1\n      tag_35\n      jump\t// in\n    tag_34:\n      mload(0x40)\n      dup1\n      swap2\n      sub\n      swap1\n      return\n        /* \"Exchange.sol\":1100:1205  function setTokenAddress(address tokenAddress) external onlyOwner {... */\n    tag_5:\n      tag_36\n      0x04\n      dup1\n      calldatasize\n      sub\n      dup2\n      add\n      swap1\n      tag_37\n      swap2\n      swap1\n      tag_38\n      jump\t// in\n    tag_37:\n      tag_39\n      jump\t// in\n    tag_36:\n      stop\n        /* \"@openzeppelin/contracts/access/AccessControl.sol\":4816:4961  function grantRole(bytes32 role, address account) public virtual override onlyRole(getRoleAdmin(role)) {... */\n    tag_6:\n      tag_40\n      0x04\n      dup1\n      calldatasize\n      sub\n      dup2\n      add\n      swap1\n      tag_41\n      swap2\n      swap1\n      tag_42\n      jump\t// in\n    tag_41:\n      tag_43\n      jump\t// in\n    tag_40:\n      stop\n        /* \"@openzeppelin/contracts/access/AccessControl.sol\":5925:6139  function renounceRole(bytes32 role, address account) public virtual override {... */\n    tag_7:\n      tag_44\n      0x04\n      dup1\n      calldatasize\n      sub\n      dup2\n      add\n      swap1\n      tag_45\n      swap2\n      swap1\n      tag_42\n      jump\t// in\n    tag_45:\n      tag_46\n      jump\t// in\n    tag_44:\n      stop\n        /* \"@openzeppelin/contracts/access/Ownable.sol\":1831:1932  function renounceOwnership() public virtual onlyOwner {... */\n    tag_8:\n      tag_47\n      tag_48\n      jump\t// in\n    tag_47:\n      stop\n        /* \"Exchange.sol\":1382:2022  function withdraw(... */\n    tag_9:\n      tag_49\n      0x04\n      dup1\n      calldatasize\n      sub\n      dup2\n      add\n      swap1\n      tag_50\n      swap2\n      swap1\n      tag_51\n      jump\t// in\n    tag_50:\n      tag_52\n      jump\t// in\n    tag_49:\n      stop\n        /* \"Exchange.sol\":854:1092  function recoverERC20(address tokenAddress, uint256 tokenAmount)... */\n    tag_10:\n      tag_53\n      0x04\n      dup1\n      calldatasize\n      sub\n      dup2\n      add\n      swap1\n      tag_54\n      swap2\n      swap1\n      tag_55\n      jump\t// in\n    tag_54:\n      tag_56\n      jump\t// in\n    tag_53:\n      stop\n        /* \"@openzeppelin/contracts/access/Ownable.sol\":1201:1286  function owner() public view virtual returns (address) {... */\n    tag_11:\n      tag_57\n      tag_58\n      jump\t// in\n    tag_57:\n      mload(0x40)\n      tag_59\n      swap2\n      swap1\n      tag_60\n      jump\t// in\n    tag_59:\n      mload(0x40)\n      dup1\n      swap2\n      sub\n      swap1\n      return\n        /* \"@openzeppelin/contracts/access/AccessControlEnumerable.sol\":1431:1582  function getRoleMember(bytes32 role, uint256 index) public view virtual override returns (address) {... */\n    tag_12:\n      tag_61\n      0x04\n      dup1\n      calldatasize\n      sub\n      dup2\n      add\n      swap1\n      tag_62\n      swap2\n      swap1\n      tag_63\n      jump\t// in\n    tag_62:\n      tag_64\n      jump\t// in\n    tag_61:\n      mload(0x40)\n      tag_65\n      swap2\n      swap1\n      tag_60\n      jump\t// in\n    tag_65:\n      mload(0x40)\n      dup1\n      swap2\n      sub\n      swap1\n      return\n        /* \"@openzeppelin/contracts/access/AccessControl.sol\":2895:3040  function hasRole(bytes32 role, address account) public view virtual override returns (bool) {... */\n    tag_13:\n      tag_66\n      0x04\n      dup1\n      calldatasize\n      sub\n      dup2\n      add\n      swap1\n      tag_67\n      swap2\n      swap1\n      tag_42\n      jump\t// in\n    tag_67:\n      tag_68\n      jump\t// in\n    tag_66:\n      mload(0x40)\n      tag_69\n      swap2\n      swap1\n      tag_29\n      jump\t// in\n    tag_69:\n      mload(0x40)\n      dup1\n      swap2\n      sub\n      swap1\n      return\n        /* \"Exchange.sol\":316:378  bytes32 public constant SIGNER_ROLE = keccak256(\"SIGNER_ROLE\") */\n    tag_14:\n      tag_70\n      tag_71\n      jump\t// in\n    tag_70:\n      mload(0x40)\n      tag_72\n      swap2\n      swap1\n      tag_35\n      jump\t// in\n    tag_72:\n      mload(0x40)\n      dup1\n      swap2\n      sub\n      swap1\n      return\n        /* \"@openzeppelin/contracts/access/AccessControl.sol\":2027:2076  bytes32 public constant DEFAULT_ADMIN_ROLE = 0x00 */\n    tag_15:\n      tag_73\n      tag_74\n      jump\t// in\n    tag_73:\n      mload(0x40)\n      tag_75\n      swap2\n      swap1\n      tag_35\n      jump\t// in\n    tag_75:\n      mload(0x40)\n      dup1\n      swap2\n      sub\n      swap1\n      return\n        /* \"Exchange.sol\":1213:1374  function deposit(uint256 amount) external {... */\n    tag_16:\n      tag_76\n      0x04\n      dup1\n      calldatasize\n      sub\n      dup2\n      add\n      swap1\n      tag_77\n      swap2\n      swap1\n      tag_78\n      jump\t// in\n    tag_77:\n      tag_79\n      jump\t// in\n    tag_76:\n      stop\n        /* \"@openzeppelin/contracts/access/AccessControlEnumerable.sol\":1750:1890  function getRoleMemberCount(bytes32 role) public view virtual override returns (uint256) {... */\n    tag_17:\n      tag_80\n      0x04\n      dup1\n      calldatasize\n      sub\n      dup2\n      add\n      swap1\n      tag_81\n      swap2\n      swap1\n      tag_32\n      jump\t// in\n    tag_81:\n      tag_82\n      jump\t// in\n    tag_80:\n      mload(0x40)\n      tag_83\n      swap2\n      swap1\n      tag_84\n      jump\t// in\n    tag_83:\n      mload(0x40)\n      dup1\n      swap2\n      sub\n      swap1\n      return\n        /* \"@openzeppelin/contracts/access/AccessControl.sol\":5241:5388  function revokeRole(bytes32 role, address account) public virtual override onlyRole(getRoleAdmin(role)) {... */\n    tag_18:\n      tag_85\n      0x04\n      dup1\n      calldatasize\n      sub\n      dup2\n      add\n      swap1\n      tag_86\n      swap2\n      swap1\n      tag_42\n      jump\t// in\n    tag_86:\n      tag_87\n      jump\t// in\n    tag_85:\n      stop\n        /* \"@openzeppelin/contracts/access/Ownable.sol\":2081:2279  function transferOwnership(address newOwner) public virtual onlyOwner {... */\n    tag_19:\n      tag_88\n      0x04\n      dup1\n      calldatasize\n      sub\n      dup2\n      add\n      swap1\n      tag_89\n      swap2\n      swap1\n      tag_38\n      jump\t// in\n    tag_89:\n      tag_90\n      jump\t// in\n    tag_88:\n      stop\n        /* \"Exchange.sol\":422:442  address public token */\n    tag_20:\n      tag_91\n      tag_92\n      jump\t// in\n    tag_91:\n      mload(0x40)\n      tag_93\n      swap2\n      swap1\n      tag_60\n      jump\t// in\n    tag_93:\n      mload(0x40)\n      dup1\n      swap2\n      sub\n      swap1\n      return\n        /* \"@openzeppelin/contracts/access/AccessControlEnumerable.sol\":634:846  function supportsInterface(bytes4 interfaceId) public view virtual override returns (bool) {... */\n    tag_27:\n        /* \"@openzeppelin/contracts/access/AccessControlEnumerable.sol\":719:723  bool */\n      0x00\n        /* \"@openzeppelin/contracts/access/AccessControlEnumerable.sol\":757:799  type(IAccessControlEnumerable).interfaceId */\n      0x5a05180f00000000000000000000000000000000000000000000000000000000\n        /* \"@openzeppelin/contracts/access/AccessControlEnumerable.sol\":742:799  interfaceId == type(IAccessControlEnumerable).interfaceId */\n      not(0xffffffffffffffffffffffffffffffffffffffffffffffffffffffff)\n      and\n        /* \"@openzeppelin/contracts/access/AccessControlEnumerable.sol\":742:753  interfaceId */\n      dup3\n        /* \"@openzeppelin/contracts/access/AccessControlEnumerable.sol\":742:799  interfaceId == type(IAccessControlEnumerable).interfaceId */\n      not(0xffffffffffffffffffffffffffffffffffffffffffffffffffffffff)\n      and\n      eq\n        /* \"@openzeppelin/contracts/access/AccessControlEnumerable.sol\":742:839  interfaceId == type(IAccessControlEnumerable).interfaceId || super.supportsInterface(interfaceId) */\n      dup1\n      tag_95\n      jumpi\n      pop\n        /* \"@openzeppelin/contracts/access/AccessControlEnumerable.sol\":803:839  super.supportsInterface(interfaceId) */\n      tag_96\n        /* \"@openzeppelin/contracts/access/AccessControlEnumerable.sol\":827:838  interfaceId */\n      dup3\n        /* \"@openzeppelin/contracts/access/AccessControlEnumerable.sol\":803:826  super.supportsInterface */\n      tag_97\n        /* \"@openzeppelin/contracts/access/AccessControlEnumerable.sol\":803:839  super.supportsInterface(interfaceId) */\n      jump\t// in\n    tag_96:\n        /* \"@openzeppelin/contracts/access/AccessControlEnumerable.sol\":742:839  interfaceId == type(IAccessControlEnumerable).interfaceId || super.supportsInterface(interfaceId) */\n    tag_95:\n        /* \"@openzeppelin/contracts/access/AccessControlEnumerable.sol\":735:839  return interfaceId == type(IAccessControlEnumerable).interfaceId || super.supportsInterface(interfaceId) */\n      swap1\n      pop\n        /* \"@openzeppelin/contracts/access/AccessControlEnumerable.sol\":634:846  function supportsInterface(bytes4 interfaceId) public view virtual override returns (bool) {... */\n      swap2\n      swap1\n      pop\n      jump\t// out\n        /* \"@openzeppelin/contracts/access/AccessControl.sol\":4391:4520  function getRoleAdmin(bytes32 role) public view virtual override returns (bytes32) {... */\n    tag_33:\n        /* \"@openzeppelin/contracts/access/AccessControl.sol\":4465:4472  bytes32 */\n      0x00\n        /* \"@openzeppelin/contracts/access/AccessControl.sol\":4491:4497  _roles */\n      dup1\n        /* \"@openzeppelin/contracts/access/AccessControl.sol\":4491:4503  _roles[role] */\n      0x00\n        /* \"@openzeppelin/contracts/access/AccessControl.sol\":4498:4502  role */\n      dup4\n        /* \"@openzeppelin/contracts/access/AccessControl.sol\":4491:4503  _roles[role] */\n      dup2\n      mstore\n      0x20\n      add\n      swap1\n      dup2\n      mstore\n      0x20\n      add\n      0x00\n      keccak256\n        /* \"@openzeppelin/contracts/access/AccessControl.sol\":4491:4513  _roles[role].adminRole */\n      0x01\n      add\n      sload\n        /* \"@openzeppelin/contracts/access/AccessControl.sol\":4484:4513  return _roles[role].adminRole */\n      swap1\n      pop\n        /* \"@openzeppelin/contracts/access/AccessControl.sol\":4391:4520  function getRoleAdmin(bytes32 role) public view virtual override returns (bytes32) {... */\n      swap2\n      swap1\n      pop\n      jump\t// out\n        /* \"Exchange.sol\":1100:1205  function setTokenAddress(address tokenAddress) external onlyOwner {... */\n    tag_39:\n        /* \"@openzeppelin/contracts/access/Ownable.sol\":1094:1107  _checkOwner() */\n      tag_100\n        /* \"@openzeppelin/contracts/access/Ownable.sol\":1094:1105  _checkOwner */\n      tag_101\n        /* \"@openzeppelin/contracts/access/Ownable.sol\":1094:1107  _checkOwner() */\n      jump\t// in\n    tag_100:\n        /* \"Exchange.sol\":1185:1197  tokenAddress */\n      dup1\n        /* \"Exchange.sol\":1177:1182  token */\n      0x03\n      0x00\n        /* \"Exchange.sol\":1177:1197  token = tokenAddress */\n      0x0100\n      exp\n      dup2\n      sload\n      dup2\n      0xffffffffffffffffffffffffffffffffffffffff\n      mul\n      not\n      and\n      swap1\n      dup4\n      0xffffffffffffffffffffffffffffffffffffffff\n      and\n      mul\n      or\n      swap1\n      sstore\n      pop\n        /* \"Exchange.sol\":1100:1205  function setTokenAddress(address tokenAddress) external onlyOwner {... */\n      pop\n      jump\t// out\n        /* \"@openzeppelin/contracts/access/AccessControl.sol\":4816:4961  function grantRole(bytes32 role, address account) public virtual override onlyRole(getRoleAdmin(role)) {... */\n    tag_43:\n        /* \"@openzeppelin/contracts/access/AccessControl.sol\":4899:4917  getRoleAdmin(role) */\n      tag_103\n        /* \"@openzeppelin/contracts/access/AccessControl.sol\":4912:4916  role */\n      dup3\n        /* \"@openzeppelin/contracts/access/AccessControl.sol\":4899:4911  getRoleAdmin */\n      tag_33\n        /* \"@openzeppelin/contracts/access/AccessControl.sol\":4899:4917  getRoleAdmin(role) */\n      jump\t// in\n    tag_103:\n        /* \"@openzeppelin/contracts/access/AccessControl.sol\":2505:2521  _checkRole(role) */\n      tag_105\n        /* \"@openzeppelin/contracts/access/AccessControl.sol\":2516:2520  role */\n      dup2\n        /* \"@openzeppelin/contracts/access/AccessControl.sol\":2505:2515  _checkRole */\n      tag_106\n        /* \"@openzeppelin/contracts/access/AccessControl.sol\":2505:2521  _checkRole(role) */\n      jump\t// in\n    tag_105:\n        /* \"@openzeppelin/contracts/access/AccessControl.sol\":4929:4954  _grantRole(role, account) */\n      tag_108\n        /* \"@openzeppelin/contracts/access/AccessControl.sol\":4940:4944  role */\n      dup4\n        /* \"@openzeppelin/contracts/access/AccessControl.sol\":4946:4953  account */\n      dup4\n        /* \"@openzeppelin/contracts/access/AccessControl.sol\":4929:4939  _grantRole */\n      tag_109\n        /* \"@openzeppelin/contracts/access/AccessControl.sol\":4929:4954  _grantRole(role, account) */\n      jump\t// in\n    tag_108:\n        /* \"@openzeppelin/contracts/access/AccessControl.sol\":4816:4961  function grantRole(bytes32 role, address account) public virtual override onlyRole(getRoleAdmin(role)) {... */\n      pop\n      pop\n      pop\n      jump\t// out\n        /* \"@openzeppelin/contracts/access/AccessControl.sol\":5925:6139  function renounceRole(bytes32 role, address account) public virtual override {... */\n    tag_46:\n        /* \"@openzeppelin/contracts/access/AccessControl.sol\":6031:6043  _msgSender() */\n      tag_111\n        /* \"@openzeppelin/contracts/access/AccessControl.sol\":6031:6041  _msgSender */\n      tag_112\n        /* \"@openzeppelin/contracts/access/AccessControl.sol\":6031:6043  _msgSender() */\n      jump\t// in\n    tag_111:\n        /* \"@openzeppelin/contracts/access/AccessControl.sol\":6020:6043  account == _msgSender() */\n      0xffffffffffffffffffffffffffffffffffffffff\n      and\n        /* \"@openzeppelin/contracts/access/AccessControl.sol\":6020:6027  account */\n      dup2\n        /* \"@openzeppelin/contracts/access/AccessControl.sol\":6020:6043  account == _msgSender() */\n      0xffffffffffffffffffffffffffffffffffffffff\n      and\n      eq\n        /* \"@openzeppelin/contracts/access/AccessControl.sol\":6012:6095  require(account == _msgSender(), \"AccessControl: can only renounce roles for self\") */\n      tag_113\n      jumpi\n      mload(0x40)\n      0x08c379a000000000000000000000000000000000000000000000000000000000\n      dup2\n      mstore\n      0x04\n      add\n      tag_114\n      swap1\n      tag_115\n      jump\t// in\n    tag_114:\n      mload(0x40)\n      dup1\n      swap2\n      sub\n      swap1\n      revert\n    tag_113:\n        /* \"@openzeppelin/contracts/access/AccessControl.sol\":6106:6132  _revokeRole(role, account) */\n      tag_116\n        /* \"@openzeppelin/contracts/access/AccessControl.sol\":6118:6122  role */\n      dup3\n        /* \"@openzeppelin/contracts/access/AccessControl.sol\":6124:6131  account */\n      dup3\n        /* \"@openzeppelin/contracts/access/AccessControl.sol\":6106:6117  _revokeRole */\n      tag_117\n        /* \"@openzeppelin/contracts/access/AccessControl.sol\":6106:6132  _revokeRole(role, account) */\n      jump\t// in\n    tag_116:\n        /* \"@openzeppelin/contracts/access/AccessControl.sol\":5925:6139  function renounceRole(bytes32 role, address account) public virtual override {... */\n      pop\n      pop\n      jump\t// out\n        /* \"@openzeppelin/contracts/access/Ownable.sol\":1831:1932  function renounceOwnership() public virtual onlyOwner {... */\n    tag_48:\n        /* \"@openzeppelin/contracts/access/Ownable.sol\":1094:1107  _checkOwner() */\n      tag_119\n        /* \"@openzeppelin/contracts/access/Ownable.sol\":1094:1105  _checkOwner */\n      tag_101\n        /* \"@openzeppelin/contracts/access/Ownable.sol\":1094:1107  _checkOwner() */\n      jump\t// in\n    tag_119:\n        /* \"@openzeppelin/contracts/access/Ownable.sol\":1895:1925  _transferOwnership(address(0)) */\n      tag_121\n        /* \"@openzeppelin/contracts/access/Ownable.sol\":1922:1923  0 */\n      0x00\n        /* \"@openzeppelin/contracts/access/Ownable.sol\":1895:1913  _transferOwnership */\n      tag_122\n        /* \"@openzeppelin/contracts/access/Ownable.sol\":1895:1925  _transferOwnership(address(0)) */\n      jump\t// in\n    tag_121:\n        /* \"@openzeppelin/contracts/access/Ownable.sol\":1831:1932  function renounceOwnership() public virtual onlyOwner {... */\n      jump\t// out\n        /* \"Exchange.sol\":1382:2022  function withdraw(... */\n    tag_52:\n        /* \"Exchange.sol\":1518:1535  claimedSignatures */\n      0x04\n        /* \"Exchange.sol\":1536:1545  signature */\n      dup2\n        /* \"Exchange.sol\":1518:1546  claimedSignatures[signature] */\n      mload(0x40)\n      tag_124\n      swap2\n      swap1\n      tag_125\n      jump\t// in\n    tag_124:\n      swap1\n      dup2\n      mstore\n      0x20\n      add\n      mload(0x40)\n      dup1\n      swap2\n      sub\n      swap1\n      keccak256\n      0x00\n      swap1\n      sload\n      swap1\n      0x0100\n      exp\n      swap1\n      div\n      0xff\n      and\n        /* \"Exchange.sol\":1517:1546  !claimedSignatures[signature] */\n      iszero\n        /* \"Exchange.sol\":1509:1576  require(!claimedSignatures[signature], \"signature already claimed\") */\n      tag_126\n      jumpi\n      mload(0x40)\n      0x08c379a000000000000000000000000000000000000000000000000000000000\n      dup2\n      mstore\n      0x04\n      add\n      tag_127\n      swap1\n      tag_128\n      jump\t// in\n    tag_127:\n      mload(0x40)\n      dup1\n      swap2\n      sub\n      swap1\n      revert\n    tag_126:\n        /* \"Exchange.sol\":1589:1614  bytes32 hashWithoutPrefix */\n      0x00\n        /* \"Exchange.sol\":1676:1696  toUint(_msgSender()) */\n      tag_129\n        /* \"Exchange.sol\":1683:1695  _msgSender() */\n      tag_130\n        /* \"Exchange.sol\":1683:1693  _msgSender */\n      tag_112\n        /* \"Exchange.sol\":1683:1695  _msgSender() */\n      jump\t// in\n    tag_130:\n        /* \"Exchange.sol\":1676:1682  toUint */\n      tag_131\n        /* \"Exchange.sol\":1676:1696  toUint(_msgSender()) */\n      jump\t// in\n    tag_129:\n        /* \"Exchange.sol\":1715:1721  amount */\n      dup5\n        /* \"Exchange.sol\":1740:1745  nonce */\n      dup5\n        /* \"Exchange.sol\":1764:1785  toUint(address(this)) */\n      tag_132\n        /* \"Exchange.sol\":1779:1783  this */\n      address\n        /* \"Exchange.sol\":1764:1770  toUint */\n      tag_131\n        /* \"Exchange.sol\":1764:1785  toUint(address(this)) */\n      jump\t// in\n    tag_132:\n        /* \"Exchange.sol\":1641:1800  abi.encodePacked(... */\n      add(0x20, mload(0x40))\n      tag_133\n      swap5\n      swap4\n      swap3\n      swap2\n      swap1\n      tag_134\n      jump\t// in\n    tag_133:\n      mload(0x40)\n      0x20\n      dup2\n      dup4\n      sub\n      sub\n      dup2\n      mstore\n      swap1\n      0x40\n      mstore\n        /* \"Exchange.sol\":1617:1811  keccak256(... */\n      dup1\n      mload\n      swap1\n      0x20\n      add\n      keccak256\n        /* \"Exchange.sol\":1589:1811  bytes32 hashWithoutPrefix = keccak256(... */\n      swap1\n      pop\n        /* \"Exchange.sol\":1822:1864  verifySigner(hashWithoutPrefix, signature) */\n      tag_135\n        /* \"Exchange.sol\":1835:1852  hashWithoutPrefix */\n      dup2\n        /* \"Exchange.sol\":1854:1863  signature */\n      dup4\n        /* \"Exchange.sol\":1822:1834  verifySigner */\n      tag_136\n        /* \"Exchange.sol\":1822:1864  verifySigner(hashWithoutPrefix, signature) */\n      jump\t// in\n    tag_135:\n        /* \"Exchange.sol\":1908:1912  true */\n      0x01\n        /* \"Exchange.sol\":1877:1894  claimedSignatures */\n      0x04\n        /* \"Exchange.sol\":1895:1904  signature */\n      dup4\n        /* \"Exchange.sol\":1877:1905  claimedSignatures[signature] */\n      mload(0x40)\n      tag_137\n      swap2\n      swap1\n      tag_125\n      jump\t// in\n    tag_137:\n      swap1\n      dup2\n      mstore\n      0x20\n      add\n      mload(0x40)\n      dup1\n      swap2\n      sub\n      swap1\n      keccak256\n      0x00\n        /* \"Exchange.sol\":1877:1912  claimedSignatures[signature] = true */\n      0x0100\n      exp\n      dup2\n      sload\n      dup2\n      0xff\n      mul\n      not\n      and\n      swap1\n      dup4\n      iszero\n      iszero\n      mul\n      or\n      swap1\n      sstore\n      pop\n        /* \"Exchange.sol\":1925:1973  IERC20(token).safeTransfer(_msgSender(), amount) */\n      tag_138\n        /* \"Exchange.sol\":1952:1964  _msgSender() */\n      tag_139\n        /* \"Exchange.sol\":1952:1962  _msgSender */\n      tag_112\n        /* \"Exchange.sol\":1952:1964  _msgSender() */\n      jump\t// in\n    tag_139:\n        /* \"Exchange.sol\":1966:1972  amount */\n      dup6\n        /* \"Exchange.sol\":1932:1937  token */\n      0x03\n      0x00\n      swap1\n      sload\n      swap1\n      0x0100\n      exp\n      swap1\n      div\n      0xffffffffffffffffffffffffffffffffffffffff\n      and\n        /* \"Exchange.sol\":1925:1951  IERC20(token).safeTransfer */\n      0xffffffffffffffffffffffffffffffffffffffff\n      and\n      tag_140\n      swap1\n        /* \"Exchange.sol\":1925:1973  IERC20(token).safeTransfer(_msgSender(), amount) */\n      swap3\n      swap2\n      swap1\n      0xffffffff\n      and\n      jump\t// in\n    tag_138:\n        /* \"Exchange.sol\":1991:2014  Withdraw(amount, nonce) */\n      0x56ca301a9219608c91e7bcee90e083c19671d2cdcc96752c7af291cee5f9c8c8\n        /* \"Exchange.sol\":2000:2006  amount */\n      dup5\n        /* \"Exchange.sol\":2008:2013  nonce */\n      dup5\n        /* \"Exchange.sol\":1991:2014  Withdraw(amount, nonce) */\n      mload(0x40)\n      tag_141\n      swap3\n      swap2\n      swap1\n      tag_142\n      jump\t// in\n    tag_141:\n      mload(0x40)\n      dup1\n      swap2\n      sub\n      swap1\n      log1\n        /* \"Exchange.sol\":1498:2022  {... */\n      pop\n        /* \"Exchange.sol\":1382:2022  function withdraw(... */\n      pop\n      pop\n      pop\n      jump\t// out\n        /* \"Exchange.sol\":854:1092  function recoverERC20(address tokenAddress, uint256 tokenAmount)... */\n    tag_56:\n        /* \"@openzeppelin/contracts/access/Ownable.sol\":1094:1107  _checkOwner() */\n      tag_144\n        /* \"@openzeppelin/contracts/access/Ownable.sol\":1094:1105  _checkOwner */\n      tag_101\n        /* \"@openzeppelin/contracts/access/Ownable.sol\":1094:1107  _checkOwner() */\n      jump\t// in\n    tag_144:\n        /* \"Exchange.sol\":972:1027  IERC20(tokenAddress).safeTransfer(owner(), tokenAmount) */\n      tag_146\n        /* \"Exchange.sol\":1006:1013  owner() */\n      tag_147\n        /* \"Exchange.sol\":1006:1011  owner */\n      tag_58\n        /* \"Exchange.sol\":1006:1013  owner() */\n      jump\t// in\n    tag_147:\n        /* \"Exchange.sol\":1015:1026  tokenAmount */\n      dup3\n        /* \"Exchange.sol\":979:991  tokenAddress */\n      dup5\n        /* \"Exchange.sol\":972:1005  IERC20(tokenAddress).safeTransfer */\n      0xffffffffffffffffffffffffffffffffffffffff\n      and\n      tag_140\n      swap1\n        /* \"Exchange.sol\":972:1027  IERC20(tokenAddress).safeTransfer(owner(), tokenAmount) */\n      swap3\n      swap2\n      swap1\n      0xffffffff\n      and\n      jump\t// in\n    tag_146:\n        /* \"Exchange.sol\":1043:1084  RecoveredERC20(tokenAddress, tokenAmount) */\n      0x55350610fe57096d8c0ffa30beede987326bccfcb0b4415804164d0dd50ce8b1\n        /* \"Exchange.sol\":1058:1070  tokenAddress */\n      dup3\n        /* \"Exchange.sol\":1072:1083  tokenAmount */\n      dup3\n        /* \"Exchange.sol\":1043:1084  RecoveredERC20(tokenAddress, tokenAmount) */\n      mload(0x40)\n      tag_148\n      swap3\n      swap2\n      swap1\n      tag_149\n      jump\t// in\n    tag_148:\n      mload(0x40)\n      dup1\n      swap2\n      sub\n      swap1\n      log1\n        /* \"Exchange.sol\":854:1092  function recoverERC20(address tokenAddress, uint256 tokenAmount)... */\n      pop\n      pop\n      jump\t// out\n        /* \"@openzeppelin/contracts/access/Ownable.sol\":1201:1286  function owner() public view virtual returns (address) {... */\n    tag_58:\n        /* \"@openzeppelin/contracts/access/Ownable.sol\":1247:1254  address */\n      0x00\n        /* \"@openzeppelin/contracts/access/Ownable.sol\":1273:1279  _owner */\n      0x02\n      0x00\n      swap1\n      sload\n      swap1\n      0x0100\n      exp\n      swap1\n      div\n      0xffffffffffffffffffffffffffffffffffffffff\n      and\n        /* \"@openzeppelin/contracts/access/Ownable.sol\":1266:1279  return _owner */\n      swap1\n      pop\n        /* \"@openzeppelin/contracts/access/Ownable.sol\":1201:1286  function owner() public view virtual returns (address) {... */\n      swap1\n      jump\t// out\n        /* \"@openzeppelin/contracts/access/AccessControlEnumerable.sol\":1431:1582  function getRoleMember(bytes32 role, uint256 index) public view virtual override returns (address) {... */\n    tag_64:\n        /* \"@openzeppelin/contracts/access/AccessControlEnumerable.sol\":1521:1528  address */\n      0x00\n        /* \"@openzeppelin/contracts/access/AccessControlEnumerable.sol\":1547:1575  _roleMembers[role].at(index) */\n      tag_152\n        /* \"@openzeppelin/contracts/access/AccessControlEnumerable.sol\":1569:1574  index */\n      dup3\n        /* \"@openzeppelin/contracts/access/AccessControlEnumerable.sol\":1547:1559  _roleMembers */\n      0x01\n        /* \"@openzeppelin/contracts/access/AccessControlEnumerable.sol\":1547:1565  _roleMembers[role] */\n      0x00\n        /* \"@openzeppelin/contracts/access/AccessControlEnumerable.sol\":1560:1564  role */\n      dup7\n        /* \"@openzeppelin/contracts/access/AccessControlEnumerable.sol\":1547:1565  _roleMembers[role] */\n      dup2\n      mstore\n      0x20\n      add\n      swap1\n      dup2\n      mstore\n      0x20\n      add\n      0x00\n      keccak256\n        /* \"@openzeppelin/contracts/access/AccessControlEnumerable.sol\":1547:1568  _roleMembers[role].at */\n      tag_153\n      swap1\n        /* \"@openzeppelin/contracts/access/AccessControlEnumerable.sol\":1547:1575  _roleMembers[role].at(index) */\n      swap2\n      swap1\n      0xffffffff\n      and\n      jump\t// in\n    tag_152:\n        /* \"@openzeppelin/contracts/access/AccessControlEnumerable.sol\":1540:1575  return _roleMembers[role].at(index) */\n      swap1\n      pop\n        /* \"@openzeppelin/contracts/access/AccessControlEnumerable.sol\":1431:1582  function getRoleMember(bytes32 role, uint256 index) public view virtual override returns (address) {... */\n      swap3\n      swap2\n      pop\n      pop\n      jump\t// out\n        /* \"@openzeppelin/contracts/access/AccessControl.sol\":2895:3040  function hasRole(bytes32 role, address account) public view virtual override returns (bool) {... */\n    tag_68:\n        /* \"@openzeppelin/contracts/access/AccessControl.sol\":2981:2985  bool */\n      0x00\n        /* \"@openzeppelin/contracts/access/AccessControl.sol\":3004:3010  _roles */\n      dup1\n        /* \"@openzeppelin/contracts/access/AccessControl.sol\":3004:3016  _roles[role] */\n      0x00\n        /* \"@openzeppelin/contracts/access/AccessControl.sol\":3011:3015  role */\n      dup5\n        /* \"@openzeppelin/contracts/access/AccessControl.sol\":3004:3016  _roles[role] */\n      dup2\n      mstore\n      0x20\n      add\n      swap1\n      dup2\n      mstore\n      0x20\n      add\n      0x00\n      keccak256\n        /* \"@openzeppelin/contracts/access/AccessControl.sol\":3004:3024  _roles[role].members */\n      0x00\n      add\n        /* \"@openzeppelin/contracts/access/AccessControl.sol\":3004:3033  _roles[role].members[account] */\n      0x00\n        /* \"@openzeppelin/contracts/access/AccessControl.sol\":3025:3032  account */\n      dup4\n        /* \"@openzeppelin/contracts/access/AccessControl.sol\":3004:3033  _roles[role].members[account] */\n      0xffffffffffffffffffffffffffffffffffffffff\n      and\n      0xffffffffffffffffffffffffffffffffffffffff\n      and\n      dup2\n      mstore\n      0x20\n      add\n      swap1\n      dup2\n      mstore\n      0x20\n      add\n      0x00\n      keccak256\n      0x00\n      swap1\n      sload\n      swap1\n      0x0100\n      exp\n      swap1\n      div\n      0xff\n      and\n        /* \"@openzeppelin/contracts/access/AccessControl.sol\":2997:3033  return _roles[role].members[account] */\n      swap1\n      pop\n        /* \"@openzeppelin/contracts/access/AccessControl.sol\":2895:3040  function hasRole(bytes32 role, address account) public view virtual override returns (bool) {... */\n      swap3\n      swap2\n      pop\n      pop\n      jump\t// out\n        /* \"Exchange.sol\":316:378  bytes32 public constant SIGNER_ROLE = keccak256(\"SIGNER_ROLE\") */\n    tag_71:\n        /* \"Exchange.sol\":354:378  keccak256(\"SIGNER_ROLE\") */\n      0xe2f4eaae4a9751e85a3e4a7b9587827a877f29914755229b07a7b2da98285f70\n        /* \"Exchange.sol\":316:378  bytes32 public constant SIGNER_ROLE = keccak256(\"SIGNER_ROLE\") */\n      dup2\n      jump\t// out\n        /* \"@openzeppelin/contracts/access/AccessControl.sol\":2027:2076  bytes32 public constant DEFAULT_ADMIN_ROLE = 0x00 */\n    tag_74:\n        /* \"@openzeppelin/contracts/access/AccessControl.sol\":2072:2076  0x00 */\n      0x00\n        /* \"@openzeppelin/contracts/access/AccessControl.sol\":2027:2076  bytes32 public constant DEFAULT_ADMIN_ROLE = 0x00 */\n      dup1\n      shl\n      dup2\n      jump\t// out\n        /* \"Exchange.sol\":1213:1374  function deposit(uint256 amount) external {... */\n    tag_79:\n        /* \"Exchange.sol\":1266:1333  IERC20(token).safeTransferFrom(_msgSender(), address(this), amount) */\n      tag_156\n        /* \"Exchange.sol\":1297:1309  _msgSender() */\n      tag_157\n        /* \"Exchange.sol\":1297:1307  _msgSender */\n      tag_112\n        /* \"Exchange.sol\":1297:1309  _msgSender() */\n      jump\t// in\n    tag_157:\n        /* \"Exchange.sol\":1319:1323  this */\n      address\n        /* \"Exchange.sol\":1326:1332  amount */\n      dup4\n        /* \"Exchange.sol\":1273:1278  token */\n      0x03\n      0x00\n      swap1\n      sload\n      swap1\n      0x0100\n      exp\n      swap1\n      div\n      0xffffffffffffffffffffffffffffffffffffffff\n      and\n        /* \"Exchange.sol\":1266:1296  IERC20(token).safeTransferFrom */\n      0xffffffffffffffffffffffffffffffffffffffff\n      and\n      tag_158\n      swap1\n        /* \"Exchange.sol\":1266:1333  IERC20(token).safeTransferFrom(_msgSender(), address(this), amount) */\n      swap4\n      swap3\n      swap2\n      swap1\n      0xffffffff\n      and\n      jump\t// in\n    tag_156:\n        /* \"Exchange.sol\":1351:1366  Deposit(amount) */\n      0x4d6ce1e535dbade1c23defba91e23b8f791ce5edc0cc320257a2b364e4e38426\n        /* \"Exchange.sol\":1359:1365  amount */\n      dup2\n        /* \"Exchange.sol\":1351:1366  Deposit(amount) */\n      mload(0x40)\n      tag_159\n      swap2\n      swap1\n      tag_84\n      jump\t// in\n    tag_159:\n      mload(0x40)\n      dup1\n      swap2\n      sub\n      swap1\n      log1\n        /* \"Exchange.sol\":1213:1374  function deposit(uint256 amount) external {... */\n      pop\n      jump\t// out\n        /* \"@openzeppelin/contracts/access/AccessControlEnumerable.sol\":1750:1890  function getRoleMemberCount(bytes32 role) public view virtual override returns (uint256) {... */\n    tag_82:\n        /* \"@openzeppelin/contracts/access/AccessControlEnumerable.sol\":1830:1837  uint256 */\n      0x00\n        /* \"@openzeppelin/contracts/access/AccessControlEnumerable.sol\":1856:1883  _roleMembers[role].length() */\n      tag_161\n        /* \"@openzeppelin/contracts/access/AccessControlEnumerable.sol\":1856:1868  _roleMembers */\n      0x01\n        /* \"@openzeppelin/contracts/access/AccessControlEnumerable.sol\":1856:1874  _roleMembers[role] */\n      0x00\n        /* \"@openzeppelin/contracts/access/AccessControlEnumerable.sol\":1869:1873  role */\n      dup5\n        /* \"@openzeppelin/contracts/access/AccessControlEnumerable.sol\":1856:1874  _roleMembers[role] */\n      dup2\n      mstore\n      0x20\n      add\n      swap1\n      dup2\n      mstore\n      0x20\n      add\n      0x00\n      keccak256\n        /* \"@openzeppelin/contracts/access/AccessControlEnumerable.sol\":1856:1881  _roleMembers[role].length */\n      tag_162\n        /* \"@openzeppelin/contracts/access/AccessControlEnumerable.sol\":1856:1883  _roleMembers[role].length() */\n      jump\t// in\n    tag_161:\n        /* \"@openzeppelin/contracts/access/AccessControlEnumerable.sol\":1849:1883  return _roleMembers[role].length() */\n      swap1\n      pop\n        /* \"@openzeppelin/contracts/access/AccessControlEnumerable.sol\":1750:1890  function getRoleMemberCount(bytes32 role) public view virtual override returns (uint256) {... */\n      swap2\n      swap1\n      pop\n      jump\t// out\n        /* \"@openzeppelin/contracts/access/AccessControl.sol\":5241:5388  function revokeRole(bytes32 role, address account) public virtual override onlyRole(getRoleAdmin(role)) {... */\n    tag_87:\n        /* \"@openzeppelin/contracts/access/AccessControl.sol\":5325:5343  getRoleAdmin(role) */\n      tag_163\n        /* \"@openzeppelin/contracts/access/AccessControl.sol\":5338:5342  role */\n      dup3\n        /* \"@openzeppelin/contracts/access/AccessControl.sol\":5325:5337  getRoleAdmin */\n      tag_33\n        /* \"@openzeppelin/contracts/access/AccessControl.sol\":5325:5343  getRoleAdmin(role) */\n      jump\t// in\n    tag_163:\n        /* \"@openzeppelin/contracts/access/AccessControl.sol\":2505:2521  _checkRole(role) */\n      tag_165\n        /* \"@openzeppelin/contracts/access/AccessControl.sol\":2516:2520  role */\n      dup2\n        /* \"@openzeppelin/contracts/access/AccessControl.sol\":2505:2515  _checkRole */\n      tag_106\n        /* \"@openzeppelin/contracts/access/AccessControl.sol\":2505:2521  _checkRole(role) */\n      jump\t// in\n    tag_165:\n        /* \"@openzeppelin/contracts/access/AccessControl.sol\":5355:5381  _revokeRole(role, account) */\n      tag_167\n        /* \"@openzeppelin/contracts/access/AccessControl.sol\":5367:5371  role */\n      dup4\n        /* \"@openzeppelin/contracts/access/AccessControl.sol\":5373:5380  account */\n      dup4\n        /* \"@openzeppelin/contracts/access/AccessControl.sol\":5355:5366  _revokeRole */\n      tag_117\n        /* \"@openzeppelin/contracts/access/AccessControl.sol\":5355:5381  _revokeRole(role, account) */\n      jump\t// in\n    tag_167:\n        /* \"@openzeppelin/contracts/access/AccessControl.sol\":5241:5388  function revokeRole(bytes32 role, address account) public virtual override onlyRole(getRoleAdmin(role)) {... */\n      pop\n      pop\n      pop\n      jump\t// out\n        /* \"@openzeppelin/contracts/access/Ownable.sol\":2081:2279  function transferOwnership(address newOwner) public virtual onlyOwner {... */\n    tag_90:\n        /* \"@openzeppelin/contracts/access/Ownable.sol\":1094:1107  _checkOwner() */\n      tag_169\n        /* \"@openzeppelin/contracts/access/Ownable.sol\":1094:1105  _checkOwner */\n      tag_101\n        /* \"@openzeppelin/contracts/access/Ownable.sol\":1094:1107  _checkOwner() */\n      jump\t// in\n    tag_169:\n        /* \"@openzeppelin/contracts/access/Ownable.sol\":2189:2190  0 */\n      0x00\n        /* \"@openzeppelin/contracts/access/Ownable.sol\":2169:2191  newOwner != address(0) */\n      0xffffffffffffffffffffffffffffffffffffffff\n      and\n        /* \"@openzeppelin/contracts/access/Ownable.sol\":2169:2177  newOwner */\n      dup2\n        /* \"@openzeppelin/contracts/access/Ownable.sol\":2169:2191  newOwner != address(0) */\n      0xffffffffffffffffffffffffffffffffffffffff\n      and\n      sub\n        /* \"@openzeppelin/contracts/access/Ownable.sol\":2161:2234  require(newOwner != address(0), \"Ownable: new owner is the zero address\") */\n      tag_171\n      jumpi\n      mload(0x40)\n      0x08c379a000000000000000000000000000000000000000000000000000000000\n      dup2\n      mstore\n      0x04\n      add\n      tag_172\n      swap1\n      tag_173\n      jump\t// in\n    tag_172:\n      mload(0x40)\n      dup1\n      swap2\n      sub\n      swap1\n      revert\n    tag_171:\n        /* \"@openzeppelin/contracts/access/Ownable.sol\":2244:2272  _transferOwnership(newOwner) */\n      tag_174\n        /* \"@openzeppelin/contracts/access/Ownable.sol\":2263:2271  newOwner */\n      dup2\n        /* \"@openzeppelin/contracts/access/Ownable.sol\":2244:2262  _transferOwnership */\n      tag_122\n        /* \"@openzeppelin/contracts/access/Ownable.sol\":2244:2272  _transferOwnership(newOwner) */\n      jump\t// in\n    tag_174:\n        /* \"@openzeppelin/contracts/access/Ownable.sol\":2081:2279  function transferOwnership(address newOwner) public virtual onlyOwner {... */\n      pop\n      jump\t// out\n        /* \"Exchange.sol\":422:442  address public token */\n    tag_92:\n      0x03\n      0x00\n      swap1\n      sload\n      swap1\n      0x0100\n      exp\n      swap1\n      div\n      0xffffffffffffffffffffffffffffffffffffffff\n      and\n      dup2\n      jump\t// out\n        /* \"@openzeppelin/contracts/access/AccessControl.sol\":2606:2808  function supportsInterface(bytes4 interfaceId) public view virtual override returns (bool) {... */\n    tag_97:\n        /* \"@openzeppelin/contracts/access/AccessControl.sol\":2691:2695  bool */\n      0x00\n        /* \"@openzeppelin/contracts/access/AccessControl.sol\":2729:2761  type(IAccessControl).interfaceId */\n      0x7965db0b00000000000000000000000000000000000000000000000000000000\n        /* \"@openzeppelin/contracts/access/AccessControl.sol\":2714:2761  interfaceId == type(IAccessControl).interfaceId */\n      not(0xffffffffffffffffffffffffffffffffffffffffffffffffffffffff)\n      and\n        /* \"@openzeppelin/contracts/access/AccessControl.sol\":2714:2725  interfaceId */\n      dup3\n        /* \"@openzeppelin/contracts/access/AccessControl.sol\":2714:2761  interfaceId == type(IAccessControl).interfaceId */\n      not(0xffffffffffffffffffffffffffffffffffffffffffffffffffffffff)\n      and\n      eq\n        /* \"@openzeppelin/contracts/access/AccessControl.sol\":2714:2801  interfaceId == type(IAccessControl).interfaceId || super.supportsInterface(interfaceId) */\n      dup1\n      tag_176\n      jumpi\n      pop\n        /* \"@openzeppelin/contracts/access/AccessControl.sol\":2765:2801  super.supportsInterface(interfaceId) */\n      tag_177\n        /* \"@openzeppelin/contracts/access/AccessControl.sol\":2789:2800  interfaceId */\n      dup3\n        /* \"@openzeppelin/contracts/access/AccessControl.sol\":2765:2788  super.supportsInterface */\n      tag_178\n        /* \"@openzeppelin/contracts/access/AccessControl.sol\":2765:2801  super.supportsInterface(interfaceId) */\n      jump\t// in\n    tag_177:\n        /* \"@openzeppelin/contracts/access/AccessControl.sol\":2714:2801  interfaceId == type(IAccessControl).interfaceId || super.supportsInterface(interfaceId) */\n    tag_176:\n        /* \"@openzeppelin/contracts/access/AccessControl.sol\":2707:2801  return interfaceId == type(IAccessControl).interfaceId || super.supportsInterface(interfaceId) */\n      swap1\n      pop\n        /* \"@openzeppelin/contracts/access/AccessControl.sol\":2606:2808  function supportsInterface(bytes4 interfaceId) public view virtual override returns (bool) {... */\n      swap2\n      swap1\n      pop\n      jump\t// out\n        /* \"@openzeppelin/contracts/access/Ownable.sol\":1359:1489  function _checkOwner() internal view virtual {... */\n    tag_101:\n        /* \"@openzeppelin/contracts/access/Ownable.sol\":1433:1445  _msgSender() */\n      tag_180\n        /* \"@openzeppelin/contracts/access/Ownable.sol\":1433:1443  _msgSender */\n      tag_112\n        /* \"@openzeppelin/contracts/access/Ownable.sol\":1433:1445  _msgSender() */\n      jump\t// in\n    tag_180:\n        /* \"@openzeppelin/contracts/access/Ownable.sol\":1422:1445  owner() == _msgSender() */\n      0xffffffffffffffffffffffffffffffffffffffff\n      and\n        /* \"@openzeppelin/contracts/access/Ownable.sol\":1422:1429  owner() */\n      tag_181\n        /* \"@openzeppelin/contracts/access/Ownable.sol\":1422:1427  owner */\n      tag_58\n        /* \"@openzeppelin/contracts/access/Ownable.sol\":1422:1429  owner() */\n      jump\t// in\n    tag_181:\n        /* \"@openzeppelin/contracts/access/Ownable.sol\":1422:1445  owner() == _msgSender() */\n      0xffffffffffffffffffffffffffffffffffffffff\n      and\n      eq\n        /* \"@openzeppelin/contracts/access/Ownable.sol\":1414:1482  require(owner() == _msgSender(), \"Ownable: caller is not the owner\") */\n      tag_182\n      jumpi\n      mload(0x40)\n      0x08c379a000000000000000000000000000000000000000000000000000000000\n      dup2\n      mstore\n      0x04\n      add\n      tag_183\n      swap1\n      tag_184\n      jump\t// in\n    tag_183:\n      mload(0x40)\n      dup1\n      swap2\n      sub\n      swap1\n      revert\n    tag_182:\n        /* \"@openzeppelin/contracts/access/Ownable.sol\":1359:1489  function _checkOwner() internal view virtual {... */\n      jump\t// out\n        /* \"@openzeppelin/contracts/access/AccessControl.sol\":3334:3437  function _checkRole(bytes32 role) internal view virtual {... */\n    tag_106:\n        /* \"@openzeppelin/contracts/access/AccessControl.sol\":3400:3430  _checkRole(role, _msgSender()) */\n      tag_186\n        /* \"@openzeppelin/contracts/access/AccessControl.sol\":3411:3415  role */\n      dup2\n        /* \"@openzeppelin/contracts/access/AccessControl.sol\":3417:3429  _msgSender() */\n      tag_187\n        /* \"@openzeppelin/contracts/access/AccessControl.sol\":3417:3427  _msgSender */\n      tag_112\n        /* \"@openzeppelin/contracts/access/AccessControl.sol\":3417:3429  _msgSender() */\n      jump\t// in\n    tag_187:\n        /* \"@openzeppelin/contracts/access/AccessControl.sol\":3400:3410  _checkRole */\n      tag_188\n        /* \"@openzeppelin/contracts/access/AccessControl.sol\":3400:3430  _checkRole(role, _msgSender()) */\n      jump\t// in\n    tag_186:\n        /* \"@openzeppelin/contracts/access/AccessControl.sol\":3334:3437  function _checkRole(bytes32 role) internal view virtual {... */\n      pop\n      jump\t// out\n        /* \"@openzeppelin/contracts/access/AccessControlEnumerable.sol\":1978:2144  function _grantRole(bytes32 role, address account) internal virtual override {... */\n    tag_109:\n        /* \"@openzeppelin/contracts/access/AccessControlEnumerable.sol\":2065:2096  super._grantRole(role, account) */\n      tag_190\n        /* \"@openzeppelin/contracts/access/AccessControlEnumerable.sol\":2082:2086  role */\n      dup3\n        /* \"@openzeppelin/contracts/access/AccessControlEnumerable.sol\":2088:2095  account */\n      dup3\n        /* \"@openzeppelin/contracts/access/AccessControlEnumerable.sol\":2065:2081  super._grantRole */\n      tag_191\n        /* \"@openzeppelin/contracts/access/AccessControlEnumerable.sol\":2065:2096  super._grantRole(role, account) */\n      jump\t// in\n    tag_190:\n        /* \"@openzeppelin/contracts/access/AccessControlEnumerable.sol\":2106:2137  _roleMembers[role].add(account) */\n      tag_192\n        /* \"@openzeppelin/contracts/access/AccessControlEnumerable.sol\":2129:2136  account */\n      dup2\n        /* \"@openzeppelin/contracts/access/AccessControlEnumerable.sol\":2106:2118  _roleMembers */\n      0x01\n        /* \"@openzeppelin/contracts/access/AccessControlEnumerable.sol\":2106:2124  _roleMembers[role] */\n      0x00\n        /* \"@openzeppelin/contracts/access/AccessControlEnumerable.sol\":2119:2123  role */\n      dup6\n        /* \"@openzeppelin/contracts/access/AccessControlEnumerable.sol\":2106:2124  _roleMembers[role] */\n      dup2\n      mstore\n      0x20\n      add\n      swap1\n      dup2\n      mstore\n      0x20\n      add\n      0x00\n      keccak256\n        /* \"@openzeppelin/contracts/access/AccessControlEnumerable.sol\":2106:2128  _roleMembers[role].add */\n      tag_193\n      swap1\n        /* \"@openzeppelin/contracts/access/AccessControlEnumerable.sol\":2106:2137  _roleMembers[role].add(account) */\n      swap2\n      swap1\n      0xffffffff\n      and\n      jump\t// in\n    tag_192:\n      pop\n        /* \"@openzeppelin/contracts/access/AccessControlEnumerable.sol\":1978:2144  function _grantRole(bytes32 role, address account) internal virtual override {... */\n      pop\n      pop\n      jump\t// out\n        /* \"@openzeppelin/contracts/utils/Context.sol\":640:736  function _msgSender() internal view virtual returns (address) {... */\n    tag_112:\n        /* \"@openzeppelin/contracts/utils/Context.sol\":693:700  address */\n      0x00\n        /* \"@openzeppelin/contracts/utils/Context.sol\":719:729  msg.sender */\n      caller\n        /* \"@openzeppelin/contracts/utils/Context.sol\":712:729  return msg.sender */\n      swap1\n      pop\n        /* \"@openzeppelin/contracts/utils/Context.sol\":640:736  function _msgSender() internal view virtual returns (address) {... */\n      swap1\n      jump\t// out\n        /* \"@openzeppelin/contracts/access/AccessControlEnumerable.sol\":2233:2404  function _revokeRole(bytes32 role, address account) internal virtual override {... */\n    tag_117:\n        /* \"@openzeppelin/contracts/access/AccessControlEnumerable.sol\":2321:2353  super._revokeRole(role, account) */\n      tag_196\n        /* \"@openzeppelin/contracts/access/AccessControlEnumerable.sol\":2339:2343  role */\n      dup3\n        /* \"@openzeppelin/contracts/access/AccessControlEnumerable.sol\":2345:2352  account */\n      dup3\n        /* \"@openzeppelin/contracts/access/AccessControlEnumerable.sol\":2321:2338  super._revokeRole */\n      tag_197\n        /* \"@openzeppelin/contracts/access/AccessControlEnumerable.sol\":2321:2353  super._revokeRole(role, account) */\n      jump\t// in\n    tag_196:\n        /* \"@openzeppelin/contracts/access/AccessControlEnumerable.sol\":2363:2397  _roleMembers[role].remove(account) */\n      tag_198\n        /* \"@openzeppelin/contracts/access/AccessControlEnumerable.sol\":2389:2396  account */\n      dup2\n        /* \"@openzeppelin/contracts/access/AccessControlEnumerable.sol\":2363:2375  _roleMembers */\n      0x01\n        /* \"@openzeppelin/contracts/access/AccessControlEnumerable.sol\":2363:2381  _roleMembers[role] */\n      0x00\n        /* \"@openzeppelin/contracts/access/AccessControlEnumerable.sol\":2376:2380  role */\n      dup6\n        /* \"@openzeppelin/contracts/access/AccessControlEnumerable.sol\":2363:2381  _roleMembers[role] */\n      dup2\n      mstore\n      0x20\n      add\n      swap1\n      dup2\n      mstore\n      0x20\n      add\n      0x00\n      keccak256\n        /* \"@openzeppelin/contracts/access/AccessControlEnumerable.sol\":2363:2388  _roleMembers[role].remove */\n      tag_199\n      swap1\n        /* \"@openzeppelin/contracts/access/AccessControlEnumerable.sol\":2363:2397  _roleMembers[role].remove(account) */\n      swap2\n      swap1\n      0xffffffff\n      and\n      jump\t// in\n    tag_198:\n      pop\n        /* \"@openzeppelin/contracts/access/AccessControlEnumerable.sol\":2233:2404  function _revokeRole(bytes32 role, address account) internal virtual override {... */\n      pop\n      pop\n      jump\t// out\n        /* \"@openzeppelin/contracts/access/Ownable.sol\":2433:2620  function _transferOwnership(address newOwner) internal virtual {... */\n    tag_122:\n        /* \"@openzeppelin/contracts/access/Ownable.sol\":2506:2522  address oldOwner */\n      0x00\n        /* \"@openzeppelin/contracts/access/Ownable.sol\":2525:2531  _owner */\n      0x02\n      0x00\n      swap1\n      sload\n      swap1\n      0x0100\n      exp\n      swap1\n      div\n      0xffffffffffffffffffffffffffffffffffffffff\n      and\n        /* \"@openzeppelin/contracts/access/Ownable.sol\":2506:2531  address oldOwner = _owner */\n      swap1\n      pop\n        /* \"@openzeppelin/contracts/access/Ownable.sol\":2550:2558  newOwner */\n      dup2\n        /* \"@openzeppelin/contracts/access/Ownable.sol\":2541:2547  _owner */\n      0x02\n      0x00\n        /* \"@openzeppelin/contracts/access/Ownable.sol\":2541:2558  _owner = newOwner */\n      0x0100\n      exp\n      dup2\n      sload\n      dup2\n      0xffffffffffffffffffffffffffffffffffffffff\n      mul\n      not\n      and\n      swap1\n      dup4\n      0xffffffffffffffffffffffffffffffffffffffff\n      and\n      mul\n      or\n      swap1\n      sstore\n      pop\n        /* \"@openzeppelin/contracts/access/Ownable.sol\":2604:2612  newOwner */\n      dup2\n        /* \"@openzeppelin/contracts/access/Ownable.sol\":2573:2613  OwnershipTransferred(oldOwner, newOwner) */\n      0xffffffffffffffffffffffffffffffffffffffff\n      and\n        /* \"@openzeppelin/contracts/access/Ownable.sol\":2594:2602  oldOwner */\n      dup2\n        /* \"@openzeppelin/contracts/access/Ownable.sol\":2573:2613  OwnershipTransferred(oldOwner, newOwner) */\n      0xffffffffffffffffffffffffffffffffffffffff\n      and\n      0x8be0079c531659141344cd1fd0a4f28419497f9722a3daafe3b4186f6b6457e0\n      mload(0x40)\n      mload(0x40)\n      dup1\n      swap2\n      sub\n      swap1\n      log3\n        /* \"@openzeppelin/contracts/access/Ownable.sol\":2496:2620  {... */\n      pop\n        /* \"@openzeppelin/contracts/access/Ownable.sol\":2433:2620  function _transferOwnership(address newOwner) internal virtual {... */\n      pop\n      jump\t// out\n        /* \"Exchange.sol\":3514:3640  function toUint(address _address) internal pure virtual returns (uint256) {... */\n    tag_131:\n        /* \"Exchange.sol\":3579:3586  uint256 */\n      0x00\n        /* \"Exchange.sol\":3622:3630  _address */\n      dup2\n        /* \"Exchange.sol\":3606:3632  uint256(uint160(_address)) */\n      0xffffffffffffffffffffffffffffffffffffffff\n      and\n        /* \"Exchange.sol\":3599:3632  return uint256(uint160(_address)) */\n      swap1\n      pop\n        /* \"Exchange.sol\":3514:3640  function toUint(address _address) internal pure virtual returns (uint256) {... */\n      swap2\n      swap1\n      pop\n      jump\t// out\n        /* \"Exchange.sol\":2030:2478  function verifySigner(bytes32 hashWithoutPrefix, bytes memory signature)... */\n    tag_136:\n        /* \"Exchange.sol\":2226:2238  bytes32 hash */\n      0x00\n        /* \"Exchange.sol\":2241:2268  prefixed(hashWithoutPrefix) */\n      tag_203\n        /* \"Exchange.sol\":2250:2267  hashWithoutPrefix */\n      dup4\n        /* \"Exchange.sol\":2241:2249  prefixed */\n      tag_204\n        /* \"Exchange.sol\":2241:2268  prefixed(hashWithoutPrefix) */\n      jump\t// in\n    tag_203:\n        /* \"Exchange.sol\":2226:2268  bytes32 hash = prefixed(hashWithoutPrefix) */\n      swap1\n      pop\n        /* \"Exchange.sol\":2337:2360  address recoveredSigner */\n      0x00\n        /* \"Exchange.sol\":2363:2393  recoverSigner(hash, signature) */\n      tag_205\n        /* \"Exchange.sol\":2377:2381  hash */\n      dup3\n        /* \"Exchange.sol\":2383:2392  signature */\n      dup5\n        /* \"Exchange.sol\":2363:2376  recoverSigner */\n      tag_206\n        /* \"Exchange.sol\":2363:2393  recoverSigner(hash, signature) */\n      jump\t// in\n    tag_205:\n        /* \"Exchange.sol\":2337:2393  address recoveredSigner = recoverSigner(hash, signature) */\n      swap1\n      pop\n        /* \"Exchange.sol\":2414:2451  hasRole(SIGNER_ROLE, recoveredSigner) */\n      tag_207\n        /* \"Exchange.sol\":354:378  keccak256(\"SIGNER_ROLE\") */\n      0xe2f4eaae4a9751e85a3e4a7b9587827a877f29914755229b07a7b2da98285f70\n        /* \"Exchange.sol\":2435:2450  recoveredSigner */\n      dup3\n        /* \"Exchange.sol\":2414:2421  hasRole */\n      tag_68\n        /* \"Exchange.sol\":2414:2451  hasRole(SIGNER_ROLE, recoveredSigner) */\n      jump\t// in\n    tag_207:\n        /* \"Exchange.sol\":2406:2470  require(hasRole(SIGNER_ROLE, recoveredSigner), \"must be signer\") */\n      tag_208\n      jumpi\n      mload(0x40)\n      0x08c379a000000000000000000000000000000000000000000000000000000000\n      dup2\n      mstore\n      0x04\n      add\n      tag_209\n      swap1\n      tag_210\n      jump\t// in\n    tag_209:\n      mload(0x40)\n      dup1\n      swap2\n      sub\n      swap1\n      revert\n    tag_208:\n        /* \"Exchange.sol\":2140:2478  {... */\n      pop\n      pop\n        /* \"Exchange.sol\":2030:2478  function verifySigner(bytes32 hashWithoutPrefix, bytes memory signature)... */\n      pop\n      pop\n      jump\t// out\n        /* \"@openzeppelin/contracts/token/ERC20/utils/SafeERC20.sol\":763:968  function safeTransfer(... */\n    tag_140:\n        /* \"@openzeppelin/contracts/token/ERC20/utils/SafeERC20.sol\":875:961  _callOptionalReturn(token, abi.encodeWithSelector(token.transfer.selector, to, value)) */\n      tag_212\n        /* \"@openzeppelin/contracts/token/ERC20/utils/SafeERC20.sol\":895:900  token */\n      dup4\n        /* \"@openzeppelin/contracts/token/ERC20/utils/SafeERC20.sol\":925:948  token.transfer.selector */\n      shl(0xe0, 0xa9059cbb)\n        /* \"@openzeppelin/contracts/token/ERC20/utils/SafeERC20.sol\":950:952  to */\n      dup5\n        /* \"@openzeppelin/contracts/token/ERC20/utils/SafeERC20.sol\":954:959  value */\n      dup5\n        /* \"@openzeppelin/contracts/token/ERC20/utils/SafeERC20.sol\":902:960  abi.encodeWithSelector(token.transfer.selector, to, value) */\n      add(0x24, mload(0x40))\n      tag_213\n      swap3\n      swap2\n      swap1\n      tag_149\n      jump\t// in\n    tag_213:\n      mload(0x40)\n      0x20\n      dup2\n      dup4\n      sub\n      sub\n      dup2\n      mstore\n      swap1\n      0x40\n      mstore\n      swap1\n      not(0xffffffffffffffffffffffffffffffffffffffffffffffffffffffff)\n      and\n      0x20\n      dup3\n      add\n      dup1\n      mload\n      0xffffffffffffffffffffffffffffffffffffffffffffffffffffffff\n      dup4\n      dup2\n      dup4\n      and\n      or\n      dup4\n      mstore\n      pop\n      pop\n      pop\n      pop\n        /* \"@openzeppelin/contracts/token/ERC20/utils/SafeERC20.sol\":875:894  _callOptionalReturn */\n      tag_214\n        /* \"@openzeppelin/contracts/token/ERC20/utils/SafeERC20.sol\":875:961  _callOptionalReturn(token, abi.encodeWithSelector(token.transfer.selector, to, value)) */\n      jump\t// in\n    tag_212:\n        /* \"@openzeppelin/contracts/token/ERC20/utils/SafeERC20.sol\":763:968  function safeTransfer(... */\n      pop\n      pop\n      pop\n      jump\t// out\n        /* \"@openzeppelin/contracts/utils/structs/EnumerableSet.sol\":9286:9442  function at(AddressSet storage set, uint256 index) internal view returns (address) {... */\n    tag_153:\n        /* \"@openzeppelin/contracts/utils/structs/EnumerableSet.sol\":9360:9367  address */\n      0x00\n        /* \"@openzeppelin/contracts/utils/structs/EnumerableSet.sol\":9410:9432  _at(set._inner, index) */\n      tag_216\n        /* \"@openzeppelin/contracts/utils/structs/EnumerableSet.sol\":9414:9417  set */\n      dup4\n        /* \"@openzeppelin/contracts/utils/structs/EnumerableSet.sol\":9414:9424  set._inner */\n      0x00\n      add\n        /* \"@openzeppelin/contracts/utils/structs/EnumerableSet.sol\":9426:9431  index */\n      dup4\n        /* \"@openzeppelin/contracts/utils/structs/EnumerableSet.sol\":9410:9413  _at */\n      tag_217\n        /* \"@openzeppelin/contracts/utils/structs/EnumerableSet.sol\":9410:9432  _at(set._inner, index) */\n      jump\t// in\n    tag_216:\n        /* \"@openzeppelin/contracts/utils/structs/EnumerableSet.sol\":9402:9433  uint256(_at(set._inner, index)) */\n      0x00\n      shr\n        /* \"@openzeppelin/contracts/utils/structs/EnumerableSet.sol\":9379:9435  return address(uint160(uint256(_at(set._inner, index)))) */\n      swap1\n      pop\n        /* \"@openzeppelin/contracts/utils/structs/EnumerableSet.sol\":9286:9442  function at(AddressSet storage set, uint256 index) internal view returns (address) {... */\n      swap3\n      swap2\n      pop\n      pop\n      jump\t// out\n        /* \"@openzeppelin/contracts/token/ERC20/utils/SafeERC20.sol\":974:1215  function safeTransferFrom(... */\n    tag_158:\n        /* \"@openzeppelin/contracts/token/ERC20/utils/SafeERC20.sol\":1112:1208  _callOptionalReturn(token, abi.encodeWithSelector(token.transferFrom.selector, from, to, value)) */\n      tag_219\n        /* \"@openzeppelin/contracts/token/ERC20/utils/SafeERC20.sol\":1132:1137  token */\n      dup5\n        /* \"@openzeppelin/contracts/token/ERC20/utils/SafeERC20.sol\":1162:1189  token.transferFrom.selector */\n      shl(0xe0, 0x23b872dd)\n        /* \"@openzeppelin/contracts/token/ERC20/utils/SafeERC20.sol\":1191:1195  from */\n      dup6\n        /* \"@openzeppelin/contracts/token/ERC20/utils/SafeERC20.sol\":1197:1199  to */\n      dup6\n        /* \"@openzeppelin/contracts/token/ERC20/utils/SafeERC20.sol\":1201:1206  value */\n      dup6\n        /* \"@openzeppelin/contracts/token/ERC20/utils/SafeERC20.sol\":1139:1207  abi.encodeWithSelector(token.transferFrom.selector, from, to, value) */\n      add(0x24, mload(0x40))\n      tag_220\n      swap4\n      swap3\n      swap2\n      swap1\n      tag_221\n      jump\t// in\n    tag_220:\n      mload(0x40)\n      0x20\n      dup2\n      dup4\n      sub\n      sub\n      dup2\n      mstore\n      swap1\n      0x40\n      mstore\n      swap1\n      not(0xffffffffffffffffffffffffffffffffffffffffffffffffffffffff)\n      and\n      0x20\n      dup3\n      add\n      dup1\n      mload\n      0xffffffffffffffffffffffffffffffffffffffffffffffffffffffff\n      dup4\n      dup2\n      dup4\n      and\n      or\n      dup4\n      mstore\n      pop\n      pop\n      pop\n      pop\n        /* \"@openzeppelin/contracts/token/ERC20/utils/SafeERC20.sol\":1112:1131  _callOptionalReturn */\n      tag_214\n        /* \"@openzeppelin/contracts/token/ERC20/utils/SafeERC20.sol\":1112:1208  _callOptionalReturn(token, abi.encodeWithSelector(token.transferFrom.selector, from, to, value)) */\n      jump\t// in\n    tag_219:\n        /* \"@openzeppelin/contracts/token/ERC20/utils/SafeERC20.sol\":974:1215  function safeTransferFrom(... */\n      pop\n      pop\n      pop\n      pop\n      jump\t// out\n        /* \"@openzeppelin/contracts/utils/structs/EnumerableSet.sol\":8829:8944  function length(AddressSet storage set) internal view returns (uint256) {... */\n    tag_162:\n        /* \"@openzeppelin/contracts/utils/structs/EnumerableSet.sol\":8892:8899  uint256 */\n      0x00\n        /* \"@openzeppelin/contracts/utils/structs/EnumerableSet.sol\":8918:8937  _length(set._inner) */\n      tag_223\n        /* \"@openzeppelin/contracts/utils/structs/EnumerableSet.sol\":8926:8929  set */\n      dup3\n        /* \"@openzeppelin/contracts/utils/structs/EnumerableSet.sol\":8926:8936  set._inner */\n      0x00\n      add\n        /* \"@openzeppelin/contracts/utils/structs/EnumerableSet.sol\":8918:8925  _length */\n      tag_224\n        /* \"@openzeppelin/contracts/utils/structs/EnumerableSet.sol\":8918:8937  _length(set._inner) */\n      jump\t// in\n    tag_223:\n        /* \"@openzeppelin/contracts/utils/structs/EnumerableSet.sol\":8911:8937  return _length(set._inner) */\n      swap1\n      pop\n        /* \"@openzeppelin/contracts/utils/structs/EnumerableSet.sol\":8829:8944  function length(AddressSet storage set) internal view returns (uint256) {... */\n      swap2\n      swap1\n      pop\n      jump\t// out\n        /* \"@openzeppelin/contracts/utils/introspection/ERC165.sol\":829:984  function supportsInterface(bytes4 interfaceId) public view virtual override returns (bool) {... */\n    tag_178:\n        /* \"@openzeppelin/contracts/utils/introspection/ERC165.sol\":914:918  bool */\n      0x00\n        /* \"@openzeppelin/contracts/utils/introspection/ERC165.sol\":952:977  type(IERC165).interfaceId */\n      0x01ffc9a700000000000000000000000000000000000000000000000000000000\n        /* \"@openzeppelin/contracts/utils/introspection/ERC165.sol\":937:977  interfaceId == type(IERC165).interfaceId */\n      not(0xffffffffffffffffffffffffffffffffffffffffffffffffffffffff)\n      and\n        /* \"@openzeppelin/contracts/utils/introspection/ERC165.sol\":937:948  interfaceId */\n      dup3\n        /* \"@openzeppelin/contracts/utils/introspection/ERC165.sol\":937:977  interfaceId == type(IERC165).interfaceId */\n      not(0xffffffffffffffffffffffffffffffffffffffffffffffffffffffff)\n      and\n      eq\n        /* \"@openzeppelin/contracts/utils/introspection/ERC165.sol\":930:977  return interfaceId == type(IERC165).interfaceId */\n      swap1\n      pop\n        /* \"@openzeppelin/contracts/utils/introspection/ERC165.sol\":829:984  function supportsInterface(bytes4 interfaceId) public view virtual override returns (bool) {... */\n      swap2\n      swap1\n      pop\n      jump\t// out\n        /* \"@openzeppelin/contracts/access/AccessControl.sol\":3718:4210  function _checkRole(bytes32 role, address account) internal view virtual {... */\n    tag_188:\n        /* \"@openzeppelin/contracts/access/AccessControl.sol\":3806:3828  hasRole(role, account) */\n      tag_227\n        /* \"@openzeppelin/contracts/access/AccessControl.sol\":3814:3818  role */\n      dup3\n        /* \"@openzeppelin/contracts/access/AccessControl.sol\":3820:3827  account */\n      dup3\n        /* \"@openzeppelin/contracts/access/AccessControl.sol\":3806:3813  hasRole */\n      tag_68\n        /* \"@openzeppelin/contracts/access/AccessControl.sol\":3806:3828  hasRole(role, account) */\n      jump\t// in\n    tag_227:\n        /* \"@openzeppelin/contracts/access/AccessControl.sol\":3801:4204  if (!hasRole(role, account)) {... */\n      tag_228\n      jumpi\n        /* \"@openzeppelin/contracts/access/AccessControl.sol\":3989:4030  Strings.toHexString(uint160(account), 20) */\n      tag_229\n        /* \"@openzeppelin/contracts/access/AccessControl.sol\":4017:4024  account */\n      dup2\n        /* \"@openzeppelin/contracts/access/AccessControl.sol\":3989:4030  Strings.toHexString(uint160(account), 20) */\n      0xffffffffffffffffffffffffffffffffffffffff\n      and\n        /* \"@openzeppelin/contracts/access/AccessControl.sol\":4027:4029  20 */\n      0x14\n        /* \"@openzeppelin/contracts/access/AccessControl.sol\":3989:4008  Strings.toHexString */\n      tag_230\n        /* \"@openzeppelin/contracts/access/AccessControl.sol\":3989:4030  Strings.toHexString(uint160(account), 20) */\n      jump\t// in\n    tag_229:\n        /* \"@openzeppelin/contracts/access/AccessControl.sol\":4101:4139  Strings.toHexString(uint256(role), 32) */\n      tag_231\n        /* \"@openzeppelin/contracts/access/AccessControl.sol\":4129:4133  role */\n      dup4\n        /* \"@openzeppelin/contracts/access/AccessControl.sol\":4121:4134  uint256(role) */\n      0x00\n      shr\n        /* \"@openzeppelin/contracts/access/AccessControl.sol\":4136:4138  32 */\n      0x20\n        /* \"@openzeppelin/contracts/access/AccessControl.sol\":4101:4120  Strings.toHexString */\n      tag_230\n        /* \"@openzeppelin/contracts/access/AccessControl.sol\":4101:4139  Strings.toHexString(uint256(role), 32) */\n      jump\t// in\n    tag_231:\n        /* \"@openzeppelin/contracts/access/AccessControl.sol\":3896:4161  abi.encodePacked(... */\n      add(0x20, mload(0x40))\n      tag_232\n      swap3\n      swap2\n      swap1\n      tag_233\n      jump\t// in\n    tag_232:\n      mload(0x40)\n      0x20\n      dup2\n      dup4\n      sub\n      sub\n      dup2\n      mstore\n      swap1\n      0x40\n      mstore\n        /* \"@openzeppelin/contracts/access/AccessControl.sol\":3844:4193  revert(... */\n      mload(0x40)\n      0x08c379a000000000000000000000000000000000000000000000000000000000\n      dup2\n      mstore\n      0x04\n      add\n      tag_234\n      swap2\n      swap1\n      tag_235\n      jump\t// in\n    tag_234:\n      mload(0x40)\n      dup1\n      swap2\n      sub\n      swap1\n      revert\n        /* \"@openzeppelin/contracts/access/AccessControl.sol\":3801:4204  if (!hasRole(role, account)) {... */\n    tag_228:\n        /* \"@openzeppelin/contracts/access/AccessControl.sol\":3718:4210  function _checkRole(bytes32 role, address account) internal view virtual {... */\n      pop\n      pop\n      jump\t// out\n        /* \"@openzeppelin/contracts/access/AccessControl.sol\":7474:7707  function _grantRole(bytes32 role, address account) internal virtual {... */\n    tag_191:\n        /* \"@openzeppelin/contracts/access/AccessControl.sol\":7557:7579  hasRole(role, account) */\n      tag_237\n        /* \"@openzeppelin/contracts/access/AccessControl.sol\":7565:7569  role */\n      dup3\n        /* \"@openzeppelin/contracts/access/AccessControl.sol\":7571:7578  account */\n      dup3\n        /* \"@openzeppelin/contracts/access/AccessControl.sol\":7557:7564  hasRole */\n      tag_68\n        /* \"@openzeppelin/contracts/access/AccessControl.sol\":7557:7579  hasRole(role, account) */\n      jump\t// in\n    tag_237:\n        /* \"@openzeppelin/contracts/access/AccessControl.sol\":7552:7701  if (!hasRole(role, account)) {... */\n      tag_238\n      jumpi\n        /* \"@openzeppelin/contracts/access/AccessControl.sol\":7627:7631  true */\n      0x01\n        /* \"@openzeppelin/contracts/access/AccessControl.sol\":7595:7601  _roles */\n      0x00\n        /* \"@openzeppelin/contracts/access/AccessControl.sol\":7595:7607  _roles[role] */\n      dup1\n        /* \"@openzeppelin/contracts/access/AccessControl.sol\":7602:7606  role */\n      dup5\n        /* \"@openzeppelin/contracts/access/AccessControl.sol\":7595:7607  _roles[role] */\n      dup2\n      mstore\n      0x20\n      add\n      swap1\n      dup2\n      mstore\n      0x20\n      add\n      0x00\n      keccak256\n        /* \"@openzeppelin/contracts/access/AccessControl.sol\":7595:7615  _roles[role].members */\n      0x00\n      add\n        /* \"@openzeppelin/contracts/access/AccessControl.sol\":7595:7624  _roles[role].members[account] */\n      0x00\n        /* \"@openzeppelin/contracts/access/AccessControl.sol\":7616:7623  account */\n      dup4\n        /* \"@openzeppelin/contracts/access/AccessControl.sol\":7595:7624  _roles[role].members[account] */\n      0xffffffffffffffffffffffffffffffffffffffff\n      and\n      0xffffffffffffffffffffffffffffffffffffffff\n      and\n      dup2\n      mstore\n      0x20\n      add\n      swap1\n      dup2\n      mstore\n      0x20\n      add\n      0x00\n      keccak256\n      0x00\n        /* \"@openzeppelin/contracts/access/AccessControl.sol\":7595:7631  _roles[role].members[account] = true */\n      0x0100\n      exp\n      dup2\n      sload\n      dup2\n      0xff\n      mul\n      not\n      and\n      swap1\n      dup4\n      iszero\n      iszero\n      mul\n      or\n      swap1\n      sstore\n      pop\n        /* \"@openzeppelin/contracts/access/AccessControl.sol\":7677:7689  _msgSender() */\n      tag_239\n        /* \"@openzeppelin/contracts/access/AccessControl.sol\":7677:7687  _msgSender */\n      tag_112\n        /* \"@openzeppelin/contracts/access/AccessControl.sol\":7677:7689  _msgSender() */\n      jump\t// in\n    tag_239:\n        /* \"@openzeppelin/contracts/access/AccessControl.sol\":7650:7690  RoleGranted(role, account, _msgSender()) */\n      0xffffffffffffffffffffffffffffffffffffffff\n      and\n        /* \"@openzeppelin/contracts/access/AccessControl.sol\":7668:7675  account */\n      dup2\n        /* \"@openzeppelin/contracts/access/AccessControl.sol\":7650:7690  RoleGranted(role, account, _msgSender()) */\n      0xffffffffffffffffffffffffffffffffffffffff\n      and\n        /* \"@openzeppelin/contracts/access/AccessControl.sol\":7662:7666  role */\n      dup4\n        /* \"@openzeppelin/contracts/access/AccessControl.sol\":7650:7690  RoleGranted(role, account, _msgSender()) */\n      0x2f8788117e7eff1d82e926ec794901d17c78024a50270940304540a733656f0d\n      mload(0x40)\n      mload(0x40)\n      dup1\n      swap2\n      sub\n      swap1\n      log4\n        /* \"@openzeppelin/contracts/access/AccessControl.sol\":7552:7701  if (!hasRole(role, account)) {... */\n    tag_238:\n        /* \"@openzeppelin/contracts/access/AccessControl.sol\":7474:7707  function _grantRole(bytes32 role, address account) internal virtual {... */\n      pop\n      pop\n      jump\t// out\n        /* \"@openzeppelin/contracts/utils/structs/EnumerableSet.sol\":8028:8178  function add(AddressSet storage set, address value) internal returns (bool) {... */\n    tag_193:\n        /* \"@openzeppelin/contracts/utils/structs/EnumerableSet.sol\":8098:8102  bool */\n      0x00\n        /* \"@openzeppelin/contracts/utils/structs/EnumerableSet.sol\":8121:8171  _add(set._inner, bytes32(uint256(uint160(value)))) */\n      tag_241\n        /* \"@openzeppelin/contracts/utils/structs/EnumerableSet.sol\":8126:8129  set */\n      dup4\n        /* \"@openzeppelin/contracts/utils/structs/EnumerableSet.sol\":8126:8136  set._inner */\n      0x00\n      add\n        /* \"@openzeppelin/contracts/utils/structs/EnumerableSet.sol\":8162:8167  value */\n      dup4\n        /* \"@openzeppelin/contracts/utils/structs/EnumerableSet.sol\":8146:8169  uint256(uint160(value)) */\n      0xffffffffffffffffffffffffffffffffffffffff\n      and\n        /* \"@openzeppelin/contracts/utils/structs/EnumerableSet.sol\":8138:8170  bytes32(uint256(uint160(value))) */\n      0x00\n      shl\n        /* \"@openzeppelin/contracts/utils/structs/EnumerableSet.sol\":8121:8125  _add */\n      tag_242\n        /* \"@openzeppelin/contracts/utils/structs/EnumerableSet.sol\":8121:8171  _add(set._inner, bytes32(uint256(uint160(value)))) */\n      jump\t// in\n    tag_241:\n        /* \"@openzeppelin/contracts/utils/structs/EnumerableSet.sol\":8114:8171  return _add(set._inner, bytes32(uint256(uint160(value)))) */\n      swap1\n      pop\n        /* \"@openzeppelin/contracts/utils/structs/EnumerableSet.sol\":8028:8178  function add(AddressSet storage set, address value) internal returns (bool) {... */\n      swap3\n      swap2\n      pop\n      pop\n      jump\t// out\n        /* \"@openzeppelin/contracts/access/AccessControl.sol\":7878:8112  function _revokeRole(bytes32 role, address account) internal virtual {... */\n    tag_197:\n        /* \"@openzeppelin/contracts/access/AccessControl.sol\":7961:7983  hasRole(role, account) */\n      tag_244\n        /* \"@openzeppelin/contracts/access/AccessControl.sol\":7969:7973  role */\n      dup3\n        /* \"@openzeppelin/contracts/access/AccessControl.sol\":7975:7982  account */\n      dup3\n        /* \"@openzeppelin/contracts/access/AccessControl.sol\":7961:7968  hasRole */\n      tag_68\n        /* \"@openzeppelin/contracts/access/AccessControl.sol\":7961:7983  hasRole(role, account) */\n      jump\t// in\n    tag_244:\n        /* \"@openzeppelin/contracts/access/AccessControl.sol\":7957:8106  if (hasRole(role, account)) {... */\n      iszero\n      tag_245\n      jumpi\n        /* \"@openzeppelin/contracts/access/AccessControl.sol\":8031:8036  false */\n      0x00\n        /* \"@openzeppelin/contracts/access/AccessControl.sol\":7999:8005  _roles */\n      dup1\n        /* \"@openzeppelin/contracts/access/AccessControl.sol\":7999:8011  _roles[role] */\n      0x00\n        /* \"@openzeppelin/contracts/access/AccessControl.sol\":8006:8010  role */\n      dup5\n        /* \"@openzeppelin/contracts/access/AccessControl.sol\":7999:8011  _roles[role] */\n      dup2\n      mstore\n      0x20\n      add\n      swap1\n      dup2\n      mstore\n      0x20\n      add\n      0x00\n      keccak256\n        /* \"@openzeppelin/contracts/access/AccessControl.sol\":7999:8019  _roles[role].members */\n      0x00\n      add\n        /* \"@openzeppelin/contracts/access/AccessControl.sol\":7999:8028  _roles[role].members[account] */\n      0x00\n        /* \"@openzeppelin/contracts/access/AccessControl.sol\":8020:8027  account */\n      dup4\n        /* \"@openzeppelin/contracts/access/AccessControl.sol\":7999:8028  _roles[role].members[account] */\n      0xffffffffffffffffffffffffffffffffffffffff\n      and\n      0xffffffffffffffffffffffffffffffffffffffff\n      and\n      dup2\n      mstore\n      0x20\n      add\n      swap1\n      dup2\n      mstore\n      0x20\n      add\n      0x00\n      keccak256\n      0x00\n        /* \"@openzeppelin/contracts/access/AccessControl.sol\":7999:8036  _roles[role].members[account] = false */\n      0x0100\n      exp\n      dup2\n      sload\n      dup2\n      0xff\n      mul\n      not\n      and\n      swap1\n      dup4\n      iszero\n      iszero\n      mul\n      or\n      swap1\n      sstore\n      pop\n        /* \"@openzeppelin/contracts/access/AccessControl.sol\":8082:8094  _msgSender() */\n      tag_246\n        /* \"@openzeppelin/contracts/access/AccessControl.sol\":8082:8092  _msgSender */\n      tag_112\n        /* \"@openzeppelin/contracts/access/AccessControl.sol\":8082:8094  _msgSender() */\n      jump\t// in\n    tag_246:\n        /* \"@openzeppelin/contracts/access/AccessControl.sol\":8055:8095  RoleRevoked(role, account, _msgSender()) */\n      0xffffffffffffffffffffffffffffffffffffffff\n      and\n        /* \"@openzeppelin/contracts/access/AccessControl.sol\":8073:8080  account */\n      dup2\n        /* \"@openzeppelin/contracts/access/AccessControl.sol\":8055:8095  RoleRevoked(role, account, _msgSender()) */\n      0xffffffffffffffffffffffffffffffffffffffff\n      and\n        /* \"@openzeppelin/contracts/access/AccessControl.sol\":8067:8071  role */\n      dup4\n        /* \"@openzeppelin/contracts/access/AccessControl.sol\":8055:8095  RoleRevoked(role, account, _msgSender()) */\n      0xf6391f5c32d9c69d2a47ea670b442974b53935d1edc7fd64eb21e047a839171b\n      mload(0x40)\n      mload(0x40)\n      dup1\n      swap2\n      sub\n      swap1\n      log4\n        /* \"@openzeppelin/contracts/access/AccessControl.sol\":7957:8106  if (hasRole(role, account)) {... */\n    tag_245:\n        /* \"@openzeppelin/contracts/access/AccessControl.sol\":7878:8112  function _revokeRole(bytes32 role, address account) internal virtual {... */\n      pop\n      pop\n      jump\t// out\n        /* \"@openzeppelin/contracts/utils/structs/EnumerableSet.sol\":8346:8502  function remove(AddressSet storage set, address value) internal returns (bool) {... */\n    tag_199:\n        /* \"@openzeppelin/contracts/utils/structs/EnumerableSet.sol\":8419:8423  bool */\n      0x00\n        /* \"@openzeppelin/contracts/utils/structs/EnumerableSet.sol\":8442:8495  _remove(set._inner, bytes32(uint256(uint160(value)))) */\n      tag_248\n        /* \"@openzeppelin/contracts/utils/structs/EnumerableSet.sol\":8450:8453  set */\n      dup4\n        /* \"@openzeppelin/contracts/utils/structs/EnumerableSet.sol\":8450:8460  set._inner */\n      0x00\n      add\n        /* \"@openzeppelin/contracts/utils/structs/EnumerableSet.sol\":8486:8491  value */\n      dup4\n        /* \"@openzeppelin/contracts/utils/structs/EnumerableSet.sol\":8470:8493  uint256(uint160(value)) */\n      0xffffffffffffffffffffffffffffffffffffffff\n      and\n        /* \"@openzeppelin/contracts/utils/structs/EnumerableSet.sol\":8462:8494  bytes32(uint256(uint160(value))) */\n      0x00\n      shl\n        /* \"@openzeppelin/contracts/utils/structs/EnumerableSet.sol\":8442:8449  _remove */\n      tag_249\n        /* \"@openzeppelin/contracts/utils/structs/EnumerableSet.sol\":8442:8495  _remove(set._inner, bytes32(uint256(uint160(value)))) */\n      jump\t// in\n    tag_248:\n        /* \"@openzeppelin/contracts/utils/structs/EnumerableSet.sol\":8435:8495  return _remove(set._inner, bytes32(uint256(uint160(value)))) */\n      swap1\n      pop\n        /* \"@openzeppelin/contracts/utils/structs/EnumerableSet.sol\":8346:8502  function remove(AddressSet storage set, address value) internal returns (bool) {... */\n      swap3\n      swap2\n      pop\n      pop\n      jump\t// out\n        /* \"Exchange.sol\":3302:3506  function prefixed(bytes32 hash) internal pure returns (bytes32) {... */\n    tag_204:\n        /* \"Exchange.sol\":3357:3364  bytes32 */\n      0x00\n        /* \"Exchange.sol\":3478:3482  hash */\n      dup2\n        /* \"Exchange.sol\":3425:3483  abi.encodePacked(\"\\x19Ethereum Signed Message:\\n32\", hash) */\n      add(0x20, mload(0x40))\n      tag_251\n      swap2\n      swap1\n      tag_252\n      jump\t// in\n    tag_251:\n      mload(0x40)\n      0x20\n      dup2\n      dup4\n      sub\n      sub\n      dup2\n      mstore\n      swap1\n      0x40\n      mstore\n        /* \"Exchange.sol\":3397:3498  keccak256(... */\n      dup1\n      mload\n      swap1\n      0x20\n      add\n      keccak256\n        /* \"Exchange.sol\":3377:3498  return... */\n      swap1\n      pop\n        /* \"Exchange.sol\":3302:3506  function prefixed(bytes32 hash) internal pure returns (bytes32) {... */\n      swap2\n      swap1\n      pop\n      jump\t// out\n        /* \"Exchange.sol\":2486:2727  function recoverSigner(bytes32 message, bytes memory sig)... */\n    tag_206:\n        /* \"Exchange.sol\":2594:2601  address */\n      0x00\n        /* \"Exchange.sol\":2620:2627  uint8 v */\n      dup1\n        /* \"Exchange.sol\":2629:2638  bytes32 r */\n      0x00\n        /* \"Exchange.sol\":2640:2649  bytes32 s */\n      dup1\n        /* \"Exchange.sol\":2653:2672  splitSignature(sig) */\n      tag_254\n        /* \"Exchange.sol\":2668:2671  sig */\n      dup6\n        /* \"Exchange.sol\":2653:2667  splitSignature */\n      tag_255\n        /* \"Exchange.sol\":2653:2672  splitSignature(sig) */\n      jump\t// in\n    tag_254:\n        /* \"Exchange.sol\":2619:2672  (uint8 v, bytes32 r, bytes32 s) = splitSignature(sig) */\n      swap3\n      pop\n      swap3\n      pop\n      swap3\n      pop\n        /* \"Exchange.sol\":2692:2719  ecrecover(message, v, r, s) */\n      0x01\n        /* \"Exchange.sol\":2702:2709  message */\n      dup7\n        /* \"Exchange.sol\":2711:2712  v */\n      dup5\n        /* \"Exchange.sol\":2714:2715  r */\n      dup5\n        /* \"Exchange.sol\":2717:2718  s */\n      dup5\n        /* \"Exchange.sol\":2692:2719  ecrecover(message, v, r, s) */\n      mload(0x40)\n      0x00\n      dup2\n      mstore\n      0x20\n      add\n      0x40\n      mstore\n      mload(0x40)\n      tag_256\n      swap5\n      swap4\n      swap3\n      swap2\n      swap1\n      tag_257\n      jump\t// in\n    tag_256:\n      0x20\n      mload(0x40)\n      0x20\n      dup2\n      sub\n      swap1\n      dup1\n      dup5\n      sub\n      swap1\n      dup6\n      gas\n      staticcall\n      iszero\n      dup1\n      iszero\n      tag_259\n      jumpi\n      returndatasize\n      0x00\n      dup1\n      returndatacopy\n      revert(0x00, returndatasize)\n    tag_259:\n      pop\n      pop\n      pop\n      mload(sub(mload(0x40), 0x20))\n        /* \"Exchange.sol\":2685:2719  return ecrecover(message, v, r, s) */\n      swap4\n      pop\n      pop\n      pop\n      pop\n        /* \"Exchange.sol\":2486:2727  function recoverSigner(bytes32 message, bytes memory sig)... */\n      swap3\n      swap2\n      pop\n      pop\n      jump\t// out\n        /* \"@openzeppelin/contracts/token/ERC20/utils/SafeERC20.sol\":3747:4453  function _callOptionalReturn(IERC20 token, bytes memory data) private {... */\n    tag_214:\n        /* \"@openzeppelin/contracts/token/ERC20/utils/SafeERC20.sol\":4166:4189  bytes memory returndata */\n      0x00\n        /* \"@openzeppelin/contracts/token/ERC20/utils/SafeERC20.sol\":4192:4261  address(token).functionCall(data, \"SafeERC20: low-level call failed\") */\n      tag_261\n        /* \"@openzeppelin/contracts/token/ERC20/utils/SafeERC20.sol\":4220:4224  data */\n      dup3\n        /* \"@openzeppelin/contracts/token/ERC20/utils/SafeERC20.sol\":4192:4261  address(token).functionCall(data, \"SafeERC20: low-level call failed\") */\n      mload(0x40)\n      dup1\n      0x40\n      add\n      0x40\n      mstore\n      dup1\n      0x20\n      dup2\n      mstore\n      0x20\n      add\n      0x5361666545524332303a206c6f772d6c6576656c2063616c6c206661696c6564\n      dup2\n      mstore\n      pop\n        /* \"@openzeppelin/contracts/token/ERC20/utils/SafeERC20.sol\":4200:4205  token */\n      dup6\n        /* \"@openzeppelin/contracts/token/ERC20/utils/SafeERC20.sol\":4192:4219  address(token).functionCall */\n      0xffffffffffffffffffffffffffffffffffffffff\n      and\n      tag_262\n      swap1\n        /* \"@openzeppelin/contracts/token/ERC20/utils/SafeERC20.sol\":4192:4261  address(token).functionCall(data, \"SafeERC20: low-level call failed\") */\n      swap3\n      swap2\n      swap1\n      0xffffffff\n      and\n      jump\t// in\n    tag_261:\n        /* \"@openzeppelin/contracts/token/ERC20/utils/SafeERC20.sol\":4166:4261  bytes memory returndata = address(token).functionCall(data, \"SafeERC20: low-level call failed\") */\n      swap1\n      pop\n        /* \"@openzeppelin/contracts/token/ERC20/utils/SafeERC20.sol\":4295:4296  0 */\n      0x00\n        /* \"@openzeppelin/contracts/token/ERC20/utils/SafeERC20.sol\":4275:4285  returndata */\n      dup2\n        /* \"@openzeppelin/contracts/token/ERC20/utils/SafeERC20.sol\":4275:4292  returndata.length */\n      mload\n        /* \"@openzeppelin/contracts/token/ERC20/utils/SafeERC20.sol\":4275:4296  returndata.length > 0 */\n      gt\n        /* \"@openzeppelin/contracts/token/ERC20/utils/SafeERC20.sol\":4271:4447  if (returndata.length > 0) {... */\n      iszero\n      tag_263\n      jumpi\n        /* \"@openzeppelin/contracts/token/ERC20/utils/SafeERC20.sol\":4370:4380  returndata */\n      dup1\n        /* \"@openzeppelin/contracts/token/ERC20/utils/SafeERC20.sol\":4359:4389  abi.decode(returndata, (bool)) */\n      dup1\n      0x20\n      add\n      swap1\n      mload\n      dup2\n      add\n      swap1\n      tag_264\n      swap2\n      swap1\n      tag_265\n      jump\t// in\n    tag_264:\n        /* \"@openzeppelin/contracts/token/ERC20/utils/SafeERC20.sol\":4351:4436  require(abi.decode(returndata, (bool)), \"SafeERC20: ERC20 operation did not succeed\") */\n      tag_266\n      jumpi\n      mload(0x40)\n      0x08c379a000000000000000000000000000000000000000000000000000000000\n      dup2\n      mstore\n      0x04\n      add\n      tag_267\n      swap1\n      tag_268\n      jump\t// in\n    tag_267:\n      mload(0x40)\n      dup1\n      swap2\n      sub\n      swap1\n      revert\n    tag_266:\n        /* \"@openzeppelin/contracts/token/ERC20/utils/SafeERC20.sol\":4271:4447  if (returndata.length > 0) {... */\n    tag_263:\n        /* \"@openzeppelin/contracts/token/ERC20/utils/SafeERC20.sol\":3817:4453  {... */\n      pop\n        /* \"@openzeppelin/contracts/token/ERC20/utils/SafeERC20.sol\":3747:4453  function _callOptionalReturn(IERC20 token, bytes memory data) private {... */\n      pop\n      pop\n      jump\t// out\n        /* \"@openzeppelin/contracts/utils/structs/EnumerableSet.sol\":4811:4929  function _at(Set storage set, uint256 index) private view returns (bytes32) {... */\n    tag_217:\n        /* \"@openzeppelin/contracts/utils/structs/EnumerableSet.sol\":4878:4885  bytes32 */\n      0x00\n        /* \"@openzeppelin/contracts/utils/structs/EnumerableSet.sol\":4904:4907  set */\n      dup3\n        /* \"@openzeppelin/contracts/utils/structs/EnumerableSet.sol\":4904:4915  set._values */\n      0x00\n      add\n        /* \"@openzeppelin/contracts/utils/structs/EnumerableSet.sol\":4916:4921  index */\n      dup3\n        /* \"@openzeppelin/contracts/utils/structs/EnumerableSet.sol\":4904:4922  set._values[index] */\n      dup2\n      sload\n      dup2\n      lt\n      tag_270\n      jumpi\n      tag_271\n      tag_272\n      jump\t// in\n    tag_271:\n    tag_270:\n      swap1\n      0x00\n      mstore\n      keccak256(0x00, 0x20)\n      add\n      sload\n        /* \"@openzeppelin/contracts/utils/structs/EnumerableSet.sol\":4897:4922  return set._values[index] */\n      swap1\n      pop\n        /* \"@openzeppelin/contracts/utils/structs/EnumerableSet.sol\":4811:4929  function _at(Set storage set, uint256 index) private view returns (bytes32) {... */\n      swap3\n      swap2\n      pop\n      pop\n      jump\t// out\n        /* \"@openzeppelin/contracts/utils/structs/EnumerableSet.sol\":4362:4469  function _length(Set storage set) private view returns (uint256) {... */\n    tag_224:\n        /* \"@openzeppelin/contracts/utils/structs/EnumerableSet.sol\":4418:4425  uint256 */\n      0x00\n        /* \"@openzeppelin/contracts/utils/structs/EnumerableSet.sol\":4444:4447  set */\n      dup2\n        /* \"@openzeppelin/contracts/utils/structs/EnumerableSet.sol\":4444:4455  set._values */\n      0x00\n      add\n        /* \"@openzeppelin/contracts/utils/structs/EnumerableSet.sol\":4444:4462  set._values.length */\n      dup1\n      sload\n      swap1\n      pop\n        /* \"@openzeppelin/contracts/utils/structs/EnumerableSet.sol\":4437:4462  return set._values.length */\n      swap1\n      pop\n        /* \"@openzeppelin/contracts/utils/structs/EnumerableSet.sol\":4362:4469  function _length(Set storage set) private view returns (uint256) {... */\n      swap2\n      swap1\n      pop\n      jump\t// out\n        /* \"@openzeppelin/contracts/utils/Strings.sol\":1652:2093  function toHexString(uint256 value, uint256 length) internal pure returns (string memory) {... */\n    tag_230:\n        /* \"@openzeppelin/contracts/utils/Strings.sol\":1727:1740  string memory */\n      0x60\n        /* \"@openzeppelin/contracts/utils/Strings.sol\":1752:1771  bytes memory buffer */\n      0x00\n        /* \"@openzeppelin/contracts/utils/Strings.sol\":1797:1798  2 */\n      0x02\n        /* \"@openzeppelin/contracts/utils/Strings.sol\":1788:1794  length */\n      dup4\n        /* \"@openzeppelin/contracts/utils/Strings.sol\":1784:1785  2 */\n      0x02\n        /* \"@openzeppelin/contracts/utils/Strings.sol\":1784:1794  2 * length */\n      tag_276\n      swap2\n      swap1\n      tag_277\n      jump\t// in\n    tag_276:\n        /* \"@openzeppelin/contracts/utils/Strings.sol\":1784:1798  2 * length + 2 */\n      tag_278\n      swap2\n      swap1\n      tag_279\n      jump\t// in\n    tag_278:\n        /* \"@openzeppelin/contracts/utils/Strings.sol\":1774:1799  new bytes(2 * length + 2) */\n      0xffffffffffffffff\n      dup2\n      gt\n      iszero\n      tag_280\n      jumpi\n      tag_281\n      tag_282\n      jump\t// in\n    tag_281:\n    tag_280:\n      mload(0x40)\n      swap1\n      dup1\n      dup3\n      mstore\n      dup1\n      0x1f\n      add\n      not(0x1f)\n      and\n      0x20\n      add\n      dup3\n      add\n      0x40\n      mstore\n      dup1\n      iszero\n      tag_283\n      jumpi\n      dup2\n      0x20\n      add\n      0x01\n      dup3\n      mul\n      dup1\n      calldatasize\n      dup4\n      calldatacopy\n      dup1\n      dup3\n      add\n      swap2\n      pop\n      pop\n      swap1\n      pop\n    tag_283:\n      pop\n        /* \"@openzeppelin/contracts/utils/Strings.sol\":1752:1799  bytes memory buffer = new bytes(2 * length + 2) */\n      swap1\n      pop\n        /* \"@openzeppelin/contracts/utils/Strings.sol\":1809:1824  buffer[0] = \"0\" */\n      0x3000000000000000000000000000000000000000000000000000000000000000\n        /* \"@openzeppelin/contracts/utils/Strings.sol\":1809:1815  buffer */\n      dup2\n        /* \"@openzeppelin/contracts/utils/Strings.sol\":1816:1817  0 */\n      0x00\n        /* \"@openzeppelin/contracts/utils/Strings.sol\":1809:1818  buffer[0] */\n      dup2\n      mload\n      dup2\n      lt\n      tag_284\n      jumpi\n      tag_285\n      tag_272\n      jump\t// in\n    tag_285:\n    tag_284:\n      0x20\n      add\n      add\n        /* \"@openzeppelin/contracts/utils/Strings.sol\":1809:1824  buffer[0] = \"0\" */\n      swap1\n      not(0xffffffffffffffffffffffffffffffffffffffffffffffffffffffffffffff)\n      and\n      swap1\n      dup2\n      0x00\n      byte\n      swap1\n      mstore8\n      pop\n        /* \"@openzeppelin/contracts/utils/Strings.sol\":1834:1849  buffer[1] = \"x\" */\n      0x7800000000000000000000000000000000000000000000000000000000000000\n        /* \"@openzeppelin/contracts/utils/Strings.sol\":1834:1840  buffer */\n      dup2\n        /* \"@openzeppelin/contracts/utils/Strings.sol\":1841:1842  1 */\n      0x01\n        /* \"@openzeppelin/contracts/utils/Strings.sol\":1834:1843  buffer[1] */\n      dup2\n      mload\n      dup2\n      lt\n      tag_286\n      jumpi\n      tag_287\n      tag_272\n      jump\t// in\n    tag_287:\n    tag_286:\n      0x20\n      add\n      add\n        /* \"@openzeppelin/contracts/utils/Strings.sol\":1834:1849  buffer[1] = \"x\" */\n      swap1\n      not(0xffffffffffffffffffffffffffffffffffffffffffffffffffffffffffffff)\n      and\n      swap1\n      dup2\n      0x00\n      byte\n      swap1\n      mstore8\n      pop\n        /* \"@openzeppelin/contracts/utils/Strings.sol\":1864:1873  uint256 i */\n      0x00\n        /* \"@openzeppelin/contracts/utils/Strings.sol\":1889:1890  1 */\n      0x01\n        /* \"@openzeppelin/contracts/utils/Strings.sol\":1880:1886  length */\n      dup5\n        /* \"@openzeppelin/contracts/utils/Strings.sol\":1876:1877  2 */\n      0x02\n        /* \"@openzeppelin/contracts/utils/Strings.sol\":1876:1886  2 * length */\n      tag_291\n      swap2\n      swap1\n      tag_277\n      jump\t// in\n    tag_291:\n        /* \"@openzeppelin/contracts/utils/Strings.sol\":1876:1890  2 * length + 1 */\n      tag_292\n      swap2\n      swap1\n      tag_279\n      jump\t// in\n    tag_292:\n        /* \"@openzeppelin/contracts/utils/Strings.sol\":1864:1890  uint256 i = 2 * length + 1 */\n      swap1\n      pop\n        /* \"@openzeppelin/contracts/utils/Strings.sol\":1859:1991  for (uint256 i = 2 * length + 1; i > 1; --i) {... */\n    tag_288:\n        /* \"@openzeppelin/contracts/utils/Strings.sol\":1896:1897  1 */\n      0x01\n        /* \"@openzeppelin/contracts/utils/Strings.sol\":1892:1893  i */\n      dup2\n        /* \"@openzeppelin/contracts/utils/Strings.sol\":1892:1897  i > 1 */\n      gt\n        /* \"@openzeppelin/contracts/utils/Strings.sol\":1859:1991  for (uint256 i = 2 * length + 1; i > 1; --i) {... */\n      iszero\n      tag_289\n      jumpi\n        /* \"@openzeppelin/contracts/utils/Strings.sol\":1930:1942  _HEX_SYMBOLS */\n      0x3031323334353637383961626364656600000000000000000000000000000000\n        /* \"@openzeppelin/contracts/utils/Strings.sol\":1951:1954  0xf */\n      0x0f\n        /* \"@openzeppelin/contracts/utils/Strings.sol\":1943:1948  value */\n      dup7\n        /* \"@openzeppelin/contracts/utils/Strings.sol\":1943:1954  value & 0xf */\n      and\n        /* \"@openzeppelin/contracts/utils/Strings.sol\":1930:1955  _HEX_SYMBOLS[value & 0xf] */\n      0x10\n      dup2\n      lt\n      tag_293\n      jumpi\n      tag_294\n      tag_272\n      jump\t// in\n    tag_294:\n    tag_293:\n      byte\n      0xf8\n      shl\n        /* \"@openzeppelin/contracts/utils/Strings.sol\":1918:1924  buffer */\n      dup3\n        /* \"@openzeppelin/contracts/utils/Strings.sol\":1925:1926  i */\n      dup3\n        /* \"@openzeppelin/contracts/utils/Strings.sol\":1918:1927  buffer[i] */\n      dup2\n      mload\n      dup2\n      lt\n      tag_295\n      jumpi\n      tag_296\n      tag_272\n      jump\t// in\n    tag_296:\n    tag_295:\n      0x20\n      add\n      add\n        /* \"@openzeppelin/contracts/utils/Strings.sol\":1918:1955  buffer[i] = _HEX_SYMBOLS[value & 0xf] */\n      swap1\n      not(0xffffffffffffffffffffffffffffffffffffffffffffffffffffffffffffff)\n      and\n      swap1\n      dup2\n      0x00\n      byte\n      swap1\n      mstore8\n      pop\n        /* \"@openzeppelin/contracts/utils/Strings.sol\":1979:1980  4 */\n      0x04\n        /* \"@openzeppelin/contracts/utils/Strings.sol\":1969:1980  value >>= 4 */\n      dup6\n      swap1\n      shr\n      swap5\n      pop\n        /* \"@openzeppelin/contracts/utils/Strings.sol\":1899:1902  --i */\n      dup1\n      tag_297\n      swap1\n      tag_298\n      jump\t// in\n    tag_297:\n      swap1\n      pop\n        /* \"@openzeppelin/contracts/utils/Strings.sol\":1859:1991  for (uint256 i = 2 * length + 1; i > 1; --i) {... */\n      jump(tag_288)\n    tag_289:\n      pop\n        /* \"@openzeppelin/contracts/utils/Strings.sol\":2017:2018  0 */\n      0x00\n        /* \"@openzeppelin/contracts/utils/Strings.sol\":2008:2013  value */\n      dup5\n        /* \"@openzeppelin/contracts/utils/Strings.sol\":2008:2018  value == 0 */\n      eq\n        /* \"@openzeppelin/contracts/utils/Strings.sol\":2000:2055  require(value == 0, \"Strings: hex length insufficient\") */\n      tag_299\n      jumpi\n      mload(0x40)\n      0x08c379a000000000000000000000000000000000000000000000000000000000\n      dup2\n      mstore\n      0x04\n      add\n      tag_300\n      swap1\n      tag_301\n      jump\t// in\n    tag_300:\n      mload(0x40)\n      dup1\n      swap2\n      sub\n      swap1\n      revert\n    tag_299:\n        /* \"@openzeppelin/contracts/utils/Strings.sol\":2079:2085  buffer */\n      dup1\n        /* \"@openzeppelin/contracts/utils/Strings.sol\":2065:2086  return string(buffer) */\n      swap2\n      pop\n      pop\n        /* \"@openzeppelin/contracts/utils/Strings.sol\":1652:2093  function toHexString(uint256 value, uint256 length) internal pure returns (string memory) {... */\n      swap3\n      swap2\n      pop\n      pop\n      jump\t// out\n        /* \"@openzeppelin/contracts/utils/structs/EnumerableSet.sol\":2113:2517  function _add(Set storage set, bytes32 value) private returns (bool) {... */\n    tag_242:\n        /* \"@openzeppelin/contracts/utils/structs/EnumerableSet.sol\":2176:2180  bool */\n      0x00\n        /* \"@openzeppelin/contracts/utils/structs/EnumerableSet.sol\":2197:2218  _contains(set, value) */\n      tag_303\n        /* \"@openzeppelin/contracts/utils/structs/EnumerableSet.sol\":2207:2210  set */\n      dup4\n        /* \"@openzeppelin/contracts/utils/structs/EnumerableSet.sol\":2212:2217  value */\n      dup4\n        /* \"@openzeppelin/contracts/utils/structs/EnumerableSet.sol\":2197:2206  _contains */\n      tag_304\n        /* \"@openzeppelin/contracts/utils/structs/EnumerableSet.sol\":2197:2218  _contains(set, value) */\n      jump\t// in\n    tag_303:\n        /* \"@openzeppelin/contracts/utils/structs/EnumerableSet.sol\":2192:2511  if (!_contains(set, value)) {... */\n      tag_305\n      jumpi\n        /* \"@openzeppelin/contracts/utils/structs/EnumerableSet.sol\":2234:2237  set */\n      dup3\n        /* \"@openzeppelin/contracts/utils/structs/EnumerableSet.sol\":2234:2245  set._values */\n      0x00\n      add\n        /* \"@openzeppelin/contracts/utils/structs/EnumerableSet.sol\":2251:2256  value */\n      dup3\n        /* \"@openzeppelin/contracts/utils/structs/EnumerableSet.sol\":2234:2257  set._values.push(value) */\n      swap1\n      dup1\n      0x01\n      dup2\n      sload\n      add\n      dup1\n      dup3\n      sstore\n      dup1\n      swap2\n      pop\n      pop\n      0x01\n      swap1\n      sub\n      swap1\n      0x00\n      mstore\n      keccak256(0x00, 0x20)\n      add\n      0x00\n      swap1\n      swap2\n      swap1\n      swap2\n      swap1\n      swap2\n      pop\n      sstore\n        /* \"@openzeppelin/contracts/utils/structs/EnumerableSet.sol\":2414:2417  set */\n      dup3\n        /* \"@openzeppelin/contracts/utils/structs/EnumerableSet.sol\":2414:2425  set._values */\n      0x00\n      add\n        /* \"@openzeppelin/contracts/utils/structs/EnumerableSet.sol\":2414:2432  set._values.length */\n      dup1\n      sload\n      swap1\n      pop\n        /* \"@openzeppelin/contracts/utils/structs/EnumerableSet.sol\":2392:2395  set */\n      dup4\n        /* \"@openzeppelin/contracts/utils/structs/EnumerableSet.sol\":2392:2404  set._indexes */\n      0x01\n      add\n        /* \"@openzeppelin/contracts/utils/structs/EnumerableSet.sol\":2392:2411  set._indexes[value] */\n      0x00\n        /* \"@openzeppelin/contracts/utils/structs/EnumerableSet.sol\":2405:2410  value */\n      dup5\n        /* \"@openzeppelin/contracts/utils/structs/EnumerableSet.sol\":2392:2411  set._indexes[value] */\n      dup2\n      mstore\n      0x20\n      add\n      swap1\n      dup2\n      mstore\n      0x20\n      add\n      0x00\n      keccak256\n        /* \"@openzeppelin/contracts/utils/structs/EnumerableSet.sol\":2392:2432  set._indexes[value] = set._values.length */\n      dup2\n      swap1\n      sstore\n      pop\n        /* \"@openzeppelin/contracts/utils/structs/EnumerableSet.sol\":2453:2457  true */\n      0x01\n        /* \"@openzeppelin/contracts/utils/structs/EnumerableSet.sol\":2446:2457  return true */\n      swap1\n      pop\n      jump(tag_302)\n        /* \"@openzeppelin/contracts/utils/structs/EnumerableSet.sol\":2192:2511  if (!_contains(set, value)) {... */\n    tag_305:\n        /* \"@openzeppelin/contracts/utils/structs/EnumerableSet.sol\":2495:2500  false */\n      0x00\n        /* \"@openzeppelin/contracts/utils/structs/EnumerableSet.sol\":2488:2500  return false */\n      swap1\n      pop\n        /* \"@openzeppelin/contracts/utils/structs/EnumerableSet.sol\":2113:2517  function _add(Set storage set, bytes32 value) private returns (bool) {... */\n    tag_302:\n      swap3\n      swap2\n      pop\n      pop\n      jump\t// out\n        /* \"@openzeppelin/contracts/utils/structs/EnumerableSet.sol\":2685:4073  function _remove(Set storage set, bytes32 value) private returns (bool) {... */\n    tag_249:\n        /* \"@openzeppelin/contracts/utils/structs/EnumerableSet.sol\":2751:2755  bool */\n      0x00\n        /* \"@openzeppelin/contracts/utils/structs/EnumerableSet.sol\":2867:2885  uint256 valueIndex */\n      dup1\n        /* \"@openzeppelin/contracts/utils/structs/EnumerableSet.sol\":2888:2891  set */\n      dup4\n        /* \"@openzeppelin/contracts/utils/structs/EnumerableSet.sol\":2888:2900  set._indexes */\n      0x01\n      add\n        /* \"@openzeppelin/contracts/utils/structs/EnumerableSet.sol\":2888:2907  set._indexes[value] */\n      0x00\n        /* \"@openzeppelin/contracts/utils/structs/EnumerableSet.sol\":2901:2906  value */\n      dup5\n        /* \"@openzeppelin/contracts/utils/structs/EnumerableSet.sol\":2888:2907  set._indexes[value] */\n      dup2\n      mstore\n      0x20\n      add\n      swap1\n      dup2\n      mstore\n      0x20\n      add\n      0x00\n      keccak256\n      sload\n        /* \"@openzeppelin/contracts/utils/structs/EnumerableSet.sol\":2867:2907  uint256 valueIndex = set._indexes[value] */\n      swap1\n      pop\n        /* \"@openzeppelin/contracts/utils/structs/EnumerableSet.sol\":2936:2937  0 */\n      0x00\n        /* \"@openzeppelin/contracts/utils/structs/EnumerableSet.sol\":2922:2932  valueIndex */\n      dup2\n        /* \"@openzeppelin/contracts/utils/structs/EnumerableSet.sol\":2922:2937  valueIndex != 0 */\n      eq\n        /* \"@openzeppelin/contracts/utils/structs/EnumerableSet.sol\":2918:4067  if (valueIndex != 0) {... */\n      tag_309\n      jumpi\n        /* \"@openzeppelin/contracts/utils/structs/EnumerableSet.sol\":3291:3312  uint256 toDeleteIndex */\n      0x00\n        /* \"@openzeppelin/contracts/utils/structs/EnumerableSet.sol\":3328:3329  1 */\n      0x01\n        /* \"@openzeppelin/contracts/utils/structs/EnumerableSet.sol\":3315:3325  valueIndex */\n      dup3\n        /* \"@openzeppelin/contracts/utils/structs/EnumerableSet.sol\":3315:3329  valueIndex - 1 */\n      tag_310\n      swap2\n      swap1\n      tag_311\n      jump\t// in\n    tag_310:\n        /* \"@openzeppelin/contracts/utils/structs/EnumerableSet.sol\":3291:3329  uint256 toDeleteIndex = valueIndex - 1 */\n      swap1\n      pop\n        /* \"@openzeppelin/contracts/utils/structs/EnumerableSet.sol\":3343:3360  uint256 lastIndex */\n      0x00\n        /* \"@openzeppelin/contracts/utils/structs/EnumerableSet.sol\":3384:3385  1 */\n      0x01\n        /* \"@openzeppelin/contracts/utils/structs/EnumerableSet.sol\":3363:3366  set */\n      dup7\n        /* \"@openzeppelin/contracts/utils/structs/EnumerableSet.sol\":3363:3374  set._values */\n      0x00\n      add\n        /* \"@openzeppelin/contracts/utils/structs/EnumerableSet.sol\":3363:3381  set._values.length */\n      dup1\n      sload\n      swap1\n      pop\n        /* \"@openzeppelin/contracts/utils/structs/EnumerableSet.sol\":3363:3385  set._values.length - 1 */\n      tag_312\n      swap2\n      swap1\n      tag_311\n      jump\t// in\n    tag_312:\n        /* \"@openzeppelin/contracts/utils/structs/EnumerableSet.sol\":3343:3385  uint256 lastIndex = set._values.length - 1 */\n      swap1\n      pop\n        /* \"@openzeppelin/contracts/utils/structs/EnumerableSet.sol\":3417:3430  toDeleteIndex */\n      dup2\n        /* \"@openzeppelin/contracts/utils/structs/EnumerableSet.sol\":3404:3413  lastIndex */\n      dup2\n        /* \"@openzeppelin/contracts/utils/structs/EnumerableSet.sol\":3404:3430  lastIndex != toDeleteIndex */\n      eq\n        /* \"@openzeppelin/contracts/utils/structs/EnumerableSet.sol\":3400:3798  if (lastIndex != toDeleteIndex) {... */\n      tag_313\n      jumpi\n        /* \"@openzeppelin/contracts/utils/structs/EnumerableSet.sol\":3450:3467  bytes32 lastValue */\n      0x00\n        /* \"@openzeppelin/contracts/utils/structs/EnumerableSet.sol\":3470:3473  set */\n      dup7\n        /* \"@openzeppelin/contracts/utils/structs/EnumerableSet.sol\":3470:3481  set._values */\n      0x00\n      add\n        /* \"@openzeppelin/contracts/utils/structs/EnumerableSet.sol\":3482:3491  lastIndex */\n      dup3\n        /* \"@openzeppelin/contracts/utils/structs/EnumerableSet.sol\":3470:3492  set._values[lastIndex] */\n      dup2\n      sload\n      dup2\n      lt\n      tag_314\n      jumpi\n      tag_315\n      tag_272\n      jump\t// in\n    tag_315:\n    tag_314:\n      swap1\n      0x00\n      mstore\n      keccak256(0x00, 0x20)\n      add\n      sload\n        /* \"@openzeppelin/contracts/utils/structs/EnumerableSet.sol\":3450:3492  bytes32 lastValue = set._values[lastIndex] */\n      swap1\n      pop\n        /* \"@openzeppelin/contracts/utils/structs/EnumerableSet.sol\":3621:3630  lastValue */\n      dup1\n        /* \"@openzeppelin/contracts/utils/structs/EnumerableSet.sol\":3592:3595  set */\n      dup8\n        /* \"@openzeppelin/contracts/utils/structs/EnumerableSet.sol\":3592:3603  set._values */\n      0x00\n      add\n        /* \"@openzeppelin/contracts/utils/structs/EnumerableSet.sol\":3604:3617  toDeleteIndex */\n      dup5\n        /* \"@openzeppelin/contracts/utils/structs/EnumerableSet.sol\":3592:3618  set._values[toDeleteIndex] */\n      dup2\n      sload\n      dup2\n      lt\n      tag_317\n      jumpi\n      tag_318\n      tag_272\n      jump\t// in\n    tag_318:\n    tag_317:\n      swap1\n      0x00\n      mstore\n      keccak256(0x00, 0x20)\n      add\n        /* \"@openzeppelin/contracts/utils/structs/EnumerableSet.sol\":3592:3630  set._values[toDeleteIndex] = lastValue */\n      dup2\n      swap1\n      sstore\n      pop\n        /* \"@openzeppelin/contracts/utils/structs/EnumerableSet.sol\":3730:3740  valueIndex */\n      dup4\n        /* \"@openzeppelin/contracts/utils/structs/EnumerableSet.sol\":3704:3707  set */\n      dup8\n        /* \"@openzeppelin/contracts/utils/structs/EnumerableSet.sol\":3704:3716  set._indexes */\n      0x01\n      add\n        /* \"@openzeppelin/contracts/utils/structs/EnumerableSet.sol\":3704:3727  set._indexes[lastValue] */\n      0x00\n        /* \"@openzeppelin/contracts/utils/structs/EnumerableSet.sol\":3717:3726  lastValue */\n      dup4\n        /* \"@openzeppelin/contracts/utils/structs/EnumerableSet.sol\":3704:3727  set._indexes[lastValue] */\n      dup2\n      mstore\n      0x20\n      add\n      swap1\n      dup2\n      mstore\n      0x20\n      add\n      0x00\n      keccak256\n        /* \"@openzeppelin/contracts/utils/structs/EnumerableSet.sol\":3704:3740  set._indexes[lastValue] = valueIndex */\n      dup2\n      swap1\n      sstore\n      pop\n        /* \"@openzeppelin/contracts/utils/structs/EnumerableSet.sol\":3432:3798  {... */\n      pop\n        /* \"@openzeppelin/contracts/utils/structs/EnumerableSet.sol\":3400:3798  if (lastIndex != toDeleteIndex) {... */\n    tag_313:\n        /* \"@openzeppelin/contracts/utils/structs/EnumerableSet.sol\":3876:3879  set */\n      dup6\n        /* \"@openzeppelin/contracts/utils/structs/EnumerableSet.sol\":3876:3887  set._values */\n      0x00\n      add\n        /* \"@openzeppelin/contracts/utils/structs/EnumerableSet.sol\":3876:3893  set._values.pop() */\n      dup1\n      sload\n      dup1\n      tag_320\n      jumpi\n      tag_321\n      tag_322\n      jump\t// in\n    tag_321:\n    tag_320:\n      0x01\n      swap1\n      sub\n      dup2\n      dup2\n      swap1\n      0x00\n      mstore\n      keccak256(0x00, 0x20)\n      add\n      0x00\n      swap1\n      sstore\n      swap1\n      sstore\n        /* \"@openzeppelin/contracts/utils/structs/EnumerableSet.sol\":3968:3971  set */\n      dup6\n        /* \"@openzeppelin/contracts/utils/structs/EnumerableSet.sol\":3968:3980  set._indexes */\n      0x01\n      add\n        /* \"@openzeppelin/contracts/utils/structs/EnumerableSet.sol\":3968:3987  set._indexes[value] */\n      0x00\n        /* \"@openzeppelin/contracts/utils/structs/EnumerableSet.sol\":3981:3986  value */\n      dup7\n        /* \"@openzeppelin/contracts/utils/structs/EnumerableSet.sol\":3968:3987  set._indexes[value] */\n      dup2\n      mstore\n      0x20\n      add\n      swap1\n      dup2\n      mstore\n      0x20\n      add\n      0x00\n      keccak256\n        /* \"@openzeppelin/contracts/utils/structs/EnumerableSet.sol\":3961:3987  delete set._indexes[value] */\n      0x00\n      swap1\n      sstore\n        /* \"@openzeppelin/contracts/utils/structs/EnumerableSet.sol\":4009:4013  true */\n      0x01\n        /* \"@openzeppelin/contracts/utils/structs/EnumerableSet.sol\":4002:4013  return true */\n      swap4\n      pop\n      pop\n      pop\n      pop\n      jump(tag_308)\n        /* \"@openzeppelin/contracts/utils/structs/EnumerableSet.sol\":2918:4067  if (valueIndex != 0) {... */\n    tag_309:\n        /* \"@openzeppelin/contracts/utils/structs/EnumerableSet.sol\":4051:4056  false */\n      0x00\n        /* \"@openzeppelin/contracts/utils/structs/EnumerableSet.sol\":4044:4056  return false */\n      swap2\n      pop\n      pop\n        /* \"@openzeppelin/contracts/utils/structs/EnumerableSet.sol\":2685:4073  function _remove(Set storage set, bytes32 value) private returns (bool) {... */\n    tag_308:\n      swap3\n      swap2\n      pop\n      pop\n      jump\t// out\n        /* \"Exchange.sol\":2735:3294  function splitSignature(bytes memory sig)... */\n    tag_255:\n        /* \"Exchange.sol\":2841:2848  uint8 v */\n      0x00\n        /* \"Exchange.sol\":2863:2872  bytes32 r */\n      dup1\n        /* \"Exchange.sol\":2887:2896  bytes32 s */\n      0x00\n        /* \"Exchange.sol\":2946:2948  65 */\n      0x41\n        /* \"Exchange.sol\":2932:2935  sig */\n      dup5\n        /* \"Exchange.sol\":2932:2942  sig.length */\n      mload\n        /* \"Exchange.sol\":2932:2948  sig.length == 65 */\n      eq\n        /* \"Exchange.sol\":2924:2949  require(sig.length == 65) */\n      tag_326\n      jumpi\n      0x00\n      dup1\n      revert\n    tag_326:\n        /* \"Exchange.sol\":3063:3065  32 */\n      0x20\n        /* \"Exchange.sol\":3058:3061  sig */\n      dup5\n        /* \"Exchange.sol\":3054:3066  add(sig, 32) */\n      add\n        /* \"Exchange.sol\":3048:3067  mload(add(sig, 32)) */\n      mload\n        /* \"Exchange.sol\":3043:3067  r := mload(add(sig, 32)) */\n      swap2\n      pop\n        /* \"Exchange.sol\":3134:3136  64 */\n      0x40\n        /* \"Exchange.sol\":3129:3132  sig */\n      dup5\n        /* \"Exchange.sol\":3125:3137  add(sig, 64) */\n      add\n        /* \"Exchange.sol\":3119:3138  mload(add(sig, 64)) */\n      mload\n        /* \"Exchange.sol\":3114:3138  s := mload(add(sig, 64)) */\n      swap1\n      pop\n        /* \"Exchange.sol\":3242:3244  96 */\n      0x60\n        /* \"Exchange.sol\":3237:3240  sig */\n      dup5\n        /* \"Exchange.sol\":3233:3245  add(sig, 96) */\n      add\n        /* \"Exchange.sol\":3227:3246  mload(add(sig, 96)) */\n      mload\n        /* \"Exchange.sol\":3224:3225  0 */\n      0x00\n        /* \"Exchange.sol\":3219:3247  byte(0, mload(add(sig, 96))) */\n      byte\n        /* \"Exchange.sol\":3214:3247  v := byte(0, mload(add(sig, 96))) */\n      swap3\n      pop\n        /* \"Exchange.sol\":2735:3294  function splitSignature(bytes memory sig)... */\n      swap2\n      swap4\n      swap1\n      swap3\n      pop\n      jump\t// out\n        /* \"@openzeppelin/contracts/utils/Address.sol\":3861:4084  function functionCall(... */\n    tag_262:\n        /* \"@openzeppelin/contracts/utils/Address.sol\":3994:4006  bytes memory */\n      0x60\n        /* \"@openzeppelin/contracts/utils/Address.sol\":4025:4077  functionCallWithValue(target, data, 0, errorMessage) */\n      tag_328\n        /* \"@openzeppelin/contracts/utils/Address.sol\":4047:4053  target */\n      dup5\n        /* \"@openzeppelin/contracts/utils/Address.sol\":4055:4059  data */\n      dup5\n        /* \"@openzeppelin/contracts/utils/Address.sol\":4061:4062  0 */\n      0x00\n        /* \"@openzeppelin/contracts/utils/Address.sol\":4064:4076  errorMessage */\n      dup6\n        /* \"@openzeppelin/contracts/utils/Address.sol\":4025:4046  functionCallWithValue */\n      tag_329\n        /* \"@openzeppelin/contracts/utils/Address.sol\":4025:4077  functionCallWithValue(target, data, 0, errorMessage) */\n      jump\t// in\n    tag_328:\n        /* \"@openzeppelin/contracts/utils/Address.sol\":4018:4077  return functionCallWithValue(target, data, 0, errorMessage) */\n      swap1\n      pop\n        /* \"@openzeppelin/contracts/utils/Address.sol\":3861:4084  function functionCall(... */\n      swap4\n      swap3\n      pop\n      pop\n      pop\n      jump\t// out\n        /* \"@openzeppelin/contracts/utils/structs/EnumerableSet.sol\":4154:4281  function _contains(Set storage set, bytes32 value) private view returns (bool) {... */\n    tag_304:\n        /* \"@openzeppelin/contracts/utils/structs/EnumerableSet.sol\":4227:4231  bool */\n      0x00\n        /* \"@openzeppelin/contracts/utils/structs/EnumerableSet.sol\":4273:4274  0 */\n      dup1\n        /* \"@openzeppelin/contracts/utils/structs/EnumerableSet.sol\":4250:4253  set */\n      dup4\n        /* \"@openzeppelin/contracts/utils/structs/EnumerableSet.sol\":4250:4262  set._indexes */\n      0x01\n      add\n        /* \"@openzeppelin/contracts/utils/structs/EnumerableSet.sol\":4250:4269  set._indexes[value] */\n      0x00\n        /* \"@openzeppelin/contracts/utils/structs/EnumerableSet.sol\":4263:4268  value */\n      dup5\n        /* \"@openzeppelin/contracts/utils/structs/EnumerableSet.sol\":4250:4269  set._indexes[value] */\n      dup2\n      mstore\n      0x20\n      add\n      swap1\n      dup2\n      mstore\n      0x20\n      add\n      0x00\n      keccak256\n      sload\n        /* \"@openzeppelin/contracts/utils/structs/EnumerableSet.sol\":4250:4274  set._indexes[value] != 0 */\n      eq\n      iszero\n        /* \"@openzeppelin/contracts/utils/structs/EnumerableSet.sol\":4243:4274  return set._indexes[value] != 0 */\n      swap1\n      pop\n        /* \"@openzeppelin/contracts/utils/structs/EnumerableSet.sol\":4154:4281  function _contains(Set storage set, bytes32 value) private view returns (bool) {... */\n      swap3\n      swap2\n      pop\n      pop\n      jump\t// out\n        /* \"@openzeppelin/contracts/utils/Address.sol\":4948:5447  function functionCallWithValue(... */\n    tag_329:\n        /* \"@openzeppelin/contracts/utils/Address.sol\":5113:5125  bytes memory */\n      0x60\n        /* \"@openzeppelin/contracts/utils/Address.sol\":5170:5175  value */\n      dup3\n        /* \"@openzeppelin/contracts/utils/Address.sol\":5145:5166  address(this).balance */\n      selfbalance\n        /* \"@openzeppelin/contracts/utils/Address.sol\":5145:5175  address(this).balance >= value */\n      lt\n      iszero\n        /* \"@openzeppelin/contracts/utils/Address.sol\":5137:5218  require(address(this).balance >= value, \"Address: insufficient balance for call\") */\n      tag_332\n      jumpi\n      mload(0x40)\n      0x08c379a000000000000000000000000000000000000000000000000000000000\n      dup2\n      mstore\n      0x04\n      add\n      tag_333\n      swap1\n      tag_334\n      jump\t// in\n    tag_333:\n      mload(0x40)\n      dup1\n      swap2\n      sub\n      swap1\n      revert\n    tag_332:\n        /* \"@openzeppelin/contracts/utils/Address.sol\":5236:5254  isContract(target) */\n      tag_335\n        /* \"@openzeppelin/contracts/utils/Address.sol\":5247:5253  target */\n      dup6\n        /* \"@openzeppelin/contracts/utils/Address.sol\":5236:5246  isContract */\n      tag_336\n        /* \"@openzeppelin/contracts/utils/Address.sol\":5236:5254  isContract(target) */\n      jump\t// in\n    tag_335:\n        /* \"@openzeppelin/contracts/utils/Address.sol\":5228:5288  require(isContract(target), \"Address: call to non-contract\") */\n      tag_337\n      jumpi\n      mload(0x40)\n      0x08c379a000000000000000000000000000000000000000000000000000000000\n      dup2\n      mstore\n      0x04\n      add\n      tag_338\n      swap1\n      tag_339\n      jump\t// in\n    tag_338:\n      mload(0x40)\n      dup1\n      swap2\n      sub\n      swap1\n      revert\n    tag_337:\n        /* \"@openzeppelin/contracts/utils/Address.sol\":5300:5312  bool success */\n      0x00\n        /* \"@openzeppelin/contracts/utils/Address.sol\":5314:5337  bytes memory returndata */\n      dup1\n        /* \"@openzeppelin/contracts/utils/Address.sol\":5341:5347  target */\n      dup7\n        /* \"@openzeppelin/contracts/utils/Address.sol\":5341:5352  target.call */\n      0xffffffffffffffffffffffffffffffffffffffff\n      and\n        /* \"@openzeppelin/contracts/utils/Address.sol\":5360:5365  value */\n      dup6\n        /* \"@openzeppelin/contracts/utils/Address.sol\":5367:5371  data */\n      dup8\n        /* \"@openzeppelin/contracts/utils/Address.sol\":5341:5372  target.call{value: value}(data) */\n      mload(0x40)\n      tag_340\n      swap2\n      swap1\n      tag_125\n      jump\t// in\n    tag_340:\n      0x00\n      mload(0x40)\n      dup1\n      dup4\n      sub\n      dup2\n      dup6\n      dup8\n      gas\n      call\n      swap3\n      pop\n      pop\n      pop\n      returndatasize\n      dup1\n      0x00\n      dup2\n      eq\n      tag_343\n      jumpi\n      mload(0x40)\n      swap2\n      pop\n      and(add(returndatasize, 0x3f), not(0x1f))\n      dup3\n      add\n      0x40\n      mstore\n      returndatasize\n      dup3\n      mstore\n      returndatasize\n      0x00\n      0x20\n      dup5\n      add\n      returndatacopy\n      jump(tag_342)\n    tag_343:\n      0x60\n      swap2\n      pop\n    tag_342:\n      pop\n        /* \"@openzeppelin/contracts/utils/Address.sol\":5299:5372  (bool success, bytes memory returndata) = target.call{value: value}(data) */\n      swap2\n      pop\n      swap2\n      pop\n        /* \"@openzeppelin/contracts/utils/Address.sol\":5389:5440  verifyCallResult(success, returndata, errorMessage) */\n      tag_344\n        /* \"@openzeppelin/contracts/utils/Address.sol\":5406:5413  success */\n      dup3\n        /* \"@openzeppelin/contracts/utils/Address.sol\":5415:5425  returndata */\n      dup3\n        /* \"@openzeppelin/contracts/utils/Address.sol\":5427:5439  errorMessage */\n      dup7\n        /* \"@openzeppelin/contracts/utils/Address.sol\":5389:5405  verifyCallResult */\n      tag_345\n        /* \"@openzeppelin/contracts/utils/Address.sol\":5389:5440  verifyCallResult(success, returndata, errorMessage) */\n      jump\t// in\n    tag_344:\n        /* \"@openzeppelin/contracts/utils/Address.sol\":5382:5440  return verifyCallResult(success, returndata, errorMessage) */\n      swap3\n      pop\n      pop\n      pop\n        /* \"@openzeppelin/contracts/utils/Address.sol\":4948:5447  function functionCallWithValue(... */\n      swap5\n      swap4\n      pop\n      pop\n      pop\n      pop\n      jump\t// out\n        /* \"@openzeppelin/contracts/utils/Address.sol\":1175:1495  function isContract(address account) internal view returns (bool) {... */\n    tag_336:\n        /* \"@openzeppelin/contracts/utils/Address.sol\":1235:1239  bool */\n      0x00\n        /* \"@openzeppelin/contracts/utils/Address.sol\":1487:1488  0 */\n      dup1\n        /* \"@openzeppelin/contracts/utils/Address.sol\":1465:1472  account */\n      dup3\n        /* \"@openzeppelin/contracts/utils/Address.sol\":1465:1484  account.code.length */\n      0xffffffffffffffffffffffffffffffffffffffff\n      and\n      extcodesize\n        /* \"@openzeppelin/contracts/utils/Address.sol\":1465:1488  account.code.length > 0 */\n      gt\n        /* \"@openzeppelin/contracts/utils/Address.sol\":1458:1488  return account.code.length > 0 */\n      swap1\n      pop\n        /* \"@openzeppelin/contracts/utils/Address.sol\":1175:1495  function isContract(address account) internal view returns (bool) {... */\n      swap2\n      swap1\n      pop\n      jump\t// out\n        /* \"@openzeppelin/contracts/utils/Address.sol\":7561:8303  function verifyCallResult(... */\n    tag_345:\n        /* \"@openzeppelin/contracts/utils/Address.sol\":7707:7719  bytes memory */\n      0x60\n        /* \"@openzeppelin/contracts/utils/Address.sol\":7735:7742  success */\n      dup4\n        /* \"@openzeppelin/contracts/utils/Address.sol\":7731:8297  if (success) {... */\n      iszero\n      tag_348\n      jumpi\n        /* \"@openzeppelin/contracts/utils/Address.sol\":7765:7775  returndata */\n      dup3\n        /* \"@openzeppelin/contracts/utils/Address.sol\":7758:7775  return returndata */\n      swap1\n      pop\n      jump(tag_347)\n        /* \"@openzeppelin/contracts/utils/Address.sol\":7731:8297  if (success) {... */\n    tag_348:\n        /* \"@openzeppelin/contracts/utils/Address.sol\":7896:7897  0 */\n      0x00\n        /* \"@openzeppelin/contracts/utils/Address.sol\":7876:7886  returndata */\n      dup4\n        /* \"@openzeppelin/contracts/utils/Address.sol\":7876:7893  returndata.length */\n      mload\n        /* \"@openzeppelin/contracts/utils/Address.sol\":7876:7897  returndata.length > 0 */\n      gt\n        /* \"@openzeppelin/contracts/utils/Address.sol\":7872:8287  if (returndata.length > 0) {... */\n      iszero\n      tag_350\n      jumpi\n        /* \"@openzeppelin/contracts/utils/Address.sol\":8120:8130  returndata */\n      dup3\n        /* \"@openzeppelin/contracts/utils/Address.sol\":8114:8131  mload(returndata) */\n      mload\n        /* \"@openzeppelin/contracts/utils/Address.sol\":8180:8195  returndata_size */\n      dup1\n        /* \"@openzeppelin/contracts/utils/Address.sol\":8167:8177  returndata */\n      dup5\n        /* \"@openzeppelin/contracts/utils/Address.sol\":8163:8165  32 */\n      0x20\n        /* \"@openzeppelin/contracts/utils/Address.sol\":8159:8178  add(32, returndata) */\n      add\n        /* \"@openzeppelin/contracts/utils/Address.sol\":8152:8196  revert(add(32, returndata), returndata_size) */\n      revert\n        /* \"@openzeppelin/contracts/utils/Address.sol\":7872:8287  if (returndata.length > 0) {... */\n    tag_350:\n        /* \"@openzeppelin/contracts/utils/Address.sol\":8259:8271  errorMessage */\n      dup2\n        /* \"@openzeppelin/contracts/utils/Address.sol\":8252:8272  revert(errorMessage) */\n      mload(0x40)\n      0x08c379a000000000000000000000000000000000000000000000000000000000\n      dup2\n      mstore\n      0x04\n      add\n      tag_352\n      swap2\n      swap1\n      tag_235\n      jump\t// in\n    tag_352:\n      mload(0x40)\n      dup1\n      swap2\n      sub\n      swap1\n      revert\n        /* \"@openzeppelin/contracts/utils/Address.sol\":7561:8303  function verifyCallResult(... */\n    tag_347:\n      swap4\n      swap3\n      pop\n      pop\n      pop\n      jump\t// out\n        /* \"#utility.yul\":7:82   */\n    tag_353:\n        /* \"#utility.yul\":40:46   */\n      0x00\n        /* \"#utility.yul\":73:75   */\n      0x40\n        /* \"#utility.yul\":67:76   */\n      mload\n        /* \"#utility.yul\":57:76   */\n      swap1\n      pop\n        /* \"#utility.yul\":7:82   */\n      swap1\n      jump\t// out\n        /* \"#utility.yul\":88:205   */\n    tag_354:\n        /* \"#utility.yul\":197:198   */\n      0x00\n        /* \"#utility.yul\":194:195   */\n      dup1\n        /* \"#utility.yul\":187:199   */\n      revert\n        /* \"#utility.yul\":211:328   */\n    tag_355:\n        /* \"#utility.yul\":320:321   */\n      0x00\n        /* \"#utility.yul\":317:318   */\n      dup1\n        /* \"#utility.yul\":310:322   */\n      revert\n        /* \"#utility.yul\":334:483   */\n    tag_356:\n        /* \"#utility.yul\":370:377   */\n      0x00\n        /* \"#utility.yul\":410:476   */\n      0xffffffff00000000000000000000000000000000000000000000000000000000\n        /* \"#utility.yul\":403:408   */\n      dup3\n        /* \"#utility.yul\":399:477   */\n      and\n        /* \"#utility.yul\":388:477   */\n      swap1\n      pop\n        /* \"#utility.yul\":334:483   */\n      swap2\n      swap1\n      pop\n      jump\t// out\n        /* \"#utility.yul\":489:609   */\n    tag_357:\n        /* \"#utility.yul\":561:584   */\n      tag_431\n        /* \"#utility.yul\":578:583   */\n      dup2\n        /* \"#utility.yul\":561:584   */\n      tag_356\n      jump\t// in\n    tag_431:\n        /* \"#utility.yul\":554:559   */\n      dup2\n        /* \"#utility.yul\":551:585   */\n      eq\n        /* \"#utility.yul\":541:603   */\n      tag_432\n      jumpi\n        /* \"#utility.yul\":599:600   */\n      0x00\n        /* \"#utility.yul\":596:597   */\n      dup1\n        /* \"#utility.yul\":589:601   */\n      revert\n        /* \"#utility.yul\":541:603   */\n    tag_432:\n        /* \"#utility.yul\":489:609   */\n      pop\n      jump\t// out\n        /* \"#utility.yul\":615:752   */\n    tag_358:\n        /* \"#utility.yul\":660:665   */\n      0x00\n        /* \"#utility.yul\":698:704   */\n      dup2\n        /* \"#utility.yul\":685:705   */\n      calldataload\n        /* \"#utility.yul\":676:705   */\n      swap1\n      pop\n        /* \"#utility.yul\":714:746   */\n      tag_434\n        /* \"#utility.yul\":740:745   */\n      dup2\n        /* \"#utility.yul\":714:746   */\n      tag_357\n      jump\t// in\n    tag_434:\n        /* \"#utility.yul\":615:752   */\n      swap3\n      swap2\n      pop\n      pop\n      jump\t// out\n        /* \"#utility.yul\":758:1085   */\n    tag_26:\n        /* \"#utility.yul\":816:822   */\n      0x00\n        /* \"#utility.yul\":865:867   */\n      0x20\n        /* \"#utility.yul\":853:862   */\n      dup3\n        /* \"#utility.yul\":844:851   */\n      dup5\n        /* \"#utility.yul\":840:863   */\n      sub\n        /* \"#utility.yul\":836:868   */\n      slt\n        /* \"#utility.yul\":833:952   */\n      iszero\n      tag_436\n      jumpi\n        /* \"#utility.yul\":871:950   */\n      tag_437\n      tag_354\n      jump\t// in\n    tag_437:\n        /* \"#utility.yul\":833:952   */\n    tag_436:\n        /* \"#utility.yul\":991:992   */\n      0x00\n        /* \"#utility.yul\":1016:1068   */\n      tag_438\n        /* \"#utility.yul\":1060:1067   */\n      dup5\n        /* \"#utility.yul\":1051:1057   */\n      dup3\n        /* \"#utility.yul\":1040:1049   */\n      dup6\n        /* \"#utility.yul\":1036:1058   */\n      add\n        /* \"#utility.yul\":1016:1068   */\n      tag_358\n      jump\t// in\n    tag_438:\n        /* \"#utility.yul\":1006:1068   */\n      swap2\n      pop\n        /* \"#utility.yul\":962:1078   */\n      pop\n        /* \"#utility.yul\":758:1085   */\n      swap3\n      swap2\n      pop\n      pop\n      jump\t// out\n        /* \"#utility.yul\":1091:1181   */\n    tag_359:\n        /* \"#utility.yul\":1125:1132   */\n      0x00\n        /* \"#utility.yul\":1168:1173   */\n      dup2\n        /* \"#utility.yul\":1161:1174   */\n      iszero\n        /* \"#utility.yul\":1154:1175   */\n      iszero\n        /* \"#utility.yul\":1143:1175   */\n      swap1\n      pop\n        /* \"#utility.yul\":1091:1181   */\n      swap2\n      swap1\n      pop\n      jump\t// out\n        /* \"#utility.yul\":1187:1296   */\n    tag_360:\n        /* \"#utility.yul\":1268:1289   */\n      tag_441\n        /* \"#utility.yul\":1283:1288   */\n      dup2\n        /* \"#utility.yul\":1268:1289   */\n      tag_359\n      jump\t// in\n    tag_441:\n        /* \"#utility.yul\":1263:1266   */\n      dup3\n        /* \"#utility.yul\":1256:1290   */\n      mstore\n        /* \"#utility.yul\":1187:1296   */\n      pop\n      pop\n      jump\t// out\n        /* \"#utility.yul\":1302:1512   */\n    tag_29:\n        /* \"#utility.yul\":1389:1393   */\n      0x00\n        /* \"#utility.yul\":1427:1429   */\n      0x20\n        /* \"#utility.yul\":1416:1425   */\n      dup3\n        /* \"#utility.yul\":1412:1430   */\n      add\n        /* \"#utility.yul\":1404:1430   */\n      swap1\n      pop\n        /* \"#utility.yul\":1440:1505   */\n      tag_443\n        /* \"#utility.yul\":1502:1503   */\n      0x00\n        /* \"#utility.yul\":1491:1500   */\n      dup4\n        /* \"#utility.yul\":1487:1504   */\n      add\n        /* \"#utility.yul\":1478:1484   */\n      dup5\n        /* \"#utility.yul\":1440:1505   */\n      tag_360\n      jump\t// in\n    tag_443:\n        /* \"#utility.yul\":1302:1512   */\n      swap3\n      swap2\n      pop\n      pop\n      jump\t// out\n        /* \"#utility.yul\":1518:1595   */\n    tag_361:\n        /* \"#utility.yul\":1555:1562   */\n      0x00\n        /* \"#utility.yul\":1584:1589   */\n      dup2\n        /* \"#utility.yul\":1573:1589   */\n      swap1\n      pop\n        /* \"#utility.yul\":1518:1595   */\n      swap2\n      swap1\n      pop\n      jump\t// out\n        /* \"#utility.yul\":1601:1723   */\n    tag_362:\n        /* \"#utility.yul\":1674:1698   */\n      tag_446\n        /* \"#utility.yul\":1692:1697   */\n      dup2\n        /* \"#utility.yul\":1674:1698   */\n      tag_361\n      jump\t// in\n    tag_446:\n        /* \"#utility.yul\":1667:1672   */\n      dup2\n        /* \"#utility.yul\":1664:1699   */\n      eq\n        /* \"#utility.yul\":1654:1717   */\n      tag_447\n      jumpi\n        /* \"#utility.yul\":1713:1714   */\n      0x00\n        /* \"#utility.yul\":1710:1711   */\n      dup1\n        /* \"#utility.yul\":1703:1715   */\n      revert\n        /* \"#utility.yul\":1654:1717   */\n    tag_447:\n        /* \"#utility.yul\":1601:1723   */\n      pop\n      jump\t// out\n        /* \"#utility.yul\":1729:1868   */\n    tag_363:\n        /* \"#utility.yul\":1775:1780   */\n      0x00\n        /* \"#utility.yul\":1813:1819   */\n      dup2\n        /* \"#utility.yul\":1800:1820   */\n      calldataload\n        /* \"#utility.yul\":1791:1820   */\n      swap1\n      pop\n        /* \"#utility.yul\":1829:1862   */\n      tag_449\n        /* \"#utility.yul\":1856:1861   */\n      dup2\n        /* \"#utility.yul\":1829:1862   */\n      tag_362\n      jump\t// in\n    tag_449:\n        /* \"#utility.yul\":1729:1868   */\n      swap3\n      swap2\n      pop\n      pop\n      jump\t// out\n        /* \"#utility.yul\":1874:2203   */\n    tag_32:\n        /* \"#utility.yul\":1933:1939   */\n      0x00\n        /* \"#utility.yul\":1982:1984   */\n      0x20\n        /* \"#utility.yul\":1970:1979   */\n      dup3\n        /* \"#utility.yul\":1961:1968   */\n      dup5\n        /* \"#utility.yul\":1957:1980   */\n      sub\n        /* \"#utility.yul\":1953:1985   */\n      slt\n        /* \"#utility.yul\":1950:2069   */\n      iszero\n      tag_451\n      jumpi\n        /* \"#utility.yul\":1988:2067   */\n      tag_452\n      tag_354\n      jump\t// in\n    tag_452:\n        /* \"#utility.yul\":1950:2069   */\n    tag_451:\n        /* \"#utility.yul\":2108:2109   */\n      0x00\n        /* \"#utility.yul\":2133:2186   */\n      tag_453\n        /* \"#utility.yul\":2178:2185   */\n      dup5\n        /* \"#utility.yul\":2169:2175   */\n      dup3\n        /* \"#utility.yul\":2158:2167   */\n      dup6\n        /* \"#utility.yul\":2154:2176   */\n      add\n        /* \"#utility.yul\":2133:2186   */\n      tag_363\n      jump\t// in\n    tag_453:\n        /* \"#utility.yul\":2123:2186   */\n      swap2\n      pop\n        /* \"#utility.yul\":2079:2196   */\n      pop\n        /* \"#utility.yul\":1874:2203   */\n      swap3\n      swap2\n      pop\n      pop\n      jump\t// out\n        /* \"#utility.yul\":2209:2327   */\n    tag_364:\n        /* \"#utility.yul\":2296:2320   */\n      tag_455\n        /* \"#utility.yul\":2314:2319   */\n      dup2\n        /* \"#utility.yul\":2296:2320   */\n      tag_361\n      jump\t// in\n    tag_455:\n        /* \"#utility.yul\":2291:2294   */\n      dup3\n        /* \"#utility.yul\":2284:2321   */\n      mstore\n        /* \"#utility.yul\":2209:2327   */\n      pop\n      pop\n      jump\t// out\n        /* \"#utility.yul\":2333:2555   */\n    tag_35:\n        /* \"#utility.yul\":2426:2430   */\n      0x00\n        /* \"#utility.yul\":2464:2466   */\n      0x20\n        /* \"#utility.yul\":2453:2462   */\n      dup3\n        /* \"#utility.yul\":2449:2467   */\n      add\n        /* \"#utility.yul\":2441:2467   */\n      swap1\n      pop\n        /* \"#utility.yul\":2477:2548   */\n      tag_457\n        /* \"#utility.yul\":2545:2546   */\n      0x00\n        /* \"#utility.yul\":2534:2543   */\n      dup4\n        /* \"#utility.yul\":2530:2547   */\n      add\n        /* \"#utility.yul\":2521:2527   */\n      dup5\n        /* \"#utility.yul\":2477:2548   */\n      tag_364\n      jump\t// in\n    tag_457:\n        /* \"#utility.yul\":2333:2555   */\n      swap3\n      swap2\n      pop\n      pop\n      jump\t// out\n        /* \"#utility.yul\":2561:2687   */\n    tag_365:\n        /* \"#utility.yul\":2598:2605   */\n      0x00\n        /* \"#utility.yul\":2638:2680   */\n      0xffffffffffffffffffffffffffffffffffffffff\n        /* \"#utility.yul\":2631:2636   */\n      dup3\n        /* \"#utility.yul\":2627:2681   */\n      and\n        /* \"#utility.yul\":2616:2681   */\n      swap1\n      pop\n        /* \"#utility.yul\":2561:2687   */\n      swap2\n      swap1\n      pop\n      jump\t// out\n        /* \"#utility.yul\":2693:2789   */\n    tag_366:\n        /* \"#utility.yul\":2730:2737   */\n      0x00\n        /* \"#utility.yul\":2759:2783   */\n      tag_460\n        /* \"#utility.yul\":2777:2782   */\n      dup3\n        /* \"#utility.yul\":2759:2783   */\n      tag_365\n      jump\t// in\n    tag_460:\n        /* \"#utility.yul\":2748:2783   */\n      swap1\n      pop\n        /* \"#utility.yul\":2693:2789   */\n      swap2\n      swap1\n      pop\n      jump\t// out\n        /* \"#utility.yul\":2795:2917   */\n    tag_367:\n        /* \"#utility.yul\":2868:2892   */\n      tag_462\n        /* \"#utility.yul\":2886:2891   */\n      dup2\n        /* \"#utility.yul\":2868:2892   */\n      tag_366\n      jump\t// in\n    tag_462:\n        /* \"#utility.yul\":2861:2866   */\n      dup2\n        /* \"#utility.yul\":2858:2893   */\n      eq\n        /* \"#utility.yul\":2848:2911   */\n      tag_463\n      jumpi\n        /* \"#utility.yul\":2907:2908   */\n      0x00\n        /* \"#utility.yul\":2904:2905   */\n      dup1\n        /* \"#utility.yul\":2897:2909   */\n      revert\n        /* \"#utility.yul\":2848:2911   */\n    tag_463:\n        /* \"#utility.yul\":2795:2917   */\n      pop\n      jump\t// out\n        /* \"#utility.yul\":2923:3062   */\n    tag_368:\n        /* \"#utility.yul\":2969:2974   */\n      0x00\n        /* \"#utility.yul\":3007:3013   */\n      dup2\n        /* \"#utility.yul\":2994:3014   */\n      calldataload\n        /* \"#utility.yul\":2985:3014   */\n      swap1\n      pop\n        /* \"#utility.yul\":3023:3056   */\n      tag_465\n        /* \"#utility.yul\":3050:3055   */\n      dup2\n        /* \"#utility.yul\":3023:3056   */\n      tag_367\n      jump\t// in\n    tag_465:\n        /* \"#utility.yul\":2923:3062   */\n      swap3\n      swap2\n      pop\n      pop\n      jump\t// out\n        /* \"#utility.yul\":3068:3397   */\n    tag_38:\n        /* \"#utility.yul\":3127:3133   */\n      0x00\n        /* \"#utility.yul\":3176:3178   */\n      0x20\n        /* \"#utility.yul\":3164:3173   */\n      dup3\n        /* \"#utility.yul\":3155:3162   */\n      dup5\n        /* \"#utility.yul\":3151:3174   */\n      sub\n        /* \"#utility.yul\":3147:3179   */\n      slt\n        /* \"#utility.yul\":3144:3263   */\n      iszero\n      tag_467\n      jumpi\n        /* \"#utility.yul\":3182:3261   */\n      tag_468\n      tag_354\n      jump\t// in\n    tag_468:\n        /* \"#utility.yul\":3144:3263   */\n    tag_467:\n        /* \"#utility.yul\":3302:3303   */\n      0x00\n        /* \"#utility.yul\":3327:3380   */\n      tag_469\n        /* \"#utility.yul\":3372:3379   */\n      dup5\n        /* \"#utility.yul\":3363:3369   */\n      dup3\n        /* \"#utility.yul\":3352:3361   */\n      dup6\n        /* \"#utility.yul\":3348:3370   */\n      add\n        /* \"#utility.yul\":3327:3380   */\n      tag_368\n      jump\t// in\n    tag_469:\n        /* \"#utility.yul\":3317:3380   */\n      swap2\n      pop\n        /* \"#utility.yul\":3273:3390   */\n      pop\n        /* \"#utility.yul\":3068:3397   */\n      swap3\n      swap2\n      pop\n      pop\n      jump\t// out\n        /* \"#utility.yul\":3403:3877   */\n    tag_42:\n        /* \"#utility.yul\":3471:3477   */\n      0x00\n        /* \"#utility.yul\":3479:3485   */\n      dup1\n        /* \"#utility.yul\":3528:3530   */\n      0x40\n        /* \"#utility.yul\":3516:3525   */\n      dup4\n        /* \"#utility.yul\":3507:3514   */\n      dup6\n        /* \"#utility.yul\":3503:3526   */\n      sub\n        /* \"#utility.yul\":3499:3531   */\n      slt\n        /* \"#utility.yul\":3496:3615   */\n      iszero\n      tag_471\n      jumpi\n        /* \"#utility.yul\":3534:3613   */\n      tag_472\n      tag_354\n      jump\t// in\n    tag_472:\n        /* \"#utility.yul\":3496:3615   */\n    tag_471:\n        /* \"#utility.yul\":3654:3655   */\n      0x00\n        /* \"#utility.yul\":3679:3732   */\n      tag_473\n        /* \"#utility.yul\":3724:3731   */\n      dup6\n        /* \"#utility.yul\":3715:3721   */\n      dup3\n        /* \"#utility.yul\":3704:3713   */\n      dup7\n        /* \"#utility.yul\":3700:3722   */\n      add\n        /* \"#utility.yul\":3679:3732   */\n      tag_363\n      jump\t// in\n    tag_473:\n        /* \"#utility.yul\":3669:3732   */\n      swap3\n      pop\n        /* \"#utility.yul\":3625:3742   */\n      pop\n        /* \"#utility.yul\":3781:3783   */\n      0x20\n        /* \"#utility.yul\":3807:3860   */\n      tag_474\n        /* \"#utility.yul\":3852:3859   */\n      dup6\n        /* \"#utility.yul\":3843:3849   */\n      dup3\n        /* \"#utility.yul\":3832:3841   */\n      dup7\n        /* \"#utility.yul\":3828:3850   */\n      add\n        /* \"#utility.yul\":3807:3860   */\n      tag_368\n      jump\t// in\n    tag_474:\n        /* \"#utility.yul\":3797:3860   */\n      swap2\n      pop\n        /* \"#utility.yul\":3752:3870   */\n      pop\n        /* \"#utility.yul\":3403:3877   */\n      swap3\n      pop\n      swap3\n      swap1\n      pop\n      jump\t// out\n        /* \"#utility.yul\":3883:3960   */\n    tag_369:\n        /* \"#utility.yul\":3920:3927   */\n      0x00\n        /* \"#utility.yul\":3949:3954   */\n      dup2\n        /* \"#utility.yul\":3938:3954   */\n      swap1\n      pop\n        /* \"#utility.yul\":3883:3960   */\n      swap2\n      swap1\n      pop\n      jump\t// out\n        /* \"#utility.yul\":3966:4088   */\n    tag_370:\n        /* \"#utility.yul\":4039:4063   */\n      tag_477\n        /* \"#utility.yul\":4057:4062   */\n      dup2\n        /* \"#utility.yul\":4039:4063   */\n      tag_369\n      jump\t// in\n    tag_477:\n        /* \"#utility.yul\":4032:4037   */\n      dup2\n        /* \"#utility.yul\":4029:4064   */\n      eq\n        /* \"#utility.yul\":4019:4082   */\n      tag_478\n      jumpi\n        /* \"#utility.yul\":4078:4079   */\n      0x00\n        /* \"#utility.yul\":4075:4076   */\n      dup1\n        /* \"#utility.yul\":4068:4080   */\n      revert\n        /* \"#utility.yul\":4019:4082   */\n    tag_478:\n        /* \"#utility.yul\":3966:4088   */\n      pop\n      jump\t// out\n        /* \"#utility.yul\":4094:4233   */\n    tag_371:\n        /* \"#utility.yul\":4140:4145   */\n      0x00\n        /* \"#utility.yul\":4178:4184   */\n      dup2\n        /* \"#utility.yul\":4165:4185   */\n      calldataload\n        /* \"#utility.yul\":4156:4185   */\n      swap1\n      pop\n        /* \"#utility.yul\":4194:4227   */\n      tag_480\n        /* \"#utility.yul\":4221:4226   */\n      dup2\n        /* \"#utility.yul\":4194:4227   */\n      tag_370\n      jump\t// in\n    tag_480:\n        /* \"#utility.yul\":4094:4233   */\n      swap3\n      swap2\n      pop\n      pop\n      jump\t// out\n        /* \"#utility.yul\":4239:4356   */\n    tag_372:\n        /* \"#utility.yul\":4348:4349   */\n      0x00\n        /* \"#utility.yul\":4345:4346   */\n      dup1\n        /* \"#utility.yul\":4338:4350   */\n      revert\n        /* \"#utility.yul\":4362:4479   */\n    tag_373:\n        /* \"#utility.yul\":4471:4472   */\n      0x00\n        /* \"#utility.yul\":4468:4469   */\n      dup1\n        /* \"#utility.yul\":4461:4473   */\n      revert\n        /* \"#utility.yul\":4485:4587   */\n    tag_374:\n        /* \"#utility.yul\":4526:4532   */\n      0x00\n        /* \"#utility.yul\":4577:4579   */\n      0x1f\n        /* \"#utility.yul\":4573:4580   */\n      not\n        /* \"#utility.yul\":4568:4570   */\n      0x1f\n        /* \"#utility.yul\":4561:4566   */\n      dup4\n        /* \"#utility.yul\":4557:4571   */\n      add\n        /* \"#utility.yul\":4553:4581   */\n      and\n        /* \"#utility.yul\":4543:4581   */\n      swap1\n      pop\n        /* \"#utility.yul\":4485:4587   */\n      swap2\n      swap1\n      pop\n      jump\t// out\n        /* \"#utility.yul\":4593:4773   */\n    tag_282:\n        /* \"#utility.yul\":4641:4718   */\n      0x4e487b7100000000000000000000000000000000000000000000000000000000\n        /* \"#utility.yul\":4638:4639   */\n      0x00\n        /* \"#utility.yul\":4631:4719   */\n      mstore\n        /* \"#utility.yul\":4738:4742   */\n      0x41\n        /* \"#utility.yul\":4735:4736   */\n      0x04\n        /* \"#utility.yul\":4728:4743   */\n      mstore\n        /* \"#utility.yul\":4762:4766   */\n      0x24\n        /* \"#utility.yul\":4759:4760   */\n      0x00\n        /* \"#utility.yul\":4752:4767   */\n      revert\n        /* \"#utility.yul\":4779:5060   */\n    tag_375:\n        /* \"#utility.yul\":4862:4889   */\n      tag_486\n        /* \"#utility.yul\":4884:4888   */\n      dup3\n        /* \"#utility.yul\":4862:4889   */\n      tag_374\n      jump\t// in\n    tag_486:\n        /* \"#utility.yul\":4854:4860   */\n      dup2\n        /* \"#utility.yul\":4850:4890   */\n      add\n        /* \"#utility.yul\":4992:4998   */\n      dup2\n        /* \"#utility.yul\":4980:4990   */\n      dup2\n        /* \"#utility.yul\":4977:4999   */\n      lt\n        /* \"#utility.yul\":4956:4974   */\n      0xffffffffffffffff\n        /* \"#utility.yul\":4944:4954   */\n      dup3\n        /* \"#utility.yul\":4941:4975   */\n      gt\n        /* \"#utility.yul\":4938:5000   */\n      or\n        /* \"#utility.yul\":4935:5023   */\n      iszero\n      tag_487\n      jumpi\n        /* \"#utility.yul\":5003:5021   */\n      tag_488\n      tag_282\n      jump\t// in\n    tag_488:\n        /* \"#utility.yul\":4935:5023   */\n    tag_487:\n        /* \"#utility.yul\":5043:5053   */\n      dup1\n        /* \"#utility.yul\":5039:5041   */\n      0x40\n        /* \"#utility.yul\":5032:5054   */\n      mstore\n        /* \"#utility.yul\":4822:5060   */\n      pop\n        /* \"#utility.yul\":4779:5060   */\n      pop\n      pop\n      jump\t// out\n        /* \"#utility.yul\":5066:5195   */\n    tag_376:\n        /* \"#utility.yul\":5100:5106   */\n      0x00\n        /* \"#utility.yul\":5127:5147   */\n      tag_490\n      tag_353\n      jump\t// in\n    tag_490:\n        /* \"#utility.yul\":5117:5147   */\n      swap1\n      pop\n        /* \"#utility.yul\":5156:5189   */\n      tag_491\n        /* \"#utility.yul\":5184:5188   */\n      dup3\n        /* \"#utility.yul\":5176:5182   */\n      dup3\n        /* \"#utility.yul\":5156:5189   */\n      tag_375\n      jump\t// in\n    tag_491:\n        /* \"#utility.yul\":5066:5195   */\n      swap2\n      swap1\n      pop\n      jump\t// out\n        /* \"#utility.yul\":5201:5508   */\n    tag_377:\n        /* \"#utility.yul\":5262:5266   */\n      0x00\n        /* \"#utility.yul\":5352:5370   */\n      0xffffffffffffffff\n        /* \"#utility.yul\":5344:5350   */\n      dup3\n        /* \"#utility.yul\":5341:5371   */\n      gt\n        /* \"#utility.yul\":5338:5394   */\n      iszero\n      tag_493\n      jumpi\n        /* \"#utility.yul\":5374:5392   */\n      tag_494\n      tag_282\n      jump\t// in\n    tag_494:\n        /* \"#utility.yul\":5338:5394   */\n    tag_493:\n        /* \"#utility.yul\":5412:5441   */\n      tag_495\n        /* \"#utility.yul\":5434:5440   */\n      dup3\n        /* \"#utility.yul\":5412:5441   */\n      tag_374\n      jump\t// in\n    tag_495:\n        /* \"#utility.yul\":5404:5441   */\n      swap1\n      pop\n        /* \"#utility.yul\":5496:5500   */\n      0x20\n        /* \"#utility.yul\":5490:5494   */\n      dup2\n        /* \"#utility.yul\":5486:5501   */\n      add\n        /* \"#utility.yul\":5478:5501   */\n      swap1\n      pop\n        /* \"#utility.yul\":5201:5508   */\n      swap2\n      swap1\n      pop\n      jump\t// out\n        /* \"#utility.yul\":5514:5662   */\n    tag_378:\n        /* \"#utility.yul\":5612:5618   */\n      dup3\n        /* \"#utility.yul\":5607:5610   */\n      dup2\n        /* \"#utility.yul\":5602:5605   */\n      dup4\n        /* \"#utility.yul\":5589:5619   */\n      calldatacopy\n        /* \"#utility.yul\":5653:5654   */\n      0x00\n        /* \"#utility.yul\":5644:5650   */\n      dup4\n        /* \"#utility.yul\":5639:5642   */\n      dup4\n        /* \"#utility.yul\":5635:5651   */\n      add\n        /* \"#utility.yul\":5628:5655   */\n      mstore\n        /* \"#utility.yul\":5514:5662   */\n      pop\n      pop\n      pop\n      jump\t// out\n        /* \"#utility.yul\":5668:6091   */\n    tag_379:\n        /* \"#utility.yul\":5745:5750   */\n      0x00\n        /* \"#utility.yul\":5770:5835   */\n      tag_498\n        /* \"#utility.yul\":5786:5834   */\n      tag_499\n        /* \"#utility.yul\":5827:5833   */\n      dup5\n        /* \"#utility.yul\":5786:5834   */\n      tag_377\n      jump\t// in\n    tag_499:\n        /* \"#utility.yul\":5770:5835   */\n      tag_376\n      jump\t// in\n    tag_498:\n        /* \"#utility.yul\":5761:5835   */\n      swap1\n      pop\n        /* \"#utility.yul\":5858:5864   */\n      dup3\n        /* \"#utility.yul\":5851:5856   */\n      dup2\n        /* \"#utility.yul\":5844:5865   */\n      mstore\n        /* \"#utility.yul\":5896:5900   */\n      0x20\n        /* \"#utility.yul\":5889:5894   */\n      dup2\n        /* \"#utility.yul\":5885:5901   */\n      add\n        /* \"#utility.yul\":5934:5937   */\n      dup5\n        /* \"#utility.yul\":5925:5931   */\n      dup5\n        /* \"#utility.yul\":5920:5923   */\n      dup5\n        /* \"#utility.yul\":5916:5932   */\n      add\n        /* \"#utility.yul\":5913:5938   */\n      gt\n        /* \"#utility.yul\":5910:6022   */\n      iszero\n      tag_500\n      jumpi\n        /* \"#utility.yul\":5941:6020   */\n      tag_501\n      tag_373\n      jump\t// in\n    tag_501:\n        /* \"#utility.yul\":5910:6022   */\n    tag_500:\n        /* \"#utility.yul\":6031:6085   */\n      tag_502\n        /* \"#utility.yul\":6078:6084   */\n      dup5\n        /* \"#utility.yul\":6073:6076   */\n      dup3\n        /* \"#utility.yul\":6068:6071   */\n      dup6\n        /* \"#utility.yul\":6031:6085   */\n      tag_378\n      jump\t// in\n    tag_502:\n        /* \"#utility.yul\":5751:6091   */\n      pop\n        /* \"#utility.yul\":5668:6091   */\n      swap4\n      swap3\n      pop\n      pop\n      pop\n      jump\t// out\n        /* \"#utility.yul\":6110:6448   */\n    tag_380:\n        /* \"#utility.yul\":6165:6170   */\n      0x00\n        /* \"#utility.yul\":6214:6217   */\n      dup3\n        /* \"#utility.yul\":6207:6211   */\n      0x1f\n        /* \"#utility.yul\":6199:6205   */\n      dup4\n        /* \"#utility.yul\":6195:6212   */\n      add\n        /* \"#utility.yul\":6191:6218   */\n      slt\n        /* \"#utility.yul\":6181:6303   */\n      tag_504\n      jumpi\n        /* \"#utility.yul\":6222:6301   */\n      tag_505\n      tag_372\n      jump\t// in\n    tag_505:\n        /* \"#utility.yul\":6181:6303   */\n    tag_504:\n        /* \"#utility.yul\":6339:6345   */\n      dup2\n        /* \"#utility.yul\":6326:6346   */\n      calldataload\n        /* \"#utility.yul\":6364:6442   */\n      tag_506\n        /* \"#utility.yul\":6438:6441   */\n      dup5\n        /* \"#utility.yul\":6430:6436   */\n      dup3\n        /* \"#utility.yul\":6423:6427   */\n      0x20\n        /* \"#utility.yul\":6415:6421   */\n      dup7\n        /* \"#utility.yul\":6411:6428   */\n      add\n        /* \"#utility.yul\":6364:6442   */\n      tag_379\n      jump\t// in\n    tag_506:\n        /* \"#utility.yul\":6355:6442   */\n      swap2\n      pop\n        /* \"#utility.yul\":6171:6448   */\n      pop\n        /* \"#utility.yul\":6110:6448   */\n      swap3\n      swap2\n      pop\n      pop\n      jump\t// out\n        /* \"#utility.yul\":6454:7251   */\n    tag_51:\n        /* \"#utility.yul\":6540:6546   */\n      0x00\n        /* \"#utility.yul\":6548:6554   */\n      dup1\n        /* \"#utility.yul\":6556:6562   */\n      0x00\n        /* \"#utility.yul\":6605:6607   */\n      0x60\n        /* \"#utility.yul\":6593:6602   */\n      dup5\n        /* \"#utility.yul\":6584:6591   */\n      dup7\n        /* \"#utility.yul\":6580:6603   */\n      sub\n        /* \"#utility.yul\":6576:6608   */\n      slt\n        /* \"#utility.yul\":6573:6692   */\n      iszero\n      tag_508\n      jumpi\n        /* \"#utility.yul\":6611:6690   */\n      tag_509\n      tag_354\n      jump\t// in\n    tag_509:\n        /* \"#utility.yul\":6573:6692   */\n    tag_508:\n        /* \"#utility.yul\":6731:6732   */\n      0x00\n        /* \"#utility.yul\":6756:6809   */\n      tag_510\n        /* \"#utility.yul\":6801:6808   */\n      dup7\n        /* \"#utility.yul\":6792:6798   */\n      dup3\n        /* \"#utility.yul\":6781:6790   */\n      dup8\n        /* \"#utility.yul\":6777:6799   */\n      add\n        /* \"#utility.yul\":6756:6809   */\n      tag_371\n      jump\t// in\n    tag_510:\n        /* \"#utility.yul\":6746:6809   */\n      swap4\n      pop\n        /* \"#utility.yul\":6702:6819   */\n      pop\n        /* \"#utility.yul\":6858:6860   */\n      0x20\n        /* \"#utility.yul\":6884:6937   */\n      tag_511\n        /* \"#utility.yul\":6929:6936   */\n      dup7\n        /* \"#utility.yul\":6920:6926   */\n      dup3\n        /* \"#utility.yul\":6909:6918   */\n      dup8\n        /* \"#utility.yul\":6905:6927   */\n      add\n        /* \"#utility.yul\":6884:6937   */\n      tag_371\n      jump\t// in\n    tag_511:\n        /* \"#utility.yul\":6874:6937   */\n      swap3\n      pop\n        /* \"#utility.yul\":6829:6947   */\n      pop\n        /* \"#utility.yul\":7014:7016   */\n      0x40\n        /* \"#utility.yul\":7003:7012   */\n      dup5\n        /* \"#utility.yul\":6999:7017   */\n      add\n        /* \"#utility.yul\":6986:7018   */\n      calldataload\n        /* \"#utility.yul\":7045:7063   */\n      0xffffffffffffffff\n        /* \"#utility.yul\":7037:7043   */\n      dup2\n        /* \"#utility.yul\":7034:7064   */\n      gt\n        /* \"#utility.yul\":7031:7148   */\n      iszero\n      tag_512\n      jumpi\n        /* \"#utility.yul\":7067:7146   */\n      tag_513\n      tag_355\n      jump\t// in\n    tag_513:\n        /* \"#utility.yul\":7031:7148   */\n    tag_512:\n        /* \"#utility.yul\":7172:7234   */\n      tag_514\n        /* \"#utility.yul\":7226:7233   */\n      dup7\n        /* \"#utility.yul\":7217:7223   */\n      dup3\n        /* \"#utility.yul\":7206:7215   */\n      dup8\n        /* \"#utility.yul\":7202:7224   */\n      add\n        /* \"#utility.yul\":7172:7234   */\n      tag_380\n      jump\t// in\n    tag_514:\n        /* \"#utility.yul\":7162:7234   */\n      swap2\n      pop\n        /* \"#utility.yul\":6957:7244   */\n      pop\n        /* \"#utility.yul\":6454:7251   */\n      swap3\n      pop\n      swap3\n      pop\n      swap3\n      jump\t// out\n        /* \"#utility.yul\":7257:7731   */\n    tag_55:\n        /* \"#utility.yul\":7325:7331   */\n      0x00\n        /* \"#utility.yul\":7333:7339   */\n      dup1\n        /* \"#utility.yul\":7382:7384   */\n      0x40\n        /* \"#utility.yul\":7370:7379   */\n      dup4\n        /* \"#utility.yul\":7361:7368   */\n      dup6\n        /* \"#utility.yul\":7357:7380   */\n      sub\n        /* \"#utility.yul\":7353:7385   */\n      slt\n        /* \"#utility.yul\":7350:7469   */\n      iszero\n      tag_516\n      jumpi\n        /* \"#utility.yul\":7388:7467   */\n      tag_517\n      tag_354\n      jump\t// in\n    tag_517:\n        /* \"#utility.yul\":7350:7469   */\n    tag_516:\n        /* \"#utility.yul\":7508:7509   */\n      0x00\n        /* \"#utility.yul\":7533:7586   */\n      tag_518\n        /* \"#utility.yul\":7578:7585   */\n      dup6\n        /* \"#utility.yul\":7569:7575   */\n      dup3\n        /* \"#utility.yul\":7558:7567   */\n      dup7\n        /* \"#utility.yul\":7554:7576   */\n      add\n        /* \"#utility.yul\":7533:7586   */\n      tag_368\n      jump\t// in\n    tag_518:\n        /* \"#utility.yul\":7523:7586   */\n      swap3\n      pop\n        /* \"#utility.yul\":7479:7596   */\n      pop\n        /* \"#utility.yul\":7635:7637   */\n      0x20\n        /* \"#utility.yul\":7661:7714   */\n      tag_519\n        /* \"#utility.yul\":7706:7713   */\n      dup6\n        /* \"#utility.yul\":7697:7703   */\n      dup3\n        /* \"#utility.yul\":7686:7695   */\n      dup7\n        /* \"#utility.yul\":7682:7704   */\n      add\n        /* \"#utility.yul\":7661:7714   */\n      tag_371\n      jump\t// in\n    tag_519:\n        /* \"#utility.yul\":7651:7714   */\n      swap2\n      pop\n        /* \"#utility.yul\":7606:7724   */\n      pop\n        /* \"#utility.yul\":7257:7731   */\n      swap3\n      pop\n      swap3\n      swap1\n      pop\n      jump\t// out\n        /* \"#utility.yul\":7737:7855   */\n    tag_381:\n        /* \"#utility.yul\":7824:7848   */\n      tag_521\n        /* \"#utility.yul\":7842:7847   */\n      dup2\n        /* \"#utility.yul\":7824:7848   */\n      tag_366\n      jump\t// in\n    tag_521:\n        /* \"#utility.yul\":7819:7822   */\n      dup3\n        /* \"#utility.yul\":7812:7849   */\n      mstore\n        /* \"#utility.yul\":7737:7855   */\n      pop\n      pop\n      jump\t// out\n        /* \"#utility.yul\":7861:8083   */\n    tag_60:\n        /* \"#utility.yul\":7954:7958   */\n      0x00\n        /* \"#utility.yul\":7992:7994   */\n      0x20\n        /* \"#utility.yul\":7981:7990   */\n      dup3\n        /* \"#utility.yul\":7977:7995   */\n      add\n        /* \"#utility.yul\":7969:7995   */\n      swap1\n      pop\n        /* \"#utility.yul\":8005:8076   */\n      tag_523\n        /* \"#utility.yul\":8073:8074   */\n      0x00\n        /* \"#utility.yul\":8062:8071   */\n      dup4\n        /* \"#utility.yul\":8058:8075   */\n      add\n        /* \"#utility.yul\":8049:8055   */\n      dup5\n        /* \"#utility.yul\":8005:8076   */\n      tag_381\n      jump\t// in\n    tag_523:\n        /* \"#utility.yul\":7861:8083   */\n      swap3\n      swap2\n      pop\n      pop\n      jump\t// out\n        /* \"#utility.yul\":8089:8563   */\n    tag_63:\n        /* \"#utility.yul\":8157:8163   */\n      0x00\n        /* \"#utility.yul\":8165:8171   */\n      dup1\n        /* \"#utility.yul\":8214:8216   */\n      0x40\n        /* \"#utility.yul\":8202:8211   */\n      dup4\n        /* \"#utility.yul\":8193:8200   */\n      dup6\n        /* \"#utility.yul\":8189:8212   */\n      sub\n        /* \"#utility.yul\":8185:8217   */\n      slt\n        /* \"#utility.yul\":8182:8301   */\n      iszero\n      tag_525\n      jumpi\n        /* \"#utility.yul\":8220:8299   */\n      tag_526\n      tag_354\n      jump\t// in\n    tag_526:\n        /* \"#utility.yul\":8182:8301   */\n    tag_525:\n        /* \"#utility.yul\":8340:8341   */\n      0x00\n        /* \"#utility.yul\":8365:8418   */\n      tag_527\n        /* \"#utility.yul\":8410:8417   */\n      dup6\n        /* \"#utility.yul\":8401:8407   */\n      dup3\n        /* \"#utility.yul\":8390:8399   */\n      dup7\n        /* \"#utility.yul\":8386:8408   */\n      add\n        /* \"#utility.yul\":8365:8418   */\n      tag_363\n      jump\t// in\n    tag_527:\n        /* \"#utility.yul\":8355:8418   */\n      swap3\n      pop\n        /* \"#utility.yul\":8311:8428   */\n      pop\n        /* \"#utility.yul\":8467:8469   */\n      0x20\n        /* \"#utility.yul\":8493:8546   */\n      tag_528\n        /* \"#utility.yul\":8538:8545   */\n      dup6\n        /* \"#utility.yul\":8529:8535   */\n      dup3\n        /* \"#utility.yul\":8518:8527   */\n      dup7\n        /* \"#utility.yul\":8514:8536   */\n      add\n        /* \"#utility.yul\":8493:8546   */\n      tag_371\n      jump\t// in\n    tag_528:\n        /* \"#utility.yul\":8483:8546   */\n      swap2\n      pop\n        /* \"#utility.yul\":8438:8556   */\n      pop\n        /* \"#utility.yul\":8089:8563   */\n      swap3\n      pop\n      swap3\n      swap1\n      pop\n      jump\t// out\n        /* \"#utility.yul\":8569:8898   */\n    tag_78:\n        /* \"#utility.yul\":8628:8634   */\n      0x00\n        /* \"#utility.yul\":8677:8679   */\n      0x20\n        /* \"#utility.yul\":8665:8674   */\n      dup3\n        /* \"#utility.yul\":8656:8663   */\n      dup5\n        /* \"#utility.yul\":8652:8675   */\n      sub\n        /* \"#utility.yul\":8648:8680   */\n      slt\n        /* \"#utility.yul\":8645:8764   */\n      iszero\n      tag_530\n      jumpi\n        /* \"#utility.yul\":8683:8762   */\n      tag_531\n      tag_354\n      jump\t// in\n    tag_531:\n        /* \"#utility.yul\":8645:8764   */\n    tag_530:\n        /* \"#utility.yul\":8803:8804   */\n      0x00\n        /* \"#utility.yul\":8828:8881   */\n      tag_532\n        /* \"#utility.yul\":8873:8880   */\n      dup5\n        /* \"#utility.yul\":8864:8870   */\n      dup3\n        /* \"#utility.yul\":8853:8862   */\n      dup6\n        /* \"#utility.yul\":8849:8871   */\n      add\n        /* \"#utility.yul\":8828:8881   */\n      tag_371\n      jump\t// in\n    tag_532:\n        /* \"#utility.yul\":8818:8881   */\n      swap2\n      pop\n        /* \"#utility.yul\":8774:8891   */\n      pop\n        /* \"#utility.yul\":8569:8898   */\n      swap3\n      swap2\n      pop\n      pop\n      jump\t// out\n        /* \"#utility.yul\":8904:9022   */\n    tag_382:\n        /* \"#utility.yul\":8991:9015   */\n      tag_534\n        /* \"#utility.yul\":9009:9014   */\n      dup2\n        /* \"#utility.yul\":8991:9015   */\n      tag_369\n      jump\t// in\n    tag_534:\n        /* \"#utility.yul\":8986:8989   */\n      dup3\n        /* \"#utility.yul\":8979:9016   */\n      mstore\n        /* \"#utility.yul\":8904:9022   */\n      pop\n      pop\n      jump\t// out\n        /* \"#utility.yul\":9028:9250   */\n    tag_84:\n        /* \"#utility.yul\":9121:9125   */\n      0x00\n        /* \"#utility.yul\":9159:9161   */\n      0x20\n        /* \"#utility.yul\":9148:9157   */\n      dup3\n        /* \"#utility.yul\":9144:9162   */\n      add\n        /* \"#utility.yul\":9136:9162   */\n      swap1\n      pop\n        /* \"#utility.yul\":9172:9243   */\n      tag_536\n        /* \"#utility.yul\":9240:9241   */\n      0x00\n        /* \"#utility.yul\":9229:9238   */\n      dup4\n        /* \"#utility.yul\":9225:9242   */\n      add\n        /* \"#utility.yul\":9216:9222   */\n      dup5\n        /* \"#utility.yul\":9172:9243   */\n      tag_382\n      jump\t// in\n    tag_536:\n        /* \"#utility.yul\":9028:9250   */\n      swap3\n      swap2\n      pop\n      pop\n      jump\t// out\n        /* \"#utility.yul\":9256:9425   */\n    tag_383:\n        /* \"#utility.yul\":9340:9351   */\n      0x00\n        /* \"#utility.yul\":9374:9380   */\n      dup3\n        /* \"#utility.yul\":9369:9372   */\n      dup3\n        /* \"#utility.yul\":9362:9381   */\n      mstore\n        /* \"#utility.yul\":9414:9418   */\n      0x20\n        /* \"#utility.yul\":9409:9412   */\n      dup3\n        /* \"#utility.yul\":9405:9419   */\n      add\n        /* \"#utility.yul\":9390:9419   */\n      swap1\n      pop\n        /* \"#utility.yul\":9256:9425   */\n      swap3\n      swap2\n      pop\n      pop\n      jump\t// out\n        /* \"#utility.yul\":9431:9665   */\n    tag_384:\n        /* \"#utility.yul\":9571:9605   */\n      0x416363657373436f6e74726f6c3a2063616e206f6e6c792072656e6f756e6365\n        /* \"#utility.yul\":9567:9568   */\n      0x00\n        /* \"#utility.yul\":9559:9565   */\n      dup3\n        /* \"#utility.yul\":9555:9569   */\n      add\n        /* \"#utility.yul\":9548:9606   */\n      mstore\n        /* \"#utility.yul\":9640:9657   */\n      0x20726f6c657320666f722073656c660000000000000000000000000000000000\n        /* \"#utility.yul\":9635:9637   */\n      0x20\n        /* \"#utility.yul\":9627:9633   */\n      dup3\n        /* \"#utility.yul\":9623:9638   */\n      add\n        /* \"#utility.yul\":9616:9658   */\n      mstore\n        /* \"#utility.yul\":9431:9665   */\n      pop\n      jump\t// out\n        /* \"#utility.yul\":9671:10037   */\n    tag_385:\n        /* \"#utility.yul\":9813:9816   */\n      0x00\n        /* \"#utility.yul\":9834:9901   */\n      tag_540\n        /* \"#utility.yul\":9898:9900   */\n      0x2f\n        /* \"#utility.yul\":9893:9896   */\n      dup4\n        /* \"#utility.yul\":9834:9901   */\n      tag_383\n      jump\t// in\n    tag_540:\n        /* \"#utility.yul\":9827:9901   */\n      swap2\n      pop\n        /* \"#utility.yul\":9910:10003   */\n      tag_541\n        /* \"#utility.yul\":9999:10002   */\n      dup3\n        /* \"#utility.yul\":9910:10003   */\n      tag_384\n      jump\t// in\n    tag_541:\n        /* \"#utility.yul\":10028:10030   */\n      0x40\n        /* \"#utility.yul\":10023:10026   */\n      dup3\n        /* \"#utility.yul\":10019:10031   */\n      add\n        /* \"#utility.yul\":10012:10031   */\n      swap1\n      pop\n        /* \"#utility.yul\":9671:10037   */\n      swap2\n      swap1\n      pop\n      jump\t// out\n        /* \"#utility.yul\":10043:10462   */\n    tag_115:\n        /* \"#utility.yul\":10209:10213   */\n      0x00\n        /* \"#utility.yul\":10247:10249   */\n      0x20\n        /* \"#utility.yul\":10236:10245   */\n      dup3\n        /* \"#utility.yul\":10232:10250   */\n      add\n        /* \"#utility.yul\":10224:10250   */\n      swap1\n      pop\n        /* \"#utility.yul\":10296:10305   */\n      dup2\n        /* \"#utility.yul\":10290:10294   */\n      dup2\n        /* \"#utility.yul\":10286:10306   */\n      sub\n        /* \"#utility.yul\":10282:10283   */\n      0x00\n        /* \"#utility.yul\":10271:10280   */\n      dup4\n        /* \"#utility.yul\":10267:10284   */\n      add\n        /* \"#utility.yul\":10260:10307   */\n      mstore\n        /* \"#utility.yul\":10324:10455   */\n      tag_543\n        /* \"#utility.yul\":10450:10454   */\n      dup2\n        /* \"#utility.yul\":10324:10455   */\n      tag_385\n      jump\t// in\n    tag_543:\n        /* \"#utility.yul\":10316:10455   */\n      swap1\n      pop\n        /* \"#utility.yul\":10043:10462   */\n      swap2\n      swap1\n      pop\n      jump\t// out\n        /* \"#utility.yul\":10468:10566   */\n    tag_386:\n        /* \"#utility.yul\":10519:10525   */\n      0x00\n        /* \"#utility.yul\":10553:10558   */\n      dup2\n        /* \"#utility.yul\":10547:10559   */\n      mload\n        /* \"#utility.yul\":10537:10559   */\n      swap1\n      pop\n        /* \"#utility.yul\":10468:10566   */\n      swap2\n      swap1\n      pop\n      jump\t// out\n        /* \"#utility.yul\":10572:10719   */\n    tag_387:\n        /* \"#utility.yul\":10673:10684   */\n      0x00\n        /* \"#utility.yul\":10710:10713   */\n      dup2\n        /* \"#utility.yul\":10695:10713   */\n      swap1\n      pop\n        /* \"#utility.yul\":10572:10719   */\n      swap3\n      swap2\n      pop\n      pop\n      jump\t// out\n        /* \"#utility.yul\":10725:10864   */\n    tag_388:\n        /* \"#utility.yul\":10814:10820   */\n      dup3\n        /* \"#utility.yul\":10809:10812   */\n      dup2\n        /* \"#utility.yul\":10804:10807   */\n      dup4\n        /* \"#utility.yul\":10798:10821   */\n      mcopy\n        /* \"#utility.yul\":10855:10856   */\n      0x00\n        /* \"#utility.yul\":10846:10852   */\n      dup4\n        /* \"#utility.yul\":10841:10844   */\n      dup4\n        /* \"#utility.yul\":10837:10853   */\n      add\n        /* \"#utility.yul\":10830:10857   */\n      mstore\n        /* \"#utility.yul\":10725:10864   */\n      pop\n      pop\n      pop\n      jump\t// out\n        /* \"#utility.yul\":10870:11256   */\n    tag_389:\n        /* \"#utility.yul\":10974:10977   */\n      0x00\n        /* \"#utility.yul\":11002:11040   */\n      tag_548\n        /* \"#utility.yul\":11034:11039   */\n      dup3\n        /* \"#utility.yul\":11002:11040   */\n      tag_386\n      jump\t// in\n    tag_548:\n        /* \"#utility.yul\":11056:11144   */\n      tag_549\n        /* \"#utility.yul\":11137:11143   */\n      dup2\n        /* \"#utility.yul\":11132:11135   */\n      dup6\n        /* \"#utility.yul\":11056:11144   */\n      tag_387\n      jump\t// in\n    tag_549:\n        /* \"#utility.yul\":11049:11144   */\n      swap4\n      pop\n        /* \"#utility.yul\":11153:11218   */\n      tag_550\n        /* \"#utility.yul\":11211:11217   */\n      dup2\n        /* \"#utility.yul\":11206:11209   */\n      dup6\n        /* \"#utility.yul\":11199:11203   */\n      0x20\n        /* \"#utility.yul\":11192:11197   */\n      dup7\n        /* \"#utility.yul\":11188:11204   */\n      add\n        /* \"#utility.yul\":11153:11218   */\n      tag_388\n      jump\t// in\n    tag_550:\n        /* \"#utility.yul\":11243:11249   */\n      dup1\n        /* \"#utility.yul\":11238:11241   */\n      dup5\n        /* \"#utility.yul\":11234:11250   */\n      add\n        /* \"#utility.yul\":11227:11250   */\n      swap2\n      pop\n        /* \"#utility.yul\":10978:11256   */\n      pop\n        /* \"#utility.yul\":10870:11256   */\n      swap3\n      swap2\n      pop\n      pop\n      jump\t// out\n        /* \"#utility.yul\":11262:11533   */\n    tag_125:\n        /* \"#utility.yul\":11392:11395   */\n      0x00\n        /* \"#utility.yul\":11414:11507   */\n      tag_552\n        /* \"#utility.yul\":11503:11506   */\n      dup3\n        /* \"#utility.yul\":11494:11500   */\n      dup5\n        /* \"#utility.yul\":11414:11507   */\n      tag_389\n      jump\t// in\n    tag_552:\n        /* \"#utility.yul\":11407:11507   */\n      swap2\n      pop\n        /* \"#utility.yul\":11524:11527   */\n      dup2\n        /* \"#utility.yul\":11517:11527   */\n      swap1\n      pop\n        /* \"#utility.yul\":11262:11533   */\n      swap3\n      swap2\n      pop\n      pop\n      jump\t// out\n        /* \"#utility.yul\":11539:11714   */\n    tag_390:\n        /* \"#utility.yul\":11679:11706   */\n      0x7369676e617475726520616c726561647920636c61696d656400000000000000\n        /* \"#utility.yul\":11675:11676   */\n      0x00\n        /* \"#utility.yul\":11667:11673   */\n      dup3\n        /* \"#utility.yul\":11663:11677   */\n      add\n        /* \"#utility.yul\":11656:11707   */\n      mstore\n        /* \"#utility.yul\":11539:11714   */\n      pop\n      jump\t// out\n        /* \"#utility.yul\":11720:12086   */\n    tag_391:\n        /* \"#utility.yul\":11862:11865   */\n      0x00\n        /* \"#utility.yul\":11883:11950   */\n      tag_555\n        /* \"#utility.yul\":11947:11949   */\n      0x19\n        /* \"#utility.yul\":11942:11945   */\n      dup4\n        /* \"#utility.yul\":11883:11950   */\n      tag_383\n      jump\t// in\n    tag_555:\n        /* \"#utility.yul\":11876:11950   */\n      swap2\n      pop\n        /* \"#utility.yul\":11959:12052   */\n      tag_556\n        /* \"#utility.yul\":12048:12051   */\n      dup3\n        /* \"#utility.yul\":11959:12052   */\n      tag_390\n      jump\t// in\n    tag_556:\n        /* \"#utility.yul\":12077:12079   */\n      0x20\n        /* \"#utility.yul\":12072:12075   */\n      dup3\n        /* \"#utility.yul\":12068:12080   */\n      add\n        /* \"#utility.yul\":12061:12080   */\n      swap1\n      pop\n        /* \"#utility.yul\":11720:12086   */\n      swap2\n      swap1\n      pop\n      jump\t// out\n        /* \"#utility.yul\":12092:12511   */\n    tag_128:\n        /* \"#utility.yul\":12258:12262   */\n      0x00\n        /* \"#utility.yul\":12296:12298   */\n      0x20\n        /* \"#utility.yul\":12285:12294   */\n      dup3\n        /* \"#utility.yul\":12281:12299   */\n      add\n        /* \"#utility.yul\":12273:12299   */\n      swap1\n      pop\n        /* \"#utility.yul\":12345:12354   */\n      dup2\n        /* \"#utility.yul\":12339:12343   */\n      dup2\n        /* \"#utility.yul\":12335:12355   */\n      sub\n        /* \"#utility.yul\":12331:12332   */\n      0x00\n        /* \"#utility.yul\":12320:12329   */\n      dup4\n        /* \"#utility.yul\":12316:12333   */\n      add\n        /* \"#utility.yul\":12309:12356   */\n      mstore\n        /* \"#utility.yul\":12373:12504   */\n      tag_558\n        /* \"#utility.yul\":12499:12503   */\n      dup2\n        /* \"#utility.yul\":12373:12504   */\n      tag_391\n      jump\t// in\n    tag_558:\n        /* \"#utility.yul\":12365:12504   */\n      swap1\n      pop\n        /* \"#utility.yul\":12092:12511   */\n      swap2\n      swap1\n      pop\n      jump\t// out\n        /* \"#utility.yul\":12517:12596   */\n    tag_392:\n        /* \"#utility.yul\":12556:12563   */\n      0x00\n        /* \"#utility.yul\":12585:12590   */\n      dup2\n        /* \"#utility.yul\":12574:12590   */\n      swap1\n      pop\n        /* \"#utility.yul\":12517:12596   */\n      swap2\n      swap1\n      pop\n      jump\t// out\n        /* \"#utility.yul\":12602:12759   */\n    tag_393:\n        /* \"#utility.yul\":12707:12752   */\n      tag_561\n        /* \"#utility.yul\":12727:12751   */\n      tag_562\n        /* \"#utility.yul\":12745:12750   */\n      dup3\n        /* \"#utility.yul\":12727:12751   */\n      tag_369\n      jump\t// in\n    tag_562:\n        /* \"#utility.yul\":12707:12752   */\n      tag_392\n      jump\t// in\n    tag_561:\n        /* \"#utility.yul\":12702:12705   */\n      dup3\n        /* \"#utility.yul\":12695:12753   */\n      mstore\n        /* \"#utility.yul\":12602:12759   */\n      pop\n      pop\n      jump\t// out\n        /* \"#utility.yul\":12765:13444   */\n    tag_134:\n        /* \"#utility.yul\":12961:12964   */\n      0x00\n        /* \"#utility.yul\":12976:13051   */\n      tag_564\n        /* \"#utility.yul\":13047:13050   */\n      dup3\n        /* \"#utility.yul\":13038:13044   */\n      dup8\n        /* \"#utility.yul\":12976:13051   */\n      tag_393\n      jump\t// in\n    tag_564:\n        /* \"#utility.yul\":13076:13078   */\n      0x20\n        /* \"#utility.yul\":13071:13074   */\n      dup3\n        /* \"#utility.yul\":13067:13079   */\n      add\n        /* \"#utility.yul\":13060:13079   */\n      swap2\n      pop\n        /* \"#utility.yul\":13089:13164   */\n      tag_565\n        /* \"#utility.yul\":13160:13163   */\n      dup3\n        /* \"#utility.yul\":13151:13157   */\n      dup7\n        /* \"#utility.yul\":13089:13164   */\n      tag_393\n      jump\t// in\n    tag_565:\n        /* \"#utility.yul\":13189:13191   */\n      0x20\n        /* \"#utility.yul\":13184:13187   */\n      dup3\n        /* \"#utility.yul\":13180:13192   */\n      add\n        /* \"#utility.yul\":13173:13192   */\n      swap2\n      pop\n        /* \"#utility.yul\":13202:13277   */\n      tag_566\n        /* \"#utility.yul\":13273:13276   */\n      dup3\n        /* \"#utility.yul\":13264:13270   */\n      dup6\n        /* \"#utility.yul\":13202:13277   */\n      tag_393\n      jump\t// in\n    tag_566:\n        /* \"#utility.yul\":13302:13304   */\n      0x20\n        /* \"#utility.yul\":13297:13300   */\n      dup3\n        /* \"#utility.yul\":13293:13305   */\n      add\n        /* \"#utility.yul\":13286:13305   */\n      swap2\n      pop\n        /* \"#utility.yul\":13315:13390   */\n      tag_567\n        /* \"#utility.yul\":13386:13389   */\n      dup3\n        /* \"#utility.yul\":13377:13383   */\n      dup5\n        /* \"#utility.yul\":13315:13390   */\n      tag_393\n      jump\t// in\n    tag_567:\n        /* \"#utility.yul\":13415:13417   */\n      0x20\n        /* \"#utility.yul\":13410:13413   */\n      dup3\n        /* \"#utility.yul\":13406:13418   */\n      add\n        /* \"#utility.yul\":13399:13418   */\n      swap2\n      pop\n        /* \"#utility.yul\":13435:13438   */\n      dup2\n        /* \"#utility.yul\":13428:13438   */\n      swap1\n      pop\n        /* \"#utility.yul\":12765:13444   */\n      swap6\n      swap5\n      pop\n      pop\n      pop\n      pop\n      pop\n      jump\t// out\n        /* \"#utility.yul\":13450:13782   */\n    tag_142:\n        /* \"#utility.yul\":13571:13575   */\n      0x00\n        /* \"#utility.yul\":13609:13611   */\n      0x40\n        /* \"#utility.yul\":13598:13607   */\n      dup3\n        /* \"#utility.yul\":13594:13612   */\n      add\n        /* \"#utility.yul\":13586:13612   */\n      swap1\n      pop\n        /* \"#utility.yul\":13622:13693   */\n      tag_569\n        /* \"#utility.yul\":13690:13691   */\n      0x00\n        /* \"#utility.yul\":13679:13688   */\n      dup4\n        /* \"#utility.yul\":13675:13692   */\n      add\n        /* \"#utility.yul\":13666:13672   */\n      dup6\n        /* \"#utility.yul\":13622:13693   */\n      tag_382\n      jump\t// in\n    tag_569:\n        /* \"#utility.yul\":13703:13775   */\n      tag_570\n        /* \"#utility.yul\":13771:13773   */\n      0x20\n        /* \"#utility.yul\":13760:13769   */\n      dup4\n        /* \"#utility.yul\":13756:13774   */\n      add\n        /* \"#utility.yul\":13747:13753   */\n      dup5\n        /* \"#utility.yul\":13703:13775   */\n      tag_382\n      jump\t// in\n    tag_570:\n        /* \"#utility.yul\":13450:13782   */\n      swap4\n      swap3\n      pop\n      pop\n      pop\n      jump\t// out\n        /* \"#utility.yul\":13788:14120   */\n    tag_149:\n        /* \"#utility.yul\":13909:13913   */\n      0x00\n        /* \"#utility.yul\":13947:13949   */\n      0x40\n        /* \"#utility.yul\":13936:13945   */\n      dup3\n        /* \"#utility.yul\":13932:13950   */\n      add\n        /* \"#utility.yul\":13924:13950   */\n      swap1\n      pop\n        /* \"#utility.yul\":13960:14031   */\n      tag_572\n        /* \"#utility.yul\":14028:14029   */\n      0x00\n        /* \"#utility.yul\":14017:14026   */\n      dup4\n        /* \"#utility.yul\":14013:14030   */\n      add\n        /* \"#utility.yul\":14004:14010   */\n      dup6\n        /* \"#utility.yul\":13960:14031   */\n      tag_381\n      jump\t// in\n    tag_572:\n        /* \"#utility.yul\":14041:14113   */\n      tag_573\n        /* \"#utility.yul\":14109:14111   */\n      0x20\n        /* \"#utility.yul\":14098:14107   */\n      dup4\n        /* \"#utility.yul\":14094:14112   */\n      add\n        /* \"#utility.yul\":14085:14091   */\n      dup5\n        /* \"#utility.yul\":14041:14113   */\n      tag_382\n      jump\t// in\n    tag_573:\n        /* \"#utility.yul\":13788:14120   */\n      swap4\n      swap3\n      pop\n      pop\n      pop\n      jump\t// out\n        /* \"#utility.yul\":14126:14351   */\n    tag_394:\n        /* \"#utility.yul\":14266:14300   */\n      0x4f776e61626c653a206e6577206f776e657220697320746865207a65726f2061\n        /* \"#utility.yul\":14262:14263   */\n      0x00\n        /* \"#utility.yul\":14254:14260   */\n      dup3\n        /* \"#utility.yul\":14250:14264   */\n      add\n        /* \"#utility.yul\":14243:14301   */\n      mstore\n        /* \"#utility.yul\":14335:14343   */\n      0x6464726573730000000000000000000000000000000000000000000000000000\n        /* \"#utility.yul\":14330:14332   */\n      0x20\n        /* \"#utility.yul\":14322:14328   */\n      dup3\n        /* \"#utility.yul\":14318:14333   */\n      add\n        /* \"#utility.yul\":14311:14344   */\n      mstore\n        /* \"#utility.yul\":14126:14351   */\n      pop\n      jump\t// out\n        /* \"#utility.yul\":14357:14723   */\n    tag_395:\n        /* \"#utility.yul\":14499:14502   */\n      0x00\n        /* \"#utility.yul\":14520:14587   */\n      tag_576\n        /* \"#utility.yul\":14584:14586   */\n      0x26\n        /* \"#utility.yul\":14579:14582   */\n      dup4\n        /* \"#utility.yul\":14520:14587   */\n      tag_383\n      jump\t// in\n    tag_576:\n        /* \"#utility.yul\":14513:14587   */\n      swap2\n      pop\n        /* \"#utility.yul\":14596:14689   */\n      tag_577\n        /* \"#utility.yul\":14685:14688   */\n      dup3\n        /* \"#utility.yul\":14596:14689   */\n      tag_394\n      jump\t// in\n    tag_577:\n        /* \"#utility.yul\":14714:14716   */\n      0x40\n        /* \"#utility.yul\":14709:14712   */\n      dup3\n        /* \"#utility.yul\":14705:14717   */\n      add\n        /* \"#utility.yul\":14698:14717   */\n      swap1\n      pop\n        /* \"#utility.yul\":14357:14723   */\n      swap2\n      swap1\n      pop\n      jump\t// out\n        /* \"#utility.yul\":14729:15148   */\n    tag_173:\n        /* \"#utility.yul\":14895:14899   */\n      0x00\n        /* \"#utility.yul\":14933:14935   */\n      0x20\n        /* \"#utility.yul\":14922:14931   */\n      dup3\n        /* \"#utility.yul\":14918:14936   */\n      add\n        /* \"#utility.yul\":14910:14936   */\n      swap1\n      pop\n        /* \"#utility.yul\":14982:14991   */\n      dup2\n        /* \"#utility.yul\":14976:14980   */\n      dup2\n        /* \"#utility.yul\":14972:14992   */\n      sub\n        /* \"#utility.yul\":14968:14969   */\n      0x00\n        /* \"#utility.yul\":14957:14966   */\n      dup4\n        /* \"#utility.yul\":14953:14970   */\n      add\n        /* \"#utility.yul\":14946:14993   */\n      mstore\n        /* \"#utility.yul\":15010:15141   */\n      tag_579\n        /* \"#utility.yul\":15136:15140   */\n      dup2\n        /* \"#utility.yul\":15010:15141   */\n      tag_395\n      jump\t// in\n    tag_579:\n        /* \"#utility.yul\":15002:15141   */\n      swap1\n      pop\n        /* \"#utility.yul\":14729:15148   */\n      swap2\n      swap1\n      pop\n      jump\t// out\n        /* \"#utility.yul\":15154:15336   */\n    tag_396:\n        /* \"#utility.yul\":15294:15328   */\n      0x4f776e61626c653a2063616c6c6572206973206e6f7420746865206f776e6572\n        /* \"#utility.yul\":15290:15291   */\n      0x00\n        /* \"#utility.yul\":15282:15288   */\n      dup3\n        /* \"#utility.yul\":15278:15292   */\n      add\n        /* \"#utility.yul\":15271:15329   */\n      mstore\n        /* \"#utility.yul\":15154:15336   */\n      pop\n      jump\t// out\n        /* \"#utility.yul\":15342:15708   */\n    tag_397:\n        /* \"#utility.yul\":15484:15487   */\n      0x00\n        /* \"#utility.yul\":15505:15572   */\n      tag_582\n        /* \"#utility.yul\":15569:15571   */\n      0x20\n        /* \"#utility.yul\":15564:15567   */\n      dup4\n        /* \"#utility.yul\":15505:15572   */\n      tag_383\n      jump\t// in\n    tag_582:\n        /* \"#utility.yul\":15498:15572   */\n      swap2\n      pop\n        /* \"#utility.yul\":15581:15674   */\n      tag_583\n        /* \"#utility.yul\":15670:15673   */\n      dup3\n        /* \"#utility.yul\":15581:15674   */\n      tag_396\n      jump\t// in\n    tag_583:\n        /* \"#utility.yul\":15699:15701   */\n      0x20\n        /* \"#utility.yul\":15694:15697   */\n      dup3\n        /* \"#utility.yul\":15690:15702   */\n      add\n        /* \"#utility.yul\":15683:15702   */\n      swap1\n      pop\n        /* \"#utility.yul\":15342:15708   */\n      swap2\n      swap1\n      pop\n      jump\t// out\n        /* \"#utility.yul\":15714:16133   */\n    tag_184:\n        /* \"#utility.yul\":15880:15884   */\n      0x00\n        /* \"#utility.yul\":15918:15920   */\n      0x20\n        /* \"#utility.yul\":15907:15916   */\n      dup3\n        /* \"#utility.yul\":15903:15921   */\n      add\n        /* \"#utility.yul\":15895:15921   */\n      swap1\n      pop\n        /* \"#utility.yul\":15967:15976   */\n      dup2\n        /* \"#utility.yul\":15961:15965   */\n      dup2\n        /* \"#utility.yul\":15957:15977   */\n      sub\n        /* \"#utility.yul\":15953:15954   */\n      0x00\n        /* \"#utility.yul\":15942:15951   */\n      dup4\n        /* \"#utility.yul\":15938:15955   */\n      add\n        /* \"#utility.yul\":15931:15978   */\n      mstore\n        /* \"#utility.yul\":15995:16126   */\n      tag_585\n        /* \"#utility.yul\":16121:16125   */\n      dup2\n        /* \"#utility.yul\":15995:16126   */\n      tag_397\n      jump\t// in\n    tag_585:\n        /* \"#utility.yul\":15987:16126   */\n      swap1\n      pop\n        /* \"#utility.yul\":15714:16133   */\n      swap2\n      swap1\n      pop\n      jump\t// out\n        /* \"#utility.yul\":16139:16303   */\n    tag_398:\n        /* \"#utility.yul\":16279:16295   */\n      0x6d757374206265207369676e6572000000000000000000000000000000000000\n        /* \"#utility.yul\":16275:16276   */\n      0x00\n        /* \"#utility.yul\":16267:16273   */\n      dup3\n        /* \"#utility.yul\":16263:16277   */\n      add\n        /* \"#utility.yul\":16256:16296   */\n      mstore\n        /* \"#utility.yul\":16139:16303   */\n      pop\n      jump\t// out\n        /* \"#utility.yul\":16309:16675   */\n    tag_399:\n        /* \"#utility.yul\":16451:16454   */\n      0x00\n        /* \"#utility.yul\":16472:16539   */\n      tag_588\n        /* \"#utility.yul\":16536:16538   */\n      0x0e\n        /* \"#utility.yul\":16531:16534   */\n      dup4\n        /* \"#utility.yul\":16472:16539   */\n      tag_383\n      jump\t// in\n    tag_588:\n        /* \"#utility.yul\":16465:16539   */\n      swap2\n      pop\n        /* \"#utility.yul\":16548:16641   */\n      tag_589\n        /* \"#utility.yul\":16637:16640   */\n      dup3\n        /* \"#utility.yul\":16548:16641   */\n      tag_398\n      jump\t// in\n    tag_589:\n        /* \"#utility.yul\":16666:16668   */\n      0x20\n        /* \"#utility.yul\":16661:16664   */\n      dup3\n        /* \"#utility.yul\":16657:16669   */\n      add\n        /* \"#utility.yul\":16650:16669   */\n      swap1\n      pop\n        /* \"#utility.yul\":16309:16675   */\n      swap2\n      swap1\n      pop\n      jump\t// out\n        /* \"#utility.yul\":16681:17100   */\n    tag_210:\n        /* \"#utility.yul\":16847:16851   */\n      0x00\n        /* \"#utility.yul\":16885:16887   */\n      0x20\n        /* \"#utility.yul\":16874:16883   */\n      dup3\n        /* \"#utility.yul\":16870:16888   */\n      add\n        /* \"#utility.yul\":16862:16888   */\n      swap1\n      pop\n        /* \"#utility.yul\":16934:16943   */\n      dup2\n        /* \"#utility.yul\":16928:16932   */\n      dup2\n        /* \"#utility.yul\":16924:16944   */\n      sub\n        /* \"#utility.yul\":16920:16921   */\n      0x00\n        /* \"#utility.yul\":16909:16918   */\n      dup4\n        /* \"#utility.yul\":16905:16922   */\n      add\n        /* \"#utility.yul\":16898:16945   */\n      mstore\n        /* \"#utility.yul\":16962:17093   */\n      tag_591\n        /* \"#utility.yul\":17088:17092   */\n      dup2\n        /* \"#utility.yul\":16962:17093   */\n      tag_399\n      jump\t// in\n    tag_591:\n        /* \"#utility.yul\":16954:17093   */\n      swap1\n      pop\n        /* \"#utility.yul\":16681:17100   */\n      swap2\n      swap1\n      pop\n      jump\t// out\n        /* \"#utility.yul\":17106:17548   */\n    tag_221:\n        /* \"#utility.yul\":17255:17259   */\n      0x00\n        /* \"#utility.yul\":17293:17295   */\n      0x60\n        /* \"#utility.yul\":17282:17291   */\n      dup3\n        /* \"#utility.yul\":17278:17296   */\n      add\n        /* \"#utility.yul\":17270:17296   */\n      swap1\n      pop\n        /* \"#utility.yul\":17306:17377   */\n      tag_593\n        /* \"#utility.yul\":17374:17375   */\n      0x00\n        /* \"#utility.yul\":17363:17372   */\n      dup4\n        /* \"#utility.yul\":17359:17376   */\n      add\n        /* \"#utility.yul\":17350:17356   */\n      dup7\n        /* \"#utility.yul\":17306:17377   */\n      tag_381\n      jump\t// in\n    tag_593:\n        /* \"#utility.yul\":17387:17459   */\n      tag_594\n        /* \"#utility.yul\":17455:17457   */\n      0x20\n        /* \"#utility.yul\":17444:17453   */\n      dup4\n        /* \"#utility.yul\":17440:17458   */\n      add\n        /* \"#utility.yul\":17431:17437   */\n      dup6\n        /* \"#utility.yul\":17387:17459   */\n      tag_381\n      jump\t// in\n    tag_594:\n        /* \"#utility.yul\":17469:17541   */\n      tag_595\n        /* \"#utility.yul\":17537:17539   */\n      0x40\n        /* \"#utility.yul\":17526:17535   */\n      dup4\n        /* \"#utility.yul\":17522:17540   */\n      add\n        /* \"#utility.yul\":17513:17519   */\n      dup5\n        /* \"#utility.yul\":17469:17541   */\n      tag_382\n      jump\t// in\n    tag_595:\n        /* \"#utility.yul\":17106:17548   */\n      swap5\n      swap4\n      pop\n      pop\n      pop\n      pop\n      jump\t// out\n        /* \"#utility.yul\":17554:17702   */\n    tag_400:\n        /* \"#utility.yul\":17656:17667   */\n      0x00\n        /* \"#utility.yul\":17693:17696   */\n      dup2\n        /* \"#utility.yul\":17678:17696   */\n      swap1\n      pop\n        /* \"#utility.yul\":17554:17702   */\n      swap3\n      swap2\n      pop\n      pop\n      jump\t// out\n        /* \"#utility.yul\":17708:17881   */\n    tag_401:\n        /* \"#utility.yul\":17848:17873   */\n      0x416363657373436f6e74726f6c3a206163636f756e7420000000000000000000\n        /* \"#utility.yul\":17844:17845   */\n      0x00\n        /* \"#utility.yul\":17836:17842   */\n      dup3\n        /* \"#utility.yul\":17832:17846   */\n      add\n        /* \"#utility.yul\":17825:17874   */\n      mstore\n        /* \"#utility.yul\":17708:17881   */\n      pop\n      jump\t// out\n        /* \"#utility.yul\":17887:18289   */\n    tag_402:\n        /* \"#utility.yul\":18047:18050   */\n      0x00\n        /* \"#utility.yul\":18068:18153   */\n      tag_599\n        /* \"#utility.yul\":18150:18152   */\n      0x17\n        /* \"#utility.yul\":18145:18148   */\n      dup4\n        /* \"#utility.yul\":18068:18153   */\n      tag_400\n      jump\t// in\n    tag_599:\n        /* \"#utility.yul\":18061:18153   */\n      swap2\n      pop\n        /* \"#utility.yul\":18162:18255   */\n      tag_600\n        /* \"#utility.yul\":18251:18254   */\n      dup3\n        /* \"#utility.yul\":18162:18255   */\n      tag_401\n      jump\t// in\n    tag_600:\n        /* \"#utility.yul\":18280:18282   */\n      0x17\n        /* \"#utility.yul\":18275:18278   */\n      dup3\n        /* \"#utility.yul\":18271:18283   */\n      add\n        /* \"#utility.yul\":18264:18283   */\n      swap1\n      pop\n        /* \"#utility.yul\":17887:18289   */\n      swap2\n      swap1\n      pop\n      jump\t// out\n        /* \"#utility.yul\":18295:18394   */\n    tag_403:\n        /* \"#utility.yul\":18347:18353   */\n      0x00\n        /* \"#utility.yul\":18381:18386   */\n      dup2\n        /* \"#utility.yul\":18375:18387   */\n      mload\n        /* \"#utility.yul\":18365:18387   */\n      swap1\n      pop\n        /* \"#utility.yul\":18295:18394   */\n      swap2\n      swap1\n      pop\n      jump\t// out\n        /* \"#utility.yul\":18400:18790   */\n    tag_404:\n        /* \"#utility.yul\":18506:18509   */\n      0x00\n        /* \"#utility.yul\":18534:18573   */\n      tag_603\n        /* \"#utility.yul\":18567:18572   */\n      dup3\n        /* \"#utility.yul\":18534:18573   */\n      tag_403\n      jump\t// in\n    tag_603:\n        /* \"#utility.yul\":18589:18678   */\n      tag_604\n        /* \"#utility.yul\":18671:18677   */\n      dup2\n        /* \"#utility.yul\":18666:18669   */\n      dup6\n        /* \"#utility.yul\":18589:18678   */\n      tag_400\n      jump\t// in\n    tag_604:\n        /* \"#utility.yul\":18582:18678   */\n      swap4\n      pop\n        /* \"#utility.yul\":18687:18752   */\n      tag_605\n        /* \"#utility.yul\":18745:18751   */\n      dup2\n        /* \"#utility.yul\":18740:18743   */\n      dup6\n        /* \"#utility.yul\":18733:18737   */\n      0x20\n        /* \"#utility.yul\":18726:18731   */\n      dup7\n        /* \"#utility.yul\":18722:18738   */\n      add\n        /* \"#utility.yul\":18687:18752   */\n      tag_388\n      jump\t// in\n    tag_605:\n        /* \"#utility.yul\":18777:18783   */\n      dup1\n        /* \"#utility.yul\":18772:18775   */\n      dup5\n        /* \"#utility.yul\":18768:18784   */\n      add\n        /* \"#utility.yul\":18761:18784   */\n      swap2\n      pop\n        /* \"#utility.yul\":18510:18790   */\n      pop\n        /* \"#utility.yul\":18400:18790   */\n      swap3\n      swap2\n      pop\n      pop\n      jump\t// out\n        /* \"#utility.yul\":18796:18963   */\n    tag_405:\n        /* \"#utility.yul\":18936:18955   */\n      0x206973206d697373696e6720726f6c6520000000000000000000000000000000\n        /* \"#utility.yul\":18932:18933   */\n      0x00\n        /* \"#utility.yul\":18924:18930   */\n      dup3\n        /* \"#utility.yul\":18920:18934   */\n      add\n        /* \"#utility.yul\":18913:18956   */\n      mstore\n        /* \"#utility.yul\":18796:18963   */\n      pop\n      jump\t// out\n        /* \"#utility.yul\":18969:19371   */\n    tag_406:\n        /* \"#utility.yul\":19129:19132   */\n      0x00\n        /* \"#utility.yul\":19150:19235   */\n      tag_608\n        /* \"#utility.yul\":19232:19234   */\n      0x11\n        /* \"#utility.yul\":19227:19230   */\n      dup4\n        /* \"#utility.yul\":19150:19235   */\n      tag_400\n      jump\t// in\n    tag_608:\n        /* \"#utility.yul\":19143:19235   */\n      swap2\n      pop\n        /* \"#utility.yul\":19244:19337   */\n      tag_609\n        /* \"#utility.yul\":19333:19336   */\n      dup3\n        /* \"#utility.yul\":19244:19337   */\n      tag_405\n      jump\t// in\n    tag_609:\n        /* \"#utility.yul\":19362:19364   */\n      0x11\n        /* \"#utility.yul\":19357:19360   */\n      dup3\n        /* \"#utility.yul\":19353:19365   */\n      add\n        /* \"#utility.yul\":19346:19365   */\n      swap1\n      pop\n        /* \"#utility.yul\":18969:19371   */\n      swap2\n      swap1\n      pop\n      jump\t// out\n        /* \"#utility.yul\":19377:20344   */\n    tag_233:\n        /* \"#utility.yul\":19759:19762   */\n      0x00\n        /* \"#utility.yul\":19781:19929   */\n      tag_611\n        /* \"#utility.yul\":19925:19928   */\n      dup3\n        /* \"#utility.yul\":19781:19929   */\n      tag_402\n      jump\t// in\n    tag_611:\n        /* \"#utility.yul\":19774:19929   */\n      swap2\n      pop\n        /* \"#utility.yul\":19946:20041   */\n      tag_612\n        /* \"#utility.yul\":20037:20040   */\n      dup3\n        /* \"#utility.yul\":20028:20034   */\n      dup6\n        /* \"#utility.yul\":19946:20041   */\n      tag_404\n      jump\t// in\n    tag_612:\n        /* \"#utility.yul\":19939:20041   */\n      swap2\n      pop\n        /* \"#utility.yul\":20058:20206   */\n      tag_613\n        /* \"#utility.yul\":20202:20205   */\n      dup3\n        /* \"#utility.yul\":20058:20206   */\n      tag_406\n      jump\t// in\n    tag_613:\n        /* \"#utility.yul\":20051:20206   */\n      swap2\n      pop\n        /* \"#utility.yul\":20223:20318   */\n      tag_614\n        /* \"#utility.yul\":20314:20317   */\n      dup3\n        /* \"#utility.yul\":20305:20311   */\n      dup5\n        /* \"#utility.yul\":20223:20318   */\n      tag_404\n      jump\t// in\n    tag_614:\n        /* \"#utility.yul\":20216:20318   */\n      swap2\n      pop\n        /* \"#utility.yul\":20335:20338   */\n      dup2\n        /* \"#utility.yul\":20328:20338   */\n      swap1\n      pop\n        /* \"#utility.yul\":19377:20344   */\n      swap4\n      swap3\n      pop\n      pop\n      pop\n      jump\t// out\n        /* \"#utility.yul\":20350:20727   */\n    tag_407:\n        /* \"#utility.yul\":20438:20441   */\n      0x00\n        /* \"#utility.yul\":20466:20505   */\n      tag_616\n        /* \"#utility.yul\":20499:20504   */\n      dup3\n        /* \"#utility.yul\":20466:20505   */\n      tag_403\n      jump\t// in\n    tag_616:\n        /* \"#utility.yul\":20521:20592   */\n      tag_617\n        /* \"#utility.yul\":20585:20591   */\n      dup2\n        /* \"#utility.yul\":20580:20583   */\n      dup6\n        /* \"#utility.yul\":20521:20592   */\n      tag_383\n      jump\t// in\n    tag_617:\n        /* \"#utility.yul\":20514:20592   */\n      swap4\n      pop\n        /* \"#utility.yul\":20601:20666   */\n      tag_618\n        /* \"#utility.yul\":20659:20665   */\n      dup2\n        /* \"#utility.yul\":20654:20657   */\n      dup6\n        /* \"#utility.yul\":20647:20651   */\n      0x20\n        /* \"#utility.yul\":20640:20645   */\n      dup7\n        /* \"#utility.yul\":20636:20652   */\n      add\n        /* \"#utility.yul\":20601:20666   */\n      tag_388\n      jump\t// in\n    tag_618:\n        /* \"#utility.yul\":20691:20720   */\n      tag_619\n        /* \"#utility.yul\":20713:20719   */\n      dup2\n        /* \"#utility.yul\":20691:20720   */\n      tag_374\n      jump\t// in\n    tag_619:\n        /* \"#utility.yul\":20686:20689   */\n      dup5\n        /* \"#utility.yul\":20682:20721   */\n      add\n        /* \"#utility.yul\":20675:20721   */\n      swap2\n      pop\n        /* \"#utility.yul\":20442:20727   */\n      pop\n        /* \"#utility.yul\":20350:20727   */\n      swap3\n      swap2\n      pop\n      pop\n      jump\t// out\n        /* \"#utility.yul\":20733:21046   */\n    tag_235:\n        /* \"#utility.yul\":20846:20850   */\n      0x00\n        /* \"#utility.yul\":20884:20886   */\n      0x20\n        /* \"#utility.yul\":20873:20882   */\n      dup3\n        /* \"#utility.yul\":20869:20887   */\n      add\n        /* \"#utility.yul\":20861:20887   */\n      swap1\n      pop\n        /* \"#utility.yul\":20933:20942   */\n      dup2\n        /* \"#utility.yul\":20927:20931   */\n      dup2\n        /* \"#utility.yul\":20923:20943   */\n      sub\n        /* \"#utility.yul\":20919:20920   */\n      0x00\n        /* \"#utility.yul\":20908:20917   */\n      dup4\n        /* \"#utility.yul\":20904:20921   */\n      add\n        /* \"#utility.yul\":20897:20944   */\n      mstore\n        /* \"#utility.yul\":20961:21039   */\n      tag_621\n        /* \"#utility.yul\":21034:21038   */\n      dup2\n        /* \"#utility.yul\":21025:21031   */\n      dup5\n        /* \"#utility.yul\":20961:21039   */\n      tag_407\n      jump\t// in\n    tag_621:\n        /* \"#utility.yul\":20953:21039   */\n      swap1\n      pop\n        /* \"#utility.yul\":20733:21046   */\n      swap3\n      swap2\n      pop\n      pop\n      jump\t// out\n        /* \"#utility.yul\":21052:21266   */\n    tag_408:\n        /* \"#utility.yul\":21192:21258   */\n      0x19457468657265756d205369676e6564204d6573736167653a0a333200000000\n        /* \"#utility.yul\":21188:21189   */\n      0x00\n        /* \"#utility.yul\":21180:21186   */\n      dup3\n        /* \"#utility.yul\":21176:21190   */\n      add\n        /* \"#utility.yul\":21169:21259   */\n      mstore\n        /* \"#utility.yul\":21052:21266   */\n      pop\n      jump\t// out\n        /* \"#utility.yul\":21272:21674   */\n    tag_409:\n        /* \"#utility.yul\":21432:21435   */\n      0x00\n        /* \"#utility.yul\":21453:21538   */\n      tag_624\n        /* \"#utility.yul\":21535:21537   */\n      0x1c\n        /* \"#utility.yul\":21530:21533   */\n      dup4\n        /* \"#utility.yul\":21453:21538   */\n      tag_400\n      jump\t// in\n    tag_624:\n        /* \"#utility.yul\":21446:21538   */\n      swap2\n      pop\n        /* \"#utility.yul\":21547:21640   */\n      tag_625\n        /* \"#utility.yul\":21636:21639   */\n      dup3\n        /* \"#utility.yul\":21547:21640   */\n      tag_408\n      jump\t// in\n    tag_625:\n        /* \"#utility.yul\":21665:21667   */\n      0x1c\n        /* \"#utility.yul\":21660:21663   */\n      dup3\n        /* \"#utility.yul\":21656:21668   */\n      add\n        /* \"#utility.yul\":21649:21668   */\n      swap1\n      pop\n        /* \"#utility.yul\":21272:21674   */\n      swap2\n      swap1\n      pop\n      jump\t// out\n        /* \"#utility.yul\":21680:21759   */\n    tag_410:\n        /* \"#utility.yul\":21719:21726   */\n      0x00\n        /* \"#utility.yul\":21748:21753   */\n      dup2\n        /* \"#utility.yul\":21737:21753   */\n      swap1\n      pop\n        /* \"#utility.yul\":21680:21759   */\n      swap2\n      swap1\n      pop\n      jump\t// out\n        /* \"#utility.yul\":21765:21922   */\n    tag_411:\n        /* \"#utility.yul\":21870:21915   */\n      tag_628\n        /* \"#utility.yul\":21890:21914   */\n      tag_629\n        /* \"#utility.yul\":21908:21913   */\n      dup3\n        /* \"#utility.yul\":21890:21914   */\n      tag_361\n      jump\t// in\n    tag_629:\n        /* \"#utility.yul\":21870:21915   */\n      tag_410\n      jump\t// in\n    tag_628:\n        /* \"#utility.yul\":21865:21868   */\n      dup3\n        /* \"#utility.yul\":21858:21916   */\n      mstore\n        /* \"#utility.yul\":21765:21922   */\n      pop\n      pop\n      jump\t// out\n        /* \"#utility.yul\":21928:22450   */\n    tag_252:\n        /* \"#utility.yul\":22141:22144   */\n      0x00\n        /* \"#utility.yul\":22163:22311   */\n      tag_631\n        /* \"#utility.yul\":22307:22310   */\n      dup3\n        /* \"#utility.yul\":22163:22311   */\n      tag_409\n      jump\t// in\n    tag_631:\n        /* \"#utility.yul\":22156:22311   */\n      swap2\n      pop\n        /* \"#utility.yul\":22321:22396   */\n      tag_632\n        /* \"#utility.yul\":22392:22395   */\n      dup3\n        /* \"#utility.yul\":22383:22389   */\n      dup5\n        /* \"#utility.yul\":22321:22396   */\n      tag_411\n      jump\t// in\n    tag_632:\n        /* \"#utility.yul\":22421:22423   */\n      0x20\n        /* \"#utility.yul\":22416:22419   */\n      dup3\n        /* \"#utility.yul\":22412:22424   */\n      add\n        /* \"#utility.yul\":22405:22424   */\n      swap2\n      pop\n        /* \"#utility.yul\":22441:22444   */\n      dup2\n        /* \"#utility.yul\":22434:22444   */\n      swap1\n      pop\n        /* \"#utility.yul\":21928:22450   */\n      swap3\n      swap2\n      pop\n      pop\n      jump\t// out\n        /* \"#utility.yul\":22456:22542   */\n    tag_412:\n        /* \"#utility.yul\":22491:22498   */\n      0x00\n        /* \"#utility.yul\":22531:22535   */\n      0xff\n        /* \"#utility.yul\":22524:22529   */\n      dup3\n        /* \"#utility.yul\":22520:22536   */\n      and\n        /* \"#utility.yul\":22509:22536   */\n      swap1\n      pop\n        /* \"#utility.yul\":22456:22542   */\n      swap2\n      swap1\n      pop\n      jump\t// out\n        /* \"#utility.yul\":22548:22660   */\n    tag_413:\n        /* \"#utility.yul\":22631:22653   */\n      tag_635\n        /* \"#utility.yul\":22647:22652   */\n      dup2\n        /* \"#utility.yul\":22631:22653   */\n      tag_412\n      jump\t// in\n    tag_635:\n        /* \"#utility.yul\":22626:22629   */\n      dup3\n        /* \"#utility.yul\":22619:22654   */\n      mstore\n        /* \"#utility.yul\":22548:22660   */\n      pop\n      pop\n      jump\t// out\n        /* \"#utility.yul\":22666:23211   */\n    tag_257:\n        /* \"#utility.yul\":22839:22843   */\n      0x00\n        /* \"#utility.yul\":22877:22880   */\n      0x80\n        /* \"#utility.yul\":22866:22875   */\n      dup3\n        /* \"#utility.yul\":22862:22881   */\n      add\n        /* \"#utility.yul\":22854:22881   */\n      swap1\n      pop\n        /* \"#utility.yul\":22891:22962   */\n      tag_637\n        /* \"#utility.yul\":22959:22960   */\n      0x00\n        /* \"#utility.yul\":22948:22957   */\n      dup4\n        /* \"#utility.yul\":22944:22961   */\n      add\n        /* \"#utility.yul\":22935:22941   */\n      dup8\n        /* \"#utility.yul\":22891:22962   */\n      tag_364\n      jump\t// in\n    tag_637:\n        /* \"#utility.yul\":22972:23040   */\n      tag_638\n        /* \"#utility.yul\":23036:23038   */\n      0x20\n        /* \"#utility.yul\":23025:23034   */\n      dup4\n        /* \"#utility.yul\":23021:23039   */\n      add\n        /* \"#utility.yul\":23012:23018   */\n      dup7\n        /* \"#utility.yul\":22972:23040   */\n      tag_413\n      jump\t// in\n    tag_638:\n        /* \"#utility.yul\":23050:23122   */\n      tag_639\n        /* \"#utility.yul\":23118:23120   */\n      0x40\n        /* \"#utility.yul\":23107:23116   */\n      dup4\n        /* \"#utility.yul\":23103:23121   */\n      add\n        /* \"#utility.yul\":23094:23100   */\n      dup6\n        /* \"#utility.yul\":23050:23122   */\n      tag_364\n      jump\t// in\n    tag_639:\n        /* \"#utility.yul\":23132:23204   */\n      tag_640\n        /* \"#utility.yul\":23200:23202   */\n      0x60\n        /* \"#utility.yul\":23189:23198   */\n      dup4\n        /* \"#utility.yul\":23185:23203   */\n      add\n        /* \"#utility.yul\":23176:23182   */\n      dup5\n        /* \"#utility.yul\":23132:23204   */\n      tag_364\n      jump\t// in\n    tag_640:\n        /* \"#utility.yul\":22666:23211   */\n      swap6\n      swap5\n      pop\n      pop\n      pop\n      pop\n      pop\n      jump\t// out\n        /* \"#utility.yul\":23217:23333   */\n    tag_414:\n        /* \"#utility.yul\":23287:23308   */\n      tag_642\n        /* \"#utility.yul\":23302:23307   */\n      dup2\n        /* \"#utility.yul\":23287:23308   */\n      tag_359\n      jump\t// in\n    tag_642:\n        /* \"#utility.yul\":23280:23285   */\n      dup2\n        /* \"#utility.yul\":23277:23309   */\n      eq\n        /* \"#utility.yul\":23267:23327   */\n      tag_643\n      jumpi\n        /* \"#utility.yul\":23323:23324   */\n      0x00\n        /* \"#utility.yul\":23320:23321   */\n      dup1\n        /* \"#utility.yul\":23313:23325   */\n      revert\n        /* \"#utility.yul\":23267:23327   */\n    tag_643:\n        /* \"#utility.yul\":23217:23333   */\n      pop\n      jump\t// out\n        /* \"#utility.yul\":23339:23476   */\n    tag_415:\n        /* \"#utility.yul\":23393:23398   */\n      0x00\n        /* \"#utility.yul\":23424:23430   */\n      dup2\n        /* \"#utility.yul\":23418:23431   */\n      mload\n        /* \"#utility.yul\":23409:23431   */\n      swap1\n      pop\n        /* \"#utility.yul\":23440:23470   */\n      tag_645\n        /* \"#utility.yul\":23464:23469   */\n      dup2\n        /* \"#utility.yul\":23440:23470   */\n      tag_414\n      jump\t// in\n    tag_645:\n        /* \"#utility.yul\":23339:23476   */\n      swap3\n      swap2\n      pop\n      pop\n      jump\t// out\n        /* \"#utility.yul\":23482:23827   */\n    tag_265:\n        /* \"#utility.yul\":23549:23555   */\n      0x00\n        /* \"#utility.yul\":23598:23600   */\n      0x20\n        /* \"#utility.yul\":23586:23595   */\n      dup3\n        /* \"#utility.yul\":23577:23584   */\n      dup5\n        /* \"#utility.yul\":23573:23596   */\n      sub\n        /* \"#utility.yul\":23569:23601   */\n      slt\n        /* \"#utility.yul\":23566:23685   */\n      iszero\n      tag_647\n      jumpi\n        /* \"#utility.yul\":23604:23683   */\n      tag_648\n      tag_354\n      jump\t// in\n    tag_648:\n        /* \"#utility.yul\":23566:23685   */\n    tag_647:\n        /* \"#utility.yul\":23724:23725   */\n      0x00\n        /* \"#utility.yul\":23749:23810   */\n      tag_649\n        /* \"#utility.yul\":23802:23809   */\n      dup5\n        /* \"#utility.yul\":23793:23799   */\n      dup3\n        /* \"#utility.yul\":23782:23791   */\n      dup6\n        /* \"#utility.yul\":23778:23800   */\n      add\n        /* \"#utility.yul\":23749:23810   */\n      tag_415\n      jump\t// in\n    tag_649:\n        /* \"#utility.yul\":23739:23810   */\n      swap2\n      pop\n        /* \"#utility.yul\":23695:23820   */\n      pop\n        /* \"#utility.yul\":23482:23827   */\n      swap3\n      swap2\n      pop\n      pop\n      jump\t// out\n        /* \"#utility.yul\":23833:24062   */\n    tag_416:\n        /* \"#utility.yul\":23973:24007   */\n      0x5361666545524332303a204552433230206f7065726174696f6e20646964206e\n        /* \"#utility.yul\":23969:23970   */\n      0x00\n        /* \"#utility.yul\":23961:23967   */\n      dup3\n        /* \"#utility.yul\":23957:23971   */\n      add\n        /* \"#utility.yul\":23950:24008   */\n      mstore\n        /* \"#utility.yul\":24042:24054   */\n      0x6f74207375636365656400000000000000000000000000000000000000000000\n        /* \"#utility.yul\":24037:24039   */\n      0x20\n        /* \"#utility.yul\":24029:24035   */\n      dup3\n        /* \"#utility.yul\":24025:24040   */\n      add\n        /* \"#utility.yul\":24018:24055   */\n      mstore\n        /* \"#utility.yul\":23833:24062   */\n      pop\n      jump\t// out\n        /* \"#utility.yul\":24068:24434   */\n    tag_417:\n        /* \"#utility.yul\":24210:24213   */\n      0x00\n        /* \"#utility.yul\":24231:24298   */\n      tag_652\n        /* \"#utility.yul\":24295:24297   */\n      0x2a\n        /* \"#utility.yul\":24290:24293   */\n      dup4\n        /* \"#utility.yul\":24231:24298   */\n      tag_383\n      jump\t// in\n    tag_652:\n        /* \"#utility.yul\":24224:24298   */\n      swap2\n      pop\n        /* \"#utility.yul\":24307:24400   */\n      tag_653\n        /* \"#utility.yul\":24396:24399   */\n      dup3\n        /* \"#utility.yul\":24307:24400   */\n      tag_416\n      jump\t// in\n    tag_653:\n        /* \"#utility.yul\":24425:24427   */\n      0x40\n        /* \"#utility.yul\":24420:24423   */\n      dup3\n        /* \"#utility.yul\":24416:24428   */\n      add\n        /* \"#utility.yul\":24409:24428   */\n      swap1\n      pop\n        /* \"#utility.yul\":24068:24434   */\n      swap2\n      swap1\n      pop\n      jump\t// out\n        /* \"#utility.yul\":24440:24859   */\n    tag_268:\n        /* \"#utility.yul\":24606:24610   */\n      0x00\n        /* \"#utility.yul\":24644:24646   */\n      0x20\n        /* \"#utility.yul\":24633:24642   */\n      dup3\n        /* \"#utility.yul\":24629:24647   */\n      add\n        /* \"#utility.yul\":24621:24647   */\n      swap1\n      pop\n        /* \"#utility.yul\":24693:24702   */\n      dup2\n        /* \"#utility.yul\":24687:24691   */\n      dup2\n        /* \"#utility.yul\":24683:24703   */\n      sub\n        /* \"#utility.yul\":24679:24680   */\n      0x00\n        /* \"#utility.yul\":24668:24677   */\n      dup4\n        /* \"#utility.yul\":24664:24681   */\n      add\n        /* \"#utility.yul\":24657:24704   */\n      mstore\n        /* \"#utility.yul\":24721:24852   */\n      tag_655\n        /* \"#utility.yul\":24847:24851   */\n      dup2\n        /* \"#utility.yul\":24721:24852   */\n      tag_417\n      jump\t// in\n    tag_655:\n        /* \"#utility.yul\":24713:24852   */\n      swap1\n      pop\n        /* \"#utility.yul\":24440:24859   */\n      swap2\n      swap1\n      pop\n      jump\t// out\n        /* \"#utility.yul\":24865:25045   */\n    tag_272:\n        /* \"#utility.yul\":24913:24990   */\n      0x4e487b7100000000000000000000000000000000000000000000000000000000\n        /* \"#utility.yul\":24910:24911   */\n      0x00\n        /* \"#utility.yul\":24903:24991   */\n      mstore\n        /* \"#utility.yul\":25010:25014   */\n      0x32\n        /* \"#utility.yul\":25007:25008   */\n      0x04\n        /* \"#utility.yul\":25000:25015   */\n      mstore\n        /* \"#utility.yul\":25034:25038   */\n      0x24\n        /* \"#utility.yul\":25031:25032   */\n      0x00\n        /* \"#utility.yul\":25024:25039   */\n      revert\n        /* \"#utility.yul\":25051:25231   */\n    tag_418:\n        /* \"#utility.yul\":25099:25176   */\n      0x4e487b7100000000000000000000000000000000000000000000000000000000\n        /* \"#utility.yul\":25096:25097   */\n      0x00\n        /* \"#utility.yul\":25089:25177   */\n      mstore\n        /* \"#utility.yul\":25196:25200   */\n      0x11\n        /* \"#utility.yul\":25193:25194   */\n      0x04\n        /* \"#utility.yul\":25186:25201   */\n      mstore\n        /* \"#utility.yul\":25220:25224   */\n      0x24\n        /* \"#utility.yul\":25217:25218   */\n      0x00\n        /* \"#utility.yul\":25210:25225   */\n      revert\n        /* \"#utility.yul\":25237:25647   */\n    tag_277:\n        /* \"#utility.yul\":25277:25284   */\n      0x00\n        /* \"#utility.yul\":25300:25320   */\n      tag_659\n        /* \"#utility.yul\":25318:25319   */\n      dup3\n        /* \"#utility.yul\":25300:25320   */\n      tag_369\n      jump\t// in\n    tag_659:\n        /* \"#utility.yul\":25295:25320   */\n      swap2\n      pop\n        /* \"#utility.yul\":25334:25354   */\n      tag_660\n        /* \"#utility.yul\":25352:25353   */\n      dup4\n        /* \"#utility.yul\":25334:25354   */\n      tag_369\n      jump\t// in\n    tag_660:\n        /* \"#utility.yul\":25329:25354   */\n      swap3\n      pop\n        /* \"#utility.yul\":25389:25390   */\n      dup3\n        /* \"#utility.yul\":25386:25387   */\n      dup3\n        /* \"#utility.yul\":25382:25391   */\n      mul\n        /* \"#utility.yul\":25411:25441   */\n      tag_661\n        /* \"#utility.yul\":25429:25440   */\n      dup2\n        /* \"#utility.yul\":25411:25441   */\n      tag_369\n      jump\t// in\n    tag_661:\n        /* \"#utility.yul\":25400:25441   */\n      swap2\n      pop\n        /* \"#utility.yul\":25590:25591   */\n      dup3\n        /* \"#utility.yul\":25581:25588   */\n      dup3\n        /* \"#utility.yul\":25577:25592   */\n      div\n        /* \"#utility.yul\":25574:25575   */\n      dup5\n        /* \"#utility.yul\":25571:25593   */\n      eq\n        /* \"#utility.yul\":25551:25552   */\n      dup4\n        /* \"#utility.yul\":25544:25553   */\n      iszero\n        /* \"#utility.yul\":25524:25607   */\n      or\n        /* \"#utility.yul\":25501:25640   */\n      tag_662\n      jumpi\n        /* \"#utility.yul\":25620:25638   */\n      tag_663\n      tag_418\n      jump\t// in\n    tag_663:\n        /* \"#utility.yul\":25501:25640   */\n    tag_662:\n        /* \"#utility.yul\":25285:25647   */\n      pop\n        /* \"#utility.yul\":25237:25647   */\n      swap3\n      swap2\n      pop\n      pop\n      jump\t// out\n        /* \"#utility.yul\":25653:25844   */\n    tag_279:\n        /* \"#utility.yul\":25693:25696   */\n      0x00\n        /* \"#utility.yul\":25712:25732   */\n      tag_665\n        /* \"#utility.yul\":25730:25731   */\n      dup3\n        /* \"#utility.yul\":25712:25732   */\n      tag_369\n      jump\t// in\n    tag_665:\n        /* \"#utility.yul\":25707:25732   */\n      swap2\n      pop\n        /* \"#utility.yul\":25746:25766   */\n      tag_666\n        /* \"#utility.yul\":25764:25765   */\n      dup4\n        /* \"#utility.yul\":25746:25766   */\n      tag_369\n      jump\t// in\n    tag_666:\n        /* \"#utility.yul\":25741:25766   */\n      swap3\n      pop\n        /* \"#utility.yul\":25789:25790   */\n      dup3\n        /* \"#utility.yul\":25786:25787   */\n      dup3\n        /* \"#utility.yul\":25782:25791   */\n      add\n        /* \"#utility.yul\":25775:25791   */\n      swap1\n      pop\n        /* \"#utility.yul\":25810:25813   */\n      dup1\n        /* \"#utility.yul\":25807:25808   */\n      dup3\n        /* \"#utility.yul\":25804:25814   */\n      gt\n        /* \"#utility.yul\":25801:25837   */\n      iszero\n      tag_667\n      jumpi\n        /* \"#utility.yul\":25817:25835   */\n      tag_668\n      tag_418\n      jump\t// in\n    tag_668:\n        /* \"#utility.yul\":25801:25837   */\n    tag_667:\n        /* \"#utility.yul\":25653:25844   */\n      swap3\n      swap2\n      pop\n      pop\n      jump\t// out\n        /* \"#utility.yul\":25850:26021   */\n    tag_298:\n        /* \"#utility.yul\":25889:25892   */\n      0x00\n        /* \"#utility.yul\":25912:25936   */\n      tag_670\n        /* \"#utility.yul\":25930:25935   */\n      dup3\n        /* \"#utility.yul\":25912:25936   */\n      tag_369\n      jump\t// in\n    tag_670:\n        /* \"#utility.yul\":25903:25936   */\n      swap2\n      pop\n        /* \"#utility.yul\":25958:25962   */\n      0x00\n        /* \"#utility.yul\":25951:25956   */\n      dup3\n        /* \"#utility.yul\":25948:25963   */\n      sub\n        /* \"#utility.yul\":25945:25986   */\n      tag_671\n      jumpi\n        /* \"#utility.yul\":25966:25984   */\n      tag_672\n      tag_418\n      jump\t// in\n    tag_672:\n        /* \"#utility.yul\":25945:25986   */\n    tag_671:\n        /* \"#utility.yul\":26013:26014   */\n      0x01\n        /* \"#utility.yul\":26006:26011   */\n      dup3\n        /* \"#utility.yul\":26002:26015   */\n      sub\n        /* \"#utility.yul\":25995:26015   */\n      swap1\n      pop\n        /* \"#utility.yul\":25850:26021   */\n      swap2\n      swap1\n      pop\n      jump\t// out\n        /* \"#utility.yul\":26027:26209   */\n    tag_419:\n        /* \"#utility.yul\":26167:26201   */\n      0x537472696e67733a20686578206c656e67746820696e73756666696369656e74\n        /* \"#utility.yul\":26163:26164   */\n      0x00\n        /* \"#utility.yul\":26155:26161   */\n      dup3\n        /* \"#utility.yul\":26151:26165   */\n      add\n        /* \"#utility.yul\":26144:26202   */\n      mstore\n        /* \"#utility.yul\":26027:26209   */\n      pop\n      jump\t// out\n        /* \"#utility.yul\":26215:26581   */\n    tag_420:\n        /* \"#utility.yul\":26357:26360   */\n      0x00\n        /* \"#utility.yul\":26378:26445   */\n      tag_675\n        /* \"#utility.yul\":26442:26444   */\n      0x20\n        /* \"#utility.yul\":26437:26440   */\n      dup4\n        /* \"#utility.yul\":26378:26445   */\n      tag_383\n      jump\t// in\n    tag_675:\n        /* \"#utility.yul\":26371:26445   */\n      swap2\n      pop\n        /* \"#utility.yul\":26454:26547   */\n      tag_676\n        /* \"#utility.yul\":26543:26546   */\n      dup3\n        /* \"#utility.yul\":26454:26547   */\n      tag_419\n      jump\t// in\n    tag_676:\n        /* \"#utility.yul\":26572:26574   */\n      0x20\n        /* \"#utility.yul\":26567:26570   */\n      dup3\n        /* \"#utility.yul\":26563:26575   */\n      add\n        /* \"#utility.yul\":26556:26575   */\n      swap1\n      pop\n        /* \"#utility.yul\":26215:26581   */\n      swap2\n      swap1\n      pop\n      jump\t// out\n        /* \"#utility.yul\":26587:27006   */\n    tag_301:\n        /* \"#utility.yul\":26753:26757   */\n      0x00\n        /* \"#utility.yul\":26791:26793   */\n      0x20\n        /* \"#utility.yul\":26780:26789   */\n      dup3\n        /* \"#utility.yul\":26776:26794   */\n      add\n        /* \"#utility.yul\":26768:26794   */\n      swap1\n      pop\n        /* \"#utility.yul\":26840:26849   */\n      dup2\n        /* \"#utility.yul\":26834:26838   */\n      dup2\n        /* \"#utility.yul\":26830:26850   */\n      sub\n        /* \"#utility.yul\":26826:26827   */\n      0x00\n        /* \"#utility.yul\":26815:26824   */\n      dup4\n        /* \"#utility.yul\":26811:26828   */\n      add\n        /* \"#utility.yul\":26804:26851   */\n      mstore\n        /* \"#utility.yul\":26868:26999   */\n      tag_678\n        /* \"#utility.yul\":26994:26998   */\n      dup2\n        /* \"#utility.yul\":26868:26999   */\n      tag_420\n      jump\t// in\n    tag_678:\n        /* \"#utility.yul\":26860:26999   */\n      swap1\n      pop\n        /* \"#utility.yul\":26587:27006   */\n      swap2\n      swap1\n      pop\n      jump\t// out\n        /* \"#utility.yul\":27012:27206   */\n    tag_311:\n        /* \"#utility.yul\":27052:27056   */\n      0x00\n        /* \"#utility.yul\":27072:27092   */\n      tag_680\n        /* \"#utility.yul\":27090:27091   */\n      dup3\n        /* \"#utility.yul\":27072:27092   */\n      tag_369\n      jump\t// in\n    tag_680:\n        /* \"#utility.yul\":27067:27092   */\n      swap2\n      pop\n        /* \"#utility.yul\":27106:27126   */\n      tag_681\n        /* \"#utility.yul\":27124:27125   */\n      dup4\n        /* \"#utility.yul\":27106:27126   */\n      tag_369\n      jump\t// in\n    tag_681:\n        /* \"#utility.yul\":27101:27126   */\n      swap3\n      pop\n        /* \"#utility.yul\":27150:27151   */\n      dup3\n        /* \"#utility.yul\":27147:27148   */\n      dup3\n        /* \"#utility.yul\":27143:27152   */\n      sub\n        /* \"#utility.yul\":27135:27152   */\n      swap1\n      pop\n        /* \"#utility.yul\":27174:27175   */\n      dup2\n        /* \"#utility.yul\":27168:27172   */\n      dup2\n        /* \"#utility.yul\":27165:27176   */\n      gt\n        /* \"#utility.yul\":27162:27199   */\n      iszero\n      tag_682\n      jumpi\n        /* \"#utility.yul\":27179:27197   */\n      tag_683\n      tag_418\n      jump\t// in\n    tag_683:\n        /* \"#utility.yul\":27162:27199   */\n    tag_682:\n        /* \"#utility.yul\":27012:27206   */\n      swap3\n      swap2\n      pop\n      pop\n      jump\t// out\n        /* \"#utility.yul\":27212:27392   */\n    tag_322:\n        /* \"#utility.yul\":27260:27337   */\n      0x4e487b7100000000000000000000000000000000000000000000000000000000\n        /* \"#utility.yul\":27257:27258   */\n      0x00\n        /* \"#utility.yul\":27250:27338   */\n      mstore\n        /* \"#utility.yul\":27357:27361   */\n      0x31\n        /* \"#utility.yul\":27354:27355   */\n      0x04\n        /* \"#utility.yul\":27347:27362   */\n      mstore\n        /* \"#utility.yul\":27381:27385   */\n      0x24\n        /* \"#utility.yul\":27378:27379   */\n      0x00\n        /* \"#utility.yul\":27371:27386   */\n      revert\n        /* \"#utility.yul\":27398:27623   */\n    tag_421:\n        /* \"#utility.yul\":27538:27572   */\n      0x416464726573733a20696e73756666696369656e742062616c616e636520666f\n        /* \"#utility.yul\":27534:27535   */\n      0x00\n        /* \"#utility.yul\":27526:27532   */\n      dup3\n        /* \"#utility.yul\":27522:27536   */\n      add\n        /* \"#utility.yul\":27515:27573   */\n      mstore\n        /* \"#utility.yul\":27607:27615   */\n      0x722063616c6c0000000000000000000000000000000000000000000000000000\n        /* \"#utility.yul\":27602:27604   */\n      0x20\n        /* \"#utility.yul\":27594:27600   */\n      dup3\n        /* \"#utility.yul\":27590:27605   */\n      add\n        /* \"#utility.yul\":27583:27616   */\n      mstore\n        /* \"#utility.yul\":27398:27623   */\n      pop\n      jump\t// out\n        /* \"#utility.yul\":27629:27995   */\n    tag_422:\n        /* \"#utility.yul\":27771:27774   */\n      0x00\n        /* \"#utility.yul\":27792:27859   */\n      tag_687\n        /* \"#utility.yul\":27856:27858   */\n      0x26\n        /* \"#utility.yul\":27851:27854   */\n      dup4\n        /* \"#utility.yul\":27792:27859   */\n      tag_383\n      jump\t// in\n    tag_687:\n        /* \"#utility.yul\":27785:27859   */\n      swap2\n      pop\n        /* \"#utility.yul\":27868:27961   */\n      tag_688\n        /* \"#utility.yul\":27957:27960   */\n      dup3\n        /* \"#utility.yul\":27868:27961   */\n      tag_421\n      jump\t// in\n    tag_688:\n        /* \"#utility.yul\":27986:27988   */\n      0x40\n        /* \"#utility.yul\":27981:27984   */\n      dup3\n        /* \"#utility.yul\":27977:27989   */\n      add\n        /* \"#utility.yul\":27970:27989   */\n      swap1\n      pop\n        /* \"#utility.yul\":27629:27995   */\n      swap2\n      swap1\n      pop\n      jump\t// out\n        /* \"#utility.yul\":28001:28420   */\n    tag_334:\n        /* \"#utility.yul\":28167:28171   */\n      0x00\n        /* \"#utility.yul\":28205:28207   */\n      0x20\n        /* \"#utility.yul\":28194:28203   */\n      dup3\n        /* \"#utility.yul\":28190:28208   */\n      add\n        /* \"#utility.yul\":28182:28208   */\n      swap1\n      pop\n        /* \"#utility.yul\":28254:28263   */\n      dup2\n        /* \"#utility.yul\":28248:28252   */\n      dup2\n        /* \"#utility.yul\":28244:28264   */\n      sub\n        /* \"#utility.yul\":28240:28241   */\n      0x00\n        /* \"#utility.yul\":28229:28238   */\n      dup4\n        /* \"#utility.yul\":28225:28242   */\n      add\n        /* \"#utility.yul\":28218:28265   */\n      mstore\n        /* \"#utility.yul\":28282:28413   */\n      tag_690\n        /* \"#utility.yul\":28408:28412   */\n      dup2\n        /* \"#utility.yul\":28282:28413   */\n      tag_422\n      jump\t// in\n    tag_690:\n        /* \"#utility.yul\":28274:28413   */\n      swap1\n      pop\n        /* \"#utility.yul\":28001:28420   */\n      swap2\n      swap1\n      pop\n      jump\t// out\n        /* \"#utility.yul\":28426:28605   */\n    tag_423:\n        /* \"#utility.yul\":28566:28597   */\n      0x416464726573733a2063616c6c20746f206e6f6e2d636f6e7472616374000000\n        /* \"#utility.yul\":28562:28563   */\n      0x00\n        /* \"#utility.yul\":28554:28560   */\n      dup3\n        /* \"#utility.yul\":28550:28564   */\n      add\n        /* \"#utility.yul\":28543:28598   */\n      mstore\n        /* \"#utility.yul\":28426:28605   */\n      pop\n      jump\t// out\n        /* \"#utility.yul\":28611:28977   */\n    tag_424:\n        /* \"#utility.yul\":28753:28756   */\n      0x00\n        /* \"#utility.yul\":28774:28841   */\n      tag_693\n        /* \"#utility.yul\":28838:28840   */\n      0x1d\n        /* \"#utility.yul\":28833:28836   */\n      dup4\n        /* \"#utility.yul\":28774:28841   */\n      tag_383\n      jump\t// in\n    tag_693:\n        /* \"#utility.yul\":28767:28841   */\n      swap2\n      pop\n        /* \"#utility.yul\":28850:28943   */\n      tag_694\n        /* \"#utility.yul\":28939:28942   */\n      dup3\n        /* \"#utility.yul\":28850:28943   */\n      tag_423\n      jump\t// in\n    tag_694:\n        /* \"#utility.yul\":28968:28970   */\n      0x20\n        /* \"#utility.yul\":28963:28966   */\n      dup3\n        /* \"#utility.yul\":28959:28971   */\n      add\n        /* \"#utility.yul\":28952:28971   */\n      swap1\n      pop\n        /* \"#utility.yul\":28611:28977   */\n      swap2\n      swap1\n      pop\n      jump\t// out\n        /* \"#utility.yul\":28983:29402   */\n    tag_339:\n        /* \"#utility.yul\":29149:29153   */\n      0x00\n        /* \"#utility.yul\":29187:29189   */\n      0x20\n        /* \"#utility.yul\":29176:29185   */\n      dup3\n        /* \"#utility.yul\":29172:29190   */\n      add\n        /* \"#utility.yul\":29164:29190   */\n      swap1\n      pop\n        /* \"#utility.yul\":29236:29245   */\n      dup2\n        /* \"#utility.yul\":29230:29234   */\n      dup2\n        /* \"#utility.yul\":29226:29246   */\n      sub\n        /* \"#utility.yul\":29222:29223   */\n      0x00\n        /* \"#utility.yul\":29211:29220   */\n      dup4\n        /* \"#utility.yul\":29207:29224   */\n      add\n        /* \"#utility.yul\":29200:29247   */\n      mstore\n        /* \"#utility.yul\":29264:29395   */\n      tag_696\n        /* \"#utility.yul\":29390:29394   */\n      dup2\n        /* \"#utility.yul\":29264:29395   */\n      tag_424\n      jump\t// in\n    tag_696:\n        /* \"#utility.yul\":29256:29395   */\n      swap1\n      pop\n        /* \"#utility.yul\":28983:29402   */\n      swap2\n      swap1\n      pop\n      jump\t// out\n\n    auxdata: 0xa2646970667358221220f084da32511a9760749bce0c62136e1c0c577fdff868b003e9c32137479c08db64736f6c634300081a0033\n}\n",
				"bytecode": {
					"linkReferences": {},
					"object": "608060405234801561000f575f80fd5b50604051612b12380380612b1283398181016040528101906100319190610460565b61004d6100426100e360201b60201c565b6100ea60201b60201c565b8160035f6101000a81548173ffffffffffffffffffffffffffffffffffffffff021916908373ffffffffffffffffffffffffffffffffffffffff1602179055506100ac5f801b6100a16100e360201b60201c565b6101ad60201b60201c565b6100dc7fe2f4eaae4a9751e85a3e4a7b9587827a877f29914755229b07a7b2da98285f70826101ad60201b60201c565b505061049e565b5f33905090565b5f60025f9054906101000a900473ffffffffffffffffffffffffffffffffffffffff1690508160025f6101000a81548173ffffffffffffffffffffffffffffffffffffffff021916908373ffffffffffffffffffffffffffffffffffffffff1602179055508173ffffffffffffffffffffffffffffffffffffffff168173ffffffffffffffffffffffffffffffffffffffff167f8be0079c531659141344cd1fd0a4f28419497f9722a3daafe3b4186f6b6457e060405160405180910390a35050565b6101bd82826101c160201b60201c565b5050565b6101d182826101f960201b60201c565b6101f48160015f8581526020019081526020015f206102df60201b90919060201c565b505050565b610209828261031260201b60201c565b6102db5760015f808481526020019081526020015f205f015f8373ffffffffffffffffffffffffffffffffffffffff1673ffffffffffffffffffffffffffffffffffffffff1681526020019081526020015f205f6101000a81548160ff0219169083151502179055506102806100e360201b60201c565b73ffffffffffffffffffffffffffffffffffffffff168173ffffffffffffffffffffffffffffffffffffffff16837f2f8788117e7eff1d82e926ec794901d17c78024a50270940304540a733656f0d60405160405180910390a45b5050565b5f61030a835f018373ffffffffffffffffffffffffffffffffffffffff165f1b61037560201b60201c565b905092915050565b5f805f8481526020019081526020015f205f015f8373ffffffffffffffffffffffffffffffffffffffff1673ffffffffffffffffffffffffffffffffffffffff1681526020019081526020015f205f9054906101000a900460ff16905092915050565b5f61038683836103e260201b60201c565b6103d857825f0182908060018154018082558091505060019003905f5260205f20015f9091909190915055825f0180549050836001015f8481526020019081526020015f2081905550600190506103dc565b5f90505b92915050565b5f80836001015f8481526020019081526020015f20541415905092915050565b5f80fd5b5f73ffffffffffffffffffffffffffffffffffffffff82169050919050565b5f61042f82610406565b9050919050565b61043f81610425565b8114610449575f80fd5b50565b5f8151905061045a81610436565b92915050565b5f806040838503121561047657610475610402565b5b5f6104838582860161044c565b92505060206104948582860161044c565b9150509250929050565b612667806104ab5f395ff3fe608060405234801561000f575f80fd5b5060043610610114575f3560e01c80639010d07c116100a0578063b6b55f251161006f578063b6b55f25146102c8578063ca15c873146102e4578063d547741f14610314578063f2fde38b14610330578063fc0c546a1461034c57610114565b80639010d07c1461022c57806391d148541461025c578063a1ebf35d1461028c578063a217fddf146102aa57610114565b806336568abe116100e757806336568abe146101b0578063715018a6146101cc578063744fb6ca146101d65780638980f11f146101f25780638da5cb5b1461020e57610114565b806301ffc9a714610118578063248a9ca31461014857806326a4e8d2146101785780632f2ff15d14610194575b5f80fd5b610132600480360381019061012d9190611810565b61036a565b60405161013f9190611855565b60405180910390f35b610162600480360381019061015d91906118a1565b6103e3565b60405161016f91906118db565b60405180910390f35b610192600480360381019061018d919061194e565b6103ff565b005b6101ae60048036038101906101a99190611979565b61044a565b005b6101ca60048036038101906101c59190611979565b61046b565b005b6101d46104ee565b005b6101f060048036038101906101eb9190611b26565b610501565b005b61020c60048036038101906102079190611b92565b610685565b005b6102166106fc565b6040516102239190611bdf565b60405180910390f35b61024660048036038101906102419190611bf8565b610724565b6040516102539190611bdf565b60405180910390f35b61027660048036038101906102719190611979565b610750565b6040516102839190611855565b60405180910390f35b6102946107b3565b6040516102a191906118db565b60405180910390f35b6102b26107d7565b6040516102bf91906118db565b60405180910390f35b6102e260048036038101906102dd9190611c36565b6107dd565b005b6102fe60048036038101906102f991906118a1565b61086c565b60405161030b9190611c70565b60405180910390f35b61032e60048036038101906103299190611979565b61088d565b005b61034a6004803603810190610345919061194e565b6108ae565b005b610354610930565b6040516103619190611bdf565b60405180910390f35b5f7f5a05180f000000000000000000000000000000000000000000000000000000007bffffffffffffffffffffffffffffffffffffffffffffffffffffffff1916827bffffffffffffffffffffffffffffffffffffffffffffffffffffffff191614806103dc57506103db82610955565b5b9050919050565b5f805f8381526020019081526020015f20600101549050919050565b6104076109ce565b8060035f6101000a81548173ffffffffffffffffffffffffffffffffffffffff021916908373ffffffffffffffffffffffffffffffffffffffff16021790555050565b610453826103e3565b61045c81610a4c565b6104668383610a60565b505050565b610473610a92565b73ffffffffffffffffffffffffffffffffffffffff168173ffffffffffffffffffffffffffffffffffffffff16146104e0576040517f08c379a00000000000000000000000000000000000000000000000000000000081526004016104d790611d09565b60405180910390fd5b6104ea8282610a99565b5050565b6104f66109ce565b6104ff5f610acb565b565b6004816040516105119190611d79565b90815260200160405180910390205f9054906101000a900460ff161561056c576040517f08c379a000000000000000000000000000000000000000000000000000000000815260040161056390611dd9565b60405180910390fd5b5f61057d610578610a92565b610b8e565b848461058830610b8e565b60405160200161059b9493929190611e17565b6040516020818303038152906040528051906020012090506105bd8183610bad565b60016004836040516105cf9190611d79565b90815260200160405180910390205f6101000a81548160ff0219169083151502179055506106466105fe610a92565b8560035f9054906101000a900473ffffffffffffffffffffffffffffffffffffffff1673ffffffffffffffffffffffffffffffffffffffff16610c359092919063ffffffff16565b7f56ca301a9219608c91e7bcee90e083c19671d2cdcc96752c7af291cee5f9c8c88484604051610677929190611e64565b60405180910390a150505050565b61068d6109ce565b6106bf6106986106fc565b828473ffffffffffffffffffffffffffffffffffffffff16610c359092919063ffffffff16565b7f55350610fe57096d8c0ffa30beede987326bccfcb0b4415804164d0dd50ce8b182826040516106f0929190611e8b565b60405180910390a15050565b5f60025f9054906101000a900473ffffffffffffffffffffffffffffffffffffffff16905090565b5f6107488260015f8681526020019081526020015f20610cbb90919063ffffffff16565b905092915050565b5f805f8481526020019081526020015f205f015f8373ffffffffffffffffffffffffffffffffffffffff1673ffffffffffffffffffffffffffffffffffffffff1681526020019081526020015f205f9054906101000a900460ff16905092915050565b7fe2f4eaae4a9751e85a3e4a7b9587827a877f29914755229b07a7b2da98285f7081565b5f801b81565b6108326107e8610a92565b308360035f9054906101000a900473ffffffffffffffffffffffffffffffffffffffff1673ffffffffffffffffffffffffffffffffffffffff16610cd2909392919063ffffffff16565b7f4d6ce1e535dbade1c23defba91e23b8f791ce5edc0cc320257a2b364e4e38426816040516108619190611c70565b60405180910390a150565b5f61088660015f8481526020019081526020015f20610d5b565b9050919050565b610896826103e3565b61089f81610a4c565b6108a98383610a99565b505050565b6108b66109ce565b5f73ffffffffffffffffffffffffffffffffffffffff168173ffffffffffffffffffffffffffffffffffffffff1603610924576040517f08c379a000000000000000000000000000000000000000000000000000000000815260040161091b90611f22565b60405180910390fd5b61092d81610acb565b50565b60035f9054906101000a900473ffffffffffffffffffffffffffffffffffffffff1681565b5f7f7965db0b000000000000000000000000000000000000000000000000000000007bffffffffffffffffffffffffffffffffffffffffffffffffffffffff1916827bffffffffffffffffffffffffffffffffffffffffffffffffffffffff191614806109c757506109c682610d6e565b5b9050919050565b6109d6610a92565b73ffffffffffffffffffffffffffffffffffffffff166109f46106fc565b73ffffffffffffffffffffffffffffffffffffffff1614610a4a576040517f08c379a0000000000000000000000000000000000000000000000000000000008152600401610a4190611f8a565b60405180910390fd5b565b610a5d81610a58610a92565b610dd7565b50565b610a6a8282610e73565b610a8d8160015f8581526020019081526020015f20610f4d90919063ffffffff16565b505050565b5f33905090565b610aa38282610f7a565b610ac68160015f8581526020019081526020015f2061105490919063ffffffff16565b505050565b5f60025f9054906101000a900473ffffffffffffffffffffffffffffffffffffffff1690508160025f6101000a81548173ffffffffffffffffffffffffffffffffffffffff021916908373ffffffffffffffffffffffffffffffffffffffff1602179055508173ffffffffffffffffffffffffffffffffffffffff168173ffffffffffffffffffffffffffffffffffffffff167f8be0079c531659141344cd1fd0a4f28419497f9722a3daafe3b4186f6b6457e060405160405180910390a35050565b5f8173ffffffffffffffffffffffffffffffffffffffff169050919050565b5f610bb783611081565b90505f610bc482846110b0565b9050610bf07fe2f4eaae4a9751e85a3e4a7b9587827a877f29914755229b07a7b2da98285f7082610750565b610c2f576040517f08c379a0000000000000000000000000000000000000000000000000000000008152600401610c2690611ff2565b60405180910390fd5b50505050565b610cb68363a9059cbb60e01b8484604051602401610c54929190611e8b565b604051602081830303815290604052907bffffffffffffffffffffffffffffffffffffffffffffffffffffffff19166020820180517bffffffffffffffffffffffffffffffffffffffffffffffffffffffff838183161783525050505061111a565b505050565b5f610cc8835f01836111df565b5f1c905092915050565b610d55846323b872dd60e01b858585604051602401610cf393929190612010565b604051602081830303815290604052907bffffffffffffffffffffffffffffffffffffffffffffffffffffffff19166020820180517bffffffffffffffffffffffffffffffffffffffffffffffffffffffff838183161783525050505061111a565b50505050565b5f610d67825f01611206565b9050919050565b5f7f01ffc9a7000000000000000000000000000000000000000000000000000000007bffffffffffffffffffffffffffffffffffffffffffffffffffffffff1916827bffffffffffffffffffffffffffffffffffffffffffffffffffffffff1916149050919050565b610de18282610750565b610e6f57610e068173ffffffffffffffffffffffffffffffffffffffff166014611215565b610e13835f1c6020611215565b604051602001610e2492919061211d565b6040516020818303038152906040526040517f08c379a0000000000000000000000000000000000000000000000000000000008152600401610e66919061218e565b60405180910390fd5b5050565b610e7d8282610750565b610f495760015f808481526020019081526020015f205f015f8373ffffffffffffffffffffffffffffffffffffffff1673ffffffffffffffffffffffffffffffffffffffff1681526020019081526020015f205f6101000a81548160ff021916908315150217905550610eee610a92565b73ffffffffffffffffffffffffffffffffffffffff168173ffffffffffffffffffffffffffffffffffffffff16837f2f8788117e7eff1d82e926ec794901d17c78024a50270940304540a733656f0d60405160405180910390a45b5050565b5f610f72835f018373ffffffffffffffffffffffffffffffffffffffff165f1b61144a565b905092915050565b610f848282610750565b15611050575f805f8481526020019081526020015f205f015f8373ffffffffffffffffffffffffffffffffffffffff1673ffffffffffffffffffffffffffffffffffffffff1681526020019081526020015f205f6101000a81548160ff021916908315150217905550610ff5610a92565b73ffffffffffffffffffffffffffffffffffffffff168173ffffffffffffffffffffffffffffffffffffffff16837ff6391f5c32d9c69d2a47ea670b442974b53935d1edc7fd64eb21e047a839171b60405160405180910390a45b5050565b5f611079835f018373ffffffffffffffffffffffffffffffffffffffff165f1b6114b1565b905092915050565b5f816040516020016110939190612218565b604051602081830303815290604052805190602001209050919050565b5f805f806110bd856115ad565b9250925092506001868484846040515f81526020016040526040516110e59493929190612258565b6020604051602081039080840390855afa158015611105573d5f803e3d5ffd5b50505060206040510351935050505092915050565b5f61117b826040518060400160405280602081526020017f5361666545524332303a206c6f772d6c6576656c2063616c6c206661696c65648152508573ffffffffffffffffffffffffffffffffffffffff166115db9092919063ffffffff16565b90505f815111156111da578080602001905181019061119a91906122c5565b6111d9576040517f08c379a00000000000000000000000000000000000000000000000000000000081526004016111d090612360565b60405180910390fd5b5b505050565b5f825f0182815481106111f5576111f461237e565b5b905f5260205f200154905092915050565b5f815f01805490509050919050565b60605f600283600261122791906123d8565b6112319190612419565b67ffffffffffffffff81111561124a57611249611a02565b5b6040519080825280601f01601f19166020018201604052801561127c5781602001600182028036833780820191505090505b5090507f3000000000000000000000000000000000000000000000000000000000000000815f815181106112b3576112b261237e565b5b60200101907effffffffffffffffffffffffffffffffffffffffffffffffffffffffffffff191690815f1a9053507f7800000000000000000000000000000000000000000000000000000000000000816001815181106113165761131561237e565b5b60200101907effffffffffffffffffffffffffffffffffffffffffffffffffffffffffffff191690815f1a9053505f600184600261135491906123d8565b61135e9190612419565b90505b60018111156113fd577f3031323334353637383961626364656600000000000000000000000000000000600f8616601081106113a05761139f61237e565b5b1a60f81b8282815181106113b7576113b661237e565b5b60200101907effffffffffffffffffffffffffffffffffffffffffffffffffffffffffffff191690815f1a905350600485901c9450806113f69061244c565b9050611361565b505f8414611440576040517f08c379a0000000000000000000000000000000000000000000000000000000008152600401611437906124bd565b60405180910390fd5b8091505092915050565b5f61145583836115f2565b6114a757825f0182908060018154018082558091505060019003905f5260205f20015f9091909190915055825f0180549050836001015f8481526020019081526020015f2081905550600190506114ab565b5f90505b92915050565b5f80836001015f8481526020019081526020015f205490505f81146115a2575f6001826114de91906124db565b90505f6001865f01805490506114f491906124db565b905081811461155a575f865f0182815481106115135761151261237e565b5b905f5260205f200154905080875f0184815481106115345761153361237e565b5b905f5260205f20018190555083876001015f8381526020019081526020015f2081905550505b855f0180548061156d5761156c61250e565b5b600190038181905f5260205f20015f90559055856001015f8681526020019081526020015f205f9055600193505050506115a7565b5f9150505b92915050565b5f805f60418451146115bd575f80fd5b602084015191506040840151905060608401515f1a92509193909250565b60606115e984845f85611612565b90509392505050565b5f80836001015f8481526020019081526020015f20541415905092915050565b606082471015611657576040517f08c379a000000000000000000000000000000000000000000000000000000000815260040161164e906125ab565b60405180910390fd5b61166085611722565b61169f576040517f08c379a000000000000000000000000000000000000000000000000000000000815260040161169690612613565b60405180910390fd5b5f808673ffffffffffffffffffffffffffffffffffffffff1685876040516116c79190611d79565b5f6040518083038185875af1925050503d805f8114611701576040519150601f19603f3d011682016040523d82523d5f602084013e611706565b606091505b5091509150611716828286611744565b92505050949350505050565b5f808273ffffffffffffffffffffffffffffffffffffffff163b119050919050565b60608315611754578290506117a3565b5f835111156117665782518084602001fd5b816040517f08c379a000000000000000000000000000000000000000000000000000000000815260040161179a919061218e565b60405180910390fd5b9392505050565b5f604051905090565b5f80fd5b5f80fd5b5f7fffffffff0000000000000000000000000000000000000000000000000000000082169050919050565b6117ef816117bb565b81146117f9575f80fd5b50565b5f8135905061180a816117e6565b92915050565b5f60208284031215611825576118246117b3565b5b5f611832848285016117fc565b91505092915050565b5f8115159050919050565b61184f8161183b565b82525050565b5f6020820190506118685f830184611846565b92915050565b5f819050919050565b6118808161186e565b811461188a575f80fd5b50565b5f8135905061189b81611877565b92915050565b5f602082840312156118b6576118b56117b3565b5b5f6118c38482850161188d565b91505092915050565b6118d58161186e565b82525050565b5f6020820190506118ee5f8301846118cc565b92915050565b5f73ffffffffffffffffffffffffffffffffffffffff82169050919050565b5f61191d826118f4565b9050919050565b61192d81611913565b8114611937575f80fd5b50565b5f8135905061194881611924565b92915050565b5f60208284031215611963576119626117b3565b5b5f6119708482850161193a565b91505092915050565b5f806040838503121561198f5761198e6117b3565b5b5f61199c8582860161188d565b92505060206119ad8582860161193a565b9150509250929050565b5f819050919050565b6119c9816119b7565b81146119d3575f80fd5b50565b5f813590506119e4816119c0565b92915050565b5f80fd5b5f80fd5b5f601f19601f8301169050919050565b7f4e487b71000000000000000000000000000000000000000000000000000000005f52604160045260245ffd5b611a38826119f2565b810181811067ffffffffffffffff82111715611a5757611a56611a02565b5b80604052505050565b5f611a696117aa565b9050611a758282611a2f565b919050565b5f67ffffffffffffffff821115611a9457611a93611a02565b5b611a9d826119f2565b9050602081019050919050565b828183375f83830152505050565b5f611aca611ac584611a7a565b611a60565b905082815260208101848484011115611ae657611ae56119ee565b5b611af1848285611aaa565b509392505050565b5f82601f830112611b0d57611b0c6119ea565b5b8135611b1d848260208601611ab8565b91505092915050565b5f805f60608486031215611b3d57611b3c6117b3565b5b5f611b4a868287016119d6565b9350506020611b5b868287016119d6565b925050604084013567ffffffffffffffff811115611b7c57611b7b6117b7565b5b611b8886828701611af9565b9150509250925092565b5f8060408385031215611ba857611ba76117b3565b5b5f611bb58582860161193a565b9250506020611bc6858286016119d6565b9150509250929050565b611bd981611913565b82525050565b5f602082019050611bf25f830184611bd0565b92915050565b5f8060408385031215611c0e57611c0d6117b3565b5b5f611c1b8582860161188d565b9250506020611c2c858286016119d6565b9150509250929050565b5f60208284031215611c4b57611c4a6117b3565b5b5f611c58848285016119d6565b91505092915050565b611c6a816119b7565b82525050565b5f602082019050611c835f830184611c61565b92915050565b5f82825260208201905092915050565b7f416363657373436f6e74726f6c3a2063616e206f6e6c792072656e6f756e63655f8201527f20726f6c657320666f722073656c660000000000000000000000000000000000602082015250565b5f611cf3602f83611c89565b9150611cfe82611c99565b604082019050919050565b5f6020820190508181035f830152611d2081611ce7565b9050919050565b5f81519050919050565b5f81905092915050565b8281835e5f83830152505050565b5f611d5382611d27565b611d5d8185611d31565b9350611d6d818560208601611d3b565b80840191505092915050565b5f611d848284611d49565b915081905092915050565b7f7369676e617475726520616c726561647920636c61696d6564000000000000005f82015250565b5f611dc3601983611c89565b9150611dce82611d8f565b602082019050919050565b5f6020820190508181035f830152611df081611db7565b9050919050565b5f819050919050565b611e11611e0c826119b7565b611df7565b82525050565b5f611e228287611e00565b602082019150611e328286611e00565b602082019150611e428285611e00565b602082019150611e528284611e00565b60208201915081905095945050505050565b5f604082019050611e775f830185611c61565b611e846020830184611c61565b9392505050565b5f604082019050611e9e5f830185611bd0565b611eab6020830184611c61565b9392505050565b7f4f776e61626c653a206e6577206f776e657220697320746865207a65726f20615f8201527f6464726573730000000000000000000000000000000000000000000000000000602082015250565b5f611f0c602683611c89565b9150611f1782611eb2565b604082019050919050565b5f6020820190508181035f830152611f3981611f00565b9050919050565b7f4f776e61626c653a2063616c6c6572206973206e6f7420746865206f776e65725f82015250565b5f611f74602083611c89565b9150611f7f82611f40565b602082019050919050565b5f6020820190508181035f830152611fa181611f68565b9050919050565b7f6d757374206265207369676e65720000000000000000000000000000000000005f82015250565b5f611fdc600e83611c89565b9150611fe782611fa8565b602082019050919050565b5f6020820190508181035f83015261200981611fd0565b9050919050565b5f6060820190506120235f830186611bd0565b6120306020830185611bd0565b61203d6040830184611c61565b949350505050565b5f81905092915050565b7f416363657373436f6e74726f6c3a206163636f756e74200000000000000000005f82015250565b5f612083601783612045565b915061208e8261204f565b601782019050919050565b5f81519050919050565b5f6120ad82612099565b6120b78185612045565b93506120c7818560208601611d3b565b80840191505092915050565b7f206973206d697373696e6720726f6c65200000000000000000000000000000005f82015250565b5f612107601183612045565b9150612112826120d3565b601182019050919050565b5f61212782612077565b915061213382856120a3565b915061213e826120fb565b915061214a82846120a3565b91508190509392505050565b5f61216082612099565b61216a8185611c89565b935061217a818560208601611d3b565b612183816119f2565b840191505092915050565b5f6020820190508181035f8301526121a68184612156565b905092915050565b7f19457468657265756d205369676e6564204d6573736167653a0a3332000000005f82015250565b5f6121e2601c83612045565b91506121ed826121ae565b601c82019050919050565b5f819050919050565b61221261220d8261186e565b6121f8565b82525050565b5f612222826121d6565b915061222e8284612201565b60208201915081905092915050565b5f60ff82169050919050565b6122528161223d565b82525050565b5f60808201905061226b5f8301876118cc565b6122786020830186612249565b61228560408301856118cc565b61229260608301846118cc565b95945050505050565b6122a48161183b565b81146122ae575f80fd5b50565b5f815190506122bf8161229b565b92915050565b5f602082840312156122da576122d96117b3565b5b5f6122e7848285016122b1565b91505092915050565b7f5361666545524332303a204552433230206f7065726174696f6e20646964206e5f8201527f6f74207375636365656400000000000000000000000000000000000000000000602082015250565b5f61234a602a83611c89565b9150612355826122f0565b604082019050919050565b5f6020820190508181035f8301526123778161233e565b9050919050565b7f4e487b71000000000000000000000000000000000000000000000000000000005f52603260045260245ffd5b7f4e487b71000000000000000000000000000000000000000000000000000000005f52601160045260245ffd5b5f6123e2826119b7565b91506123ed836119b7565b92508282026123fb816119b7565b91508282048414831517612412576124116123ab565b5b5092915050565b5f612423826119b7565b915061242e836119b7565b9250828201905080821115612446576124456123ab565b5b92915050565b5f612456826119b7565b91505f8203612468576124676123ab565b5b600182039050919050565b7f537472696e67733a20686578206c656e67746820696e73756666696369656e745f82015250565b5f6124a7602083611c89565b91506124b282612473565b602082019050919050565b5f6020820190508181035f8301526124d48161249b565b9050919050565b5f6124e5826119b7565b91506124f0836119b7565b9250828203905081811115612508576125076123ab565b5b92915050565b7f4e487b71000000000000000000000000000000000000000000000000000000005f52603160045260245ffd5b7f416464726573733a20696e73756666696369656e742062616c616e636520666f5f8201527f722063616c6c0000000000000000000000000000000000000000000000000000602082015250565b5f612595602683611c89565b91506125a08261253b565b604082019050919050565b5f6020820190508181035f8301526125c281612589565b9050919050565b7f416464726573733a2063616c6c20746f206e6f6e2d636f6e74726163740000005f82015250565b5f6125fd601d83611c89565b9150612608826125c9565b602082019050919050565b5f6020820190508181035f83015261262a816125f1565b905091905056fea2646970667358221220f084da32511a9760749bce0c62136e1c0c577fdff868b003e9c32137479c08db64736f6c634300081a0033",
					"opcodes": "PUSH1 0x80 PUSH1 0x40 MSTORE CALLVALUE DUP1 ISZERO PUSH2 0xF JUMPI PUSH0 DUP1 REVERT JUMPDEST POP PUSH1 0x40 MLOAD PUSH2 0x2B12 CODESIZE SUB DUP1 PUSH2 0x2B12 DUP4 CODECOPY DUP2 DUP2 ADD PUSH1 0x40 MSTORE DUP2 ADD SWAP1 PUSH2 0x31 SWAP2 SWAP1 PUSH2 0x460 JUMP JUMPDEST PUSH2 0x4D PUSH2 0x42 PUSH2 0xE3 PUSH1 0x20 SHL PUSH1 0x20 SHR JUMP JUMPDEST PUSH2 0xEA PUSH1 0x20 SHL PUSH1 0x20 SHR JUMP JUMPDEST DUP2 PUSH1 0x3 PUSH0 PUSH2 0x100 EXP DUP2 SLOAD DUP2 PUSH20 0xFFFFFFFFFFFFFFFFFFFFFFFFFFFFFFFFFFFFFFFF MUL NOT AND SWAP1 DUP4 PUSH20 0xFFFFFFFFFFFFFFFFFFFFFFFFFFFFFFFFFFFFFFFF AND MUL OR SWAP1 SSTORE POP PUSH2 0xAC PUSH0 DUP1 SHL PUSH2 0xA1 PUSH2 0xE3 PUSH1 0x20 SHL PUSH1 0x20 SHR JUMP JUMPDEST PUSH2 0x1AD PUSH1 0x20 SHL PUSH1 0x20 SHR JUMP JUMPDEST PUSH2 0xDC PUSH32 0xE2F4EAAE4A9751E85A3E4A7B9587827A877F29914755229B07A7B2DA98285F70 DUP3 PUSH2 0x1AD PUSH1 0x20 SHL PUSH1 0x20 SHR JUMP JUMPDEST POP POP PUSH2 0x49E JUMP JUMPDEST PUSH0 CALLER SWAP1 POP SWAP1 JUMP JUMPDEST PUSH0 PUSH1 0x2 PUSH0 SWAP1 SLOAD SWAP1 PUSH2 0x100 EXP SWAP1 DIV PUSH20 0xFFFFFFFFFFFFFFFFFFFFFFFFFFFFFFFFFFFFFFFF AND SWAP1 POP DUP2 PUSH1 0x2 PUSH0 PUSH2 0x100 EXP DUP2 SLOAD DUP2 PUSH20 0xFFFFFFFFFFFFFFFFFFFFFFFFFFFFFFFFFFFFFFFF MUL NOT AND SWAP1 DUP4 PUSH20 0xFFFFFFFFFFFFFFFFFFFFFFFFFFFFFFFFFFFFFFFF AND MUL OR SWAP1 SSTORE POP DUP2 PUSH20 0xFFFFFFFFFFFFFFFFFFFFFFFFFFFFFFFFFFFFFFFF AND DUP2 PUSH20 0xFFFFFFFFFFFFFFFFFFFFFFFFFFFFFFFFFFFFFFFF AND PUSH32 0x8BE0079C531659141344CD1FD0A4F28419497F9722A3DAAFE3B4186F6B6457E0 PUSH1 0x40 MLOAD PUSH1 0x40 MLOAD DUP1 SWAP2 SUB SWAP1 LOG3 POP POP JUMP JUMPDEST PUSH2 0x1BD DUP3 DUP3 PUSH2 0x1C1 PUSH1 0x20 SHL PUSH1 0x20 SHR JUMP JUMPDEST POP POP JUMP JUMPDEST PUSH2 0x1D1 DUP3 DUP3 PUSH2 0x1F9 PUSH1 0x20 SHL PUSH1 0x20 SHR JUMP JUMPDEST PUSH2 0x1F4 DUP2 PUSH1 0x1 PUSH0 DUP6 DUP2 MSTORE PUSH1 0x20 ADD SWAP1 DUP2 MSTORE PUSH1 0x20 ADD PUSH0 KECCAK256 PUSH2 0x2DF PUSH1 0x20 SHL SWAP1 SWAP2 SWAP1 PUSH1 0x20 SHR JUMP JUMPDEST POP POP POP JUMP JUMPDEST PUSH2 0x209 DUP3 DUP3 PUSH2 0x312 PUSH1 0x20 SHL PUSH1 0x20 SHR JUMP JUMPDEST PUSH2 0x2DB JUMPI PUSH1 0x1 PUSH0 DUP1 DUP5 DUP2 MSTORE PUSH1 0x20 ADD SWAP1 DUP2 MSTORE PUSH1 0x20 ADD PUSH0 KECCAK256 PUSH0 ADD PUSH0 DUP4 PUSH20 0xFFFFFFFFFFFFFFFFFFFFFFFFFFFFFFFFFFFFFFFF AND PUSH20 0xFFFFFFFFFFFFFFFFFFFFFFFFFFFFFFFFFFFFFFFF AND DUP2 MSTORE PUSH1 0x20 ADD SWAP1 DUP2 MSTORE PUSH1 0x20 ADD PUSH0 KECCAK256 PUSH0 PUSH2 0x100 EXP DUP2 SLOAD DUP2 PUSH1 0xFF MUL NOT AND SWAP1 DUP4 ISZERO ISZERO MUL OR SWAP1 SSTORE POP PUSH2 0x280 PUSH2 0xE3 PUSH1 0x20 SHL PUSH1 0x20 SHR JUMP JUMPDEST PUSH20 0xFFFFFFFFFFFFFFFFFFFFFFFFFFFFFFFFFFFFFFFF AND DUP2 PUSH20 0xFFFFFFFFFFFFFFFFFFFFFFFFFFFFFFFFFFFFFFFF AND DUP4 PUSH32 0x2F8788117E7EFF1D82E926EC794901D17C78024A50270940304540A733656F0D PUSH1 0x40 MLOAD PUSH1 0x40 MLOAD DUP1 SWAP2 SUB SWAP1 LOG4 JUMPDEST POP POP JUMP JUMPDEST PUSH0 PUSH2 0x30A DUP4 PUSH0 ADD DUP4 PUSH20 0xFFFFFFFFFFFFFFFFFFFFFFFFFFFFFFFFFFFFFFFF AND PUSH0 SHL PUSH2 0x375 PUSH1 0x20 SHL PUSH1 0x20 SHR JUMP JUMPDEST SWAP1 POP SWAP3 SWAP2 POP POP JUMP JUMPDEST PUSH0 DUP1 PUSH0 DUP5 DUP2 MSTORE PUSH1 0x20 ADD SWAP1 DUP2 MSTORE PUSH1 0x20 ADD PUSH0 KECCAK256 PUSH0 ADD PUSH0 DUP4 PUSH20 0xFFFFFFFFFFFFFFFFFFFFFFFFFFFFFFFFFFFFFFFF AND PUSH20 0xFFFFFFFFFFFFFFFFFFFFFFFFFFFFFFFFFFFFFFFF AND DUP2 MSTORE PUSH1 0x20 ADD SWAP1 DUP2 MSTORE PUSH1 0x20 ADD PUSH0 KECCAK256 PUSH0 SWAP1 SLOAD SWAP1 PUSH2 0x100 EXP SWAP1 DIV PUSH1 0xFF AND SWAP1 POP SWAP3 SWAP2 POP POP JUMP JUMPDEST PUSH0 PUSH2 0x386 DUP4 DUP4 PUSH2 0x3E2 PUSH1 0x20 SHL PUSH1 0x20 SHR JUMP JUMPDEST PUSH2 0x3D8 JUMPI DUP3 PUSH0 ADD DUP3 SWAP1 DUP1 PUSH1 0x1 DUP2 SLOAD ADD DUP1 DUP3 SSTORE DUP1 SWAP2 POP POP PUSH1 0x1 SWAP1 SUB SWAP1 PUSH0 MSTORE PUSH1 0x20 PUSH0 KECCAK256 ADD PUSH0 SWAP1 SWAP2 SWAP1 SWAP2 SWAP1 SWAP2 POP SSTORE DUP3 PUSH0 ADD DUP1 SLOAD SWAP1 POP DUP4 PUSH1 0x1 ADD PUSH0 DUP5 DUP2 MSTORE PUSH1 0x20 ADD SWAP1 DUP2 MSTORE PUSH1 0x20 ADD PUSH0 KECCAK256 DUP2 SWAP1 SSTORE POP PUSH1 0x1 SWAP1 POP PUSH2 0x3DC JUMP JUMPDEST PUSH0 SWAP1 POP JUMPDEST SWAP3 SWAP2 POP POP JUMP JUMPDEST PUSH0 DUP1 DUP4 PUSH1 0x1 ADD PUSH0 DUP5 DUP2 MSTORE PUSH1 0x20 ADD SWAP1 DUP2 MSTORE PUSH1 0x20 ADD PUSH0 KECCAK256 SLOAD EQ ISZERO SWAP1 POP SWAP3 SWAP2 POP POP JUMP JUMPDEST PUSH0 DUP1 REVERT JUMPDEST PUSH0 PUSH20 0xFFFFFFFFFFFFFFFFFFFFFFFFFFFFFFFFFFFFFFFF DUP3 AND SWAP1 POP SWAP2 SWAP1 POP JUMP JUMPDEST PUSH0 PUSH2 0x42F DUP3 PUSH2 0x406 JUMP JUMPDEST SWAP1 POP SWAP2 SWAP1 POP JUMP JUMPDEST PUSH2 0x43F DUP2 PUSH2 0x425 JUMP JUMPDEST DUP2 EQ PUSH2 0x449 JUMPI PUSH0 DUP1 REVERT JUMPDEST POP JUMP JUMPDEST PUSH0 DUP2 MLOAD SWAP1 POP PUSH2 0x45A DUP2 PUSH2 0x436 JUMP JUMPDEST SWAP3 SWAP2 POP POP JUMP JUMPDEST PUSH0 DUP1 PUSH1 0x40 DUP4 DUP6 SUB SLT ISZERO PUSH2 0x476 JUMPI PUSH2 0x475 PUSH2 0x402 JUMP JUMPDEST JUMPDEST PUSH0 PUSH2 0x483 DUP6 DUP3 DUP7 ADD PUSH2 0x44C JUMP JUMPDEST SWAP3 POP POP PUSH1 0x20 PUSH2 0x494 DUP6 DUP3 DUP7 ADD PUSH2 0x44C JUMP JUMPDEST SWAP2 POP POP SWAP3 POP SWAP3 SWAP1 POP JUMP JUMPDEST PUSH2 0x2667 DUP1 PUSH2 0x4AB PUSH0 CODECOPY PUSH0 RETURN INVALID PUSH1 0x80 PUSH1 0x40 MSTORE CALLVALUE DUP1 ISZERO PUSH2 0xF JUMPI PUSH0 DUP1 REVERT JUMPDEST POP PUSH1 0x4 CALLDATASIZE LT PUSH2 0x114 JUMPI PUSH0 CALLDATALOAD PUSH1 0xE0 SHR DUP1 PUSH4 0x9010D07C GT PUSH2 0xA0 JUMPI DUP1 PUSH4 0xB6B55F25 GT PUSH2 0x6F JUMPI DUP1 PUSH4 0xB6B55F25 EQ PUSH2 0x2C8 JUMPI DUP1 PUSH4 0xCA15C873 EQ PUSH2 0x2E4 JUMPI DUP1 PUSH4 0xD547741F EQ PUSH2 0x314 JUMPI DUP1 PUSH4 0xF2FDE38B EQ PUSH2 0x330 JUMPI DUP1 PUSH4 0xFC0C546A EQ PUSH2 0x34C JUMPI PUSH2 0x114 JUMP JUMPDEST DUP1 PUSH4 0x9010D07C EQ PUSH2 0x22C JUMPI DUP1 PUSH4 0x91D14854 EQ PUSH2 0x25C JUMPI DUP1 PUSH4 0xA1EBF35D EQ PUSH2 0x28C JUMPI DUP1 PUSH4 0xA217FDDF EQ PUSH2 0x2AA JUMPI PUSH2 0x114 JUMP JUMPDEST DUP1 PUSH4 0x36568ABE GT PUSH2 0xE7 JUMPI DUP1 PUSH4 0x36568ABE EQ PUSH2 0x1B0 JUMPI DUP1 PUSH4 0x715018A6 EQ PUSH2 0x1CC JUMPI DUP1 PUSH4 0x744FB6CA EQ PUSH2 0x1D6 JUMPI DUP1 PUSH4 0x8980F11F EQ PUSH2 0x1F2 JUMPI DUP1 PUSH4 0x8DA5CB5B EQ PUSH2 0x20E JUMPI PUSH2 0x114 JUMP JUMPDEST DUP1 PUSH4 0x1FFC9A7 EQ PUSH2 0x118 JUMPI DUP1 PUSH4 0x248A9CA3 EQ PUSH2 0x148 JUMPI DUP1 PUSH4 0x26A4E8D2 EQ PUSH2 0x178 JUMPI DUP1 PUSH4 0x2F2FF15D EQ PUSH2 0x194 JUMPI JUMPDEST PUSH0 DUP1 REVERT JUMPDEST PUSH2 0x132 PUSH1 0x4 DUP1 CALLDATASIZE SUB DUP2 ADD SWAP1 PUSH2 0x12D SWAP2 SWAP1 PUSH2 0x1810 JUMP JUMPDEST PUSH2 0x36A JUMP JUMPDEST PUSH1 0x40 MLOAD PUSH2 0x13F SWAP2 SWAP1 PUSH2 0x1855 JUMP JUMPDEST PUSH1 0x40 MLOAD DUP1 SWAP2 SUB SWAP1 RETURN JUMPDEST PUSH2 0x162 PUSH1 0x4 DUP1 CALLDATASIZE SUB DUP2 ADD SWAP1 PUSH2 0x15D SWAP2 SWAP1 PUSH2 0x18A1 JUMP JUMPDEST PUSH2 0x3E3 JUMP JUMPDEST PUSH1 0x40 MLOAD PUSH2 0x16F SWAP2 SWAP1 PUSH2 0x18DB JUMP JUMPDEST PUSH1 0x40 MLOAD DUP1 SWAP2 SUB SWAP1 RETURN JUMPDEST PUSH2 0x192 PUSH1 0x4 DUP1 CALLDATASIZE SUB DUP2 ADD SWAP1 PUSH2 0x18D SWAP2 SWAP1 PUSH2 0x194E JUMP JUMPDEST PUSH2 0x3FF JUMP JUMPDEST STOP JUMPDEST PUSH2 0x1AE PUSH1 0x4 DUP1 CALLDATASIZE SUB DUP2 ADD SWAP1 PUSH2 0x1A9 SWAP2 SWAP1 PUSH2 0x1979 JUMP JUMPDEST PUSH2 0x44A JUMP JUMPDEST STOP JUMPDEST PUSH2 0x1CA PUSH1 0x4 DUP1 CALLDATASIZE SUB DUP2 ADD SWAP1 PUSH2 0x1C5 SWAP2 SWAP1 PUSH2 0x1979 JUMP JUMPDEST PUSH2 0x46B JUMP JUMPDEST STOP JUMPDEST PUSH2 0x1D4 PUSH2 0x4EE JUMP JUMPDEST STOP JUMPDEST PUSH2 0x1F0 PUSH1 0x4 DUP1 CALLDATASIZE SUB DUP2 ADD SWAP1 PUSH2 0x1EB SWAP2 SWAP1 PUSH2 0x1B26 JUMP JUMPDEST PUSH2 0x501 JUMP JUMPDEST STOP JUMPDEST PUSH2 0x20C PUSH1 0x4 DUP1 CALLDATASIZE SUB DUP2 ADD SWAP1 PUSH2 0x207 SWAP2 SWAP1 PUSH2 0x1B92 JUMP JUMPDEST PUSH2 0x685 JUMP JUMPDEST STOP JUMPDEST PUSH2 0x216 PUSH2 0x6FC JUMP JUMPDEST PUSH1 0x40 MLOAD PUSH2 0x223 SWAP2 SWAP1 PUSH2 0x1BDF JUMP JUMPDEST PUSH1 0x40 MLOAD DUP1 SWAP2 SUB SWAP1 RETURN JUMPDEST PUSH2 0x246 PUSH1 0x4 DUP1 CALLDATASIZE SUB DUP2 ADD SWAP1 PUSH2 0x241 SWAP2 SWAP1 PUSH2 0x1BF8 JUMP JUMPDEST PUSH2 0x724 JUMP JUMPDEST PUSH1 0x40 MLOAD PUSH2 0x253 SWAP2 SWAP1 PUSH2 0x1BDF JUMP JUMPDEST PUSH1 0x40 MLOAD DUP1 SWAP2 SUB SWAP1 RETURN JUMPDEST PUSH2 0x276 PUSH1 0x4 DUP1 CALLDATASIZE SUB DUP2 ADD SWAP1 PUSH2 0x271 SWAP2 SWAP1 PUSH2 0x1979 JUMP JUMPDEST PUSH2 0x750 JUMP JUMPDEST PUSH1 0x40 MLOAD PUSH2 0x283 SWAP2 SWAP1 PUSH2 0x1855 JUMP JUMPDEST PUSH1 0x40 MLOAD DUP1 SWAP2 SUB SWAP1 RETURN JUMPDEST PUSH2 0x294 PUSH2 0x7B3 JUMP JUMPDEST PUSH1 0x40 MLOAD PUSH2 0x2A1 SWAP2 SWAP1 PUSH2 0x18DB JUMP JUMPDEST PUSH1 0x40 MLOAD DUP1 SWAP2 SUB SWAP1 RETURN JUMPDEST PUSH2 0x2B2 PUSH2 0x7D7 JUMP JUMPDEST PUSH1 0x40 MLOAD PUSH2 0x2BF SWAP2 SWAP1 PUSH2 0x18DB JUMP JUMPDEST PUSH1 0x40 MLOAD DUP1 SWAP2 SUB SWAP1 RETURN JUMPDEST PUSH2 0x2E2 PUSH1 0x4 DUP1 CALLDATASIZE SUB DUP2 ADD SWAP1 PUSH2 0x2DD SWAP2 SWAP1 PUSH2 0x1C36 JUMP JUMPDEST PUSH2 0x7DD JUMP JUMPDEST STOP JUMPDEST PUSH2 0x2FE PUSH1 0x4 DUP1 CALLDATASIZE SUB DUP2 ADD SWAP1 PUSH2 0x2F9 SWAP2 SWAP1 PUSH2 0x18A1 JUMP JUMPDEST PUSH2 0x86C JUMP JUMPDEST PUSH1 0x40 MLOAD PUSH2 0x30B SWAP2 SWAP1 PUSH2 0x1C70 JUMP JUMPDEST PUSH1 0x40 MLOAD DUP1 SWAP2 SUB SWAP1 RETURN JUMPDEST PUSH2 0x32E PUSH1 0x4 DUP1 CALLDATASIZE SUB DUP2 ADD SWAP1 PUSH2 0x329 SWAP2 SWAP1 PUSH2 0x1979 JUMP JUMPDEST PUSH2 0x88D JUMP JUMPDEST STOP JUMPDEST PUSH2 0x34A PUSH1 0x4 DUP1 CALLDATASIZE SUB DUP2 ADD SWAP1 PUSH2 0x345 SWAP2 SWAP1 PUSH2 0x194E JUMP JUMPDEST PUSH2 0x8AE JUMP JUMPDEST STOP JUMPDEST PUSH2 0x354 PUSH2 0x930 JUMP JUMPDEST PUSH1 0x40 MLOAD PUSH2 0x361 SWAP2 SWAP1 PUSH2 0x1BDF JUMP JUMPDEST PUSH1 0x40 MLOAD DUP1 SWAP2 SUB SWAP1 RETURN JUMPDEST PUSH0 PUSH32 0x5A05180F00000000000000000000000000000000000000000000000000000000 PUSH28 0xFFFFFFFFFFFFFFFFFFFFFFFFFFFFFFFFFFFFFFFFFFFFFFFFFFFFFFFF NOT AND DUP3 PUSH28 0xFFFFFFFFFFFFFFFFFFFFFFFFFFFFFFFFFFFFFFFFFFFFFFFFFFFFFFFF NOT AND EQ DUP1 PUSH2 0x3DC JUMPI POP PUSH2 0x3DB DUP3 PUSH2 0x955 JUMP JUMPDEST JUMPDEST SWAP1 POP SWAP2 SWAP1 POP JUMP JUMPDEST PUSH0 DUP1 PUSH0 DUP4 DUP2 MSTORE PUSH1 0x20 ADD SWAP1 DUP2 MSTORE PUSH1 0x20 ADD PUSH0 KECCAK256 PUSH1 0x1 ADD SLOAD SWAP1 POP SWAP2 SWAP1 POP JUMP JUMPDEST PUSH2 0x407 PUSH2 0x9CE JUMP JUMPDEST DUP1 PUSH1 0x3 PUSH0 PUSH2 0x100 EXP DUP2 SLOAD DUP2 PUSH20 0xFFFFFFFFFFFFFFFFFFFFFFFFFFFFFFFFFFFFFFFF MUL NOT AND SWAP1 DUP4 PUSH20 0xFFFFFFFFFFFFFFFFFFFFFFFFFFFFFFFFFFFFFFFF AND MUL OR SWAP1 SSTORE POP POP JUMP JUMPDEST PUSH2 0x453 DUP3 PUSH2 0x3E3 JUMP JUMPDEST PUSH2 0x45C DUP2 PUSH2 0xA4C JUMP JUMPDEST PUSH2 0x466 DUP4 DUP4 PUSH2 0xA60 JUMP JUMPDEST POP POP POP JUMP JUMPDEST PUSH2 0x473 PUSH2 0xA92 JUMP JUMPDEST PUSH20 0xFFFFFFFFFFFFFFFFFFFFFFFFFFFFFFFFFFFFFFFF AND DUP2 PUSH20 0xFFFFFFFFFFFFFFFFFFFFFFFFFFFFFFFFFFFFFFFF AND EQ PUSH2 0x4E0 JUMPI PUSH1 0x40 MLOAD PUSH32 0x8C379A000000000000000000000000000000000000000000000000000000000 DUP2 MSTORE PUSH1 0x4 ADD PUSH2 0x4D7 SWAP1 PUSH2 0x1D09 JUMP JUMPDEST PUSH1 0x40 MLOAD DUP1 SWAP2 SUB SWAP1 REVERT JUMPDEST PUSH2 0x4EA DUP3 DUP3 PUSH2 0xA99 JUMP JUMPDEST POP POP JUMP JUMPDEST PUSH2 0x4F6 PUSH2 0x9CE JUMP JUMPDEST PUSH2 0x4FF PUSH0 PUSH2 0xACB JUMP JUMPDEST JUMP JUMPDEST PUSH1 0x4 DUP2 PUSH1 0x40 MLOAD PUSH2 0x511 SWAP2 SWAP1 PUSH2 0x1D79 JUMP JUMPDEST SWAP1 DUP2 MSTORE PUSH1 0x20 ADD PUSH1 0x40 MLOAD DUP1 SWAP2 SUB SWAP1 KECCAK256 PUSH0 SWAP1 SLOAD SWAP1 PUSH2 0x100 EXP SWAP1 DIV PUSH1 0xFF AND ISZERO PUSH2 0x56C JUMPI PUSH1 0x40 MLOAD PUSH32 0x8C379A000000000000000000000000000000000000000000000000000000000 DUP2 MSTORE PUSH1 0x4 ADD PUSH2 0x563 SWAP1 PUSH2 0x1DD9 JUMP JUMPDEST PUSH1 0x40 MLOAD DUP1 SWAP2 SUB SWAP1 REVERT JUMPDEST PUSH0 PUSH2 0x57D PUSH2 0x578 PUSH2 0xA92 JUMP JUMPDEST PUSH2 0xB8E JUMP JUMPDEST DUP5 DUP5 PUSH2 0x588 ADDRESS PUSH2 0xB8E JUMP JUMPDEST PUSH1 0x40 MLOAD PUSH1 0x20 ADD PUSH2 0x59B SWAP5 SWAP4 SWAP3 SWAP2 SWAP1 PUSH2 0x1E17 JUMP JUMPDEST PUSH1 0x40 MLOAD PUSH1 0x20 DUP2 DUP4 SUB SUB DUP2 MSTORE SWAP1 PUSH1 0x40 MSTORE DUP1 MLOAD SWAP1 PUSH1 0x20 ADD KECCAK256 SWAP1 POP PUSH2 0x5BD DUP2 DUP4 PUSH2 0xBAD JUMP JUMPDEST PUSH1 0x1 PUSH1 0x4 DUP4 PUSH1 0x40 MLOAD PUSH2 0x5CF SWAP2 SWAP1 PUSH2 0x1D79 JUMP JUMPDEST SWAP1 DUP2 MSTORE PUSH1 0x20 ADD PUSH1 0x40 MLOAD DUP1 SWAP2 SUB SWAP1 KECCAK256 PUSH0 PUSH2 0x100 EXP DUP2 SLOAD DUP2 PUSH1 0xFF MUL NOT AND SWAP1 DUP4 ISZERO ISZERO MUL OR SWAP1 SSTORE POP PUSH2 0x646 PUSH2 0x5FE PUSH2 0xA92 JUMP JUMPDEST DUP6 PUSH1 0x3 PUSH0 SWAP1 SLOAD SWAP1 PUSH2 0x100 EXP SWAP1 DIV PUSH20 0xFFFFFFFFFFFFFFFFFFFFFFFFFFFFFFFFFFFFFFFF AND PUSH20 0xFFFFFFFFFFFFFFFFFFFFFFFFFFFFFFFFFFFFFFFF AND PUSH2 0xC35 SWAP1 SWAP3 SWAP2 SWAP1 PUSH4 0xFFFFFFFF AND JUMP JUMPDEST PUSH32 0x56CA301A9219608C91E7BCEE90E083C19671D2CDCC96752C7AF291CEE5F9C8C8 DUP5 DUP5 PUSH1 0x40 MLOAD PUSH2 0x677 SWAP3 SWAP2 SWAP1 PUSH2 0x1E64 JUMP JUMPDEST PUSH1 0x40 MLOAD DUP1 SWAP2 SUB SWAP1 LOG1 POP POP POP POP JUMP JUMPDEST PUSH2 0x68D PUSH2 0x9CE JUMP JUMPDEST PUSH2 0x6BF PUSH2 0x698 PUSH2 0x6FC JUMP JUMPDEST DUP3 DUP5 PUSH20 0xFFFFFFFFFFFFFFFFFFFFFFFFFFFFFFFFFFFFFFFF AND PUSH2 0xC35 SWAP1 SWAP3 SWAP2 SWAP1 PUSH4 0xFFFFFFFF AND JUMP JUMPDEST PUSH32 0x55350610FE57096D8C0FFA30BEEDE987326BCCFCB0B4415804164D0DD50CE8B1 DUP3 DUP3 PUSH1 0x40 MLOAD PUSH2 0x6F0 SWAP3 SWAP2 SWAP1 PUSH2 0x1E8B JUMP JUMPDEST PUSH1 0x40 MLOAD DUP1 SWAP2 SUB SWAP1 LOG1 POP POP JUMP JUMPDEST PUSH0 PUSH1 0x2 PUSH0 SWAP1 SLOAD SWAP1 PUSH2 0x100 EXP SWAP1 DIV PUSH20 0xFFFFFFFFFFFFFFFFFFFFFFFFFFFFFFFFFFFFFFFF AND SWAP1 POP SWAP1 JUMP JUMPDEST PUSH0 PUSH2 0x748 DUP3 PUSH1 0x1 PUSH0 DUP7 DUP2 MSTORE PUSH1 0x20 ADD SWAP1 DUP2 MSTORE PUSH1 0x20 ADD PUSH0 KECCAK256 PUSH2 0xCBB SWAP1 SWAP2 SWAP1 PUSH4 0xFFFFFFFF AND JUMP JUMPDEST SWAP1 POP SWAP3 SWAP2 POP POP JUMP JUMPDEST PUSH0 DUP1 PUSH0 DUP5 DUP2 MSTORE PUSH1 0x20 ADD SWAP1 DUP2 MSTORE PUSH1 0x20 ADD PUSH0 KECCAK256 PUSH0 ADD PUSH0 DUP4 PUSH20 0xFFFFFFFFFFFFFFFFFFFFFFFFFFFFFFFFFFFFFFFF AND PUSH20 0xFFFFFFFFFFFFFFFFFFFFFFFFFFFFFFFFFFFFFFFF AND DUP2 MSTORE PUSH1 0x20 ADD SWAP1 DUP2 MSTORE PUSH1 0x20 ADD PUSH0 KECCAK256 PUSH0 SWAP1 SLOAD SWAP1 PUSH2 0x100 EXP SWAP1 DIV PUSH1 0xFF AND SWAP1 POP SWAP3 SWAP2 POP POP JUMP JUMPDEST PUSH32 0xE2F4EAAE4A9751E85A3E4A7B9587827A877F29914755229B07A7B2DA98285F70 DUP2 JUMP JUMPDEST PUSH0 DUP1 SHL DUP2 JUMP JUMPDEST PUSH2 0x832 PUSH2 0x7E8 PUSH2 0xA92 JUMP JUMPDEST ADDRESS DUP4 PUSH1 0x3 PUSH0 SWAP1 SLOAD SWAP1 PUSH2 0x100 EXP SWAP1 DIV PUSH20 0xFFFFFFFFFFFFFFFFFFFFFFFFFFFFFFFFFFFFFFFF AND PUSH20 0xFFFFFFFFFFFFFFFFFFFFFFFFFFFFFFFFFFFFFFFF AND PUSH2 0xCD2 SWAP1 SWAP4 SWAP3 SWAP2 SWAP1 PUSH4 0xFFFFFFFF AND JUMP JUMPDEST PUSH32 0x4D6CE1E535DBADE1C23DEFBA91E23B8F791CE5EDC0CC320257A2B364E4E38426 DUP2 PUSH1 0x40 MLOAD PUSH2 0x861 SWAP2 SWAP1 PUSH2 0x1C70 JUMP JUMPDEST PUSH1 0x40 MLOAD DUP1 SWAP2 SUB SWAP1 LOG1 POP JUMP JUMPDEST PUSH0 PUSH2 0x886 PUSH1 0x1 PUSH0 DUP5 DUP2 MSTORE PUSH1 0x20 ADD SWAP1 DUP2 MSTORE PUSH1 0x20 ADD PUSH0 KECCAK256 PUSH2 0xD5B JUMP JUMPDEST SWAP1 POP SWAP2 SWAP1 POP JUMP JUMPDEST PUSH2 0x896 DUP3 PUSH2 0x3E3 JUMP JUMPDEST PUSH2 0x89F DUP2 PUSH2 0xA4C JUMP JUMPDEST PUSH2 0x8A9 DUP4 DUP4 PUSH2 0xA99 JUMP JUMPDEST POP POP POP JUMP JUMPDEST PUSH2 0x8B6 PUSH2 0x9CE JUMP JUMPDEST PUSH0 PUSH20 0xFFFFFFFFFFFFFFFFFFFFFFFFFFFFFFFFFFFFFFFF AND DUP2 PUSH20 0xFFFFFFFFFFFFFFFFFFFFFFFFFFFFFFFFFFFFFFFF AND SUB PUSH2 0x924 JUMPI PUSH1 0x40 MLOAD PUSH32 0x8C379A000000000000000000000000000000000000000000000000000000000 DUP2 MSTORE PUSH1 0x4 ADD PUSH2 0x91B SWAP1 PUSH2 0x1F22 JUMP JUMPDEST PUSH1 0x40 MLOAD DUP1 SWAP2 SUB SWAP1 REVERT JUMPDEST PUSH2 0x92D DUP2 PUSH2 0xACB JUMP JUMPDEST POP JUMP JUMPDEST PUSH1 0x3 PUSH0 SWAP1 SLOAD SWAP1 PUSH2 0x100 EXP SWAP1 DIV PUSH20 0xFFFFFFFFFFFFFFFFFFFFFFFFFFFFFFFFFFFFFFFF AND DUP2 JUMP JUMPDEST PUSH0 PUSH32 0x7965DB0B00000000000000000000000000000000000000000000000000000000 PUSH28 0xFFFFFFFFFFFFFFFFFFFFFFFFFFFFFFFFFFFFFFFFFFFFFFFFFFFFFFFF NOT AND DUP3 PUSH28 0xFFFFFFFFFFFFFFFFFFFFFFFFFFFFFFFFFFFFFFFFFFFFFFFFFFFFFFFF NOT AND EQ DUP1 PUSH2 0x9C7 JUMPI POP PUSH2 0x9C6 DUP3 PUSH2 0xD6E JUMP JUMPDEST JUMPDEST SWAP1 POP SWAP2 SWAP1 POP JUMP JUMPDEST PUSH2 0x9D6 PUSH2 0xA92 JUMP JUMPDEST PUSH20 0xFFFFFFFFFFFFFFFFFFFFFFFFFFFFFFFFFFFFFFFF AND PUSH2 0x9F4 PUSH2 0x6FC JUMP JUMPDEST PUSH20 0xFFFFFFFFFFFFFFFFFFFFFFFFFFFFFFFFFFFFFFFF AND EQ PUSH2 0xA4A JUMPI PUSH1 0x40 MLOAD PUSH32 0x8C379A000000000000000000000000000000000000000000000000000000000 DUP2 MSTORE PUSH1 0x4 ADD PUSH2 0xA41 SWAP1 PUSH2 0x1F8A JUMP JUMPDEST PUSH1 0x40 MLOAD DUP1 SWAP2 SUB SWAP1 REVERT JUMPDEST JUMP JUMPDEST PUSH2 0xA5D DUP2 PUSH2 0xA58 PUSH2 0xA92 JUMP JUMPDEST PUSH2 0xDD7 JUMP JUMPDEST POP JUMP JUMPDEST PUSH2 0xA6A DUP3 DUP3 PUSH2 0xE73 JUMP JUMPDEST PUSH2 0xA8D DUP2 PUSH1 0x1 PUSH0 DUP6 DUP2 MSTORE PUSH1 0x20 ADD SWAP1 DUP2 MSTORE PUSH1 0x20 ADD PUSH0 KECCAK256 PUSH2 0xF4D SWAP1 SWAP2 SWAP1 PUSH4 0xFFFFFFFF AND JUMP JUMPDEST POP POP POP JUMP JUMPDEST PUSH0 CALLER SWAP1 POP SWAP1 JUMP JUMPDEST PUSH2 0xAA3 DUP3 DUP3 PUSH2 0xF7A JUMP JUMPDEST PUSH2 0xAC6 DUP2 PUSH1 0x1 PUSH0 DUP6 DUP2 MSTORE PUSH1 0x20 ADD SWAP1 DUP2 MSTORE PUSH1 0x20 ADD PUSH0 KECCAK256 PUSH2 0x1054 SWAP1 SWAP2 SWAP1 PUSH4 0xFFFFFFFF AND JUMP JUMPDEST POP POP POP JUMP JUMPDEST PUSH0 PUSH1 0x2 PUSH0 SWAP1 SLOAD SWAP1 PUSH2 0x100 EXP SWAP1 DIV PUSH20 0xFFFFFFFFFFFFFFFFFFFFFFFFFFFFFFFFFFFFFFFF AND SWAP1 POP DUP2 PUSH1 0x2 PUSH0 PUSH2 0x100 EXP DUP2 SLOAD DUP2 PUSH20 0xFFFFFFFFFFFFFFFFFFFFFFFFFFFFFFFFFFFFFFFF MUL NOT AND SWAP1 DUP4 PUSH20 0xFFFFFFFFFFFFFFFFFFFFFFFFFFFFFFFFFFFFFFFF AND MUL OR SWAP1 SSTORE POP DUP2 PUSH20 0xFFFFFFFFFFFFFFFFFFFFFFFFFFFFFFFFFFFFFFFF AND DUP2 PUSH20 0xFFFFFFFFFFFFFFFFFFFFFFFFFFFFFFFFFFFFFFFF AND PUSH32 0x8BE0079C531659141344CD1FD0A4F28419497F9722A3DAAFE3B4186F6B6457E0 PUSH1 0x40 MLOAD PUSH1 0x40 MLOAD DUP1 SWAP2 SUB SWAP1 LOG3 POP POP JUMP JUMPDEST PUSH0 DUP2 PUSH20 0xFFFFFFFFFFFFFFFFFFFFFFFFFFFFFFFFFFFFFFFF AND SWAP1 POP SWAP2 SWAP1 POP JUMP JUMPDEST PUSH0 PUSH2 0xBB7 DUP4 PUSH2 0x1081 JUMP JUMPDEST SWAP1 POP PUSH0 PUSH2 0xBC4 DUP3 DUP5 PUSH2 0x10B0 JUMP JUMPDEST SWAP1 POP PUSH2 0xBF0 PUSH32 0xE2F4EAAE4A9751E85A3E4A7B9587827A877F29914755229B07A7B2DA98285F70 DUP3 PUSH2 0x750 JUMP JUMPDEST PUSH2 0xC2F JUMPI PUSH1 0x40 MLOAD PUSH32 0x8C379A000000000000000000000000000000000000000000000000000000000 DUP2 MSTORE PUSH1 0x4 ADD PUSH2 0xC26 SWAP1 PUSH2 0x1FF2 JUMP JUMPDEST PUSH1 0x40 MLOAD DUP1 SWAP2 SUB SWAP1 REVERT JUMPDEST POP POP POP POP JUMP JUMPDEST PUSH2 0xCB6 DUP4 PUSH4 0xA9059CBB PUSH1 0xE0 SHL DUP5 DUP5 PUSH1 0x40 MLOAD PUSH1 0x24 ADD PUSH2 0xC54 SWAP3 SWAP2 SWAP1 PUSH2 0x1E8B JUMP JUMPDEST PUSH1 0x40 MLOAD PUSH1 0x20 DUP2 DUP4 SUB SUB DUP2 MSTORE SWAP1 PUSH1 0x40 MSTORE SWAP1 PUSH28 0xFFFFFFFFFFFFFFFFFFFFFFFFFFFFFFFFFFFFFFFFFFFFFFFFFFFFFFFF NOT AND PUSH1 0x20 DUP3 ADD DUP1 MLOAD PUSH28 0xFFFFFFFFFFFFFFFFFFFFFFFFFFFFFFFFFFFFFFFFFFFFFFFFFFFFFFFF DUP4 DUP2 DUP4 AND OR DUP4 MSTORE POP POP POP POP PUSH2 0x111A JUMP JUMPDEST POP POP POP JUMP JUMPDEST PUSH0 PUSH2 0xCC8 DUP4 PUSH0 ADD DUP4 PUSH2 0x11DF JUMP JUMPDEST PUSH0 SHR SWAP1 POP SWAP3 SWAP2 POP POP JUMP JUMPDEST PUSH2 0xD55 DUP5 PUSH4 0x23B872DD PUSH1 0xE0 SHL DUP6 DUP6 DUP6 PUSH1 0x40 MLOAD PUSH1 0x24 ADD PUSH2 0xCF3 SWAP4 SWAP3 SWAP2 SWAP1 PUSH2 0x2010 JUMP JUMPDEST PUSH1 0x40 MLOAD PUSH1 0x20 DUP2 DUP4 SUB SUB DUP2 MSTORE SWAP1 PUSH1 0x40 MSTORE SWAP1 PUSH28 0xFFFFFFFFFFFFFFFFFFFFFFFFFFFFFFFFFFFFFFFFFFFFFFFFFFFFFFFF NOT AND PUSH1 0x20 DUP3 ADD DUP1 MLOAD PUSH28 0xFFFFFFFFFFFFFFFFFFFFFFFFFFFFFFFFFFFFFFFFFFFFFFFFFFFFFFFF DUP4 DUP2 DUP4 AND OR DUP4 MSTORE POP POP POP POP PUSH2 0x111A JUMP JUMPDEST POP POP POP POP JUMP JUMPDEST PUSH0 PUSH2 0xD67 DUP3 PUSH0 ADD PUSH2 0x1206 JUMP JUMPDEST SWAP1 POP SWAP2 SWAP1 POP JUMP JUMPDEST PUSH0 PUSH32 0x1FFC9A700000000000000000000000000000000000000000000000000000000 PUSH28 0xFFFFFFFFFFFFFFFFFFFFFFFFFFFFFFFFFFFFFFFFFFFFFFFFFFFFFFFF NOT AND DUP3 PUSH28 0xFFFFFFFFFFFFFFFFFFFFFFFFFFFFFFFFFFFFFFFFFFFFFFFFFFFFFFFF NOT AND EQ SWAP1 POP SWAP2 SWAP1 POP JUMP JUMPDEST PUSH2 0xDE1 DUP3 DUP3 PUSH2 0x750 JUMP JUMPDEST PUSH2 0xE6F JUMPI PUSH2 0xE06 DUP2 PUSH20 0xFFFFFFFFFFFFFFFFFFFFFFFFFFFFFFFFFFFFFFFF AND PUSH1 0x14 PUSH2 0x1215 JUMP JUMPDEST PUSH2 0xE13 DUP4 PUSH0 SHR PUSH1 0x20 PUSH2 0x1215 JUMP JUMPDEST PUSH1 0x40 MLOAD PUSH1 0x20 ADD PUSH2 0xE24 SWAP3 SWAP2 SWAP1 PUSH2 0x211D JUMP JUMPDEST PUSH1 0x40 MLOAD PUSH1 0x20 DUP2 DUP4 SUB SUB DUP2 MSTORE SWAP1 PUSH1 0x40 MSTORE PUSH1 0x40 MLOAD PUSH32 0x8C379A000000000000000000000000000000000000000000000000000000000 DUP2 MSTORE PUSH1 0x4 ADD PUSH2 0xE66 SWAP2 SWAP1 PUSH2 0x218E JUMP JUMPDEST PUSH1 0x40 MLOAD DUP1 SWAP2 SUB SWAP1 REVERT JUMPDEST POP POP JUMP JUMPDEST PUSH2 0xE7D DUP3 DUP3 PUSH2 0x750 JUMP JUMPDEST PUSH2 0xF49 JUMPI PUSH1 0x1 PUSH0 DUP1 DUP5 DUP2 MSTORE PUSH1 0x20 ADD SWAP1 DUP2 MSTORE PUSH1 0x20 ADD PUSH0 KECCAK256 PUSH0 ADD PUSH0 DUP4 PUSH20 0xFFFFFFFFFFFFFFFFFFFFFFFFFFFFFFFFFFFFFFFF AND PUSH20 0xFFFFFFFFFFFFFFFFFFFFFFFFFFFFFFFFFFFFFFFF AND DUP2 MSTORE PUSH1 0x20 ADD SWAP1 DUP2 MSTORE PUSH1 0x20 ADD PUSH0 KECCAK256 PUSH0 PUSH2 0x100 EXP DUP2 SLOAD DUP2 PUSH1 0xFF MUL NOT AND SWAP1 DUP4 ISZERO ISZERO MUL OR SWAP1 SSTORE POP PUSH2 0xEEE PUSH2 0xA92 JUMP JUMPDEST PUSH20 0xFFFFFFFFFFFFFFFFFFFFFFFFFFFFFFFFFFFFFFFF AND DUP2 PUSH20 0xFFFFFFFFFFFFFFFFFFFFFFFFFFFFFFFFFFFFFFFF AND DUP4 PUSH32 0x2F8788117E7EFF1D82E926EC794901D17C78024A50270940304540A733656F0D PUSH1 0x40 MLOAD PUSH1 0x40 MLOAD DUP1 SWAP2 SUB SWAP1 LOG4 JUMPDEST POP POP JUMP JUMPDEST PUSH0 PUSH2 0xF72 DUP4 PUSH0 ADD DUP4 PUSH20 0xFFFFFFFFFFFFFFFFFFFFFFFFFFFFFFFFFFFFFFFF AND PUSH0 SHL PUSH2 0x144A JUMP JUMPDEST SWAP1 POP SWAP3 SWAP2 POP POP JUMP JUMPDEST PUSH2 0xF84 DUP3 DUP3 PUSH2 0x750 JUMP JUMPDEST ISZERO PUSH2 0x1050 JUMPI PUSH0 DUP1 PUSH0 DUP5 DUP2 MSTORE PUSH1 0x20 ADD SWAP1 DUP2 MSTORE PUSH1 0x20 ADD PUSH0 KECCAK256 PUSH0 ADD PUSH0 DUP4 PUSH20 0xFFFFFFFFFFFFFFFFFFFFFFFFFFFFFFFFFFFFFFFF AND PUSH20 0xFFFFFFFFFFFFFFFFFFFFFFFFFFFFFFFFFFFFFFFF AND DUP2 MSTORE PUSH1 0x20 ADD SWAP1 DUP2 MSTORE PUSH1 0x20 ADD PUSH0 KECCAK256 PUSH0 PUSH2 0x100 EXP DUP2 SLOAD DUP2 PUSH1 0xFF MUL NOT AND SWAP1 DUP4 ISZERO ISZERO MUL OR SWAP1 SSTORE POP PUSH2 0xFF5 PUSH2 0xA92 JUMP JUMPDEST PUSH20 0xFFFFFFFFFFFFFFFFFFFFFFFFFFFFFFFFFFFFFFFF AND DUP2 PUSH20 0xFFFFFFFFFFFFFFFFFFFFFFFFFFFFFFFFFFFFFFFF AND DUP4 PUSH32 0xF6391F5C32D9C69D2A47EA670B442974B53935D1EDC7FD64EB21E047A839171B PUSH1 0x40 MLOAD PUSH1 0x40 MLOAD DUP1 SWAP2 SUB SWAP1 LOG4 JUMPDEST POP POP JUMP JUMPDEST PUSH0 PUSH2 0x1079 DUP4 PUSH0 ADD DUP4 PUSH20 0xFFFFFFFFFFFFFFFFFFFFFFFFFFFFFFFFFFFFFFFF AND PUSH0 SHL PUSH2 0x14B1 JUMP JUMPDEST SWAP1 POP SWAP3 SWAP2 POP POP JUMP JUMPDEST PUSH0 DUP2 PUSH1 0x40 MLOAD PUSH1 0x20 ADD PUSH2 0x1093 SWAP2 SWAP1 PUSH2 0x2218 JUMP JUMPDEST PUSH1 0x40 MLOAD PUSH1 0x20 DUP2 DUP4 SUB SUB DUP2 MSTORE SWAP1 PUSH1 0x40 MSTORE DUP1 MLOAD SWAP1 PUSH1 0x20 ADD KECCAK256 SWAP1 POP SWAP2 SWAP1 POP JUMP JUMPDEST PUSH0 DUP1 PUSH0 DUP1 PUSH2 0x10BD DUP6 PUSH2 0x15AD JUMP JUMPDEST SWAP3 POP SWAP3 POP SWAP3 POP PUSH1 0x1 DUP7 DUP5 DUP5 DUP5 PUSH1 0x40 MLOAD PUSH0 DUP2 MSTORE PUSH1 0x20 ADD PUSH1 0x40 MSTORE PUSH1 0x40 MLOAD PUSH2 0x10E5 SWAP5 SWAP4 SWAP3 SWAP2 SWAP1 PUSH2 0x2258 JUMP JUMPDEST PUSH1 0x20 PUSH1 0x40 MLOAD PUSH1 0x20 DUP2 SUB SWAP1 DUP1 DUP5 SUB SWAP1 DUP6 GAS STATICCALL ISZERO DUP1 ISZERO PUSH2 0x1105 JUMPI RETURNDATASIZE PUSH0 DUP1 RETURNDATACOPY RETURNDATASIZE PUSH0 REVERT JUMPDEST POP POP POP PUSH1 0x20 PUSH1 0x40 MLOAD SUB MLOAD SWAP4 POP POP POP POP SWAP3 SWAP2 POP POP JUMP JUMPDEST PUSH0 PUSH2 0x117B DUP3 PUSH1 0x40 MLOAD DUP1 PUSH1 0x40 ADD PUSH1 0x40 MSTORE DUP1 PUSH1 0x20 DUP2 MSTORE PUSH1 0x20 ADD PUSH32 0x5361666545524332303A206C6F772D6C6576656C2063616C6C206661696C6564 DUP2 MSTORE POP DUP6 PUSH20 0xFFFFFFFFFFFFFFFFFFFFFFFFFFFFFFFFFFFFFFFF AND PUSH2 0x15DB SWAP1 SWAP3 SWAP2 SWAP1 PUSH4 0xFFFFFFFF AND JUMP JUMPDEST SWAP1 POP PUSH0 DUP2 MLOAD GT ISZERO PUSH2 0x11DA JUMPI DUP1 DUP1 PUSH1 0x20 ADD SWAP1 MLOAD DUP2 ADD SWAP1 PUSH2 0x119A SWAP2 SWAP1 PUSH2 0x22C5 JUMP JUMPDEST PUSH2 0x11D9 JUMPI PUSH1 0x40 MLOAD PUSH32 0x8C379A000000000000000000000000000000000000000000000000000000000 DUP2 MSTORE PUSH1 0x4 ADD PUSH2 0x11D0 SWAP1 PUSH2 0x2360 JUMP JUMPDEST PUSH1 0x40 MLOAD DUP1 SWAP2 SUB SWAP1 REVERT JUMPDEST JUMPDEST POP POP POP JUMP JUMPDEST PUSH0 DUP3 PUSH0 ADD DUP3 DUP2 SLOAD DUP2 LT PUSH2 0x11F5 JUMPI PUSH2 0x11F4 PUSH2 0x237E JUMP JUMPDEST JUMPDEST SWAP1 PUSH0 MSTORE PUSH1 0x20 PUSH0 KECCAK256 ADD SLOAD SWAP1 POP SWAP3 SWAP2 POP POP JUMP JUMPDEST PUSH0 DUP2 PUSH0 ADD DUP1 SLOAD SWAP1 POP SWAP1 POP SWAP2 SWAP1 POP JUMP JUMPDEST PUSH1 0x60 PUSH0 PUSH1 0x2 DUP4 PUSH1 0x2 PUSH2 0x1227 SWAP2 SWAP1 PUSH2 0x23D8 JUMP JUMPDEST PUSH2 0x1231 SWAP2 SWAP1 PUSH2 0x2419 JUMP JUMPDEST PUSH8 0xFFFFFFFFFFFFFFFF DUP2 GT ISZERO PUSH2 0x124A JUMPI PUSH2 0x1249 PUSH2 0x1A02 JUMP JUMPDEST JUMPDEST PUSH1 0x40 MLOAD SWAP1 DUP1 DUP3 MSTORE DUP1 PUSH1 0x1F ADD PUSH1 0x1F NOT AND PUSH1 0x20 ADD DUP3 ADD PUSH1 0x40 MSTORE DUP1 ISZERO PUSH2 0x127C JUMPI DUP2 PUSH1 0x20 ADD PUSH1 0x1 DUP3 MUL DUP1 CALLDATASIZE DUP4 CALLDATACOPY DUP1 DUP3 ADD SWAP2 POP POP SWAP1 POP JUMPDEST POP SWAP1 POP PUSH32 0x3000000000000000000000000000000000000000000000000000000000000000 DUP2 PUSH0 DUP2 MLOAD DUP2 LT PUSH2 0x12B3 JUMPI PUSH2 0x12B2 PUSH2 0x237E JUMP JUMPDEST JUMPDEST PUSH1 0x20 ADD ADD SWAP1 PUSH31 0xFFFFFFFFFFFFFFFFFFFFFFFFFFFFFFFFFFFFFFFFFFFFFFFFFFFFFFFFFFFFFF NOT AND SWAP1 DUP2 PUSH0 BYTE SWAP1 MSTORE8 POP PUSH32 0x7800000000000000000000000000000000000000000000000000000000000000 DUP2 PUSH1 0x1 DUP2 MLOAD DUP2 LT PUSH2 0x1316 JUMPI PUSH2 0x1315 PUSH2 0x237E JUMP JUMPDEST JUMPDEST PUSH1 0x20 ADD ADD SWAP1 PUSH31 0xFFFFFFFFFFFFFFFFFFFFFFFFFFFFFFFFFFFFFFFFFFFFFFFFFFFFFFFFFFFFFF NOT AND SWAP1 DUP2 PUSH0 BYTE SWAP1 MSTORE8 POP PUSH0 PUSH1 0x1 DUP5 PUSH1 0x2 PUSH2 0x1354 SWAP2 SWAP1 PUSH2 0x23D8 JUMP JUMPDEST PUSH2 0x135E SWAP2 SWAP1 PUSH2 0x2419 JUMP JUMPDEST SWAP1 POP JUMPDEST PUSH1 0x1 DUP2 GT ISZERO PUSH2 0x13FD JUMPI PUSH32 0x3031323334353637383961626364656600000000000000000000000000000000 PUSH1 0xF DUP7 AND PUSH1 0x10 DUP2 LT PUSH2 0x13A0 JUMPI PUSH2 0x139F PUSH2 0x237E JUMP JUMPDEST JUMPDEST BYTE PUSH1 0xF8 SHL DUP3 DUP3 DUP2 MLOAD DUP2 LT PUSH2 0x13B7 JUMPI PUSH2 0x13B6 PUSH2 0x237E JUMP JUMPDEST JUMPDEST PUSH1 0x20 ADD ADD SWAP1 PUSH31 0xFFFFFFFFFFFFFFFFFFFFFFFFFFFFFFFFFFFFFFFFFFFFFFFFFFFFFFFFFFFFFF NOT AND SWAP1 DUP2 PUSH0 BYTE SWAP1 MSTORE8 POP PUSH1 0x4 DUP6 SWAP1 SHR SWAP5 POP DUP1 PUSH2 0x13F6 SWAP1 PUSH2 0x244C JUMP JUMPDEST SWAP1 POP PUSH2 0x1361 JUMP JUMPDEST POP PUSH0 DUP5 EQ PUSH2 0x1440 JUMPI PUSH1 0x40 MLOAD PUSH32 0x8C379A000000000000000000000000000000000000000000000000000000000 DUP2 MSTORE PUSH1 0x4 ADD PUSH2 0x1437 SWAP1 PUSH2 0x24BD JUMP JUMPDEST PUSH1 0x40 MLOAD DUP1 SWAP2 SUB SWAP1 REVERT JUMPDEST DUP1 SWAP2 POP POP SWAP3 SWAP2 POP POP JUMP JUMPDEST PUSH0 PUSH2 0x1455 DUP4 DUP4 PUSH2 0x15F2 JUMP JUMPDEST PUSH2 0x14A7 JUMPI DUP3 PUSH0 ADD DUP3 SWAP1 DUP1 PUSH1 0x1 DUP2 SLOAD ADD DUP1 DUP3 SSTORE DUP1 SWAP2 POP POP PUSH1 0x1 SWAP1 SUB SWAP1 PUSH0 MSTORE PUSH1 0x20 PUSH0 KECCAK256 ADD PUSH0 SWAP1 SWAP2 SWAP1 SWAP2 SWAP1 SWAP2 POP SSTORE DUP3 PUSH0 ADD DUP1 SLOAD SWAP1 POP DUP4 PUSH1 0x1 ADD PUSH0 DUP5 DUP2 MSTORE PUSH1 0x20 ADD SWAP1 DUP2 MSTORE PUSH1 0x20 ADD PUSH0 KECCAK256 DUP2 SWAP1 SSTORE POP PUSH1 0x1 SWAP1 POP PUSH2 0x14AB JUMP JUMPDEST PUSH0 SWAP1 POP JUMPDEST SWAP3 SWAP2 POP POP JUMP JUMPDEST PUSH0 DUP1 DUP4 PUSH1 0x1 ADD PUSH0 DUP5 DUP2 MSTORE PUSH1 0x20 ADD SWAP1 DUP2 MSTORE PUSH1 0x20 ADD PUSH0 KECCAK256 SLOAD SWAP1 POP PUSH0 DUP2 EQ PUSH2 0x15A2 JUMPI PUSH0 PUSH1 0x1 DUP3 PUSH2 0x14DE SWAP2 SWAP1 PUSH2 0x24DB JUMP JUMPDEST SWAP1 POP PUSH0 PUSH1 0x1 DUP7 PUSH0 ADD DUP1 SLOAD SWAP1 POP PUSH2 0x14F4 SWAP2 SWAP1 PUSH2 0x24DB JUMP JUMPDEST SWAP1 POP DUP2 DUP2 EQ PUSH2 0x155A JUMPI PUSH0 DUP7 PUSH0 ADD DUP3 DUP2 SLOAD DUP2 LT PUSH2 0x1513 JUMPI PUSH2 0x1512 PUSH2 0x237E JUMP JUMPDEST JUMPDEST SWAP1 PUSH0 MSTORE PUSH1 0x20 PUSH0 KECCAK256 ADD SLOAD SWAP1 POP DUP1 DUP8 PUSH0 ADD DUP5 DUP2 SLOAD DUP2 LT PUSH2 0x1534 JUMPI PUSH2 0x1533 PUSH2 0x237E JUMP JUMPDEST JUMPDEST SWAP1 PUSH0 MSTORE PUSH1 0x20 PUSH0 KECCAK256 ADD DUP2 SWAP1 SSTORE POP DUP4 DUP8 PUSH1 0x1 ADD PUSH0 DUP4 DUP2 MSTORE PUSH1 0x20 ADD SWAP1 DUP2 MSTORE PUSH1 0x20 ADD PUSH0 KECCAK256 DUP2 SWAP1 SSTORE POP POP JUMPDEST DUP6 PUSH0 ADD DUP1 SLOAD DUP1 PUSH2 0x156D JUMPI PUSH2 0x156C PUSH2 0x250E JUMP JUMPDEST JUMPDEST PUSH1 0x1 SWAP1 SUB DUP2 DUP2 SWAP1 PUSH0 MSTORE PUSH1 0x20 PUSH0 KECCAK256 ADD PUSH0 SWAP1 SSTORE SWAP1 SSTORE DUP6 PUSH1 0x1 ADD PUSH0 DUP7 DUP2 MSTORE PUSH1 0x20 ADD SWAP1 DUP2 MSTORE PUSH1 0x20 ADD PUSH0 KECCAK256 PUSH0 SWAP1 SSTORE PUSH1 0x1 SWAP4 POP POP POP POP PUSH2 0x15A7 JUMP JUMPDEST PUSH0 SWAP2 POP POP JUMPDEST SWAP3 SWAP2 POP POP JUMP JUMPDEST PUSH0 DUP1 PUSH0 PUSH1 0x41 DUP5 MLOAD EQ PUSH2 0x15BD JUMPI PUSH0 DUP1 REVERT JUMPDEST PUSH1 0x20 DUP5 ADD MLOAD SWAP2 POP PUSH1 0x40 DUP5 ADD MLOAD SWAP1 POP PUSH1 0x60 DUP5 ADD MLOAD PUSH0 BYTE SWAP3 POP SWAP2 SWAP4 SWAP1 SWAP3 POP JUMP JUMPDEST PUSH1 0x60 PUSH2 0x15E9 DUP5 DUP5 PUSH0 DUP6 PUSH2 0x1612 JUMP JUMPDEST SWAP1 POP SWAP4 SWAP3 POP POP POP JUMP JUMPDEST PUSH0 DUP1 DUP4 PUSH1 0x1 ADD PUSH0 DUP5 DUP2 MSTORE PUSH1 0x20 ADD SWAP1 DUP2 MSTORE PUSH1 0x20 ADD PUSH0 KECCAK256 SLOAD EQ ISZERO SWAP1 POP SWAP3 SWAP2 POP POP JUMP JUMPDEST PUSH1 0x60 DUP3 SELFBALANCE LT ISZERO PUSH2 0x1657 JUMPI PUSH1 0x40 MLOAD PUSH32 0x8C379A000000000000000000000000000000000000000000000000000000000 DUP2 MSTORE PUSH1 0x4 ADD PUSH2 0x164E SWAP1 PUSH2 0x25AB JUMP JUMPDEST PUSH1 0x40 MLOAD DUP1 SWAP2 SUB SWAP1 REVERT JUMPDEST PUSH2 0x1660 DUP6 PUSH2 0x1722 JUMP JUMPDEST PUSH2 0x169F JUMPI PUSH1 0x40 MLOAD PUSH32 0x8C379A000000000000000000000000000000000000000000000000000000000 DUP2 MSTORE PUSH1 0x4 ADD PUSH2 0x1696 SWAP1 PUSH2 0x2613 JUMP JUMPDEST PUSH1 0x40 MLOAD DUP1 SWAP2 SUB SWAP1 REVERT JUMPDEST PUSH0 DUP1 DUP7 PUSH20 0xFFFFFFFFFFFFFFFFFFFFFFFFFFFFFFFFFFFFFFFF AND DUP6 DUP8 PUSH1 0x40 MLOAD PUSH2 0x16C7 SWAP2 SWAP1 PUSH2 0x1D79 JUMP JUMPDEST PUSH0 PUSH1 0x40 MLOAD DUP1 DUP4 SUB DUP2 DUP6 DUP8 GAS CALL SWAP3 POP POP POP RETURNDATASIZE DUP1 PUSH0 DUP2 EQ PUSH2 0x1701 JUMPI PUSH1 0x40 MLOAD SWAP2 POP PUSH1 0x1F NOT PUSH1 0x3F RETURNDATASIZE ADD AND DUP3 ADD PUSH1 0x40 MSTORE RETURNDATASIZE DUP3 MSTORE RETURNDATASIZE PUSH0 PUSH1 0x20 DUP5 ADD RETURNDATACOPY PUSH2 0x1706 JUMP JUMPDEST PUSH1 0x60 SWAP2 POP JUMPDEST POP SWAP2 POP SWAP2 POP PUSH2 0x1716 DUP3 DUP3 DUP7 PUSH2 0x1744 JUMP JUMPDEST SWAP3 POP POP POP SWAP5 SWAP4 POP POP POP POP JUMP JUMPDEST PUSH0 DUP1 DUP3 PUSH20 0xFFFFFFFFFFFFFFFFFFFFFFFFFFFFFFFFFFFFFFFF AND EXTCODESIZE GT SWAP1 POP SWAP2 SWAP1 POP JUMP JUMPDEST PUSH1 0x60 DUP4 ISZERO PUSH2 0x1754 JUMPI DUP3 SWAP1 POP PUSH2 0x17A3 JUMP JUMPDEST PUSH0 DUP4 MLOAD GT ISZERO PUSH2 0x1766 JUMPI DUP3 MLOAD DUP1 DUP5 PUSH1 0x20 ADD REVERT JUMPDEST DUP2 PUSH1 0x40 MLOAD PUSH32 0x8C379A000000000000000000000000000000000000000000000000000000000 DUP2 MSTORE PUSH1 0x4 ADD PUSH2 0x179A SWAP2 SWAP1 PUSH2 0x218E JUMP JUMPDEST PUSH1 0x40 MLOAD DUP1 SWAP2 SUB SWAP1 REVERT JUMPDEST SWAP4 SWAP3 POP POP POP JUMP JUMPDEST PUSH0 PUSH1 0x40 MLOAD SWAP1 POP SWAP1 JUMP JUMPDEST PUSH0 DUP1 REVERT JUMPDEST PUSH0 DUP1 REVERT JUMPDEST PUSH0 PUSH32 0xFFFFFFFF00000000000000000000000000000000000000000000000000000000 DUP3 AND SWAP1 POP SWAP2 SWAP1 POP JUMP JUMPDEST PUSH2 0x17EF DUP2 PUSH2 0x17BB JUMP JUMPDEST DUP2 EQ PUSH2 0x17F9 JUMPI PUSH0 DUP1 REVERT JUMPDEST POP JUMP JUMPDEST PUSH0 DUP2 CALLDATALOAD SWAP1 POP PUSH2 0x180A DUP2 PUSH2 0x17E6 JUMP JUMPDEST SWAP3 SWAP2 POP POP JUMP JUMPDEST PUSH0 PUSH1 0x20 DUP3 DUP5 SUB SLT ISZERO PUSH2 0x1825 JUMPI PUSH2 0x1824 PUSH2 0x17B3 JUMP JUMPDEST JUMPDEST PUSH0 PUSH2 0x1832 DUP5 DUP3 DUP6 ADD PUSH2 0x17FC JUMP JUMPDEST SWAP2 POP POP SWAP3 SWAP2 POP POP JUMP JUMPDEST PUSH0 DUP2 ISZERO ISZERO SWAP1 POP SWAP2 SWAP1 POP JUMP JUMPDEST PUSH2 0x184F DUP2 PUSH2 0x183B JUMP JUMPDEST DUP3 MSTORE POP POP JUMP JUMPDEST PUSH0 PUSH1 0x20 DUP3 ADD SWAP1 POP PUSH2 0x1868 PUSH0 DUP4 ADD DUP5 PUSH2 0x1846 JUMP JUMPDEST SWAP3 SWAP2 POP POP JUMP JUMPDEST PUSH0 DUP2 SWAP1 POP SWAP2 SWAP1 POP JUMP JUMPDEST PUSH2 0x1880 DUP2 PUSH2 0x186E JUMP JUMPDEST DUP2 EQ PUSH2 0x188A JUMPI PUSH0 DUP1 REVERT JUMPDEST POP JUMP JUMPDEST PUSH0 DUP2 CALLDATALOAD SWAP1 POP PUSH2 0x189B DUP2 PUSH2 0x1877 JUMP JUMPDEST SWAP3 SWAP2 POP POP JUMP JUMPDEST PUSH0 PUSH1 0x20 DUP3 DUP5 SUB SLT ISZERO PUSH2 0x18B6 JUMPI PUSH2 0x18B5 PUSH2 0x17B3 JUMP JUMPDEST JUMPDEST PUSH0 PUSH2 0x18C3 DUP5 DUP3 DUP6 ADD PUSH2 0x188D JUMP JUMPDEST SWAP2 POP POP SWAP3 SWAP2 POP POP JUMP JUMPDEST PUSH2 0x18D5 DUP2 PUSH2 0x186E JUMP JUMPDEST DUP3 MSTORE POP POP JUMP JUMPDEST PUSH0 PUSH1 0x20 DUP3 ADD SWAP1 POP PUSH2 0x18EE PUSH0 DUP4 ADD DUP5 PUSH2 0x18CC JUMP JUMPDEST SWAP3 SWAP2 POP POP JUMP JUMPDEST PUSH0 PUSH20 0xFFFFFFFFFFFFFFFFFFFFFFFFFFFFFFFFFFFFFFFF DUP3 AND SWAP1 POP SWAP2 SWAP1 POP JUMP JUMPDEST PUSH0 PUSH2 0x191D DUP3 PUSH2 0x18F4 JUMP JUMPDEST SWAP1 POP SWAP2 SWAP1 POP JUMP JUMPDEST PUSH2 0x192D DUP2 PUSH2 0x1913 JUMP JUMPDEST DUP2 EQ PUSH2 0x1937 JUMPI PUSH0 DUP1 REVERT JUMPDEST POP JUMP JUMPDEST PUSH0 DUP2 CALLDATALOAD SWAP1 POP PUSH2 0x1948 DUP2 PUSH2 0x1924 JUMP JUMPDEST SWAP3 SWAP2 POP POP JUMP JUMPDEST PUSH0 PUSH1 0x20 DUP3 DUP5 SUB SLT ISZERO PUSH2 0x1963 JUMPI PUSH2 0x1962 PUSH2 0x17B3 JUMP JUMPDEST JUMPDEST PUSH0 PUSH2 0x1970 DUP5 DUP3 DUP6 ADD PUSH2 0x193A JUMP JUMPDEST SWAP2 POP POP SWAP3 SWAP2 POP POP JUMP JUMPDEST PUSH0 DUP1 PUSH1 0x40 DUP4 DUP6 SUB SLT ISZERO PUSH2 0x198F JUMPI PUSH2 0x198E PUSH2 0x17B3 JUMP JUMPDEST JUMPDEST PUSH0 PUSH2 0x199C DUP6 DUP3 DUP7 ADD PUSH2 0x188D JUMP JUMPDEST SWAP3 POP POP PUSH1 0x20 PUSH2 0x19AD DUP6 DUP3 DUP7 ADD PUSH2 0x193A JUMP JUMPDEST SWAP2 POP POP SWAP3 POP SWAP3 SWAP1 POP JUMP JUMPDEST PUSH0 DUP2 SWAP1 POP SWAP2 SWAP1 POP JUMP JUMPDEST PUSH2 0x19C9 DUP2 PUSH2 0x19B7 JUMP JUMPDEST DUP2 EQ PUSH2 0x19D3 JUMPI PUSH0 DUP1 REVERT JUMPDEST POP JUMP JUMPDEST PUSH0 DUP2 CALLDATALOAD SWAP1 POP PUSH2 0x19E4 DUP2 PUSH2 0x19C0 JUMP JUMPDEST SWAP3 SWAP2 POP POP JUMP JUMPDEST PUSH0 DUP1 REVERT JUMPDEST PUSH0 DUP1 REVERT JUMPDEST PUSH0 PUSH1 0x1F NOT PUSH1 0x1F DUP4 ADD AND SWAP1 POP SWAP2 SWAP1 POP JUMP JUMPDEST PUSH32 0x4E487B7100000000000000000000000000000000000000000000000000000000 PUSH0 MSTORE PUSH1 0x41 PUSH1 0x4 MSTORE PUSH1 0x24 PUSH0 REVERT JUMPDEST PUSH2 0x1A38 DUP3 PUSH2 0x19F2 JUMP JUMPDEST DUP2 ADD DUP2 DUP2 LT PUSH8 0xFFFFFFFFFFFFFFFF DUP3 GT OR ISZERO PUSH2 0x1A57 JUMPI PUSH2 0x1A56 PUSH2 0x1A02 JUMP JUMPDEST JUMPDEST DUP1 PUSH1 0x40 MSTORE POP POP POP JUMP JUMPDEST PUSH0 PUSH2 0x1A69 PUSH2 0x17AA JUMP JUMPDEST SWAP1 POP PUSH2 0x1A75 DUP3 DUP3 PUSH2 0x1A2F JUMP JUMPDEST SWAP2 SWAP1 POP JUMP JUMPDEST PUSH0 PUSH8 0xFFFFFFFFFFFFFFFF DUP3 GT ISZERO PUSH2 0x1A94 JUMPI PUSH2 0x1A93 PUSH2 0x1A02 JUMP JUMPDEST JUMPDEST PUSH2 0x1A9D DUP3 PUSH2 0x19F2 JUMP JUMPDEST SWAP1 POP PUSH1 0x20 DUP2 ADD SWAP1 POP SWAP2 SWAP1 POP JUMP JUMPDEST DUP3 DUP2 DUP4 CALLDATACOPY PUSH0 DUP4 DUP4 ADD MSTORE POP POP POP JUMP JUMPDEST PUSH0 PUSH2 0x1ACA PUSH2 0x1AC5 DUP5 PUSH2 0x1A7A JUMP JUMPDEST PUSH2 0x1A60 JUMP JUMPDEST SWAP1 POP DUP3 DUP2 MSTORE PUSH1 0x20 DUP2 ADD DUP5 DUP5 DUP5 ADD GT ISZERO PUSH2 0x1AE6 JUMPI PUSH2 0x1AE5 PUSH2 0x19EE JUMP JUMPDEST JUMPDEST PUSH2 0x1AF1 DUP5 DUP3 DUP6 PUSH2 0x1AAA JUMP JUMPDEST POP SWAP4 SWAP3 POP POP POP JUMP JUMPDEST PUSH0 DUP3 PUSH1 0x1F DUP4 ADD SLT PUSH2 0x1B0D JUMPI PUSH2 0x1B0C PUSH2 0x19EA JUMP JUMPDEST JUMPDEST DUP2 CALLDATALOAD PUSH2 0x1B1D DUP5 DUP3 PUSH1 0x20 DUP7 ADD PUSH2 0x1AB8 JUMP JUMPDEST SWAP2 POP POP SWAP3 SWAP2 POP POP JUMP JUMPDEST PUSH0 DUP1 PUSH0 PUSH1 0x60 DUP5 DUP7 SUB SLT ISZERO PUSH2 0x1B3D JUMPI PUSH2 0x1B3C PUSH2 0x17B3 JUMP JUMPDEST JUMPDEST PUSH0 PUSH2 0x1B4A DUP7 DUP3 DUP8 ADD PUSH2 0x19D6 JUMP JUMPDEST SWAP4 POP POP PUSH1 0x20 PUSH2 0x1B5B DUP7 DUP3 DUP8 ADD PUSH2 0x19D6 JUMP JUMPDEST SWAP3 POP POP PUSH1 0x40 DUP5 ADD CALLDATALOAD PUSH8 0xFFFFFFFFFFFFFFFF DUP2 GT ISZERO PUSH2 0x1B7C JUMPI PUSH2 0x1B7B PUSH2 0x17B7 JUMP JUMPDEST JUMPDEST PUSH2 0x1B88 DUP7 DUP3 DUP8 ADD PUSH2 0x1AF9 JUMP JUMPDEST SWAP2 POP POP SWAP3 POP SWAP3 POP SWAP3 JUMP JUMPDEST PUSH0 DUP1 PUSH1 0x40 DUP4 DUP6 SUB SLT ISZERO PUSH2 0x1BA8 JUMPI PUSH2 0x1BA7 PUSH2 0x17B3 JUMP JUMPDEST JUMPDEST PUSH0 PUSH2 0x1BB5 DUP6 DUP3 DUP7 ADD PUSH2 0x193A JUMP JUMPDEST SWAP3 POP POP PUSH1 0x20 PUSH2 0x1BC6 DUP6 DUP3 DUP7 ADD PUSH2 0x19D6 JUMP JUMPDEST SWAP2 POP POP SWAP3 POP SWAP3 SWAP1 POP JUMP JUMPDEST PUSH2 0x1BD9 DUP2 PUSH2 0x1913 JUMP JUMPDEST DUP3 MSTORE POP POP JUMP JUMPDEST PUSH0 PUSH1 0x20 DUP3 ADD SWAP1 POP PUSH2 0x1BF2 PUSH0 DUP4 ADD DUP5 PUSH2 0x1BD0 JUMP JUMPDEST SWAP3 SWAP2 POP POP JUMP JUMPDEST PUSH0 DUP1 PUSH1 0x40 DUP4 DUP6 SUB SLT ISZERO PUSH2 0x1C0E JUMPI PUSH2 0x1C0D PUSH2 0x17B3 JUMP JUMPDEST JUMPDEST PUSH0 PUSH2 0x1C1B DUP6 DUP3 DUP7 ADD PUSH2 0x188D JUMP JUMPDEST SWAP3 POP POP PUSH1 0x20 PUSH2 0x1C2C DUP6 DUP3 DUP7 ADD PUSH2 0x19D6 JUMP JUMPDEST SWAP2 POP POP SWAP3 POP SWAP3 SWAP1 POP JUMP JUMPDEST PUSH0 PUSH1 0x20 DUP3 DUP5 SUB SLT ISZERO PUSH2 0x1C4B JUMPI PUSH2 0x1C4A PUSH2 0x17B3 JUMP JUMPDEST JUMPDEST PUSH0 PUSH2 0x1C58 DUP5 DUP3 DUP6 ADD PUSH2 0x19D6 JUMP JUMPDEST SWAP2 POP POP SWAP3 SWAP2 POP POP JUMP JUMPDEST PUSH2 0x1C6A DUP2 PUSH2 0x19B7 JUMP JUMPDEST DUP3 MSTORE POP POP JUMP JUMPDEST PUSH0 PUSH1 0x20 DUP3 ADD SWAP1 POP PUSH2 0x1C83 PUSH0 DUP4 ADD DUP5 PUSH2 0x1C61 JUMP JUMPDEST SWAP3 SWAP2 POP POP JUMP JUMPDEST PUSH0 DUP3 DUP3 MSTORE PUSH1 0x20 DUP3 ADD SWAP1 POP SWAP3 SWAP2 POP POP JUMP JUMPDEST PUSH32 0x416363657373436F6E74726F6C3A2063616E206F6E6C792072656E6F756E6365 PUSH0 DUP3 ADD MSTORE PUSH32 0x20726F6C657320666F722073656C660000000000000000000000000000000000 PUSH1 0x20 DUP3 ADD MSTORE POP JUMP JUMPDEST PUSH0 PUSH2 0x1CF3 PUSH1 0x2F DUP4 PUSH2 0x1C89 JUMP JUMPDEST SWAP2 POP PUSH2 0x1CFE DUP3 PUSH2 0x1C99 JUMP JUMPDEST PUSH1 0x40 DUP3 ADD SWAP1 POP SWAP2 SWAP1 POP JUMP JUMPDEST PUSH0 PUSH1 0x20 DUP3 ADD SWAP1 POP DUP2 DUP2 SUB PUSH0 DUP4 ADD MSTORE PUSH2 0x1D20 DUP2 PUSH2 0x1CE7 JUMP JUMPDEST SWAP1 POP SWAP2 SWAP1 POP JUMP JUMPDEST PUSH0 DUP2 MLOAD SWAP1 POP SWAP2 SWAP1 POP JUMP JUMPDEST PUSH0 DUP2 SWAP1 POP SWAP3 SWAP2 POP POP JUMP JUMPDEST DUP3 DUP2 DUP4 MCOPY PUSH0 DUP4 DUP4 ADD MSTORE POP POP POP JUMP JUMPDEST PUSH0 PUSH2 0x1D53 DUP3 PUSH2 0x1D27 JUMP JUMPDEST PUSH2 0x1D5D DUP2 DUP6 PUSH2 0x1D31 JUMP JUMPDEST SWAP4 POP PUSH2 0x1D6D DUP2 DUP6 PUSH1 0x20 DUP7 ADD PUSH2 0x1D3B JUMP JUMPDEST DUP1 DUP5 ADD SWAP2 POP POP SWAP3 SWAP2 POP POP JUMP JUMPDEST PUSH0 PUSH2 0x1D84 DUP3 DUP5 PUSH2 0x1D49 JUMP JUMPDEST SWAP2 POP DUP2 SWAP1 POP SWAP3 SWAP2 POP POP JUMP JUMPDEST PUSH32 0x7369676E617475726520616C726561647920636C61696D656400000000000000 PUSH0 DUP3 ADD MSTORE POP JUMP JUMPDEST PUSH0 PUSH2 0x1DC3 PUSH1 0x19 DUP4 PUSH2 0x1C89 JUMP JUMPDEST SWAP2 POP PUSH2 0x1DCE DUP3 PUSH2 0x1D8F JUMP JUMPDEST PUSH1 0x20 DUP3 ADD SWAP1 POP SWAP2 SWAP1 POP JUMP JUMPDEST PUSH0 PUSH1 0x20 DUP3 ADD SWAP1 POP DUP2 DUP2 SUB PUSH0 DUP4 ADD MSTORE PUSH2 0x1DF0 DUP2 PUSH2 0x1DB7 JUMP JUMPDEST SWAP1 POP SWAP2 SWAP1 POP JUMP JUMPDEST PUSH0 DUP2 SWAP1 POP SWAP2 SWAP1 POP JUMP JUMPDEST PUSH2 0x1E11 PUSH2 0x1E0C DUP3 PUSH2 0x19B7 JUMP JUMPDEST PUSH2 0x1DF7 JUMP JUMPDEST DUP3 MSTORE POP POP JUMP JUMPDEST PUSH0 PUSH2 0x1E22 DUP3 DUP8 PUSH2 0x1E00 JUMP JUMPDEST PUSH1 0x20 DUP3 ADD SWAP2 POP PUSH2 0x1E32 DUP3 DUP7 PUSH2 0x1E00 JUMP JUMPDEST PUSH1 0x20 DUP3 ADD SWAP2 POP PUSH2 0x1E42 DUP3 DUP6 PUSH2 0x1E00 JUMP JUMPDEST PUSH1 0x20 DUP3 ADD SWAP2 POP PUSH2 0x1E52 DUP3 DUP5 PUSH2 0x1E00 JUMP JUMPDEST PUSH1 0x20 DUP3 ADD SWAP2 POP DUP2 SWAP1 POP SWAP6 SWAP5 POP POP POP POP POP JUMP JUMPDEST PUSH0 PUSH1 0x40 DUP3 ADD SWAP1 POP PUSH2 0x1E77 PUSH0 DUP4 ADD DUP6 PUSH2 0x1C61 JUMP JUMPDEST PUSH2 0x1E84 PUSH1 0x20 DUP4 ADD DUP5 PUSH2 0x1C61 JUMP JUMPDEST SWAP4 SWAP3 POP POP POP JUMP JUMPDEST PUSH0 PUSH1 0x40 DUP3 ADD SWAP1 POP PUSH2 0x1E9E PUSH0 DUP4 ADD DUP6 PUSH2 0x1BD0 JUMP JUMPDEST PUSH2 0x1EAB PUSH1 0x20 DUP4 ADD DUP5 PUSH2 0x1C61 JUMP JUMPDEST SWAP4 SWAP3 POP POP POP JUMP JUMPDEST PUSH32 0x4F776E61626C653A206E6577206F776E657220697320746865207A65726F2061 PUSH0 DUP3 ADD MSTORE PUSH32 0x6464726573730000000000000000000000000000000000000000000000000000 PUSH1 0x20 DUP3 ADD MSTORE POP JUMP JUMPDEST PUSH0 PUSH2 0x1F0C PUSH1 0x26 DUP4 PUSH2 0x1C89 JUMP JUMPDEST SWAP2 POP PUSH2 0x1F17 DUP3 PUSH2 0x1EB2 JUMP JUMPDEST PUSH1 0x40 DUP3 ADD SWAP1 POP SWAP2 SWAP1 POP JUMP JUMPDEST PUSH0 PUSH1 0x20 DUP3 ADD SWAP1 POP DUP2 DUP2 SUB PUSH0 DUP4 ADD MSTORE PUSH2 0x1F39 DUP2 PUSH2 0x1F00 JUMP JUMPDEST SWAP1 POP SWAP2 SWAP1 POP JUMP JUMPDEST PUSH32 0x4F776E61626C653A2063616C6C6572206973206E6F7420746865206F776E6572 PUSH0 DUP3 ADD MSTORE POP JUMP JUMPDEST PUSH0 PUSH2 0x1F74 PUSH1 0x20 DUP4 PUSH2 0x1C89 JUMP JUMPDEST SWAP2 POP PUSH2 0x1F7F DUP3 PUSH2 0x1F40 JUMP JUMPDEST PUSH1 0x20 DUP3 ADD SWAP1 POP SWAP2 SWAP1 POP JUMP JUMPDEST PUSH0 PUSH1 0x20 DUP3 ADD SWAP1 POP DUP2 DUP2 SUB PUSH0 DUP4 ADD MSTORE PUSH2 0x1FA1 DUP2 PUSH2 0x1F68 JUMP JUMPDEST SWAP1 POP SWAP2 SWAP1 POP JUMP JUMPDEST PUSH32 0x6D757374206265207369676E6572000000000000000000000000000000000000 PUSH0 DUP3 ADD MSTORE POP JUMP JUMPDEST PUSH0 PUSH2 0x1FDC PUSH1 0xE DUP4 PUSH2 0x1C89 JUMP JUMPDEST SWAP2 POP PUSH2 0x1FE7 DUP3 PUSH2 0x1FA8 JUMP JUMPDEST PUSH1 0x20 DUP3 ADD SWAP1 POP SWAP2 SWAP1 POP JUMP JUMPDEST PUSH0 PUSH1 0x20 DUP3 ADD SWAP1 POP DUP2 DUP2 SUB PUSH0 DUP4 ADD MSTORE PUSH2 0x2009 DUP2 PUSH2 0x1FD0 JUMP JUMPDEST SWAP1 POP SWAP2 SWAP1 POP JUMP JUMPDEST PUSH0 PUSH1 0x60 DUP3 ADD SWAP1 POP PUSH2 0x2023 PUSH0 DUP4 ADD DUP7 PUSH2 0x1BD0 JUMP JUMPDEST PUSH2 0x2030 PUSH1 0x20 DUP4 ADD DUP6 PUSH2 0x1BD0 JUMP JUMPDEST PUSH2 0x203D PUSH1 0x40 DUP4 ADD DUP5 PUSH2 0x1C61 JUMP JUMPDEST SWAP5 SWAP4 POP POP POP POP JUMP JUMPDEST PUSH0 DUP2 SWAP1 POP SWAP3 SWAP2 POP POP JUMP JUMPDEST PUSH32 0x416363657373436F6E74726F6C3A206163636F756E7420000000000000000000 PUSH0 DUP3 ADD MSTORE POP JUMP JUMPDEST PUSH0 PUSH2 0x2083 PUSH1 0x17 DUP4 PUSH2 0x2045 JUMP JUMPDEST SWAP2 POP PUSH2 0x208E DUP3 PUSH2 0x204F JUMP JUMPDEST PUSH1 0x17 DUP3 ADD SWAP1 POP SWAP2 SWAP1 POP JUMP JUMPDEST PUSH0 DUP2 MLOAD SWAP1 POP SWAP2 SWAP1 POP JUMP JUMPDEST PUSH0 PUSH2 0x20AD DUP3 PUSH2 0x2099 JUMP JUMPDEST PUSH2 0x20B7 DUP2 DUP6 PUSH2 0x2045 JUMP JUMPDEST SWAP4 POP PUSH2 0x20C7 DUP2 DUP6 PUSH1 0x20 DUP7 ADD PUSH2 0x1D3B JUMP JUMPDEST DUP1 DUP5 ADD SWAP2 POP POP SWAP3 SWAP2 POP POP JUMP JUMPDEST PUSH32 0x206973206D697373696E6720726F6C6520000000000000000000000000000000 PUSH0 DUP3 ADD MSTORE POP JUMP JUMPDEST PUSH0 PUSH2 0x2107 PUSH1 0x11 DUP4 PUSH2 0x2045 JUMP JUMPDEST SWAP2 POP PUSH2 0x2112 DUP3 PUSH2 0x20D3 JUMP JUMPDEST PUSH1 0x11 DUP3 ADD SWAP1 POP SWAP2 SWAP1 POP JUMP JUMPDEST PUSH0 PUSH2 0x2127 DUP3 PUSH2 0x2077 JUMP JUMPDEST SWAP2 POP PUSH2 0x2133 DUP3 DUP6 PUSH2 0x20A3 JUMP JUMPDEST SWAP2 POP PUSH2 0x213E DUP3 PUSH2 0x20FB JUMP JUMPDEST SWAP2 POP PUSH2 0x214A DUP3 DUP5 PUSH2 0x20A3 JUMP JUMPDEST SWAP2 POP DUP2 SWAP1 POP SWAP4 SWAP3 POP POP POP JUMP JUMPDEST PUSH0 PUSH2 0x2160 DUP3 PUSH2 0x2099 JUMP JUMPDEST PUSH2 0x216A DUP2 DUP6 PUSH2 0x1C89 JUMP JUMPDEST SWAP4 POP PUSH2 0x217A DUP2 DUP6 PUSH1 0x20 DUP7 ADD PUSH2 0x1D3B JUMP JUMPDEST PUSH2 0x2183 DUP2 PUSH2 0x19F2 JUMP JUMPDEST DUP5 ADD SWAP2 POP POP SWAP3 SWAP2 POP POP JUMP JUMPDEST PUSH0 PUSH1 0x20 DUP3 ADD SWAP1 POP DUP2 DUP2 SUB PUSH0 DUP4 ADD MSTORE PUSH2 0x21A6 DUP2 DUP5 PUSH2 0x2156 JUMP JUMPDEST SWAP1 POP SWAP3 SWAP2 POP POP JUMP JUMPDEST PUSH32 0x19457468657265756D205369676E6564204D6573736167653A0A333200000000 PUSH0 DUP3 ADD MSTORE POP JUMP JUMPDEST PUSH0 PUSH2 0x21E2 PUSH1 0x1C DUP4 PUSH2 0x2045 JUMP JUMPDEST SWAP2 POP PUSH2 0x21ED DUP3 PUSH2 0x21AE JUMP JUMPDEST PUSH1 0x1C DUP3 ADD SWAP1 POP SWAP2 SWAP1 POP JUMP JUMPDEST PUSH0 DUP2 SWAP1 POP SWAP2 SWAP1 POP JUMP JUMPDEST PUSH2 0x2212 PUSH2 0x220D DUP3 PUSH2 0x186E JUMP JUMPDEST PUSH2 0x21F8 JUMP JUMPDEST DUP3 MSTORE POP POP JUMP JUMPDEST PUSH0 PUSH2 0x2222 DUP3 PUSH2 0x21D6 JUMP JUMPDEST SWAP2 POP PUSH2 0x222E DUP3 DUP5 PUSH2 0x2201 JUMP JUMPDEST PUSH1 0x20 DUP3 ADD SWAP2 POP DUP2 SWAP1 POP SWAP3 SWAP2 POP POP JUMP JUMPDEST PUSH0 PUSH1 0xFF DUP3 AND SWAP1 POP SWAP2 SWAP1 POP JUMP JUMPDEST PUSH2 0x2252 DUP2 PUSH2 0x223D JUMP JUMPDEST DUP3 MSTORE POP POP JUMP JUMPDEST PUSH0 PUSH1 0x80 DUP3 ADD SWAP1 POP PUSH2 0x226B PUSH0 DUP4 ADD DUP8 PUSH2 0x18CC JUMP JUMPDEST PUSH2 0x2278 PUSH1 0x20 DUP4 ADD DUP7 PUSH2 0x2249 JUMP JUMPDEST PUSH2 0x2285 PUSH1 0x40 DUP4 ADD DUP6 PUSH2 0x18CC JUMP JUMPDEST PUSH2 0x2292 PUSH1 0x60 DUP4 ADD DUP5 PUSH2 0x18CC JUMP JUMPDEST SWAP6 SWAP5 POP POP POP POP POP JUMP JUMPDEST PUSH2 0x22A4 DUP2 PUSH2 0x183B JUMP JUMPDEST DUP2 EQ PUSH2 0x22AE JUMPI PUSH0 DUP1 REVERT JUMPDEST POP JUMP JUMPDEST PUSH0 DUP2 MLOAD SWAP1 POP PUSH2 0x22BF DUP2 PUSH2 0x229B JUMP JUMPDEST SWAP3 SWAP2 POP POP JUMP JUMPDEST PUSH0 PUSH1 0x20 DUP3 DUP5 SUB SLT ISZERO PUSH2 0x22DA JUMPI PUSH2 0x22D9 PUSH2 0x17B3 JUMP JUMPDEST JUMPDEST PUSH0 PUSH2 0x22E7 DUP5 DUP3 DUP6 ADD PUSH2 0x22B1 JUMP JUMPDEST SWAP2 POP POP SWAP3 SWAP2 POP POP JUMP JUMPDEST PUSH32 0x5361666545524332303A204552433230206F7065726174696F6E20646964206E PUSH0 DUP3 ADD MSTORE PUSH32 0x6F74207375636365656400000000000000000000000000000000000000000000 PUSH1 0x20 DUP3 ADD MSTORE POP JUMP JUMPDEST PUSH0 PUSH2 0x234A PUSH1 0x2A DUP4 PUSH2 0x1C89 JUMP JUMPDEST SWAP2 POP PUSH2 0x2355 DUP3 PUSH2 0x22F0 JUMP JUMPDEST PUSH1 0x40 DUP3 ADD SWAP1 POP SWAP2 SWAP1 POP JUMP JUMPDEST PUSH0 PUSH1 0x20 DUP3 ADD SWAP1 POP DUP2 DUP2 SUB PUSH0 DUP4 ADD MSTORE PUSH2 0x2377 DUP2 PUSH2 0x233E JUMP JUMPDEST SWAP1 POP SWAP2 SWAP1 POP JUMP JUMPDEST PUSH32 0x4E487B7100000000000000000000000000000000000000000000000000000000 PUSH0 MSTORE PUSH1 0x32 PUSH1 0x4 MSTORE PUSH1 0x24 PUSH0 REVERT JUMPDEST PUSH32 0x4E487B7100000000000000000000000000000000000000000000000000000000 PUSH0 MSTORE PUSH1 0x11 PUSH1 0x4 MSTORE PUSH1 0x24 PUSH0 REVERT JUMPDEST PUSH0 PUSH2 0x23E2 DUP3 PUSH2 0x19B7 JUMP JUMPDEST SWAP2 POP PUSH2 0x23ED DUP4 PUSH2 0x19B7 JUMP JUMPDEST SWAP3 POP DUP3 DUP3 MUL PUSH2 0x23FB DUP2 PUSH2 0x19B7 JUMP JUMPDEST SWAP2 POP DUP3 DUP3 DIV DUP5 EQ DUP4 ISZERO OR PUSH2 0x2412 JUMPI PUSH2 0x2411 PUSH2 0x23AB JUMP JUMPDEST JUMPDEST POP SWAP3 SWAP2 POP POP JUMP JUMPDEST PUSH0 PUSH2 0x2423 DUP3 PUSH2 0x19B7 JUMP JUMPDEST SWAP2 POP PUSH2 0x242E DUP4 PUSH2 0x19B7 JUMP JUMPDEST SWAP3 POP DUP3 DUP3 ADD SWAP1 POP DUP1 DUP3 GT ISZERO PUSH2 0x2446 JUMPI PUSH2 0x2445 PUSH2 0x23AB JUMP JUMPDEST JUMPDEST SWAP3 SWAP2 POP POP JUMP JUMPDEST PUSH0 PUSH2 0x2456 DUP3 PUSH2 0x19B7 JUMP JUMPDEST SWAP2 POP PUSH0 DUP3 SUB PUSH2 0x2468 JUMPI PUSH2 0x2467 PUSH2 0x23AB JUMP JUMPDEST JUMPDEST PUSH1 0x1 DUP3 SUB SWAP1 POP SWAP2 SWAP1 POP JUMP JUMPDEST PUSH32 0x537472696E67733A20686578206C656E67746820696E73756666696369656E74 PUSH0 DUP3 ADD MSTORE POP JUMP JUMPDEST PUSH0 PUSH2 0x24A7 PUSH1 0x20 DUP4 PUSH2 0x1C89 JUMP JUMPDEST SWAP2 POP PUSH2 0x24B2 DUP3 PUSH2 0x2473 JUMP JUMPDEST PUSH1 0x20 DUP3 ADD SWAP1 POP SWAP2 SWAP1 POP JUMP JUMPDEST PUSH0 PUSH1 0x20 DUP3 ADD SWAP1 POP DUP2 DUP2 SUB PUSH0 DUP4 ADD MSTORE PUSH2 0x24D4 DUP2 PUSH2 0x249B JUMP JUMPDEST SWAP1 POP SWAP2 SWAP1 POP JUMP JUMPDEST PUSH0 PUSH2 0x24E5 DUP3 PUSH2 0x19B7 JUMP JUMPDEST SWAP2 POP PUSH2 0x24F0 DUP4 PUSH2 0x19B7 JUMP JUMPDEST SWAP3 POP DUP3 DUP3 SUB SWAP1 POP DUP2 DUP2 GT ISZERO PUSH2 0x2508 JUMPI PUSH2 0x2507 PUSH2 0x23AB JUMP JUMPDEST JUMPDEST SWAP3 SWAP2 POP POP JUMP JUMPDEST PUSH32 0x4E487B7100000000000000000000000000000000000000000000000000000000 PUSH0 MSTORE PUSH1 0x31 PUSH1 0x4 MSTORE PUSH1 0x24 PUSH0 REVERT JUMPDEST PUSH32 0x416464726573733A20696E73756666696369656E742062616C616E636520666F PUSH0 DUP3 ADD MSTORE PUSH32 0x722063616C6C0000000000000000000000000000000000000000000000000000 PUSH1 0x20 DUP3 ADD MSTORE POP JUMP JUMPDEST PUSH0 PUSH2 0x2595 PUSH1 0x26 DUP4 PUSH2 0x1C89 JUMP JUMPDEST SWAP2 POP PUSH2 0x25A0 DUP3 PUSH2 0x253B JUMP JUMPDEST PUSH1 0x40 DUP3 ADD SWAP1 POP SWAP2 SWAP1 POP JUMP JUMPDEST PUSH0 PUSH1 0x20 DUP3 ADD SWAP1 POP DUP2 DUP2 SUB PUSH0 DUP4 ADD MSTORE PUSH2 0x25C2 DUP2 PUSH2 0x2589 JUMP JUMPDEST SWAP1 POP SWAP2 SWAP1 POP JUMP JUMPDEST PUSH32 0x416464726573733A2063616C6C20746F206E6F6E2D636F6E7472616374000000 PUSH0 DUP3 ADD MSTORE POP JUMP JUMPDEST PUSH0 PUSH2 0x25FD PUSH1 0x1D DUP4 PUSH2 0x1C89 JUMP JUMPDEST SWAP2 POP PUSH2 0x2608 DUP3 PUSH2 0x25C9 JUMP JUMPDEST PUSH1 0x20 DUP3 ADD SWAP1 POP SWAP2 SWAP1 POP JUMP JUMPDEST PUSH0 PUSH1 0x20 DUP3 ADD SWAP1 POP DUP2 DUP2 SUB PUSH0 DUP4 ADD MSTORE PUSH2 0x262A DUP2 PUSH2 0x25F1 JUMP JUMPDEST SWAP1 POP SWAP2 SWAP1 POP JUMP INVALID LOG2 PUSH5 0x6970667358 0x22 SLT KECCAK256 CREATE DUP5 0xDA ORIGIN MLOAD BYTE SWAP8 PUSH1 0x74 SWAP12 0xCE 0xC PUSH3 0x136E1C 0xC JUMPI PUSH32 0xDFF868B003E9C32137479C08DB64736F6C634300081A00330000000000000000 "
				},
				"gasEstimates": {
					"creation": {
						"codeDepositCost": "1966200",
						"executionCost": "infinite",
						"totalCost": "infinite"
					},
					"external": {
						"DEFAULT_ADMIN_ROLE()": "419",
						"SIGNER_ROLE()": "392",
						"deposit(uint256)": "infinite",
						"getRoleAdmin(bytes32)": "infinite",
						"getRoleMember(bytes32,uint256)": "infinite",
						"getRoleMemberCount(bytes32)": "2915",
						"grantRole(bytes32,address)": "infinite",
						"hasRole(bytes32,address)": "3167",
						"owner()": "2626",
						"recoverERC20(address,uint256)": "infinite",
						"renounceOwnership()": "30435",
						"renounceRole(bytes32,address)": "infinite",
						"revokeRole(bytes32,address)": "infinite",
						"setTokenAddress(address)": "27044",
						"supportsInterface(bytes4)": "829",
						"token()": "2618",
						"transferOwnership(address)": "30819",
						"withdraw(uint256,uint256,bytes)": "infinite"
					},
					"internal": {
						"prefixed(bytes32)": "infinite",
						"recoverSigner(bytes32,bytes memory)": "infinite",
						"splitSignature(bytes memory)": "infinite",
						"toUint(address)": "33",
						"verifySigner(bytes32,bytes memory)": "infinite"
					}
				},
				"methodIdentifiers": {
					"DEFAULT_ADMIN_ROLE()": "a217fddf",
					"SIGNER_ROLE()": "a1ebf35d",
					"deposit(uint256)": "b6b55f25",
					"getRoleAdmin(bytes32)": "248a9ca3",
					"getRoleMember(bytes32,uint256)": "9010d07c",
					"getRoleMemberCount(bytes32)": "ca15c873",
					"grantRole(bytes32,address)": "2f2ff15d",
					"hasRole(bytes32,address)": "91d14854",
					"owner()": "8da5cb5b",
					"recoverERC20(address,uint256)": "8980f11f",
					"renounceOwnership()": "715018a6",
					"renounceRole(bytes32,address)": "36568abe",
					"revokeRole(bytes32,address)": "d547741f",
					"setTokenAddress(address)": "26a4e8d2",
					"supportsInterface(bytes4)": "01ffc9a7",
					"token()": "fc0c546a",
					"transferOwnership(address)": "f2fde38b",
					"withdraw(uint256,uint256,bytes)": "744fb6ca"
				}
			},
			"storageLayout": {
				"storage": [
					{
						"astId": 24,
						"contract": "Exchange.sol:Exchange",
						"label": "_roles",
						"offset": 0,
						"slot": "0",
						"type": "t_mapping(t_bytes32,t_struct(RoleData)19_storage)"
					},
					{
						"astId": 338,
						"contract": "Exchange.sol:Exchange",
						"label": "_roleMembers",
						"offset": 0,
						"slot": "1",
						"type": "t_mapping(t_bytes32,t_struct(AddressSet)1941_storage)"
					},
					{
						"astId": 550,
						"contract": "Exchange.sol:Exchange",
						"label": "_owner",
						"offset": 0,
						"slot": "2",
						"type": "t_address"
					},
					{
						"astId": 2248,
						"contract": "Exchange.sol:Exchange",
						"label": "token",
						"offset": 0,
						"slot": "3",
						"type": "t_address"
					},
					{
						"astId": 2252,
						"contract": "Exchange.sol:Exchange",
						"label": "claimedSignatures",
						"offset": 0,
						"slot": "4",
						"type": "t_mapping(t_bytes_memory_ptr,t_bool)"
					}
				],
				"types": {
					"t_address": {
						"encoding": "inplace",
						"label": "address",
						"numberOfBytes": "20"
					},
					"t_array(t_bytes32)dyn_storage": {
						"base": "t_bytes32",
						"encoding": "dynamic_array",
						"label": "bytes32[]",
						"numberOfBytes": "32"
					},
					"t_bool": {
						"encoding": "inplace",
						"label": "bool",
						"numberOfBytes": "1"
					},
					"t_bytes32": {
						"encoding": "inplace",
						"label": "bytes32",
						"numberOfBytes": "32"
					},
					"t_bytes_memory_ptr": {
						"encoding": "bytes",
						"label": "bytes",
						"numberOfBytes": "32"
					},
					"t_mapping(t_address,t_bool)": {
						"encoding": "mapping",
						"key": "t_address",
						"label": "mapping(address => bool)",
						"numberOfBytes": "32",
						"value": "t_bool"
					},
					"t_mapping(t_bytes32,t_struct(AddressSet)1941_storage)": {
						"encoding": "mapping",
						"key": "t_bytes32",
						"label": "mapping(bytes32 => struct EnumerableSet.AddressSet)",
						"numberOfBytes": "32",
						"value": "t_struct(AddressSet)1941_storage"
					},
					"t_mapping(t_bytes32,t_struct(RoleData)19_storage)": {
						"encoding": "mapping",
						"key": "t_bytes32",
						"label": "mapping(bytes32 => struct AccessControl.RoleData)",
						"numberOfBytes": "32",
						"value": "t_struct(RoleData)19_storage"
					},
					"t_mapping(t_bytes32,t_uint256)": {
						"encoding": "mapping",
						"key": "t_bytes32",
						"label": "mapping(bytes32 => uint256)",
						"numberOfBytes": "32",
						"value": "t_uint256"
					},
					"t_mapping(t_bytes_memory_ptr,t_bool)": {
						"encoding": "mapping",
						"key": "t_bytes_memory_ptr",
						"label": "mapping(bytes => bool)",
						"numberOfBytes": "32",
						"value": "t_bool"
					},
					"t_struct(AddressSet)1941_storage": {
						"encoding": "inplace",
						"label": "struct EnumerableSet.AddressSet",
						"members": [
							{
								"astId": 1940,
								"contract": "Exchange.sol:Exchange",
								"label": "_inner",
								"offset": 0,
								"slot": "0",
								"type": "t_struct(Set)1640_storage"
							}
						],
						"numberOfBytes": "64"
					},
					"t_struct(RoleData)19_storage": {
						"encoding": "inplace",
						"label": "struct AccessControl.RoleData",
						"members": [
							{
								"astId": 16,
								"contract": "Exchange.sol:Exchange",
								"label": "members",
								"offset": 0,
								"slot": "0",
								"type": "t_mapping(t_address,t_bool)"
							},
							{
								"astId": 18,
								"contract": "Exchange.sol:Exchange",
								"label": "adminRole",
								"offset": 0,
								"slot": "1",
								"type": "t_bytes32"
							}
						],
						"numberOfBytes": "64"
					},
					"t_struct(Set)1640_storage": {
						"encoding": "inplace",
						"label": "struct EnumerableSet.Set",
						"members": [
							{
								"astId": 1635,
								"contract": "Exchange.sol:Exchange",
								"label": "_values",
								"offset": 0,
								"slot": "0",
								"type": "t_array(t_bytes32)dyn_storage"
							},
							{
								"astId": 1639,
								"contract": "Exchange.sol:Exchange",
								"label": "_indexes",
								"offset": 0,
								"slot": "1",
								"type": "t_mapping(t_bytes32,t_uint256)"
							}
						],
						"numberOfBytes": "64"
					},
					"t_uint256": {
						"encoding": "inplace",
						"label": "uint256",
						"numberOfBytes": "32"
					}
				}
			},
			"userdoc": {
				"kind": "user",
				"methods": {},
				"version": 1
			}
		}
	}
}